:06000000029E76029ECA7A
:03000B0002F7EE0B
:0300130002D5FC17
:01001B0032B2
:0100230032AA
:03002B00029EC969
:0900330002F5DBAF80228F802270
:0300430002D12ABD
:03004B00028D52D1
:0300530002F1397E
:03005B0002F59D0E
:10006800747D22025B7B12EF1C22128CAC22127A66
:10007800472212F6612212F40D221297F322129DE2
:100088007F2212F7A122128EE02212F8732212F6B2
:10009800DB2212F80C2212F765221292F62212962F
:1000A800472212C4382212D4F42212CD902212F719
:1000B800E32212808822124AAB22126ACC2212EF63
:1000C800E92212E4E82212EBEB2212DECA2212E540
:1000D8002A2212ECE82212ED192212F3342212F32A
:1000E800F02212F4AF2212F4C82212E79E2212E87C
:1000F800C12212ED4A22128FBF2212F3B42212EF4C
:100108009922128DF52212E62D2212DE7822129EF5
:100118002222129E31221298892212743122127FD1
:10012800912212DBB82212F5132212F15C2212F787
:100138001722127B642212775A22129337221295C1
:100148005F221298E8221279242212518122122465
:10015800A92212F6972212F17F2212E56B2212F5DC
:100168005D2212E46222126D33221283BE2212F83B
:100178008E2212F86D2212F8912212F87D2212F8BE
:1001880060221292712212357822123C272212889C
:10019800492212F209221296EE22123E4C22125ADB
:1001A8006B22129B3D2212F24D2212DA922212F099
:1001B8001022125D99221297C022128E9322126881
:1001C800432212443A22127E1522127D912212EB0A
:1001D800842212738B221287E9221247A42212F674
:1001E8008522127E95221267612212C62A2212DE09
:1001F800252212C0EE2212D8CE22122ACC2212F8C0
:1002080092221232E52212ED7B221281002212B5CF
:100218005D22124C212212CFFE2212B9B82212609E
:10022800A32212492F2212DD7E2212EE3B22127FD8
:100238001422127237221286C0221295D32212502B
:10024800332212E27322128F752212EF47221256BE
:100258002122121D93221269222212C9102212C8C9
:10026800D42212F6152212F3542212E7DA2212EBE4
:10027800502212DD282212E6E82212E2BB22124D99
:100288008422120B2B22121187221212062212F834
:10029800902212788C2212F88222129A4422126535
:1002A80084221295992212F1152212EAE72212EC01
:1002B80084221288A42212EE0C221270272212E342
:1002C800D92212EA7C22126DF12212952522126B94
:1002D8009C2212F886221294EA2212F88F2212091E
:1002E800C322123040221282D72212996F22129111
:1002F800EB22120BA2221299C6221213DC22129EA2
:100308008E22129C1822126EAE22127BF122129CAF
:100318005422120C0922129EC422129858221294B6
:1003280035221279B722129AFA22129EAA2212981C
:10033800B92212E41E22128C062212DC76221296B0
:100348007F2212196A2212F6A922125FA422125CD5
:100358008B221239F8221237C8221277F32212217F
:100368005B2212F88922124EE1221214DA22128C30
:10037800FF2212761C221288FE2212911F22129E40
:10038800982212E303221270D922129ECB221299CC
:100398001622120A1C22127C7D22120A4722120AF5
:1003A8006E22129EBE22129472221252B522120F8F
:1003B8002B22128B0B2212629D221227D922129312
:1003C8007822126C682212460922128AB522125724
:1003D800362212972522128C59221269FA22127695
:1003E800BC22120F9D22120DA522128DA422128961
:1003F800AF2212639722127D0722128A0722124027
:1004080052221211492212040E2212041222120D33
:100418002722129AD822129A6C22129AB622120A0B
:10042800AA22127AD722129A1B2212112822129C6F
:100438003622129D6922129CDF22129EC522129E2C
:10044800C62212978D221212792212584A22129924
:1004580043221281EE22128BB32212667722129D5A
:02046800D1229F
:10046E0072E2865AF894F895800DBE729D256490BE
:10047E009BBD851390949E82F795922ED247EDAC3C
:10048E009E0387259759E34BE0ADE0FBF839904E7C
:10049E0000005EA38583550990DA8E4500008A5EC2
:1004AE009E5C91639B1CF6BAF05D9EC79EC12D8823
:1004BE00F2F39E139A929E4E9D3C9E4000000000C9
:1004CE002B00000337F980000001010003345000B7
:1004DE000334502624000000000001312D000131AC
:1004EE002D0000006040000060401A0A1A0A000049
:1004FE00C00300004C4B40FFC8C8003030050F044D
:10050E0018050F0418030F041F02880300029B0234
:10051E000004F2020001B20200010001000100001D
:10052E0000010001000100000002000200010003B2
:10053E00000000000000000000000109A02C4D008A
:10054E0000391D00003FD100003CB400003AB50058
:10055E0000395F0000371F000036B6000027F80094
:10056E0000267C000024EB00002388000026E80013
:10057E000026B8000003C0323502E95977026BF449
:10058E006601EC729001A3240C01758F450128BA07
:10059E009E011B5FBC0299DEEA0210EB81018818F6
:1005AE0001011594C500C916FA00BBAAFA2581F6F9
:1005BE00131D1D7EA618378C00133C79A2105F68A0
:1005CE00790E9798AE0B974A290B11BD5A1A02B5A0
:1005DE002514A9330F0F50F00E0AD7CFB307DAE563
:1005EE00C50754ADC5000000240000002500000022
:1005FE00260000002700000028000000290000004F
:10060E002A0000002B0000002C0000002D0000002E
:10061E002E0000002F000000300000003100050108
:10062E000300070104000801050008010600080187
:10063E000700080108000801090008010A00080265
:10064E00040008020500080206000802080009025C
:10065E00090009020A7E907DD097E09720A8C0A8D5
:10066E0020BDD8BD18CA80C9C0D2F0D250E100E07A
:10067E0080E3D0E35097E09720A8C0A820BDD8BD56
:10068E0018D2F0D250E100E080E3D0E3500C5A00D3
:10069E00010C6C00010A7800010C8700010C90001F
:1006AE00010A96000108A0000108A200010C6C00CE
:1006BE00010A7800010C8700010A96000108A000CB
:1006CE000108A20001000000000000000000000070
:1006DE00000000000000000000000000000000000C
:1006EE000000000000000000000010210A010000C0
:1006FE0000000000000000000000000000A000004C
:10070E000000000AAA0F0000000000010000000017
:10071E0000000000000000000000000100000000CA
:10072E0000000000000000000000000043920C00DA
:10073E00970600001207CE00000000000000000027
:02074E009ECC3F
:1009C3007F547E0012C8A6530BFE1202667F387E48
:1009D3000012C8A6530BFE120266E4F5F5128263F9
:1009E3007F017E0012041E1203161204367F0112C9
:1009F3000422E50FB4021775FD0975FE8275FF81A8
:100A030075FF0778A176027D047F011202EE7F1045
:100A130012F8157F2012F81522788FE620E21F7F47
:100A2300B47E3112C8A675FF8375FF038508FF8561
:100A330009FF78A176047D047F011202EE227F1262
:100A430012033222788FE620E21B75FF8375FF05C0
:100A530079A4E7F5FF09E7F5FF78A176047D047F24
:100A6300011202EE227F1212033222788FE620E275
:100A7300307F3C7E0012C8A675FF8A855CFF75FF38
:100A83000175FF0175FF02E4F5FF75FF1DF5FFF525
:100A9300FFF5FFF5FF78A1760B7D047F011202EECF
:100AA300227F1212033222788FE620E30678AAE629
:100AB30030E4067F8A1202FE227896E6D394404001
:100AC300067F821202FE22788FE65430700678A9E0
:100AD300E630E00512008680EE75FD09E4F5FE7848
:100AE30096E6F5FF08A6BAE6F5FF9007C9E5BAF062
:100AF300E0F5FF9007CAE5BAF0E0F5FF18E624FD3C
:100B0300F560E560600785BAFF156080F578A97424
:100B13000146F67896E67894F67BFF7A0379D678E1
:100B2300AB12A65F12030A2278A9E630E06B7FBC02
:100B33007E3012C8A6E50A547F7063129D53900756
:100B4300C9E09007C8F0750B557FB47E3012C8AE6C
:100B5300120266750B0D12026675FD0975FE0175AD
:100B63005C0485FF0B120266D55CF785FF0B789456
:100B7300E624FBF55D601114F55CE55C600A85FF16
:100B83000B120266155C80F2788F74EF56F65407E9
:100B9300700C78A974FE56F622E49007C8F022750B
:100BA300FD09E4F5FEF55D85FF5FF55C7894E55C92
:100BB300C396504F85FF5FE55C6003B4050F7F78F4
:100BC3007E3112C8A6750B031202668028E55CB459
:100BD3000308E55F2404F55D801BE55C64046005A0
:100BE300E55CB55D107F807E3112C8A6E50B655FBD
:100BF300600D7F0022855F0B7F007E3012C8AE053B
:100C03005C80A97F0122E4FF120422750B057F0893
:100C13007E3012C8AE788F742046F654EFF6540730
:100C23007003129DF3780812A600000000047F8C65
:100C33007E3112C8AE7F887E3112C8A6430B0412E0
:100C430002667F0C7E3112C8A6530B087897E6B470
:100C530055077894E6F50A80169007CAE07009787C
:100C630094E62404F50A80077894E62403F50A43FE
:100C73000B017F0C7E3112C8AE75FD09E4F5FE85CC
:100C8300FF5D755DFF7897E6645560229007CAE0C3
:100C93007009750BAAFF7E3012C8AE750B557F0025
:100CA3007E3012C8AE120266750B0D120266E4F5B1
:100CB3005C7894E55CC396506085FF5E7897E66444
:100CC30055604878A408E620E4077897E664067040
:100CD3003AE55C6003B4050C750B037F787E311233
:100CE300C8AE8027E55CB40308E55E2404F55D80A7
:100CF3001AE55C64046005E55CB55D0F7F807E31B9
:100D030012C8A615FE850BFF850B5E855E0B7F0063
:100D13007E3012C8AE055C8098788FE65407700366
:100D23007894F62278AAE630E07778A9E620E15FA6
:100D33007FBC7E3012C8A6E509547F789CF675FD0A
:100D43000975FE41E6F5FFE6F55CE55CD3940040EA
:100D53000E7FB87E3012C8A6850BFF155C80EB783A
:100D63009CE6B40B08900942E064466034789CE644
:100D7300B40708900942E06414602678A4E654019D
:100D8300FE08E654044E60077D027F011202EE78EE
:100D93008FE65407700B78AAE620E3057F811202E1
:100DA300FE2278A876017FBC7E3012C8A6E50954DE
:100DB3007F789CF67FB87E3012C8A6789DA60B126A
:100DC3000262789EA60B120262789FA60B12026241
:100DD30078A0A60B12026278A3A60B78A9E630E1ED
:100DE300067F1112033222789DE6B4410A788FE61A
:100DF30054077003020F2A789DE66445701978AA98
:100E0300E620E303020F2A78AAE620E50A789FE6A4
:100E130064017003020F2A12043278A0E6F55CE540
:100E23005CD39400400E7FB87E3012C8A6850BFFBA
:100E3300155C80EB789DE6543064306003020EE568
:100E4300E6543F24CC602624FE60172403703178D7
:100E53009FE6640F600678AAE630E32878A8E4F6F4
:100E6300802278AAE630E31C129CC68017788FE6AE
:100E73005407701078AAE620E20A78A8E4F6800402
:100E830078A87601789FE6B40F0A78AAE620E004F2
:100E930078A8E4F678A8E66077788FE654077006BA
:100EA30078AAE630E26A78AA74FB56F678A2E4F6EA
:100EB30012031278A974FE56F6129D53788FE6300A
:100EC300E3147D027F0112044A788F74F756F67893
:100ED300A27602120312788FE654076033129C72D3
:100EE300802E789DE624F8601A24EF601B24D860D6
:100EF3000D24FC6018243170171203B28012120300
:100F0300B6800D1203BA80081203EA8003129CC64E
:100F130078A4E60830E00478A8760178A8E66007AC
:100F23007D027F011202EE2275FD0975FE47E5FF82
:100F3300540FF56085FF0885FF0985FF0A85FF0BC0
:100F4300780812A5A790080C12A5DCC312A570702F
:100F53004478A679A6047E00A860088005C333CE32
:100F630033CED8F9FFEE47F7EF0947F7129C727FAC
:100F7300C47E3012C8A679A6E7F50809E7F5091279
:100F8300026678A6E6547FFE08E654FC4E600A7FAC
:100F93000112032A2278A8E4F622789DE630E603BC
:100FA3000210BE78A4E60820E00478A8E4F67FBC2B
:100FB3007E3012C8A6E50A547F7073129D539007C2
:100FC300C9E09007C8F0750B557FB47E3012C8AEE8
:100FD300120266750B0D120266900942E04440F559
:100FE3000B120266900944E0F50B12026690094366
:100FF300E0F50B120266900945E0F50B850B5D12D7
:10100300026675FD0975FE47E55D601114F55CE543
:101013005C600A85FF0B120266155C80F278A2E41D
:10102300F6789812A6000016E36012030E2278A940
:10103300E620E03778977619900941E07894F6E650
:1010430004FB7D417C097F007E0912F67390090140
:10105300E04440F0900944E0900902F0900943E035
:10106300900903F078A9740146F6227407F5FD741C
:10107300CCF5FEE4F55C789CE62401FFE433FEC383
:10108300E55C9FEE6480F874809850127441255C8F
:10109300F582E43409F583E0F5FF055C80D8900719
:1010A300CDE04440F0900944E09007CEF09009432E
:1010B300E09007CFF078A9740846F62278A9E630C5
:1010C300E352129D539007CEE09007C8F0750B557D
:1010D3007FB47E3012C8AE120266750B0D12026623
:1010E3007407F5FD74CCF5FEE5FF547FF55C601DD8
:1010F300E4F55DE55C14FFE55DC39F501085FF0BD0
:10110300E55C64046003120266055D80E678A974F9
:10111300F756F62278A9E630E00A788FE65407708E
:101123000312028A2275FD0975FE41789CE6F5FFDC
:1011330008E6F5FF08E6F5FF08E6F5FF08E6F5FF24
:1011430078A3E6F5FF22789776557894762275FD95
:1011530009E4F5FE75FF22755C0B75FF55D55CFA46
:10116300755C0B75FFF0D55CFA755C0B75FF8CD560
:101173005CFA75FFFF78A9740146F6788F74104600
:10118300F62222227F447E0012C8A6800C78081221
:10119300A60000F097B51202669004CFE0542460D5
:1011A300057889760C2285BA5C7886E55C26F65349
:1011B3005C7FE55C2402900789F0E55CD3944040B2
:1011C300067889760D8005AF5C12F1E77889E6F53C
:1011D3005C12F47C75CE0B15B97896A6BAE55C70F3
:1011E30013E630E705120302800F7896E6600A12D1
:1011F300042680057F831202FE12F487900789E09C
:10120300F5B9229004CFE0542460057889760C2246
:10121300E4FF12F1E7EF605D12F47C75CE0B78A961
:10122300E654066037E630E112755E02789CE6F517
:101233005D75FD0975FE41E4F68011755E0478A1C4
:10124300E614F55D75FD0975FE82E4F6E55D04F5CA
:101253005CE55C600D85FFBA155C80F5E4F5BA7555
:101263005E06AD5EE4FF1202EEE4F5BAF5BA15B917
:1012730015B912F487227866E654E0703185FF5C75
:10128300E55CC3940E5022E55C25E0248EF582E4F0
:10129300349CF583E493FE740193AA06F97BFF78EB
:1012A3006712A65F12A6A080CD12F77180C82285AF
:1012B300FF5C12F859AFFFEFF8E4796DF7E819F71F
:1012C300AFFF786CE6F608E64FF678A7E654C064FD
:1012D30040705BE50C64187003021375E50C641A27
:1012E3007003021375790C09E7648C700419E764C1
:1012F300117020129826EF60047F2080027F008FF8
:101303000B129B5DEF6005430B0D8003430B07122C
:10131300026622129B5DEF6005755C298003755C94
:1013230023E55C24E0FF25E025E0F55C802778A732
:10133300E6543FF55CC394204007E55CD3942D400D
:10134300097BFF7A0379FA12007EE55C24E0FF252E
:10135300E025E0F55C786DE55C26F618E436F6E604
:10136300FE08E6F5828E8312A5B3780812A5E8126B
:1013730002662285FF5C12F859AFFFEFF8E4796D3E
:10138300F7E819F7AFFF786CE6F608E64FF678A7AB
:10139300E654C0FFBF400718E620E115800978A78F
:1013A300E65428FFBF280A786D740426F618E4363D
:1013B300F6786CE6FE08E6F5828E8312A5B378080C
:1013C30012A5E81202662212F859120262E5FF52D0
:1013D3000BE5FF420B1202662275FD0975FE82853D
:1013E300BA5CE55C12A67A140602143003143E04B8
:1013F300147205149306147D07149E0814930B00AE
:101403000014CD7896E6648360030214D3AFBAEF79
:1014130078A6F608760018AFBAF6EF0846F67BFF13
:101423007A03799678AE12A65F12030A227896E6BB
:10143300648160030214D312039A227896E66483CC
:1014430060030214D3AFBAEF78A4F608760018AF9E
:10145300BAF6EF0846F618740756F674FC0856F603
:101463007BFF7A03799E78AE12A65F12030A227875
:1014730096E66481705A1203A2227896E66482701B
:101483004F7BFF7A0279E678AE12A65F12030A2237
:101493007896E6648170391203A6227896E6648111
:1014A300702E788FE6540F700678AAE630E2067F36
:1014B3008A1202FE2278AA741046F67BFF7A037919
:1014C3002278AE12A65F12030A221203AAEF700556
:1014D3007F831202FE22227437256BF582E43407E0
:1014E300F583E0700302159D7F807E1612C8A678EF
:1014F3000812A5A7786E12A5E87F847E1612C8A6E7
:10150300780812A5A7787212A5E8787212A5A778B1
:101513006E12A5CF12A3EDE412A31CC004C005C034
:1015230006C007786E12A5A7E412A31CD003D0024D
:10153300D001D00012A201C004C005C006C007E557
:101543006B25E025E024E8F582E43404F58312A555
:10155300B3E412A31CD003D002D001D00012A0F830
:10156300E4FBFA7980784012A0F8787A12A5E8783B
:101573007A12A5A712A35A90FF1012A5F47F587EE2
:101583001312C8A6E50B30E11190FF1012A5B37832
:101593000112A58190FF1012A5F49004D112A5B3F6
:1015A300780112A581E412A31C787E12A5E890FFAE
:1015B3008612A6190000000090FF8012A6190000F1
:1015C300000090FF1012A5DC7F007EB47DC47C0474
:1015D30012A49390FFA6EFF0C3940250037402F099
:1015E30090FF1012A5DC7F007E687D897C0912A420
:1015F30093EF0490FFA7F0D3948040037480F0E44A
:10160300F563129EA2749E2563F582E43407F58385
:10161300E090FF7FF0E56325E025E02496F582E482
:101623003407F58312A5B3786E12A5E8E490FF0E94
:10163300F074A02563F582E43407F583E0FF90FF9F
:101643000EE0C39F40030218BF129EA290FF7FE0EB
:10165300FFE4FCFDFE786E12A5CF12A40890FF6292
:1016630012A5F490FF1012A5B3E412A31CC004C08A
:1016730005C006C00790FF6212A5B3E412A31CD0F5
:1016830003D002D001D00012A201E4FBFAF9783FA3
:1016930012A00712A35A90FF7EEFF090FFA6E0FE80
:1016A300EFC39E50030218B090FFA7E0FF90FF7EA8
:1016B300E0D39F40030218B090FF1012A5B3E412C9
:1016C300A31CC004C005C006C00790FF7EE0FCE475
:1016D30012A326D003D002D001D00012A0F8C00478
:1016E300C005C006C00790FF6212A5B3E412A31C95
:1016F300A804A905AA06AB07D007D006D005D004D5
:1017030012A003789C12A5E8E4FFFEFDFC789C126E
:10171300A5CF12A29E400D789C12A5A79007AA12EE
:10172300A5F4800E789C12A5A712A30B9007AA120A
:10173300A5F490FF1012A5B3780412A581E412A3B7
:101743001CC004C005C006C00790FF7EE0FCE41285
:10175300A326D003D002D001D00012A0F89007AA8C
:1017630012A5DC12A29E40030218B090FF7FE0FC9A
:10177300E412A326787E12A5CF12A0F8C004C005F8
:10178300C006C007E5632402FDE433FCE412A32191
:10179300A804A905AA06AB07D007D006D005D00434
:1017A30012A20112A35A90FF6212A5F47F007EB425
:1017B3007DC47C0490FF6212A5DCC312A5705003A4
:1017C3000218B07F007E687D897C0990FF6212A5B4
:1017D300DCD312A57040030218B0129EA2E5632465
:1017E30002FDE433FCE412A321C004C005C006C01B
:1017F3000790FF7FE0FCE412A326787E12A5CF12A8
:10180300A0F8D003D002D001D00012A201789C121C
:10181300A5CF12A007C004C005C006C007E4FFFEA1
:10182300FD7C49789C12A5CF12A0F8D003D002D03A
:1018330001D00012A201E4FBFAF9783F12A0077865
:101843007A12A5E87F007EF07DF07C46787A12A5B7
:10185300CF12A29E5057129EA290FF8612A5B3905C
:10186300FF6212A5DCD312A570404290FF6212A55D
:10187300B390FF8612A5F490FF7EE0F56090FF7FA2
:10188300E0F561856362789C12A5A7E56B25E025E9
:10189300E024A2F582E43407F58312A5F490FF62F5
:1018A30012A5B3E412A31C90FF8012A5F490FF0EBF
:1018B300E004F090FF7FE004F00216340563E56373
:1018C300C39402500302160590FF8012A5B3EC4D9A
:1018D3004E4F7003021966129EA2E56014543FF541
:1018E3000B7FAC7E1112C8AEE56114541FF50BE5F6
:1018F300626003430B207FB07E1112C8AEE56B25F7
:10190300E025E024A2F582E43407F58312A5B39021
:10191300FF8012A5DC12A007C004C005C006C007E3
:10192300E56B25E025E024A2F582E43407F5831274
:10193300A5B3E4FBFAF9784912A0F8D003D002D09A
:1019430001D00012A201E4FBFAF9783F12A00712BA
:10195300A35A781012A594780812A5E87F907E16F2
:1019630012C8AE129EA22212035690FFD1E060036A
:10197300021D9290FFC512A5B3EC4D4E4F600D9022
:10198300FFC512A619000000001203FE7FAC7E14EF
:1019930012C8A6780812A5A790FF5E12A5F4E56BFE
:1019A30025E025E024E8F582E43404F58312A5B3A9
:1019B30090FFBD12A5F490FF4DE030E5157F807ECA
:1019C300C37DC97C0190FFBD12A5DCC312A5704085
:1019D30018227F807EC37DC97C0190FFBD12A5DCE8
:1019E300D312A5704003021D927F407E787D7D7CDB
:1019F3000190FFBD12A5DCD312A570500B787A12AB
:101A0300A6003F3333338031E56B25E025E024F036
:101A1300F582E43404F58312A5B3EF5404FFE4FE26
:101A2300FDFCEF600B787A12A6003F4CCCCD800909
:101A3300787A12A6003F75C28F90FFBD12A5B3E45A
:101A430012A31C787A12A5CF12A0F8E4FBFA7980CE
:101A5300783E12A0F890FFDE12A5F490FF4DE0301F
:101A6300E51B128957EF601590FFDE12A5B3E4FB67
:101A7300FAF9783F12A0F890FFDE12A5F490050161
:101A830012A5B3E412A31C90FFDE12A5DC12A2017F
:101A930012A35AEF25E02403F55D90050112A5B3C7
:101AA300E412A31CC004C005C006C007E4FFFEFD8A
:101AB3007C3F90FFDE12A5DC12A0F8A804A905AABA
:101AC30006AB07D007D006D005D00412A00390FFC1
:101AD300DE12A5DC12A20112A35AEF240225E0F5BF
:101AE3005CE55DD3955C5004AF5D8002AF5C8F63B2
:101AF300788212A60000000000E4F562E562C39557
:101B0300634003021D6CE56330E02FE5626020242F
:101B130001FFE433A2E713FCEF13FDEC12A32190C2
:101B2300FFDE12A5DC12A0F8787A12A5E8802B78E4
:101B33007A12A600000000008020E562C313FCE4D3
:101B430012A326E4FBFAF9783F12A00790FFDE12F6
:101B5300A5DC12A0F8787A12A5E8E56230E00D78EA
:101B63007A12A5A712A30B787A12A5E8787A12A5A0
:101B7300A712A35A90FFC512A5F41203FE78081208
:101B8300A600000000007FD87E1412C8AE90FF4D5F
:101B9300E030E523E47B64FAF9F890FFBD12A5B3C6
:101BA30012A493E412A31C789412A5E8789812A6C1
:101BB30000404000008021E47BC8FAF9F890FFBDA3
:101BC30012A5B312A493E412A31C789412A5E87887
:101BD3009812A6004080000012021E90FF4DE030D4
:101BE300E505755C0A80397F007E127D7A7C009062
:101BF300FFBD12A5DCC312A5705022E56B25E025BD
:101C0300E024F0F582E43404F58312A5B3EF540421
:101C1300FFE4FEFDFCEF6005755C0A8003755C0A5A
:101C230090FF5E12A5B3A95CA80112A581A804A91F
:101C330005AA06AB0790FF5E12A5B312A3FA7808B4
:101C430012A5E87FAC7E1412C8AE7FA47E1012C822
:101C5300A6430B01120266780812A60000000000DA
:101C63007FA87E1412C8AE120356788A12A600000B
:101C7300007530E4FF1202BA12035690FF4DE030B4
:101C8300E524E47B807A0CF9F890FFBD12A5B3122A
:101C9300A493E412A31C789412A5E8789812A600E2
:101CA30040C000008022E47B407A06F9F890FFBD33
:101CB30012A5B312A493E412A31C789412A5E87896
:101CC3009812A6004130000012021E787E12A60070
:101CD300000000007560207FA87E1412C8A6787EDD
:101CE30012A5CFC000C001C002C003780812A5A787
:101CF300EC12A31CE4FBFAF9784212A201D003D040
:101D030002D001D00012A007787E12A5E812008647
:101D1300D560C4E4FFFEFDFC787E12A5CF12A29E1F
:101D23005009787E12A60000000000788212A5A751
:101D3300787E12A5CF12A29E60184016787E12A557
:101D4300A7788212A5E890FFC512A5B390FF62128F
:101D5300A5F490FF5E12A5B3780812A5E87FAC7EC8
:101D63001412C8AE0562021AFF90FF6212A5B39067
:101D7300FFC512A5F41203FE780812A600000000A6
:101D8300007FA87E1412C8AE7FD87E1412C8AE227C
:101D93007F287E1612C8A6E50A540CF55CE50B54A1
:101DA3001FF55DE55C64086004E55C7008755EBC66
:101DB300755FCC8006755E82755F93E50A30E70533
:101DC3007560108003E4F560E55E2560FFE433FE93
:101DD3007C00EF255DFFEC3EFEAB07FAE4F9F8AFBC
:101DE3005EFDFE12A408786E12A5E8AF5EAB07E4B1
:101DF300FAF9F8AF5FFCFDFE12A408787212A5E8A9
:101E0300E55F64936003755FBC7492256BF582E4B0
:101E13003407F583E012A67A1E49001E51011E59AC
:101E2300021E61031E69041E71051E79081E4909FD
:101E33001E810A1E510B1E590C1E890D1E610E1E9A
:101E4300710F00001E917562017563028046756211
:101E530002756303803E75620375630480367562A1
:101E630005756306802E75620675630780267562A5
:101E730007756308801E75620575630B80167562AE
:101E830003756305800E75620475630580067563CB
:101E930001756201786E12A5CFE56225E0FFE43398
:101EA300FE3395E0FDFC12A408786E12A5E87F5876
:101EB3007E1312C8A6E50B30E105755C028003753D
:101EC3005C04787212A5CFC000C001C002C003AF8A
:101ED3005CAB07E4FAF9F8AF63FCFDFE12A408D08B
:101EE30003D002D001D00012A408787212A5E87FB3
:101EF300747E1112C8A6E50B30E20F787212A5A703
:101F0300780112A594787212A5E8787212A5A7E455
:101F130012A31CC004C005C006C007786E12A5A793
:101F2300E412A31CD003D002D001D00012A201C03E
:101F330004C005C006C007E56B25E025E024E8F5ED
:101F430082E43404F58312A5B3E412A31CD003D0B6
:101F530002D001D00012A0F8C004C005C006C0071B
:101F6300AC5CE412A326D003D002D001D00012A0AF
:101F7300F8787A12A5E8E56B25E024F8F582E434D5
:101F830004F583E0FEA3E0FFEE30E75730E6057586
:101F93005C048003755C01787A12A5CFC000C00190
:101FA300C002C003C3E55F955CFDE49400FCE4124A
:101FB300A321C004C005C006C007AC5FE412A3267A
:101FC300A804A905AA06AB07D007D006D005D004FC
:101FD30012A201D003D002D001D00012A0F8787A67
:101FE30012A5E8E4FFFEFD7C3F787A12A5CF12A08C
:101FF3000712A35A90FF1012A5F4129EA278721230
:10200300A5A790082A12A5F4786E12A5A712D3E902
:1020130090FF9D12A5F4129EA2786E12A5A790FFC1
:102023009D12A5DC12A493786E12A5E8787212A50E
:10203300A790FF9D12A5DC12A493787212A5E87FE6
:10204300A47E1112C8A6530B7F120266786E12A5E6
:10205300A7780812A5E87F807E1612C8AE786E12A4
:10206300A5CFC000787212A5A7D00012A3FA9007DB
:102073008312A5F490078312A5B3780812A5E87F0D
:10208300847E1612C8AE7437256BF582E43407F5E7
:1020930083E0700302215A787212A5A7E412A31CED
:1020A300C004C005C006C007786E12A5A7E412A33A
:1020B3001CD003D002D001D00012A201C004C0057D
:1020C300C006C0077437256BF582E43407F583E057
:1020D300FCE412A3267B007A60791F784512A201E3
:1020E300E4FBFA7980783F12A007D003D002D00135
:1020F300D00012A0F8787A12A5E890078312A5B34E
:10210300E412A31C787A12A5CF12A0F8C004C0056C
:10211300C006C007787A12A5CFE4FFFE7D807C3F1E
:1021230012A003A804A905AA06AB07D007D006D0BE
:1021330005D00412A20112A35A780812A5E87F80E1
:102143007E1612C8AE90078312A5B3780812A5E8CD
:102153007F847E1612C8AE22125C8B78A7E654C029
:10216300644070277F947E1512C8A6E50A30E11BF0
:10217300530AFD78A6E6045403F55C74FC56F64551
:102183005CF67BFF7A0379FA12007EE56B25E02586
:10219300E024F0F582E43404F58312A5B3EF544050
:1021A300FFE4FEFDFCFBFAF9F8C312A57070157F7E
:1021B3005C7E1212C8A6E50B30E5097BFF7A037932
:1021C300FA12007E7FE47E1512C8A6E508541FF5B7
:1021D3005C78A066700612008602215BE55C24FC35
:1021E300606F14607324F660761470030223041482
:1021F30070030224162411600302245F78A0E664AE
:10220300046004E6B405117F207E1112C8A6430BB7
:10221300017F207E1112C8AE7F347E1C12C8A6E552
:102223000B54E0FFBF4005750B348003750B247F0F
:102233009C7E1C12C8AE750B037F447E1012C8AE81
:10224300750B0F7FC07E1012C8AE78A0E4F6022192
:102253005B78A0760402215B78A0760502215B7887
:10226300A7E6543FF55C128957EF601DE55CC39404
:10227300224005750B088042E55CD3942050057518
:102283000B108036750B0C8031780812A600000104
:1022930000047F8C7E1512C8AEE55CC39424400510
:1022A300750B088003750B0C78A7E654C0FFBF407D
:1022B30009129826EF7003750B0C7F647E1112C808
:1022C300AEE4F50B7FE47E1012C8AE750B067FEC0F
:1022D3007E1012C8AE750B02120266780812A600B1
:1022E3000000000A7F647E1212C8AE78A0760F7FCA
:1022F3001C12F6CB7864A60608A60712F5EF022196
:102303005B78A07610120402EF6066E50930E123E2
:10231300750B117F447E1012C8AE7F347E1C12C829
:10232300A6E50B54E0FFBF4005750B388026750BFF
:10233300288021750B137F447E1012C8AE7F347E34
:102343001C12C8A6E50B54E0FFBF4005750B3C808B
:1023530003750B2C7F9C7E1C12C8AE7FC07E1012AF
:10236300C8A6E50B54EFF55C435C80855C0B120259
:1023730066120402EF700302215B78A5E660030294
:10238300215B90FFD612A5B3E412A31C787612A5A5
:10239300CF12A29E60767F847E1512C8A67808129B
:1023A300A5A790077F12A5F490FFD612A5B3E41258
:1023B300A31CC004C005C006C007787612A5A7D029
:1023C30003D002D001D00012A201C004C005C00690
:1023D300C00790077F12A5B3EC12A31CD003D00251
:1023E300D001D00012A0F8E4FBFAF9783F12A0075D
:1023F30012A35A90077F12A5F490077F12A5B3E4A6
:10240300FFEEEDEC780812A5E812026678A57601D6
:1024130002215B7410256BF582E43408F583E044F4
:1024230004F07F011202BE78A0761178A7E654C0AB
:10243300FFBF401C788A12A600000080E87BFF7A69
:1024430042794F786712A65FE4FF1201FA02215B1B
:102453007BFF7A03796212007E02215B78A0E66437
:1024630011703B1200A6788EE6F46005E6FF12D4E5
:10247300F4E56B25E025E024F0F582E43404F583EC
:1024830012A5B3EF5440FFE4FEFDFCFBFAF9F8C3D9
:1024930012A57070097BFF7A0379FA12007E78A087
:1024A300A65C02215B22E4F55EF55D7F347E1C129F
:1024B300C8A6E50B5440F55F120402EF600F7F9C42
:1024C3007E1C12C8A6E50B30E303755E017F207EF8
:1024D3001112C8A6E50B30E10F7FE47E1512C8A6E2
:1024E300E50930E103755D017FD47E1412C8A67837
:1024F3000812A5A7EC12A31CC004C005C006C007A0
:10250300E4FBFA7980784EC000787612A5A7D00054
:1025130012A201D003D002D001D00012A0F8787A21
:1025230012A5E8E55E60747F307E1C12C8A6E50B39
:1025330020E60B787E12A600412AAAAE8009787E97
:1025430012A60041000000787A12A5CFC000C00196
:10255300C002C003787E12A5A7787612A5CF12A079
:10256300F8A804A905AA06AB0790FF1812A5B31291
:10257300A201D003D002D001D00012A0F8787A12C1
:10258300A5E8E55F6018787A12A5A7E4FBFAF97865
:102593003F12A0F8787A12A5E88003755C01E55D27
:1025A300600D787A12A5A712A30B787A12A5E87F9B
:1025B3005C7E1012C8A6E50B30E11DE4FBFA7980BE
:1025C3007841C000787A12A5A7D00012A20112A305
:1025D3005A789012A5E8801AE4FBFAF97841C00012
:1025E300787A12A5A7D00012A20112A35A789012EA
:1025F300A5E87FF87E1412C8A6780812A5A7EC12E6
:10260300A31CE4FBFA7980784E12A201787A12A512
:10261300E8787A12A5CFC000C001C002C003E56B01
:1026230025E025E024E8F582E43404F58312A5B31C
:10263300E412A31CE4FBFAF9784112A201D003D0FF
:1026430002D001D00012A0F8787A12A5E87890128F
:10265300A5CFC000C001C002C003787A12A5A7129B
:10266300A35AD003D002D001D00012A3ED78901268
:10267300A5E890FF4DE020E5030227B87F847E158F
:1026830012C8A6780812A5A7EC12A31CE4FBFA79DA
:1026930080784312A201787A12A5E8E55E60337868
:1026A3007A12A5CFC000C001C002C00390FFD612AA
:1026B300A5B3E412A31CE4FBFA7980784B12A201C0
:1026C300D003D002D001D00012A0F8787A12A5E886
:1026D3008030787A12A5CFC000C001C002C003E4E5
:1026E300FBFA7980784BC000787612A5A7D0001248
:1026F300A201D003D002D001D00012A0F8787A1240
:10270300A5E8E55D600D787A12A5A712A30B787A88
:1027130012A5E8789012A5CFC000C001C002C00383
:10272300787A12A5A712A35AD003D002D001D00001
:1027330012A3ED789012A5E87F3C7E1712C8A67805
:102743000812A5A7E4FB7A01F9F81291A790077F75
:1027530012A5F490077F12A5B3EC12A31CC004C00A
:1027630005C006C007E4FBFA7980784BC000787691
:1027730012A5A7D00012A201D003D002D001D0002D
:1027830012A0F812A35A90077F12A5F4E55D601218
:10279300786CE6FE08E6FFC3E49FFFE49E18F608A4
:1027A300A607789012A5A790077F12A5DC12A3EDC8
:1027B300789012A5E8789012A5A790FFC512A5DC22
:1027C30012A3FA789012A5E8789012A5A712A54C47
:1027D300789012A5E8227FE47E1512C8A6E5085476
:1027E3001F64116003022A77F55C7F307E1812C8DC
:1027F300A6E50930E0487F647E1212C8A6E50A30D8
:10280300E7030229FAE50B30E3030229FAE56B2516
:10281300E025E024F0F582E43404F58312A5B3EF58
:102823005408FFE4FEFDFCEF60117FD47E1612C84E
:10283300A6E50830E108755C018003755C01E55C81
:1028430070030229DF78A5E66003022926741025A8
:102853006BF582E43408F583E04480F0E56B25E012
:1028630025E024E8F582E43404F58312A5B3786EF9
:1028730012A5E87F007E1B7DB77C00786E12A5CF82
:10288300C312A5704014786E12A60000267000785B
:102893007212A600000033C080607F007E097D3D78
:1028A3007C00786E12A5CFC312A5704014786E1207
:1028B300A60000140000787212A6000000019080A8
:1028C300397F807E847D1E7C00786E12A5CFC31273
:1028D300A5704014786E12A6000041800078721231
:1028E300A600000004318012786E12A60000B10029
:1028F30000787212A60000000D99786E12A5A778D1
:102903000812A5E87FA07E1412C8AE787212A5A79C
:10291300780812A5E87FA47E1412C8AE1204527878
:10292300A57601750B697FF47E1012C8AEE56B25A1
:10293300E025E024F0F582E43404F58312A5B3EF37
:102943005420FFE4FEFDFCEF60397FC07E1612C801
:10295300A6780812A5A77BFF7A2F79FF781FC312E9
:10296300A570601F7FD47E1612C8A6E508540EFF1B
:10297300BF0210780812A6001FFF2FFF7FC07E162C
:1029830012C8AE12035690FF7DE07009129DBD90F0
:10299300FF7D7401F0E4FFFEFDFC90FFA112A5DCB6
:1029A300C312A570701390FFA504F01200A2788AD9
:1029B30012A600002DC6C0801C90FFA112A5B3EF84
:1029C30024FFFFEE34FFFEED34FFFDEC34FFFC90FB
:1029D300FFA112A5F47893E4F6022ABB1200A69095
:1029E300FFA5E0701290FFACE0C394644003022A99
:1029F3007790FFACE004F090FF7DE0603B7893E6D6
:102A0300703690FFA112A5B3EF2428FFE43EFEE445
:102A13003DFDE43CFC90FFA112A5F4E47F907E0110
:102A2300FDFC90FFA112A5DCD312A570400A90FF14
:102A3300A112A61900000190E56B25E025E024F022
:102A4300F582E43404F58312A5B3EF5440FFE4FEAA
:102A5300FDFCFBFAF9F8C312A570700D789306908C
:102A6300FFE3E0FFE6D39F500B788A12A600000035
:102A730075308044E56B25E025E024F0F582E434ED
:102A830004F58312A5B3EF5440FFE4FEFDFCFBFA0B
:102A9300F9F8C312A570701478A7E654C0600474E3
:102AA3007F56F67BFF7A0379FA12007E1200A6782E
:102AB3008A12A600002DC6C07BFF7A2779D97867D2
:102AC30012A65FE4FF1201FA2290FF9512A5B378D4
:102AD3007A12A5E8787A12A5A7787E12A5E8755C24
:102AE30001E4FFFE7D807C40787A12A5CF12A29E7E
:102AF30050137F587E1312C8A6430B027F587E13D0
:102B030012C8AE80117F587E1312C8A6530BFD7FE7
:102B1300587E1312C8AEE4FFFEFD7C41787E12A5F9
:102B2300CF12A29E60244022E55CC39408501BE5AB
:102B33005C25E0F55C787E12A5A7E4FBFAF9784002
:102B430012A201787E12A5E880CCAC5CE412A32625
:102B5300C004C005C006C007787A12A5A7D003D069
:102B630002D001D00012A201787E12A5E8E4FFFE94
:102B73007D807C40787E12A5CF12A29E601F401DEF
:102B83007F337E337D837C40787E12A5CF12A29E55
:102B9300500BE55CC313F55C7003755C01C37420D3
:102BA300955C4440F50B7F487E1012C8AE7F337EA0
:102BB300337DCB7C40787E12A5CF12A29E60074066
:102BC30005E4F50B801C7FEC7E517D887C40787E8C
:102BD30012A5CF12A29E60074005750B40800375B6
:102BE3000BC07F507E1012C8AEE4FFFE7D807C4098
:102BF300787A12A5CF12A29E5039E4FFFEFD7C4CD9
:102C0300787A12A5CF12A0F8C004C005C006C00789
:102C1300AC5CE412A326A804A905AA06AB07D00757
:102C2300D006D005D00412A20112A35A780812A527
:102C3300E88038E4FFFE7D807C4B787A12A5CF12C2
:102C4300A0F8C004C005C006C007AC5CE412A3260C
:102C5300A804A905AA06AB07D007D006D005D0045F
:102C630012A20112A35A780812A5E87FAC7E1412AF
:102C7300C8AE780812A5A7780212A581786E12A5AE
:102C8300E8786E12A5A790FF5612A5F47F487E1030
:102C930012C8A6530B07E50BB40705E4F55C8017D0
:102CA300E50BB40605755C01800DE50BB4040575F1
:102CB3005C028003755C03786E12A5A7A95CA8016A
:102CC30012A594780812A5E87F7C7E1512C8AE7F02
:102CD300DC7E1612C8AE7F1C7E1412C8AEE56B25CF
:102CE300E025E024F0F582E43404F58312A5B3EF84
:102CF3005480FFE4FEFDFCEF6019E56B25E025E061
:102D0300243FF582E43405F58312A5B3780812A5B0
:102D1300E88009780812A600000000007FD87E141E
:102D230012C8AE787A12A5CFE4FFFEFD7C4512A24D
:102D330001E4FBFAF9783F12A00712A35A786E1246
:102D4300A5E8786E12A5A7EFEE543FFEE4FDFC78EC
:102D53001012A594780812A5E87F747E1512C8AEE8
:102D63007F487E1012C8A6E50BB41005750B0880CA
:102D73000CE50B7005750B188003E4F50B7F4C7E97
:102D83001012C8AE220110683001106C0102144801
:102D930000000000011044010110400101107017F0
:102DA3000110740B021450000000000214540000C0
:102DB30000000110780602145807001F1E02145C5D
:102DC3000D200000011054050214601000000002E1
:102DD30014AC061333000214A4000000000214A074
:102DE3000000000001107C400110B00001105000F1
:102DF3000110A0100110A4010214A8000000000299
:102E0300167C000000000216740000000002167019
:102E13000000000002166C000000000214C800004D
:102E230002000214CC000002000214C000000100E2
:102E33000214C4000001000214E0000000000110AD
:102E4300C04C0110CC060110D0000110C8000110C5
:102E5300C4000214EC000000000214F000000000A3
:102E63000214E8000000000214D400000000021461
:102E7300DC000000000214F8000000000214FC0053
:102E83000000000214D8000000000110DC0102154C
:102E930004760000000111180001118C0001111CBF
:102EA3000002152C010000000110F8000110E000E1
:102EB3000110F4000110FC000110EC070110F006F2
:102EC3000110E8410215200000000001110C05016A
:102ED3001110F101111400021524014F01D902153B
:102EE30028008B00C4021548532240000216080034
:102EF3000000000215401DF800000215441E3600B4
:102F030000011170F002162400071F1E0216300084
:102F130000FFEC02162007001F1E011364080113B3
:102F23006802011024040217F83FBE0000011028B4
:102F33001F0216A8000000000216AC0000000001EA
:102F4300112051021598001E4B0002158000284FD6
:102F5300000217BC070500000217C40001000002AD
:102F630017C01C72238E011144040215A01008001F
:102F73000002159C070500000215A41008000002BA
:102F830015A80802042001113C020215AC100F0021
:102F9300000111400102156C0000CE00021578807B
:102FA30000000001115C3F0111540801115042025D
:102FB3001568000000000215703FFF00000217E8CB
:102FC300030000000217E41B0E0000021628000095
:102FD300520002157C011111110216DC01111111AD
:102FE30001114822011164000214180000000002BC
:102FF30017D4070404040217D8040404040217DCDA
:10300300040404040217E00404040402141C200052
:10301300000002158C000F000F0215740001000060
:1030230001116000011124000111280201112C1566
:10303300011134800111680001112051007F907E3D
:103043003112C8A6780812A5A7789012A5E87F8C3C
:103053007E3112C8AE789012A5A7E4FFEE5480FE2D
:10306300ED5401FDE4FCED4E600678AA740246F6C9
:10307300789012A5A7EF5406FFE4FEED5430FDE46B
:10308300FCED4F600678AA740146F6789012A5A766
:10309300E4FFEE54C0FEED4C4E607A7FB47E3112F5
:1030A300C8A6E50B30E0647F7C7E3012C8A6E50B32
:1030B30020E058780812A600000000017FB07E319E
:1030C30012C8AE789012A5A7780812A5E8789012D6
:1030D300A5A7E4FFEE5440FEE4FDFCEE603778085C
:1030E30012A600000040007F907E3112C8AE120489
:1030F3002AE4FF12041A7890C00012A5A7EFEE5439
:10310300BFFEEDECD00012A5E8800A7F2012F84242
:103113001200868086789012A5A7E4FFFEED540185
:10312300FDE4FCED6032780812A600000100007F88
:10313300907E3112C8AE788FE630E1069007C074F6
:1031430001F01202F67890C00012A5A7EFEEED543D
:10315300FEFDECD00012A5E8789012A5A7E4FFEEDF
:103163005480FEE4FDFCEE601D1203EE78AA74FEAB
:1031730056F67890C00012A5A7EFEE547FFEE4FD4B
:10318300FCD00012A5E8789012A5A7EC4D4E4F7025
:10319300030232E112F54575E404789012A5A7788D
:1031A3001812A5818FD3789012A5A7781012A58144
:1031B3008FD4789012A5A7780812A5818FD578901F
:1031C30012A5A7EFE48FD685E35C12F552E55C7098
:1031D300030232E112F545855CE575E402786EA6DB
:1031E300DB08A6DC08A6DD08A6DE12F5527890C03F
:1031F3000012A5A7C004C005C006C007786E12A5BB
:10320300A712A53FA804A905AA06AB07D007D006B5
:10321300D005D00412A525D00012A5E8155CE55C05
:10322300D394135017E55C640F6011786E12A5A751
:10323300780812A5E87F907E3112C8AEE55C12A62D
:103243007A328B0232B30B32B80C32BD0D32861197
:1032530032D314327815329016327319326E1C320F
:10326300691D000032C21203DA806512043A8060DD
:10327300120416805B78AA74FB56F61202F212103F
:10328300BF804D12030680481202F280437FE87E1E
:103293003012C8A6E50B30E237780812A60000000A
:1032A30001207F007E3112C8AEE4FF12041A802091
:1032B3001203AE801B12032680161203BE80117800
:1032C3006E12A5A7780812A5E87F907E3112C8AECA
:1032D300789012A5A7EC4D4E4F600302319712036D
:1032E300C622E56B25E025E024E8F582E43404F505
:1032F3008312A5B37B407A42790F780012A4938F8F
:103303005DE4F55CE55DC3941B5002055CE55DC3BC
:1033130094175002055CE55DC394115002055CE50A
:103323005DC3940C5002055CE55DC3940450020533
:103333005CE55DC394025002055CE55CC454F0F5A2
:103343005C7F0912F6CB7864A60608A607E55C261F
:10335300F618E436F6E6FE08E6FF781EA60608A68B
:1033630007787A12A60048800000781EE6FE08E679
:10337300F5828E83E0FCA3E0FDE412A321787A12A8
:10338300A5CF12A201C004C005C006C007E56B2586
:10339300E025E024E8F582E43404F58312A5B3E4E0
:1033A30012A31CD003D002D001D00012A0F878A041
:1033B30012A5E8781EE6FE08E6F5828E83A3A3E055
:1033C300FCA3E0FDE412A321E4FBFAF9784012A286
:1033D3000178A412A5E8781EE6FE08E68E8324048D
:1033E300F582E43583F583E0FCA3E0FDE412A32139
:1033F300787A12A5CF12A201C004C005C006C00787
:10340300E56B25E025E024E8F582E43404F5831236
:10341300A5B3E412A31CD003D002D001D00012A0A4
:10342300F878A812A5E8781EE6FE08E68E8324063F
:10343300F582E43583F583E0FCA3E0FDE412A321E8
:10344300E4FBFAF9784012A20178AC12A5E8781EE1
:10345300E6FE08E68E832408F582E43583F583E0EF
:10346300FCA3E0FDE412A321787A12A5CF12A201F6
:10347300C004C005C006C007E56B25E025E024E8CD
:10348300F582E43404F58312A5B3E412A31CD0033C
:10349300D002D001D00012A0F878B012A5E8781EAF
:1034A300E6FE08E68E83240AF582E43583F583E09D
:1034B300FCA3E0FDE412A321E4FBFAF9784012A295
:1034C3000178B412A5E8129EA27864E6FE08E6FF2E
:1034D300781EEEF6FE08EFF68E83240CF582E435B3
:1034E30083F583E0FCA3E0FDE412A321787A12A51F
:1034F300CF12A201C004C005C006C007E56B25E0DA
:1035030025E024E8F582E43404F58312A5B3E4123C
:10351300A31CD003D002D001D00012A0F890FF2C3E
:1035230012A5F4781EE6FE08E68E83240EF582E4E7
:103533003583F583E0FCA3E0FDE412A321787A123E
:10354300A5CF12A201C004C005C006C007E56B25C4
:10355300E025E024E8F582E43404F58312A5B3E41E
:1035630012A31CD003D002D001D00012A0F890FF08
:103573003012A5F42290082612A5F4750B107F18BB
:103583007E1C12C8AE90082612A5B390FF1412A594
:10359300F490082612A5B390FFCD12A5F4120406E9
:1035A300E4FFFEFDFC90FF4012A5DCC312A5706092
:1035B30003023667E56B60047F4080027F2012962A
:1035C3000DE56B25E025E024F0F582E43404F58372
:1035D30012A5B3E4FFFEED5410FDE4FCED600F789B
:1035E3008F760808760708760612028680647409C7
:1035F300256BF582E43405F583E020E00512038EA4
:103603008005E4FF12024E7409256BF582E434054C
:10361300F583E020E2051202D680371201F2E56B52
:1036230025E025E024E8F582E43404F58312A5B30C
:10363300E412A31CC004C005C006C007787612A517
:10364300A7D003D002D001D00012A20190FF95129F
:10365300A5F4E56B60047F4080027F2012F26F7F48
:1036630005128EE07F2312F6CB7864A60608A60720
:1036730012F5EFE56B25E025E024F0F582E4340450
:10368300F58312A5B3E4FFFEED5410FDE4FCED60F9
:103693000D750B017F107E1C12C8AE02375E12023D
:1036A3009A74E6256BF582E43404F583E0FF120196
:1036B300927F107E1C12C8A690FF7CE50BF0740964
:1036C300256BF582E43405F583E0FF540A640A6050
:1036D30007EF30E10302375EE56B25E025E024F0D8
:1036E300F582E43404F58312A5B3EF5404FFE4FE3A
:1036F300FDFCEF600B787A12A6003CA3D70A800981
:10370300787A12A6003D0F5C29E56B25E025E024BD
:10371300E8F582E43404F58312A5B3E412A31C7B19
:10372300007A247974784912A201787A12A5CF120B
:10373300A0F8E4FBFAF9783F12A007787A12A5E81B
:10374300787A12A5A712A35A90FFE2EFF090FF7CBC
:10375300E02FF50B7F107E1C12C8AE1203F6120386
:10376300F21202B690FFC512A61900000000120360
:10377300FE750BDE7F2C7E1C12C8AEE56B25E025A3
:10378300E024F0F582E43404F58312A5B3E4FFFEEC
:10379300ED5410FDE4FCED6019E4F508F509F50AB4
:1037A300F50B7F487E1012C8AE7F507E1012C8AE54
:1037B30080031202027F2412F6CB7864A60608A6C1
:1037C3000712F5EF22E56B25E025E024F0F582E40E
:1037D3003404F58312A5B3E4FFFEED5410FDE4FCBD
:1037E300FBFAF9F8C312A5707003125C8B788F088B
:1037F300E61618700116798F09E71947601A788A57
:1038030012A6000000001E7BFF7A03795E78671220
:10381300A65F7F0112C0EE22E56B25E025E024F0D0
:10382300F582E43404F58312A5B3E4FFFEED5414EA
:10383300FDE4FCED600CE490FF44F0129DE3129371
:10384300F722128957EF6005750B398003750B3129
:103853007FE87E1012C8AE7F1A12F6CB7864A606F4
:1038630008A60712F5EF90FF5612A5B3780312A529
:1038730094780812A5E87F7C7E1512C8AE90FF5697
:1038830012A5B3780312A594780812A5E87FDC7E0D
:103893001612C8AE90FF5612A5B3780812A5E87F9A
:1038A3001C7E1412C8AE7F487E1012C8A6530B07A5
:1038B300E50BB4070AE4F55C755D01F55E8029E567
:1038C3000BB4060B755C01755D02755E018019E52D
:1038D3000BB4040B755C02755D03755E028009759C
:1038E3005C03755D04755E0390FF5612A5B3A95C76
:1038F300A80112A594780812A5E87F7C7E1512C84A
:10390300AE90FF5612A5B3A95DA80112A59478083D
:1039130012A5E87FDC7E1612C8AE90FF5612A5B33F
:10392300A95EA80112A594780812A5E87F1C7E144D
:1039330012C8AE750B1F7FC07E1012C8AE78A7E603
:1039430054C06007E654C0FFBF4006129EA2120394
:103953004A7410256BF582E43408F583E04402F0E1
:10396300129EA27F1B12F6CB7864A60608A6071246
:10397300F5EF7F347E1C12C8A6E50B54E0FFBF4071
:103983000A750B347F9C7E1C12C8AE129EA212983D
:1039930026EF6006128788EF6009129B5DEF6003D4
:1039A30012038A78A5E4F678A7E654C0FFBF401057
:1039B3007F947E1512C8A6750A0275080212026664
:1039C300E56B25E025E024F0F582E43404F5831269
:1039D300A5B3EF5440FFE4FEFDFCFBFAF9F8C31274
:1039E300A5707003126F6B78A076FF7BFF7A217945
:1039F3005B12007E22129B5DEF6031786E12A6008F
:103A03000000546078A7E6543FD3942A5005755CB0
:103A1300018003755C02787212A600000001F87839
:103A2300A7E6543F24D8255CF55D801B786E12A66B
:103A33000000007E90787212A6000000031878A799
:103A4300E6543F24E0F55DE55D25E02494F582E44A
:103A530034F3F583E493FE740193788FA60608F696
:103A6300129826EF6012786E12A5A7787212A5CF6E
:103A730012A3ED786E12A5E87870E6FE08E6245AE4
:103A8300FFE43E7891F608A60718FC08E6FDE41269
:103A9300A321C004C005C006C007788FE6FC08E672
:103AA300FDE412A321D003D002D001D00012A20161
:103AB300C004C005C006C007E56B25E025E024E887
:103AC300F582E43404F58312A5B3E412A31CD003F6
:103AD300D002D001D00012A0F812A35A90FF101206
:103AE300A5F4798FE7FE09E77803CEC313CE13D885
:103AF300F9FFE4FCFD787212A5E8787212A5A778A5
:103B03000812A5E87F807E1612C8AE7891E6FE08FB
:103B1300E6FFE4FCFD780112A581786E12A5E87832
:103B23006E12A5A7787212A5CF12A3FA786E12A50A
:103B3300E8786E12A5A7780812A5E87F847E16128E
:103B4300C8AE7437256BF582E43407F583E0700360
:103B5300023C26787212A5A7786E12A5CF12A3EDA8
:103B6300E412A31CC004C005C006C007787212A5E6
:103B7300A7E412A31CD003D002D001D00012A201EB
:103B8300787A12A5E8787A12A5CFC000C001C002E6
:103B9300C0037437256BF582E43407F583E0FCE456
:103BA30012A3267B007A60791F784512A201E4FBF9
:103BB300FA7980783F12A007D003D002D001D00059
:103BC30012A0F8787A12A5E8786E12A5A7E412A3DA
:103BD3001C787A12A5CF12A0F8C004C005C006C095
:103BE30007787A12A5CFE4FFFE7D807C3F12A00305
:103BF300A804A905AA06AB07D007D006D005D004B0
:103C030012A20112A35A780812A5E87F807E161229
:103C1300C8AE786E12A5A7780812A5E87F847E1631
:103C230012C8AE2290FF0EEFF07F2112F6CB78641C
:103C3300A60608A60712F5EF90FF0EE0C3941F40F7
:103C430006750B1F023E2BE56B25E025E024E8F506
:103C530082E43404F58312A5B37B407A4B794C7824
:103C630000D312A5704005755C018003755C03AF3A
:103C73005C12E8FA750B1F7F107E1C12C8AE12038C
:103C830042786E12A5A7E412A31C7BE17AC9797E60
:103C9300784012A201E4FBFAF9783F12A00712A3BD
:103CA3005A90FFA812A5F490FF0EE004FF12E8FA61
:103CB30090FFC112A6197FFFFFFF90FF0EE090FF58
:103CC3007FF090FF7EF0F50B7F107E1C12C8AE12C2
:103CD300034290FFA812A5B3786E12A5CFC312A515
:103CE30070500890FF857401F0800690FF8574FF83
:103CF300F090FFA812A5DCC000786E12A5A7D00033
:103D030012A3FA12EEF090FFC112A5F490FF85E022
:103D1300FF90FF7FE02FF0E0F50BE50BC39401501C
:103D230003023DA4E50BD3941F50767F107E1C1233
:103D3300C8AE12034290FFA812A5DCC000786E1231
:103D4300A5A7D00012A3FA12EEF0787212A5E8909C
:103D5300FFC112A5B3787212A5CFC312A570501379
:103D6300787212A5A790FFC112A5F490FF7FE0908F
:103D7300FF7EF090FF85E0B4011390FFA812A5B376
:103D8300786E12A5CFD312A5704081801490FFA83E
:103D930012A5B3786E12A5CFC312A5704003023DDE
:103DA3000FE56B25E025E024E8F582E43404F58390
:103DB30012A5B3786E12A5E87F607EE37D167C00C2
:103DC300786E12A5CFD312A570500890FF7E7401B0
:103DD300F0804F7FA07E257D267C00786E12A5CFD4
:103DE300D312A570500890FF7E7402F080347FC018
:103DF3007EC67D2D7C00786E12A5CFD312A57050A0
:103E03000890FF7E7403F080197F007E097D3D7C5E
:103E130000786E12A5CFD312A570500690FF7E7462
:103E230004F090FF7EE0F50B7F107E1C12C8AE7F7E
:103E33002212F6CB7864A60608A60712F5EF750BD7
:103E4300817F5C7E1012C8AE22E56B600678B37684
:103E530008800478B3760478B3E6FF12960DE56B19
:103E630060047F4080027F2012960DE56B6005534E
:103E73009DEF8003539DFE78B2760478BBE4F6127F
:103E83009E6974D7256BF582E43404F583E020E35F
:103E93000A900713E0FF600312008E7F007E121268
:103EA300C8A6430B01120266530BFE78B5A60B7826
:103EB300B1E6605474D7256BF582E43404F583E0EE
:103EC30030E50B78B574F756F64404F6801378B5ED
:103ED30074FB56F690FFF0E030E10678B2740846C2
:103EE300F67F387E1212C8A1E4F55C78B1E55CC3B5
:103EF30096502174F0255CF582E434FFF583E0F5F8
:103F03000B120266055C80E378B2740846F678B556
:103F1300740C46F61296B77F007EC07D347C4478DD
:103F23008612A5CF12A0F8E4FBFAF9783F12A00796
:103F330012A35AEFEE540FFEE4FDFC786E12A5E8CF
:103F43007FF47E1612C8A67808C00012A5A7E4FF66
:103F5300EE54F0FEEDECD00012A5E87808C0001294
:103F6300A5A7786E12A5CF12A532D00012A5E8122C
:103F730002667FE87E1612C8A6E4FFFE7D707C42CF
:103F8300788612A5CF12A0F8E4FBFAF9783F12A0C5
:103F93000712A35AEFE48F5C855C081202667FF078
:103FA3007E1612C8A6855C081202667FE47E16128E
:103FB300C8A67F007EE87D807C46788612A5CF1256
:103FC300A0F8E4FBFAF9783F12A00712A35A780885
:103FD300A60608A607120266750B047F5C7E121202
:103FE300C8AEE56B25E024FCF582E43406F583E0F6
:103FF300FEA3E0786CA60608F606E61870010678BC
:104003006CE6FE08E6FFE56B25E024FCF582E4346C
:1040130006F583EEF0A3EFF078B5E6F50B430B025C
:104023007F007E1212C8AE7F287E1712C8A6E5084D
:1040330054037006E50854E070031201A67F5C7E0A
:104043001212C8A6E50B20E2F112008680D922E401
:1040530090FFD1F07409256BF582E43405F583E014
:1040630030E50302424EE56B25E025E024F0F582BE
:10407300E43404F58312A5B3E4FFFEED5410FDE42C
:10408300FCED600302424EE5CF4408F55CE56B604E
:104093000575CF09800375CF0A636B0190FF4DE06F
:1040A300F55D90FFC512A5B390FF1412A5DC12A312
:1040B300ED90078312A5F47F087E1D12C8A6855CC8
:1040C300CF636B01780812A5A79007C412A5F4E586
:1040D3006B25E025E024E8F582E43404F58312A59A
:1040E300B3E412A31CA804A905AA06AB07E56B2534
:1040F300E025E024F0F582E43404F58312A5B3EF60
:104103005404FFE4FEFDFCEF600A7F9A7E997D195B
:104113007C3F80087FCD7ECC7D2C7C3F12A0F812A3
:10412300A35A786E12A5E890078312A5DC90FF14BA
:1041330012A5B312A3FA12EEF0786E12A5CFD31222
:10414300A570500302424E636B01E4F55CE55D30FC
:10415300E5147FE47E1512C8A6E508541FFFBF11BE
:104163001D755C018018750B097F687E1212C8AE3D
:10417300120262E50B5409FFBF0903755C01636B0F
:1041830001E55C601F90078312A5B390FF1412A58D
:10419300F49007C412A5B390FFD212A5F490FFD1F7
:1041A3007401F022786E12A5CF90FFCD12A5B31241
:1041B300A3FA787212A5E8786E12A5A790FFCD1224
:1041C300A5DC12A3ED90078312A5F490078312A533
:1041D300DC90FFCD12A5B312A3FA12EEF0C004C017
:1041E30005C006C007787212A5CF90FFCD12A5B304
:1041F30012A3FA12EEF0A804A905AA06AB07D0078A
:10420300D006D005D004C312A55A500B787212A55C
:10421300A790078312A5F4E5CF4408F55CE56B602E
:104223000575CF09800375CF0A90078312A5B39054
:10423300FF1412A5F490FFC512A619000000006335
:104243006B011203FE636B01855CCF22E4F5607F93
:10425300E47E1712C8A6E50A540B64036023AF601B
:104263000560EFC394235010788A12A60000000360
:10427300E8E4FF1202BA80D77BFF7A0379FA1200CF
:104283007E780812A6001A0000007FE87E1712C885
:10429300AE90FFBD12A6198000000090FFDA12A6AF
:1042A3001900000000756102786E12A6000000007C
:1042B3000090FFB912A61980000000756020E56028
:1042C300606B7FE47E1712C8A6E56030E0267909AB
:1042D3007808E6FFD3E76480F8EF64809840397884
:1042E3006E12A5A790FFB912A5DC12A532786E1243
:1042F300A5E880247809E6F4047908C36480F8E724
:104303006480985013786E12A5A790FFB912A5DCAC
:1043130012A532786E12A5E8156090FFB912A5B305
:10432300780112A58190FFB912A5F48091E561B4DB
:10433300021C786E12A5A7EF64C9FFEE6483FEED3D
:10434300649DFDEC6471FC786E12A5E8801A786EAA
:1043530012A5A7EF64FAFFEE642DFEED6442FDECB7
:104363006453FC786E12A5E890FFB912A619800079
:10437300000090FFB912A5B3EC4D4E4F607090FF53
:10438300DA12A5B3C004C005C006C007786E12A533
:10439300A790FFB912A5DC12A525EC4D4E4F601076
:1043A30090FFBD12A5B3AB07AA06A905A80480090F
:1043B300E4FFFEFDFCFBFAF9F8D007D006D005D0E8
:1043C3000412A53290FFDA12A5F490FFBD12A5B333
:1043D300780112A58190FFBD12A5F490FFB912A533
:1043E300B3780212A58190FFB912A5F480841561F8
:1043F300E56160030242AB1261A18F5CE55CC3130C
:10440300F55C78A774C056F6E55CC39404500302C8
:10441300427BE55CD39411400302427B748046F6F1
:10442300E55C241C46F6788F76000876017BFF7ADC
:1044330003795E12007E22788A12A60000004E20C5
:104443001203567F607E1212C8A6E50B30E2030208
:10445300455990FFE37464F079BC09E7194760306C
:1044630078BCE4F608F6799109E719477005755D9C
:104473000A8003755DC87892E55D26F618E436F682
:104483007991D309E794BC19E7940240140245C01B
:10449300799109E719476009789108E616187001C0
:1044A30016798FC309E794D019E79402500B788FDC
:1044B3000806E6187001068009788A12A600001E15
:1044C3008480798F09E7641E1947700A750B0A7F88
:1044D300C87E1012C8AEE4F55C78BFE670317891FF
:1044E30008E6240AFF18E436FE798FC309E79F190B
:1044F300E79E4034755C0108E62414FF18E436FE99
:10450300C309E79F19E79E401F78BF76018019789A
:104513009108E62414FF18E436FE798FC309E79F58
:1045230019E79E4003755C01E55C60247410256BFC
:10453300F582E43408F583E04480F090FF7DE07079
:1045430009129DBD90FF7D7401F01200A20245F88F
:104553001200A60245F81200A6798F09E7194760F1
:104563001F788FE4F608F6789274C826F618E436B6
:10457300F67991D309E794BC19E794024013803D7F
:10458300799109E719476009789108E616187001CF
:104593001690FFE3E0FF79BCC309E79F19E7940096
:1045A300501B09E71947700A750B4A7FC87E101222
:1045B300C8AE78BC0806E618700106802EE56B25A8
:1045C300E025E024F0F582E43404F58312A5B3EF8B
:1045D3005440FFE4FEFDFCFBFAF9F8C312A570702A
:1045E3000A7BFF7A0179D212007E22750B0C7F6061
:1045F3007E1212C8AE7BFF7A0179CA786712A65F72
:10460300E4FF1201FA22E56B600C9007AEE030E1A3
:104613001178897609229007AEE030E00578897633
:1046230009227F0D12F1E7EF70030247A37F6E7D2E
:104633000412F81E7F007EE97DA47C35786E12A5F6
:10464300CFC312A57040137F007E5E7DD07CB2780D
:104653006E12A5CFD312A57040057889760D2290EE
:1046630004CFE030E60CE56B600543AC0280034306
:10467300AC017EFF7F4D7D0512F7D890FF4DE054CE
:104683003FF0E56B25E025E024F0F582E43404AF48
:1046930082FE7D0412F7D8E56B25E025E024F0F5D2
:1046A30082E43404F58312A5B3E4FFFEFDEC54C0A9
:1046B300FCE4FBFAF978C0C312A57070030247A3A8
:1046C300E56B25E025E024F0F582E43404F583125C
:1046D300A5B3E4FFFEFDEC5440FCE4FBFAF9F8C398
:1046E30012A570700B786E12A5A790FF5212A5F455
:1046F300E56B25E004FF789CF612008290FF84743A
:10470300FFF090FF4DE030E5127887E630E60C903D
:1047130004CFE030E7057889760C221200A690FFDB
:104723004012A619000000007410256BF582E434D2
:1047330008F583E4F090FF7DF0129DBDE56B25E065
:1047430025E024F0F582E43404F58312A5B3E4FFF5
:10475300FEFDEC5440FCE4FBFAF9F8C312A57070BB
:10476300149004CFE020E32C7BFF7A0279DE786794
:1047730012A65F801F90FF4DE030E50D7BFF7A01AD
:1047830079DA786712A65F800B7BFF7A0179BE78AE
:104793006712A65F789CE6FF786712A65612007A26
:1047A30022129EA21201F21201EE12014E120152C6
:1047B30012015612015A12015E1201621201DE1237
:1047C3009EA27F8A7D0212F827E56B25E025E0246F
:1047D300E8F582E43404AF82FE7D0412F7CD7EFF58
:1047E3007F4E7D0812F7CD74E6256BF582E4340421
:1047F300F583E0F5BA7EFF7F107D0412F7CD7F8C41
:104803007D0C12F8277F9D7D0812F8277EFF7F34E9
:104813007D1112F7CD7F507E1012C8A6E50BB4C0F0
:1048230034900505E0B4FF1790FF8A12A619001E05
:104833004C2690FF8E12A6190008A5FE0248C190CF
:10484300FF8A12A619001E8C2690FF8E12A619004D
:10485300062E658069E50BB44033900505E0B4FF8F
:104863001690FF8A12A619000A123390FF8E12A621
:1048730019000284D9804790FF8A12A619000A15ED
:104883005590FF8E12A6190002054B803190050545
:10489300E0B4FF1690FF8A12A6190007921690FF44
:1048A3008E12A61900022528801490FF8A12A619D9
:1048B3000007A21690FF8E12A6190001D9237F606C
:1048C3007E1412C8A6780812A5A7780812A58190AD
:1048D300FF8A12A5DC12A3FA90077F12A5F490FFBA
:1048E3008E12A5B3E412A31CC004C005C006C00702
:1048F30090077F12A5B3EC12A31CD003D002D00102
:10490300D00012A201E4FBFA7980784912A0F812D0
:10491300A35A786E12A5E8787612A5A712A35A783F
:104923007212A5E87F6E7D0812F82722125C8B783D
:1049330093E6702478BEE6B4011EE4FFFEFDFC900E
:10494300FF2412A5DCD312A55A400D789C12A5A70B
:1049530012A30B789C12A5E878BEE62401FFE4338A
:10496300A2E713EF13F55CFCE412A326789C12A5CF
:10497300CF12A0F812A35A90077F12A5F478BEE6CF
:1049830030E00F90077F12A5B312A54C90077F125A
:10499300A5F4E4FFFE7D807C3D90FF1C12A5DC1294
:1049A300A0F8C004C005C006C007AC5CE412A3268F
:1049B300D003D002D001D00012A0F8C004C005C0BB
:1049C30006C00790FFC912A5B3E412A31CA804A94B
:1049D30005AA06AB07D007D006D005D00412A29EC5
:1049E300500A7BFF7A02793612007E2290077F12EB
:1049F300A5B390FF2812A5F478BEE6702290FF4E6F
:104A030012A5B3EC4D4E4F601678A812A5A7789463
:104A130012A5E878AC12A5A7789812A5E8801478B7
:104A2300A012A5A7789412A5E878A412A5A7789850
:104A330012A5E8129EA212022290FF2812A5B378B3
:104A43000812A5E87FD47E1412C8AE90FF4DE0B4DF
:104A5300060E788A12A60000007530E4FF1202BA2F
:104A630090FF4E12A5B3EC4D4E4F602E78BEE6700C
:104A7300297BFF7ADD797E90FF0B12A67190FF08E8
:104A830012A671E47F03FEFDFC78B812A5CF12A431
:104A930008788A12A5E812023E2278B812A5A778F0
:104AA3008A12A5E812024222E4F5ABF5ACF5AEF5A5
:104AB300ADF5BDF5BCF50E9007AEF09007B1F05320
:104AC300B2FB539ADF9004FC12A5B3780812A5E851
:104AD3007F087E0012C8AE90070F12A5B3780812A4
:104AE300A5E87F0C7E0012C8AE900500E0F50B7FB1
:104AF300307E0012C8AE7F0612F6CB7864A6060895
:104B0300A60712F5EF9004D112A5B3780112A5817F
:104B1300E412A31C787E12A5E8756002AC60E4126F
:104B2300A326C004C005C006C007787E12A5A7D07F
:104B330003D002D001D00012A20112A35AE56025CE
:104B4300E025E0248EF582E43407F58312A5F4E52D
:104B53006025E025E0248EF582E43407F58312A571
:104B6300B3E412A31CA804A905AA06AB077F807EA1
:104B7300967D987C4C12A20112C53B12A35A749CD9
:104B83002560F582E43407F583EFF0E56025E02541
:104B9300E0248EF582E43407F58312A5B3E412A36F
:104BA3001CA804A905AA06AB077F807E967D187C06
:104BB3004D12A20112A35A749C2560F582E43407B6
:104BC300F583E0FEC3EF9E04FF749E2560F582E447
:104BD3003407F583EFF00560E560D39403500302D7
:104BE3004B1F9004CFE030E20B7BFF7A04790E7FFA
:104BF3000212007A7BFF7A0079BA7F0112007A9061
:104C030004CFE030E40C7BFF7A59795B7F03120019
:104C13007A227BFF7A0079BA7F0312007A22E47F3B
:104C230005FEFDFC90FF4012A5DCC312A5705008E1
:104C330090FF997403F0800690FF997406F07FE863
:104C43007E1012C8A6430B0112026678A012A5A714
:104C5300789412A5E878A412A5A7789812A5E8126B
:104C6300022278B012A5A7789412A5E878B412A509
:104C7300A7789812A5E812021E90FF2412A6190025
:104C83000000007893E4F678BFF6E56B25E025E0B5
:104C930024E8F582E43404F58312A5B3786E12A5F3
:104CA300E87FC07EEA7D217C01786E12A5CFD31206
:104CB300A570400C90FF1C12A6194B989680801C7F
:104CC300E56B25E025E024E8F582E43404F583125E
:104CD300A5B3E412A31C90FF1C12A5F490FFD1E02E
:104CE30070137F807EC37DC97C01786E12A5CFD3FC
:104CF30012A570400E90050112A5B390FFC912A52D
:104D0300F4802E7F007E2D7D317C01786E12A5CF3D
:104D1300C312A570400C90FFC912A619001E84800F
:104D2300800F90FFDE12A5B312A35A90FFC912A5FC
:104D3300F4787612A5CF90FF1C12A5B312A201E45A
:104D4300FBFAF9784E12A0F8789C12A5E87F007E52
:104D53002D7D317C01786E12A5CFC312A57040174B
:104D6300789CC00012A5A77BCD7ACC79CC783F1272
:104D7300A0F8D00012A5E87BFF7A02792612007E04
:104D830022129DE37FA47E1212C8A6E50B30E20433
:104D93007F0880027F048F5C9004D112A5B3E412D4
:104DA300A31CC004C005C006C007AC5CE412A32664
:104DB300A804A905AA06AB07D007D006D005D004DE
:104DC30012A201C004C005C006C007788FE6FCE448
:104DD30012A326D003D002D001D00012A0F8C00441
:104DE300C005C006C0077890E6FCE412A326D003F2
:104DF300D002D001D00012A0F8787A12A5E87891F9
:104E0300E6FCE412A326C004C005C006C007787AF6
:104E130012A5A7D003D002D001D00012A201787E40
:104E230012A5E87F787E1312C8A6E50B540FFCE4A5
:104E330012A326C004C005C006C007787E12A5A72A
:104E4300D003D002D001D00012A201787A12A5E8D3
:104E5300750B277F407E1312C8AE750B207F687ECB
:104E63001312C8AE7F1512029E788FE6FFC454F06A
:104E7300FF08E6540F4FF50B7FA07E1212C8AE7FDA
:104E83000512029E7891E6540F4420F50B7F407E75
:104E93001312C8AE750B207F687E1312C8AE7F1540
:104EA30012029E1201F21201CEE56B25E025E024E9
:104EB300E8F582E43404F58312A5B3E412A31CC01D
:104EC30004C005C006C007787612A5A7D003D00298
:104ED300D001D00012A20190FF9512A5F422120373
:104EE3008678A7E6543FF55D129B5DEF6020786CF2
:104EF300762A087630E55DD3942A5005755C0180E7
:104F030003755C02E55D24D8255CF55C800D786C47
:104F1300763F087648E55D24E0F55CE55C90F3AC0C
:104F230093FFE4FCFDFE7B0CFAF9F812A4087872F7
:104F330012A5E8E56B25E025E024E8F582E43404D6
:104F4300F58312A5B3E412A31CC004C005C006C0B8
:104F530007789C12A5A7D003D002D001D00012A2DB
:104F630001C004C005C006C007786CE6FC08E6FD76
:104F7300E412A321D003D002D001D00012A0F8C0C4
:104F830004C005C006C007787212A5A7E412A31CCB
:104F9300A804A905AA06AB07D007D006D005D004FC
:104FA30012A003C004C005C006C007E55C90F3A4CB
:104FB30093FFE4FCFDFE787212A5CF12A3EDE41279
:104FC300A31CA804A905AA06AB07D007D006D005E1
:104FD300D00412A20112A35AAD07AC06E412A32116
:104FE300E4FBFAF9784012A0F812A35A786CA606EB
:104FF30008A607D3E6949618E694004005760008C1
:10500300769675F004E55D90E92212A64A12A5BFD3
:10501300780812A5E8E4F509F508786CE6FE08E6D9
:10502300FF7808A60608A6077F087E1812C8AE22D6
:1050330078BEE670407FD47E1412C8A6780812A505
:10504300A790077F12A5F490FF2412A5DCC000C02F
:1050530001C002C00390077F12A5DC90FF2812A5B0
:10506300B312A3FAD003D002D001D00012A3ED9063
:10507300FF2412A5F479BCD309E7940A19E7940035
:105083004003025148788FE6FC08E6FDE412A321B1
:10509300E4FBFA7920784112A0F8C004C005C006E9
:1050A300C0077891E6FC08E6FDE412A321A804A951
:1050B30005AA06AB07D007D006D005D00412A2017B
:1050C30012A35A786CA60608A60779BC18E6FC0852
:1050D300E6FDD30997EC1997406BE412A321E4FB97
:1050E300FA7920784112A201C004C005C006C007A6
:1050F30078A812A5CFC00078A012A5A7D00012A04F
:1051030003D003D002D001D00012A0F8C004C00520
:10511300C006C00778A012A5A7D003D002D001D043
:105123000012A003789412A5E878A412A5A7789892
:1051330012A5E8129EA2120222786CE6FE08E67817
:10514300BCA60608F67991788F0806E61870010662
:105153008606C30997EE1997501A788A12A600009B
:10516300004E207BFF7A027946786712A65FE4FF40
:105173001201FA227BFF7A02792E12007E227FA48B
:105183007E1012C8A6E50B5406F55C7FA87E1412A8
:10519300C8A6780812A5A790077F12A5F4E55C249A
:1051A300FE601324FE601424047015787A12A6009E
:1051B30042800000800DE4F55C8008E4F55C800328
:1051C300E4F55C7F5C7E1012C8A6E50B30E1137832
:1051D3007A12A5A7E4FBFAF9783F12A0F8787A12BD
:1051E300A5E890077F12A5B3EC12A31C787A12A549
:1051F300CF12A20112A35A90077F12A5F47FAC7EAF
:105203001412C8A690077F12A5B3780812A5CF126F
:10521300A3ED90077F12A5F47F487E1012C8A690D5
:10522300077F12A5DCE50B5407FFC374089FFFE457
:105233009400FEE4FCFD12A40890077F12A5F490ED
:10524300077F12A5B3EC12A31CC004C005C006C09F
:1052530007787612A5A7D003D002D001D00012A2FE
:1052630001E4FBFA7980784B12A0F8787A12A5E86A
:105273007F587E1312C8A6E50B30E113787A12A586
:10528300A7E4FBFAF9784012A0F8787A12A5E87837
:105293007A12A5A712A35AE56B25E025E024E8F5C9
:1052A30082E43404F58312A5DC12A3FA788C12A5E8
:1052B300E82278A4E60820E02178A8E4F6788FE6CF
:1052C3005407600F9007BBE004F074F956F64401ED
:1052D300F680077D027F0112044A788FE630E30DE2
:1052E30078A2760212031212040A0253D6788FE6CA
:1052F30020E0030253D678A6E6547FFE08E654FC6A
:105303004E600C9007BBE0D3940250030253D6E4E3
:105313009007C0F0900947E070030253B9788F7487
:10532300FE56F612032E789812A5A7EC4D4E4F6049
:1053330062120316788F740246F678A276027FAC67
:105343007E3112C8A6780812A5A79007BC12A5F44F
:10535300789812A5A79007BC12A5DCD312A57040BC
:10536300169007BC12A5B3789812A5CF12A3FA9092
:1053730007BC12A5F48017129C72129D5378A408DF
:10538300E630E7047F8780027F881202FE22120341
:105393000E8040788F741046F6780812A60000013C
:1053A30000007FC07E3012C8AEE49007C8F0788F4B
:1053B300740446F6801D129C72789C760508763834
:1053C30008E4F608760F08F678A376EB1204327831
:1053D300A87601788FE630E40312031A22E56B60A6
:1053E3000A9007C2E0540AF56080089007C2E054AF
:1053F30005F560E5605403F561E560540CF56290D2
:1054030007AEE0FF5561F563E5625F90FF7EF0E56F
:1054130061600FE563600B9007AEE0E561F4FEEFBA
:105423005EF0E562601290FF7EE0600C9007AEE0F4
:10543300FFE562F4FEEF5EF0E5616056E5626052FF
:10544300E563604E90FF7EE060487F387E0012C8BF
:10545300A6E56B6005530BF78003530BDF1202665F
:105463007F0C7E0012C8A6E56B601B530B3F530AEB
:10547300F090FFECE0FFC4333354C0420BEF13133F
:10548300540F420A8009530BC090FFECE0420B1209
:105493000266E5616004E563700AE562601590FFEA
:1054A3007EE0600F7F2012F6CB7864A60608A6077D
:1054B30012F5EFE5616030E563602C90FFBCE0F529
:1054C3000B7F647E1312C8AE7F5C7E1012C8A643A6
:1054D3000B011202667F2C12F6CB7864A60608A68F
:1054E3000712F5EF12018AE562601790FF7EE06014
:1054F300117F247E1212C8A6430B807F247E1212D2
:10550300C8AE12008A22011C9C240110440301101E
:10551300C00F0111440002159C00FF00000215801A
:1055230000010000080003CA0214A0004CE080023E
:1055330014A400033CF70111200309C8080003E287
:105543000111200108009B7D08000376011124004E
:105553000111288208000382011134C001116C0B70
:10556300011138000111400701114C00011150A233
:105573000111540001115C5902156800100000026A
:10558300156C00000800021570000F00000215786A
:10559300000000FF021588000000000215900901B9
:1055A3000A03021598000000000215940100000090
:1055B3000215A0020100000215A402010000021559
:1055C300B0201000000217C00AF01510080092B4B2
:1055D3000214102EF82E200C001414862202141824
:1055E300020F00000C0017C8862A0C0017CC863265
:1055F3000C0017D0863A0C0017D486420C0017D83B
:10560300864A0C0017DC86520217E0000000000BEC
:1056130000118C05F30800037A011120030079BC03
:10562300788FE6FE08E6C30997EE1997400A7BFFD9
:105633007A0179C612007E2290FF2C12A5DCC000ED
:1056430078A812A5A7D00012A003E4FBFA7980780A
:105653004012A201787A12A5E8788F08E62401FDAA
:1056630018E436FCE412A321787A12A5CF12A0F82D
:10567300C004C005C006C00778A812A5A7D003D0F0
:1056830002D001D00012A003789412A5E8788F0805
:10569300E62401FD18E436FCE412A32178AC12A53C
:1056A300CF12A007789812A5E8129EA212022278C0
:1056B3008F0806E61870010690FF3012A5DCC000C3
:1056C30078B012A5A7D00012A003E4FBFA79807882
:1056D3004012A201787A12A5E8788FE6FC08E6FD6D
:1056E300E412A321787A12A5CF12A0F8C004C00552
:1056F300C006C00778B012A5A7D003D002D001D04E
:105703000012A003789412A5E878B412A5A778989C
:1057130012A5E812021E129EA2788A12A6000001A8
:1057230086A07BFF7A027956786712A65FE4FF12A0
:1057330001FA227B007A007900786712A65F78A9C4
:10574300E620E00302584978A408E6541864087078
:105753000F1202FAEF7009129DF37F821202FE22EA
:105763007BFF7A02798A786712A65F900902E05478
:105773000FFF74017E00A807088005C333CE33CE24
:10578300D8F9FF78A6EE56FEEF08564E700302587E
:10579300237897E664017059788FE6540770467F43
:1057A300011204227BFF7A04793E786712A65F9088
:1057B300090612A5B390080C12A5F4E49007BBF0F8
:1057C3009007C0F0788F0446F678A2760278981294
:1057D300A6000016E3609007BC12A6190016E3604A
:1057E30012030E804478A974FE56F67F8A1202FED5
:1057F300227897E6B4051178AA740846F690090250
:10580300E0B40104742046F678AA740446F678A23C
:10581300E4F6789812A6000016E36012030E8009DE
:10582300129DF37F891202FE22786712A656EA4977
:105833004B6013786712A65612A6A07B007A0079F4
:1058430000786712A65F22E56B25E025E024F0F5DA
:1058530082E43404F58312A5B3E4FFFEED5408FD9E
:10586300E4FCED600C780812A60000000050025919
:10587300537F087E1812C8A67808E65407FE08E688
:10588300FF786CEEF608EFF6D39496EE9400401092
:1058930018760008769678087600087696120266DF
:1058A30078A7E6543FFFBF280B787A12A6003F2E55
:1058B300147B8009787A12A6003F0F5C29786CE686
:1058C300FC08E6FDE412A321787A12A5CF12A0F812
:1058D300E4FBFAF9783F12A00712A35AEF7802C348
:1058E30033CE33CED8F9796DF7EE19F7E56B25E0B2
:1058F30025E024E8F582E43404F58312A5B37B4064
:105903007A4B794C7800D312A5704008755C0B75FF
:105913005D0A8006755C09755D07E55DC454F04456
:1059230005F50B786DE65403FFC4333354C0FFE52C
:105933005C540F4FF50A18E6FC08E6FDAE04780246
:10594300CEC313CE13D8F9F509EC13135407F50896
:105953007F487E1812C8AE22E56B600A9007C2E04A
:10596300540AF56080089007C2E05405F560E560CD
:105973005403F5619007AEE0FF5561F563E561609F
:1059830015E5637011E5614FF07F647E1312C8A6BD
:1059930090FFBCE50BF0E560540CF5629007AEE0B8
:1059A300FE556290FF7EF0E5626017E07014E562D9
:1059B3004E9007AEF07F247E1212C8A6530B7F12BF
:1059C3000266E5616013E563700F7F1F12F6CB7803
:1059D30064A60608A60712F5EFE562601BE56160A1
:1059E30017E563701390FF7EE0700D7FA47E1212A3
:1059F300C8A6430B42120266E5616068E563706402
:105A03007FA07E1112C8A6430B30120266E56260C6
:105A13005390FF7EE0704D7F0CFE12C8A6E56B60CD
:105A23001FAF0BAE0AAD09AC08780612A581EF547F
:105A33003FFFE490FFECEFF0430BC0430A0F800BF2
:105A4300E50B543F90FFECF0430B3F1202667F38A7
:105A53007E0012C8A6E56B6005430B088003430B69
:105A63002012026612008A22AF0F1200C678B274A7
:105A7300FB56F67F287E1712C8A6E50830E025E519
:105A83000A30E40878B2740146F68018E50A30E378
:105A93000878B2740246F6800BE50A30E20678B263
:105AA300740346F6E509131313540F78BBF660230A
:105AB300E4F55C7F3C7E1212C8A674F0255CF58287
:105AC300E434FFF583E50BF0055CE55CC39410401B
:105AD300E2801A74D7256BF582E43404F583E03051
:105AE300E30B78B2E630E3057F1E12008E750B7F61
:105AF3007F0C7E1212C8AEE4F50B1202667F047EA1
:105B03001212C8A6430B221202667F007E1212C82D
:105B1300A6430B0112026678B3E6FF12F26F78B365
:105B2300E4F6E56B60047F4080027F2012F26FE5AC
:105B33006B25E02400F582E43407F583E0FEA3E05F
:105B4300786CA60608F606E618700106786CE6FE81
:105B530008E6FFE56B25E02400F582E43407F583CE
:105B6300EEF0A3EFF0E56B6005439D108003439DCA
:105B73000175F52012008A22751DFF751C057F1023
:105B8300129B9D8065120076EF605FE50F04F55C64
:105B93007436250FF8E66403703BE55CC454F0FFEC
:105BA300E55C44884FF5CE7581C0E55C30E208754D
:105BB3006B0175CF0A8006E4F56B75CF0974362542
:105BC3000FF87604E50F75F003A42445F812A656E2
:105BD30012A6A080157436250FF8E6B4040CE50F61
:105BE30025E025E02422FF12F083E50E7003025C1A
:105BF3007D20E491E50E30E0157BFF7A0079C2E465
:105C0300FF12007A7F0112F8157F4012F842E50E69
:105C130030E14CE4F55DF55C747A255CF582E4349F
:105C230007F583E0D39400401F747A255CF582E482
:105C33003407F583E014F0700D7436255CF8E6B490
:105C4300010676048002055D055CE55CB405C9E5E3
:105C53005D70031200927F0212F815E50E601BE5DA
:105C63000E540CFFBF0C137F0412F8157F0812F8B3
:105C73001543B204439A20439C80E5147003025BEE
:105C8300881200B2025B88227F887E1412C8A6782D
:105C93000812A5A7E4FFFEEDEC786E12A5E87F904D
:105CA3007E1412C8A6780812A5A7E4FFFEEDEC90B7
:105CB300078312A5F490070B12A5B3786E12A5CF34
:105CC300D312A5704018E4FFFE7DFF7CFF9007838D
:105CD30012A5DCC312A5706003025D6380239007E5
:105CE3000B12A5B3786E12A5CFC312A5707035FF42
:105CF300FE7DFF7CFF90078312A5DCC312A57070A5
:105D0300107F2912F6CB7864A60608A60712F5EFD2
:105D130022E4FFFEFDFC90078312A5DCC312A570ED
:105D230070738011E4FFFEFDFC90078312A5DCC3B2
:105D330012A570702B7F2D12F6CB7864A60608A6E9
:105D43000712F5EFE4F50B7F947E1C12C8AE7808BA
:105D530012A600000000007F907E1412C8AE802BB4
:105D63007F2B12F6CB7864A60608A60712F5EFE49C
