:1000000002D4E202F3AA7893760C2202DB5D01406F
:1000100048400002F30890F860EFF0A3EDF090067E
:1000200086E0FF7D0212AB0BEF700790F819E044F9
:1000300020F02202F3E985FF0885FF0985FF0A8584
:10004000FF0B2202979EC2A9C28C2202F3D17F002D
:0200500022226A
:0300530002F3872E
:10005B0002F3B9AF80228F80227FA87E4112846287
:10006B00780812EDF5786412EE367FAC7E4112847F
:10007B0062780812EDF5786812EE36786812EDF5B5
:10008B00786412EE1D12EC3BE412EB1CC004C005AD
:10009B00C006C007786412EDF5E412EB1CD003D058
:1000AB0002D001D00012EA01C004C005C006C0078F
:1000BB0090F88A12EE01E412EB1CD003D002D001AF
:1000CB00D00012E8F8E4FBFA7980784012E8F8E403
:1000DB00FBFAF9783F12E80712EB5A90F8B412EEDC
:1000EB00427F587E43128462E50B30E11C755C0144
:1000FB0090088BE0601690F8B412EE01780112EDC7
:10010B00CF90F8B412EE428003E4F55C90088BE0DC
:10011B006003020238FB7DFD7F947E4112D6C57FC2
:10012B009C7E41128462530BEB430A04530AFCE599
:10013B005C6003430A0112A37A12DB717F007E0914
:10014B007D3D7C0090F8B412EE2AC312EDBE400D3B
:10015B0090F8B412EE01786412EE36803D90F8B44C
:10016B0012EE01E412EB1CA804A905AA06AB077F4B
:10017B00007E247D747C4A12EA0112EF3812EB5A8E
:10018B008F5CE4FCFDFE90F8B412EE2A12EC56786C
:10019B006412EE36E55C4440F50B7FCD7E41128454
:1001AB006A786412EE1D7F807E9E7D477C3012EC58
:1001BB00E1EF04F561FFE4FCFDFE786412EE1D1225
:1001CB00EC56786812EE36786812EDF5EF2440FFA6
:1001DB00EE3403FEED3464FDEC34FEFC7BC07AFCA4
:1001EB00799B780112ECE1EF04F562FFE4FCFDFE74
:1001FB007BC07AFC799B780112EC56C004C005C019
:10020B0006C007786812EDF5D003D002D001D000FC
:10021B0012EC48E412EB1C7BA77A12791F783F1281
:10022B00E8F812EB5A788C12EE360203597F9C7E5B
:10023B00411284627F807EB17D4F7C0190F8B412B5
:10024B00EE2AC312EDBE5009430B1012A37A020320
:10025B00D6530BEF12A37A780812EE4E202C2820DF
:10026B007FCC7E4112846A90F8B412EE01E412EB5B
:10027B001C7BAE7A477981783F12E8F812EB5A78FB
:10028B006412EE36788C12EE4E7FFFFFFF90F9234F
:10029B00E4F0A3741EF090F923E0FEA3E0FFD394E7
:1002AB0028EE94004003020350E4FCFD90068112FB
:1002BB00EE2A12EC56786412EE1D12ECE190F92541
:1002CB00EFF0900685E030E50890F925E0FFC313C9
:1002DB00F090F923E0FEA3E0FFE4FCFD9006811211
:1002EB00EE2A12EC56C00790F925E0FFFBE4FAF971
:1002FB00F8D00712ECE1786812EE3690F8B412EEF3
:10030B002AC000786812EDF5D00012EC48786C1218
:10031B00EE36788C12EDF5786C12EE1DC312EDBE35
:10032B005016786C12EDF5788C12EE3690F924E0BD
:10033B00F56290F925E0F56190F923E475F001126F
:10034B00EBED0202A1788C12EE4E000000007B2434
:10035B007DA67FD07E4112D6C5750B037FD87E411B
:10036B0012846A788C12EDF5780812EE367FC07E17
:10037B004112846A12DB7185620B7FBC7E41128451
:10038B006A7FC47E41128462750B11900685E03042
:10039B00E503750B2185610AE4F509F50812A37ACB
:1003AB00750B027FD87E4112846AE4FB7DFB7FD004
:1003BB007E4112D6C57FD07E41128462E50930E6BC
:1003CB00F4E4F50B7FD87E4112846A90088BE060D1
:1003DB001DE57C25E0248DF582E43406F583A3E04E
:1003EB0030E00B7B107DFF7F9C7E4112D6C512DB6C
:1003FB007190F889E0FF5430FEBE300AEF643F6025
:10040B0005430B81801290F889E0FFC394204008CC
:10041B00EF94305003430B8090F89212EE01EF549F
:10042B0008FFE4FEFDFCEF6003430B08E57C25E0D1
:10043B00248DF582E43406F583E0A330E003430B0F
:10044B00047F947E4112846AE57C25E0248DF5823D
:10045B00E43406F583E0A330E005E4F50B80037587
:10046B000B1F7F287E4012846AE57C25E0248DF5E6
:10047B0082E43406F583E0F55CE4F50BE55C30E7EC
:10048B0003430B80E55C30E603430B40E55C30E552
:10049B0003430B207F987E4112846AE57C25E02480
:1004AB008DF582E43406F583E0A3E054FAF50B7F77
:1004BB00907E4112846A22E4F5B97893F67893E63C
:1004CB00600302058B7892A6B97891A6BAE6FF5421
:1004DB003F7896F67890A607C3943750207896E627
:1004EB0025E02431F582E434AAF583E493FE74010C
:1004FB0093AA06F97BFF785612EEAD8006789376B9
:10050B000B80727891E6FF607720E774EF30E61589
:10051B00900685E020E208757C0175CF0A800C7887
:10052B0093760B8050E4F57C75CF097891E6FF64E8
:10053B00236009EF641F6004EFB4200375CF0B78C1
:10054B005612EEA412EEEE7893E67029E5B904F597
:10055B005C7892E6F5B97891E644807890F6F5BA36
:10056B00C3E55C95B914FF12DEEC7890E6F5BA851D
:10057B005CB90204C87893E6F593439C020204C865
:10058B0075E40B439A2012DB472212243D90F8BCF2
:10059B0012EE01EC33500F90F8BC12EE0112ED9AF3
:1005AB0090F8BC12EE42E47F78FEFDFC9006C01280
:1005BB00EE2A12EC56E47B64FAF9F812ECE190F8AF
:1005CB00BC12EE2AD312EDBE40037F01227F002224
:1005DB0085FF5C12DB9DAFFFEFF8E47979F7E81943
:1005EB00F7AFFF7878E6F608E64FF690F889E0FF6C
:1005FB005430FEBE3015EF643F601078A9E6C3940B
:10060B00364033E6D3943A502D802178A9E654C076
:10061B00FFBF400718E620E11D801178A9E6543F83
:10062B00C394294011E6543F9430500A78797404EE
:10063B0026F618E436F67F0C12D4867878E6FE0898
:10064B00E6F5828E8312EE01780812EE3612D496FE
:10065B0012A37A2285FF5CAC5CE412EB267B107A4A
:0F066B005D79C4784012E8F812EB5A12F0BB2206
:1006800025019BFCC000D80200000000001A1A1AC5
:100690001A0000004E2000004E20011030300101F1
:1006A00000033450000334500000000F3C182700B2
:1006B0000B1800000043920C00900550001207CE6A
:1006C000004C4B40A00000000410050C050F04185E
:1006D000050F0410030F041F02880300029B020091
:1006E00004F2020001B2020001000100010000005A
:1006F00001000100010000000200020001000300EF
:1007000000000001000000000000000000000000E8
:1007100000000001000000000000000000000000D8
:10072000000016E360180BB8012C00000000010067
:10073000000064000020206E050F0418061E050B43
:100740002020000000000F00E4E1C001C9C38000C8
:100750003901FFFFFFFFFFFFFFFF00000000000067
:10076000000000000000000000FF0000000000008A
:1007700000000000000000004E2000004E2002D3C8
:1007800019B0114028E0207030F828E038C830F85F
:100790003F08373814A00C8024A81C382D0024A84A
:1007A00035A82DD03B2033504170399047D83FD0E9
:1007B0004BC043E057784FA85B60539078005000DF
:1007C0007800500078005000780050007800500009
:1007D00078005000780050007800500078005000F9
:1007E00078005000780050007800500078005000E9
:1007F0007800500000000000000000000000000031
:10094000D85AC9CE8A997A63D5B2DA9BDAA8DAB5D1
:10095000BA00FD0ADB02DB0E7CDAC9FFB8CEBCD8D8
:100960009E97C72CBA4BC2E88003CEC7B594C090FF
:10097000D467D0F0DA8DD906D82DDB52D6ABBB2A9E
:10098000DB8E5793CF5FDBBEDBBCDBBDC3D66CA079
:10099000C4F9DADCDBBF000ED2ECD5ECD40AD3EB21
:1009A000D018D03CD060BC03D5CFD289DBC0DBC12E
:1009B000DBC2CD88DAE9CF84900742E030E1030260
:1009C0000E549007007401F090F88E12EE01EC4D79
:1009D0004E4F602AE4FFFEFDFC90F8E412EE2AC3BD
:1009E00012EDBE700F90F88E12EE0190F90E12EE1D
:1009F00042020E3690F88E12EE6700000000E4FF0F
:100A000012C90712698F12D691EF6003020E6C7F34
:100A1000407E5D7DC67C0090F88A12EE2AC312EDFE
:100A2000BE5020E47F0CFEFDFC9006C012EE2A12A0
:100A3000EC56E47B0AFAF9F812ECE190F84412EE75
:100A400042800C9006C012EE0190F84412EE4290E3
:100A5000F91E12EE01787012EE367FCD7ECC7D4C01
:100A60007C41787012EE1D12EA9E50167FFC7EBE0D
:100A70007D007C4D90F85C12EE2A12EA9E70030213
:100A80000B6BE57C60047F2080027F1012C76290B0
:100A90000700E04402F07562017FCD7ECC7D4C7C86
:100AA00041787012EE1D12EA9E500690F9257408E6
:100AB000F07FCD7ECC7DCC7C41787012EE1D12EAA9
:100AC0009E500890F9257410F0805D7FCD7ECC7D1E
:100AD0004C7C42787012EE1D12EA9E500890F92567
:100AE0007420F080437FCD7ECC7DCC7C4278701228
:100AF000EE1D12EA9E500B90F9257420F0756202EB
:100B000080267FCD7ECC7D4C7C43787012EE1D120A
:100B1000EA9E500B90F9257420F0756204800990CC
:100B2000F9257420F075620890F9C27401F090F90B
:100B300023E4F0A37428F090F9697405F090F96A41
:100B4000F090F9227411F0125A2FE56264016018D6
:100B500085620B7F747E4312846A7B207DFF7F68F1
:100B60007E4312D6C512563D12B3E9900700E04409
:100B700004F090F88A12EE0190F9E712EE427F80BD
:100B80007EC37DC97C0190F9E712EE2AD312EDBE37
:100B9000400A90F9E712EE6701C9C38090F9E712A5
:100BA000EE01E412EB1C7BCD7ACC79CC783D12E8D7
:100BB000F890F91212EE4290F84412EE0112ED9AFA
:100BC00090F90E12EE4290F84412EE0190F9C31221
:100BD000EE4290F84412EE01E412EB1C90F912126E
:100BE000EE2A12EA9E60054003020DD2788C12EEC6
:100BF0004E00000000E4F56290F9C312EE0190F996
:100C00000E12EE2AD312EDA84003020D4E1291AC43
:100C1000EF6003020E6C7FC07EE17DE47C0090F803
:100C20008A12EE2AC312EDBE501A900700E030E39C
:100C300013E562700F789012EE4E00007530E4FDFF
:100C4000FF12A116786812EE4E00000000E4F56075
:100C500012DB71E5606006750A07750BF07F087E90
:100C60004312846A430B0F7F0C7E4312846A12DBAB
:100C700071750B977F047E4312846A12C7CD12CD23
:100C8000B17F147E43128462E5606010780812ED33
:100C9000F5786412EE1DC312EDBE500A780812ED0D
:100CA000F5786412EE367F1C7E43128462786812F7
:100CB000EDF5780812EE1D12EC3B786812EE360561
:100CC00060E560C394024088786412EE1DC000782D
:100CD0006812EDF5D00012EC48780512EDCFC00493
:100CE000C005C006C007786412EDF5D003D002D06D
:100CF00001D00012EC48786C12EE36788C12EDF5CB
:100D0000786C12EE1DD312EDBE4016786C12EDF524
:100D1000788C12EE3690F90E12EE0190F92B12EE4D
:100D200042056290F90E12EE2AC000C001C002C056
:100D30000390F91212EE0112EB5AD003D002D00147
:100D4000D00012EC3B90F90E12EE42020BF8900725
:100D500000E030E303020E2390F91212EE0112EBD1
:100D60005AAB07AA06A905A80490F92B12EE0112A6
:100D7000EC4890F90E12EE4290F84412EE0112ED9A
:100D80009A90F90E12EE2AC312EDA8500F90F84473
:100D900012EE0112ED9A90F90E12EE4290F9121233
:100DA000EE0112EB5A90F92B12EE2A12EC3B90F95D
:100DB000C312EE4290F84412EE0190F9C312EE2AEB
:100DC000D312EDA8400C90F84412EE0190F9C31232
:100DD000EE4212DB717FA87E4412846A900700E025
:100DE0004408F090F9E712EE01E412EB1C7BCD7A97
:100DF000CC794C783D12E8F890F91212EE427F005F
:100E00007E247D747C4990F91212EE2A12EA9E60CB
:100E1000025003020BEC90F91212EE6749742400A1
:100E2000020BEC900700E04480F090F92B12EE01E9
:100E300090F90E12EE4290F9C2E0601012BF89E5FF
:100E40007C60047F2080027F1012F0891291AC7FB9
:100E50000112C90712DB717FD47E4412846A7FF8C5
:100E60007E4412846A7FD87E4412846A227890126B
:100E7000EE4E000003E890F9A4E0706F7F807E964C
:100E80007D98FC90F88A12EE2AC312EDBE400B78D2
:100E90006412EE4E00000064801F90F88A12EE2A61
:100EA0007F807E967D987C0012ECE1E47B64FAF909
:100EB000F812EC56786412EE36E47FFFFEFDFC7803
:100EC0006412EE1DD312EDBE4005755CFF800578FF
:100ED00067E6F55C90F9A3E0C3955C400878A7E667
:100EE000600902123690F9A3E004F012D9FE78AC42
:100EF000E664116003021236F55C90F889E0FFC3E6
:100F00009420401FEF9430501A12D9EEEF60141263
:100F1000C230EF6005755C0180097BFF7A9A795BCE
:100F200012D641E55C600978B3E6F46007068004F8
:100F300078B3E4F690F889E0FFC394205003020FE1
:100F4000F4EF94304003020FF412CF14EF70030259
:100F50000FF490F89212EE01E4FFEE5420FEE4FD4F
:100F6000FCFBFAF9F8C312EDBE6003020FF47F68D0
:100F70007E4112846278B3E6C3940A5067E50B3071
:100F8000E2627F847E45128462780812EDF5EC12ED
:100F9000EB1C787012EE367FEC7E4712846278701C
:100FA00012EE1DC000C001C002C003780812EDF5AA
:100FB000EC12EB1CE4FBFA7980784012EA01D003D2
:100FC000D002D001D00012E807787012EE367870A7
:100FD00012EDF512EB5A780812EE367F847E451238
:100FE000846A801078B3E6C3940A4008E50B30E2C7
:100FF0000312D772E55C70030211F57F0212D3CCA5
:1010000090F9E6E0607B129D0890F9DE12EE019007
:10101000F90912EE2AC312EDBE500312D62590F93B
:10102000DE12EE2A90F90912EE0112EC48E412EBFE
:101030001C787012EE367F007E407D1C7C467870F6
:1010400012EE1D12EA9E6039403790F9E212EE2A44
:1010500090F90512EE0112EC48E412EB1C787012C4
:10106000EE1D12EA01787412EE367F177EB77DD13D
:101070007C38787412EE1D12EA9E6005400302125D
:101080003690F968E07003021157E4FF12170890D8
:10109000F889E0FFC394204038EF9430503312C2F7
:1010A00030EF702D7F947E42128462E50A20E103C6
:1010B00002126E128E84750B017F007E5C12846AB0
:1010C000E4F50B12A37A7F1712DA47128F28021267
:1010D0006E90F99BE0700912BDF090F99B7401F0DD
:1010E000E490F968F01285C790F889E0FFC3942076
:1010F0004023EF9430501E12665478A9E6543FC343
:101100009429400CE6543F94305005750B448008F8
:10111000750B668003750B697FF47E4012846A90BC
:10112000F89212EE01EF5410FFE4FEFDFCEF6003B5
:1011300012C56D90F889E0FFC394204041EF9430D0
:10114000503C780812EE4E000000047F307E5C12A6
:10115000846A12D75A802790F889E0FFC394204010
:101160001DEF943050187F107E5C12845D12D4C441
:10117000E50B30E3097BFF7A9A795B12D64190F94F
:101180009CE07002A3E0705D90F9A404F07F04126B
:10119000D3CC90F889E0FFC394204014EF943050F2
:1011A0000F7F687E41128462E50B30E20312D77232
:1011B00012BFCC90F826E0B4010312C6F678901264
:1011C000EE4E000186A0900691E030E42290F8C136
:1011D000E0B41B1B90F9E6E0701512D62590F9E6F5
:1011E0007401F0800A90F99C74FFF5F012EBED7831
:1011F000A7E4F6807990F99BE0600878A7E6700391
:1012000012D24790F99BE0600878A7E6C3940540A6
:101210000312C41190F89212EE01EF5440FFE4FE65
:10122000FDFCFBFAF9F8C312EDBE704279AD78A768
:1012300006E6D397403812C41190F89212EE01EFEF
:101240005440FFE4FEFDFCFBFAF9F8C312EDBE705A
:101250001478A9E654C06004747F56F67BFF7A7058
:10126000798112D641789012EE4E000186A07FC09F
:101270007EE17DE47C0090F88A12EE2AD312EDBE66
:10128000504190F88A12EE01E412EB1CA804A90563
:10129000AA06AB077FC07EE17D647C4B12EA01C0E9
:1012A00004C005C006C007789012EDF5E412EB1CEF
:1012B000D003D002D001D00012E8F812EB5A789097
:1012C00012EE367BFF7A0E796D785612EEAD7F0105
:1012D000125DFE22503C272B3657504C40432828A5
:1012E0005E3D282C3954524A40412828EF5F4B5824
:1012F000669C8854564C40387C4024334467483EB2
:1013000038332828503C272B3657504C4043282848
:101310005E3D282C3954524A40412828875F4B585B
:10132000669C7654564C40387C4024334467483E93
:1013300038332828453421252F45484632301C1C97
:10134000502E242D2D463E40302E1C1C5831243367
:101350003C484844383824245537202A4050322A03
:1013600028251C1C6F47455D61675248423C362E5C
:1013700089484E666B676256483C362E875F4B58ED
:10138000666D7654564C4038696F878D88856256F5
:10139000604E4038799EBC606B6D54484644343092
:1013A00083A6998A9B964248424038306C7588BD26
:1013B000B89C503C3C3C383066505A54536D5A529D
:1013C0004C403830F2B96CB1AFAC707074624C40C4
:1013D000BF9A72A2AFA4887868444038FFFFFFFE2E
:1013E000FCFAA0B878544840DFB9DAA2A09CA080EB
:1013F0006A5C4C402D31202A283190906858341C6A
:101400002F4925302A3368605850341C1A09192096
:1014100027363B3B3430241C13091C2A2939E0B001
:101420005A301C1C2C24232A2B3C5252525232205C
:10143000362F301D2A3F50505024201CE9EAD08B13
:10144000856460543E3E3628E8E8BE948F725C4E58
:1014500042503C309EB77B988F72504840403830A5
:101460009292BEEFD2BA584C483D383090A4BEBBE1
:10147000A7965050403F3830867C79918572505CF9
:10148000403C3630382F1C1F2331484632301C1C5C
:10149000412A1E2525333E40302E1C1C472D1F2679
:1014A00027363C3C302F1C1C4D2F1F2729393C3C34
:1014B00030301C1C462D20252B3C322A2C2C1C1C89
:1014C0005A2C1F232D3F322A28251C1C2C2C303E41
:1014D000353C707068504038373130372C336058A5
:1014E000585040384A36232A2D3C493B3A39322855
:1014F0005254242D2E3C47453A39322872664E5AB2
:10150000729DB08070605848AB755F81ABD6E0D0FB
:10151000787868583B3321242C3C493C3B3A3228AC
:10152000433522272C3C493C3B3A32284B37232A6F
:101530002D3C4A3B3A3932285338242D2E3C4B3B24
:101540003A3932285934262E2E3C4D3A3835302837
:101550006030272E2E3C4E3835312C283B33212449
:101560002C3C493C3B3A3228433522272C3C493C11
:101570003B3A32284B37232A2D3C4A3B3A39322812
:101580005338242D2E3C4B3B3A3932285934262EE1
:101590002E3C4D3A383530286030272E2E3C4E38C0
:1015A00035312C2843332D2E354F908074605040B8
:1015B0004037384D5F727050484030289A8E8D8C7D
:1015C0008A8C827662544840C6B8B1B1B0B3AE8856
:1015D0007A6C584897A1A5A5A2A4A678706454482F
:1015E0006B6864646472A28E80706050C9B66C6B64
:1015F0006A6A907850484440B5DB84838181A0605A
:1016000050444038AE6DA09F9D9D80687454484002
:10161000E6DBFFFFFCFBF87884746050FFFAD0CE65
:10162000CCCCE0F696846858F8FFE1E0DDDDB0B898
:101630007C5C4C4055472B2E354F504C404328285E
:1016400063482E34384D524D3B3A28283737202DE9
:101650003B515028503B2828714A2D313D56504867
:101660003F3D2828744E2C39405A48483B40282892
:10167000834C2837435E48483833282891B3856423
:10168000647248402624242491A193968272403AA1
:1016900030282222FDE1A09DD2D64640221C1914FA
:1016A000FAFAF0ECDCD630282820181301C9C380E0
:1016B00000E4E1C0007270E000393870001C9C3812
:1016C000000F4240012A011200E7009B006900461A
:1016D00012D4130413341364139413C413F4143C7A
:1016E000148414CC1514155C15A415EC1634167C52
:1016F000013A014500FF00A700670040004C003898
:10170000000F000E000A0007E4F55CF55E78A9E61C
:10171000543FF55D90F889E0FE5430FDBD3009EE90
:10172000643F60047E0180027E008E5FEF700302E2
:101730001822900691E030E2347440257CF582E472
:101740003407F583E0FCE412EB26787012EE36E500
:101750007C25E025E02492F582E43406F58312EE40
:1017600001E412EB1C789612EE3602185A7BFF7ACF
:101770001679F090F9CB12EEBF90088BE06015E57A
:101780005F701190074FE0B40205755C018020E4A2
:10179000F55C801B90074FE0B40209E55F700575AA
:1017A0005C048003755C0212CF14EF7002055CE5E7
:1017B0005F602AE55DC394384006755E06021976BF
:1017C000E55DC394364006755E04021976E55DC397
:1017D00094335003021976755E0202197678A9E6F1
:1017E00054C0FFBF401212C5E0EF6006755E0402F0
:1017F0001976755E02021976E55DC3942D40067573
:101800005E06021976E55DC394294006755E040202
:101810001976E55DC394245003021976755E0202C1
:101820001976900691E030E34B7435257CF582E41F
:101830003407F583E0FCE412EB26787012EE36E50F
:101840007C25E025E02476F582E43407F58312EE6A
:1018500001E412EB1C789612EE36E4FBFAF97841BB
:10186000C000787012EDF5D00012EA01789A12EEFD
:1018700036021AAFE55F60397BFF7A1679FC90F982
:10188000CB12EEBF755C0FE55DC394384006755E04
:1018900006021976E55DC394364006755E040219AA
:1018A00076E55DC394335003021976755E02021922
:1018B000767BFF7A1679C490F9CB12EEBF90088B35
:1018C000E0601012CF14EF6005755C098013755C41
:1018D0000C800E12CF14EF6005755C068003755CFA
:1018E0000C900691E030E106055C055C80099007EC
:1018F0004FE0B40202055CE55DC3942D4005755EC2
:101900000A8073E55DB42C05755E088069E55DB4F9
:101910002B05755E06805FE55DC39429404EE55D4D
:1019200064297043FF7E2D7D317C0190F88A12EE90
:101930002AC312EDBE4030E55CB4062B750B017571
:101940000A007509017508007FEC7E4412846A7FE5
:10195000F07E4412846A90088BE06003021AB27F22
:10196000B47E4612846A22755E04800AE55DC394E3
:10197000244003755E02E55E75F006A4F55E75F021
:1019800002E55C9016D012EE98740193255E78798A
:10199000F6E493340018F6755EFFE4F55C75F00428
:1019A000E55C9016AC12EE9812EE0D90F88A12EEED
:1019B0002AC312EDBE4005855C5E8007055CE55CD0
:1019C000B406DAE55E6008E55EB4FF12755E057880
:1019D00078E6FE08E6FFAD5E129D90021AAF7878B9
:1019E000E6FE08E6FFAD5E129D90789612EDF57862
:1019F0007012EE36789A12EDF5787412EE36787829
:101A0000E6FE08E6FFE55E14FD129D9075F004E524
:101A10005E9016AC12EE9812EE0D786412EE3675EA
:101A2000F004E55E9016A812EE9812EE0D7864129E
:101A3000EE1D12EC48E412EB1CC004C005C006C049
:101A400007786412EE1D90F88A12EE0112EC48E459
:101A500012EB1CD003D002D001D00012EA01788032
:101A600012EE36787012EE1DC000789612EDF5D0A9
:101A70000012E803788012EE1D12E8F8787012EE7A
:101A80001D12E807789612EE36787412EE1DC0002B
:101A9000789A12EDF5D00012E803788012EE1D124C
:101AA000E8F8787412EE1D12E807789A12EE3612F2
:101AB0008FCB2290F8C1E0D3940F502D90F89A125A
:101AC000EE670061C97E90F89E12EE670F281D0038
:101AD00090F8A212EE67456C65387BFF7AFA7900C0
:101AE0009008A312EEBF021BAB90F8C1E0FFC394B5
:101AF0001E403EEFD394275038EFC394234075EF38
:101B0000D39427506F90F89A12EE670000EAB790CE
:101B1000F89E12EE6703C2993890F8A212EE67445D
:101B2000756BA07BFF7AF879009008A312EEBF8056
:101B30007A90F8C1E0FFC394184032EFD3941D505F
:101B40002C90F89A12EE670001D56E90F89E12EE76
:101B5000670785327090F8A212EE6744F06BA07BA5
:101B6000FF7AF879009008A312EEBF803E90F8C18A
:101B7000E0F4602C90F89A12EE670000EBF090F819
:101B80009E12EE670568C2A090F8A212EE6744AC00
:101B9000FAD67BFF7AF979009008A312EEBF800B8A
:101BA00090F89612EE6700000000227FB07E461289
:101BB0008462780812EDF590F8A612EE4290F89A39
:101BC00012EE0190F8A612EE2AC312EDBE500302E7
:101BD0001DBF90F89E12EE0190F8A612EE2AD312C5
:101BE000EDBE4003021DBF90F89A12EE2A90F8A6AF
:101BF00012EE0112EC48E412EB1C90F8A212EE2A4D
:101C000012EA01787012EE367F007EFF7D7F7C47FE
:101C1000787012EE1D12EA9E600C400A74FF90F874
:101C2000ADF0A3F08010787012EDF512EB5A90F839
:101C3000ADEEF0A3EFF090F8AF7440F07560209037
:101C4000F8AFE0F55C7F0C12D4869008A312EEB6D4
:101C500075F002E55CA4F58285F08312EC037878D8
:101C6000A6F008F6E55C2401FFE433FEEF25E0FF73
:101C7000EE338F82F58312EC03787AA6F008F61221
:101C8000D4967878E6FE08E6FF90F8ADE0FCA3E095
:101C9000FDC39FEC9E400AD3ED787B96EC189640EE
:101CA0002AC3ED9FEC9E500A90F8AFE0C39560F018
:101CB000800790F8AFE02560F0E560D39401500311
:101CC000021C3FE56013F560021C3F90F8AFE0FF97
:101CD000C374809FFDE49400FCE412EB21E4FBFA62
:101CE0007992783E12E8F8787012EE3690F8AFE00C
:101CF000FFC3747F9FFDE49400FCE412EB21E4FB3E
:101D0000FA7992783E12E8F8787412EE3678741206
:101D1000EE1DC000787012EDF5D00012E803C0048B
:101D2000C005C006C0077878E6FE08E6FFC390F855
:101D3000AEE09FFD90F8ADE09EFCE412EB21D003F5
:101D4000D002D001D00012E8F8C004C005C006C01F
:101D500007C3797BE7787996FD19E71896FCE412BA
:101D6000EB21A804A905AA06AB07D007D006D00529
:101D7000D00412EA01C004C005C006C00778701282
:101D8000EDF5D003D002D001D00012E80390F89610
:101D900012EE4290F8C1E0FFC394184049EFD3948B
:101DA0001D5043EFB41A3F90F89612EE017B9A7AD9
:101DB000597929784012E80390F89612EE42229061
:101DC000F89E12EE0190F8A612EE2AD312EDBE4054
:101DD0000B90F89612EE67000000002290F8961221
:101DE000EE6742120000227F287E46128462E50AD6
:101DF000540CF55CE50B541FF55DE55C640860046C
:101E0000E55C7008755EBC755FCC8006755E82759A
:101E10005F93E50A30E7057560108003E4F560E53F
:101E20005E2560FFE433FE7C00EF255DFFEC3EFEA7
:101E3000AB07FAE4F9F8AF5EFDFE12EC56786412D7
:101E4000EE36AF5EAB07E4FAF9F8AF5FFCFDFE12C9
:101E5000EC56786812EE36E55F64936003755FBCFC
:101E600090F80DE0F55C7F0C12D486E55C90FFAD38
:101E700093F562E55C90FFBD93F56312D4967864A8
:101E800012EE1DE56225E0FFE433FE3395E0FDFC34
:101E900012EC56786412EE36755C0490088BE060A4
:101EA0000F7F587E43128462E50B30E103755C02BC
:101EB000786812EE1DC000C001C002C003AF5CAB69
:101EC00007E4FAF9F8AF63FCFDFE12EC56D003D03C
:101ED00002D001D00012EC56786812EE367F847E74
:101EE00041128462E50B30E20F786812EDF578015B
:101EF00012EDE2786812EE36786812EDF5E412EB36
:101F00001CC004C005C006C007786412EDF5E412D9
:101F1000EB1CD003D002D001D00012EA01C004C0F3
:101F200005C006C00790F88A12EE01E412EB1CD03F
:101F300003D002D001D00012E8F8C004C005C006EA
:101F4000C007AC5CE412EB26D003D002D001D00075
:101F500012E8F8787012EE36E57C25E0248DF582E3
:101F6000E43406F583E0FEA3E0FFEE30E75730E609
:101F700005755C048003755C01787012EE1DC0006D
:101F8000C001C002C003C3E55F955CFDE49400FCA2
:101F9000E412EB21C004C005C006C007AC5FE41228
:101FA000EB26A804A905AA06AB07D007D006D005E2
:101FB000D00412EA01D003D002D001D00012E8F818
:101FC000787012EE36786812EDF590080412EE4241
:101FD000786412EDF5129E15788C12EE3678641244
:101FE000EDF5788C12EE1D12ECE1786412EE367885
:101FF0006812EDF5788C12EE1D12ECE1786812EEA5
:10200000367F9C7E41128462530B7F12A37A7864E0
:1020100012EDF5780812EE367FA87E4112846A78B8
:102020006412EE1DC000786812EDF5D00012EC4885
:10203000786C12EE36786C12EDF5780812EE367F79
:10204000AC7E4112846A742A257CF582E43407F55B
:1020500083E07003022115786812EDF5E412EB1CA1
:10206000C004C005C006C007786412EDF5E412EBA9
:102070001CD003D002D001D00012EA01C004C00578
:10208000C006C007742A257CF582E43407F583E096
:10209000FCE412EB267B007A60791F784512EA0196
:1020A000E4FBFA7980783F12E807D003D002D00130
:1020B000D00012E8F8787012EE36786C12EDF5E484
:1020C00012EB1C787012EE1D12E8F8C004C005C0B7
:1020D00006C007787012EE1DE4FFFE7D807C3F1283
:1020E000E803A804A905AA06AB07D007D006D005C7
:1020F000D00412EA0112EB5A780812EE367FA87E5D
:102100004112846A786C12EDF5780812EE367FACD5
:102110007E4112846A22E4FFFEFDFC90074B12EE22
:102120002AC312EDBE6011E4FFFEFDFC90074712CA
:10213000EE2AC312EDBE702090074712EE67000032
:10214000000090074B12EE670000000090F88A1222
:10215000EE6701312D00800C90074B12EE0190F8D4
:102160008A12EE4290F87A7401F090F8717403F0DC
:1021700090F88E12EE670000000090F90E12EE67E4
:102180000000000090F89212EE6700000000122795
:102190005A7F0812DA477F1112DA477F1212DA47A4
:1021A00012698FE4FFFEFDFC90074712EE2AC3126E
:1021B000EDBE7044900766E0FEA3E0FFE4FCFD780E
:1021C0000812EE367F087E4312846A900768E0FEAC
:1021D000A3E0FFE4FCFD780812EE367F0C7E43128C
:1021E000846A90072EE05403449CF50B7F047E43E1
:1021F00012846A755C2B8003755C1BAF5C12DA4736
:102200007F047E43128462530B03E47E01A80B0813
:102210008005C333CE33CED8F990F87FF0EE90F836
:102220007EF0E4FFFE7D807C4290F85C12EE2A1284
:10223000E80712EB5A780712EDCF90F87412EE42CD
:1022400090074712EE0190F88A12EE42E490F87877
:10225000F0A3F090F96112EE670000000090074BC8
:1022600012EE0190F88A12EE2AD312EDBE506D12D2
:10227000698F12C7CD12CDB17F147E43128462786C
:102280000812EDF5788C12EE3690F96112EE0178B5
:102290008C12EE1DD312EDBE402B788C12EDF59012
:1022A000F96112EE427F187E43128462780812EDC3
:1022B000F590F878EEF0A3EFF090F88A12EE019026
:1022C000F84412EE4290F88A12EE0190F87412EE81
:1022D0002A12EC3B90F88A12EE42808190074B1252
:1022E000EE01EC4D4E4F700302241290F87EE0C3D5
:1022F00013FEA3E013FF90F878E0FCA3E0FDD39F6A
:10230000EC9E500302239390F87FE09DFD90F87EB1
:10231000E09CFCE412EB21C004C005C006C007909D
:10232000F87EE0FCA3E0FDE412EB21A804A905AAD5
:1023300006AB07D007D006D005D00412EA01C004CE
:10234000C005C006C007E4FBFA7980784190F85CCC
:1023500012EE0112EA01D003D002D001D00012E83F
:10236000F8C004C005C006C00790F84412EE01E4AE
:1023700012EB1CD003D002D001D00012E803E4FB22
:10238000FAF9783F12E80712EB5A90F82B12EE4256
:1023900002242390F87EE0FCA3E0FDE412EB21C0D0
:1023A00004C005C006C00790F878E0FCA3E0FDE497
:1023B00012EB21D003D002D001D00012EA01C004F8
:1023C000C005C006C007E4FBFA7980784190F85C4C
:1023D00012EE0112EA01D003D002D001D00012E8BF
:1023E000F8C004C005C006C00790F84412EE01E42E
:1023F00012EB1CD003D002D001D00012E807E4FB9E
:10240000FAF9783F12E80712EB5A90F82B12EE42D5
:10241000801190F878E0FEA3E0FFE4FCFD90F82B3B
:1024200012EE42E490F87AF090F871F0E57C6004E6
:102430007F0880027F04EF429C12DB4722E4F55EB6
:10244000F55D7F207E41128462E50B30E1157FE46B
:102450007E45128462E50930E10912D9CEEF70039E
:10246000755D017FB87E4712846285095FE509309A
:10247000E00F7FC07E40128462E50B5410F560804F
:102480000D7FE47E45128462E50A5402F560E56042
:1024900060097FD47E44128462800312DB71780865
:1024A00012EDF5EC12EB1C90F9BE12EE2A12EA01C5
:1024B000787012EE3690F85C12EE0190F82F12EE62
:1024C00042755C01E55D600D787012EDF512EB0B65
:1024D000787012EE367F5C7E40128462E50B30E14C
:1024E0000B788012EE4E418000008009788012EE59
:1024F0004E41000000788012EE1DC000787012ED91
:10250000F5D00012EA0112EB5A90F8BC12EE42909C
:10251000F82F12EE01788012EE1D12EA0190F82FCA
:1025200012EE42E55F30E30F7FD07E40128462E519
:102530000B5410F560800D7FE47E45128462E50A3D
:102540005402F560E56060097FF87E441284628081
:102550000312DB71780812EDF5EC12EB1CE4FBFAC8
:102560007980784E12EA01787012EE3690F88A126D
:10257000EE01E412EB1CE4FBFAF9784112EA019057
:10258000F83312EE42787012EDF590F83312EE2A1D
:1025900012E8F8787012EE36787012EDF512EB5AF8
:1025A00090F99712EE4290F8BC12EE0190F9971252
:1025B000EE2A12EC3B90F8BC12EE4290F889E0FF54
:1025C000C394004009EFD3941250030226D97F84AC
:1025D0007E45128462780812EDF5EC12EB1CE4FBE8
:1025E000FA7980784312EA01787012EE3678701228
:1025F000EE1DC000C001C002C003E4FBFA79807880
:102600004B90F85C12EE0112EA01D003D002D00127
:10261000D00012E8F8787012EE36E55D600D787043
:1026200012EDF512EB0B787012EE3690F8BC12EE4C
:102630002AC000C001C002C003787012EDF512EB91
:102640005AD003D002D001D00012EC3B90F8BC125B
:10265000EE427F3C7E47128462780812EDF5E4FB7F
:102660007A01F9F812EEF490F99E12EE4290F85CBD
:1026700012EE01787012EE3690F99E12EE01EC1215
:10268000EB1CC004C005C006C007E4FBFA798078E3
:102690004BC000787012EDF5D00012EA01D003D0E3
:1026A00002D001D00012E8F812EB5A90F99E12EE17
:1026B00042E55D600F90F99E12EE0112ED9A90F9DD
:1026C0009E12EE4290F8BC12EE0190F99E12EE2A94
:1026D00012EC3B90F8BC12EE427FD87E441284622A
:1026E000E50830E3034308F0780812EDF5EC12EB4F
:1026F0001C90F85C12EE2A12E8F8E4FBFA79807874
:102700004D12EA0112EB5A90F99E12EE42E55D601D
:102710000F90F99E12EE0112ED9A90F99E12EE4280
:1027200090F8BC12EE0190F99E12EE2A12EC3B904A
:10273000F8BC12EE4290F8BC12EE0190F90E12EEC7
:102740002A12EC4890F8BC12EE4290F8BC12EE014E
:1027500012ED9A90F8BC12EE4222E490F967F090E4
:10276000F9BA12EE670000000012D4A5E4FB7DDF89
:102770007F247E4A12D6C57B387DFF7F207E4A1299
:10278000D6C590F871E06401702C7489257CF582BF
:10279000E43406F583E020E21DE57C60047F2080C0
:1027A000027F1012C76212DBAAE57C60047F2080E2
:1027B000027F1012F08990F89212EE01E4FFFEFD04
:1027C000EC5420FC600B780812EE4E00000F708075
:1027D00009780812EE4E00000F307FC07E4312844D
:1027E0006A7F1F12DA4712B33712A09812B9691222
:1027F0003AAE90F967E020E13390F871E07003029F
:102800002A0712D92C90F9B8E030E4E390F8E412EA
:10281000EE01EF2401FFE43EFEE43DFDE43CFC90CC
:10282000F8E412EE42E490F9B8F080C31295E51294
:10283000A8E9789012EE4E00000014E4FD7F01122A
:10284000A11612DA7190F871E070030229EE12D924
:102850002C90F83BE0602790F83CE0641C601A1272
:1028600077D590F83BE0700790F9B8F00229F7901F
:10287000F9B8E030E1080229F7E490F83BF0127370
:10288000557489257CF582E43406F583E030E3272E
:1028900090F87CE075F00AA4240575F00984FF2502
:1028A000E025E090F926F0748B257CF582E434066F
:1028B000F583E090F87CF012344A90F9B8E030E10A
:1028C000030229F77F107E4A1284627489257CF501
:1028D00082E43406F583E030E330850B5C90F892B7
:1028E00012EE01EF5420FFE4FEFDFCFBFAF9F8C301
:1028F00012EDBE700D90F926E0F50B7F107E4A12A6
:10290000846A90F926E55CF0800690F926E50BF0E4
:1029100090F89212EE01EF5420FFEE5480FEE4FD99
:10292000FCFBFAF9F8C312EDBE60030229E790F848
:102930009212EE01E4FFEE5401FEE4FDFCEE600BAA
:10294000787012EE4E3D0F5C298009787012EE4EC1
:102950003CA3D70A90F88A12EE01E412EB1C7B002C
:102960007A247974784912EA01787012EE1D12E81F
:10297000F8E4FBFAF9783F12E807787012EE36783F
:102980007012EDF512EB5A90F966EFF090F8921292
:10299000EE01E4FFFEFDEC5420FC60177B407A4220
:1029A000790F78009006C012EE0112ECE190F96602
:1029B000E02FF07489257CF582E43406F583E0305D
:1029C000E3097F107E4A128462800690F926E0F5C2
:1029D0000B90F966E0FF25E025E0250BF50B7F1055
:1029E0007E4A12846A8020E490F966F0801990F89B
:1029F0003B7401F01277D590F9B8E030E10990F816
:102A000071E060030227EF90F871E06003122CF28E
:102A10007F207E4A128462530BC790088BE07005BA
:102A2000755C088003755C18E55C420B12A37A2282
:102A300090F9A2E06017750B047FE47E4012846A6F
:102A4000750B027FEC7E4012846A022C1312D22690
:102A500012D8707F1512DA4790088BE0700A750B58
:102A6000127FB47E4012846A90F889E0FFC39420FC
:102A7000404DEF9430504812D9CEEF60077F3512A9
:102A8000DA47800A750BDA7FC47E4012846A7F269B
:102A900012DA4712B170EF602612C5E0EF602078BD
:102AA0000812EE4E000000467FFC7E4012846A78D9
:102AB0000812EE4E4B0000007F207E4512846A7F94
:102AC000AC7E44128462780812EDF5780112EDE2D2
:102AD000786412EE36786412EDF5780812EE367FDF
:102AE0007C7E4512846A7FDC7E4612846A7864129A
:102AF000EDF5780312EDCF786412EE36786412EDBE
:102B0000F5780812EE367F1C7E4412846A7F487E78
:102B100040128462530B9FE50BB49F0BE4F55C7588
:102B20005D01755E018059E50BB49E0B755C017506
:102B30005D02755E028049E50BB49C0B755C027505
:102B40005D03755E038039E50BB4980B755C037506
:102B50005D04755E048029E50BB4900B755C04750B
:102B60005D05755E058019E50BB4800B755C067517
:102B70005D05755E058009755C07755D06755E0609
:102B8000786412EDF5A95CA80112EDE2780812EE66
:102B9000367F7C7E4512846A786412EDF5A95DA8C3
:102BA0000112EDE2780812EE367FDC7E4612846A6E
:102BB000786412EDF5A95EA80112EDE2780812EE34
:102BC000367F1C7E4412846A750B1F7FC07E4012C4
:102BD000846A78A9E654C06007E654C06440702E49
:102BE0001209B890F9B8E030E1097BFF7AA5795570
:102BF00012D64190F89212EE01E4FFEE5480FEE40A
:102C0000FDFCEE60097BFF7A42795912D6417F18AC
:102C100012DA47900742E030E10690F9A27401F021
:102C20007F0112170890F889E0FFC39420401FEF3E
:102C30009430501A7F2712DA4790F9A2E0600575A8
:102C40000B138003750B037F207E4112846A90F979
:102C5000A2E06014750B447F507E4112846A12DB3F
:102C6000717F6C7E4112846A7F0412C4BF78ABE42A
:102C7000F690F889E0FFC394204038EF9430503349
:102C800012CF14EF600612B170EF600E12C5E0EFC4
:102C9000600512BB738003129C8078A9E654C0FFC4
:102CA000BF40107F947E45128462750A0275080247
:102CB00012A37A90F89212EE01EF5440FFE4FEFD69
:102CC000FCFBFAF9F8C312EDBE700312851278AA64
:102CD00076FF90F9687401F0E490F9A3F090F9A4FC
:102CE000F078B2F690F9E6F07BFF7A64791712D6A5
:102CF000412290F91E12EE01787012EE36787012B1
:102D0000EDF5787412EE36755C01E4FFFE7D807C93
:102D100040787012EE1D12EA9E500D7B027DFF7FFF
:102D2000587E4312D6C5800BE4FB7DFD7F587E4361
:102D300012D6C5E4FFFEFD7C41787412EE1D12EA46
:102D40009E60244022E55CC39440501BE55C25E076
:102D5000F55C787412EDF5E4FBFAF9784012EA01BB
:102D6000787412EE3680CCAC5CE412EB26C004C062
:102D700005C006C007787012EDF5D003D002D0016F
:102D8000D00012EA01787412EE36E4FFFE7D807CFA
:102D900040787412EE1D12EA9E601F401D7F337E44
:102DA000337D837C40787412EE1D12EA9E500BE551
:102DB0005CC313F55C7003755C01E55CD394204043
:102DC00005750B408009C37420955C44C0F50B7FEA
:102DD000487E4012846A90074FE0B4010B7880125D
:102DE000EE4E40B666668009788012EE4E40CB33D8
:102DF00033788012EDF5787412EE1D12EA9E6007AA
:102E00004005E4F50B801C7FEC7E517D887C40788A
:102E10007412EE1D12EA9E60074005750B40800398
:102E2000750BC07F507E4012846AE4FFFE7D807C7B
:102E30004B787012EE1D12E8F8C004C005C006C041
:102E400007AC5CE412EB26A804A905AA06AB07D0E0
:102E500007D006D005D00412EA0112EB5A78081206
:102E6000EE36E4FFFE7D807C40787012EE1D12EAA3
:102E70009E50157808C00012EDF5E47B02FAF9F8CF
:102E800012EC56D00012EE367FAC7E4412846A7883
:102E90000812EDF5780212EDCF786412EE367F4815
:102EA0007E40128462530B9FE50BB49F05E4F55CF2
:102EB0008035E50BB49E05755C01802BE50BB49C59
:102EC00005755C028021E50BB49805755C038017DD
:102ED000E50BB49005755C04800DE50BB4800575B9
:102EE0005C058003755C06786412EDF5A95CA801A9
:102EF00012EDE2780812EE367F7C7E4512846A7FFE
:102F0000DC7E4612846A7F1C7E4412846A12DB7166
:102F10007FD87E4412846A787012EE1DE4FFFEFDB5
:102F20007C4512EA01E4FBFAF9783F12E80712EB5C
:102F30005A786412EE36786412EDF5EFEE543FFEE7
:102F4000E4FDFC781012EDE2780812EE367F747E14
:102F50004512846A7F487E40128462E50BB41005F6
:102F6000750B08800CE50B7005750B188003E4F5F4
:102F70000B7F4C7E4012846A2275CF0B7F907E11AE
:102F8000128462780812EDF5789C12EE367F8C7E02
:102F90001112846A789C12EDF5E4FFEE54C0FEED48
:102FA0004C4E60757FB47E11128462E50B30E06197
:102FB0007F7C7E10128462E50B20E05512DB717578
:102FC0000B017FB07E1112846A789C12EDF57808AF
:102FD00012EE36789C12EDF5E4FFEE5440FEE4FD6F
:102FE000FCEE6035780812EE4E000040007F907EC7
:102FF0001112846A12982DE4FF12D1C1789CC0008E
:1030000012EDF5EFEE54BFFEEDECD00012EE36807F
:103010000812D8DD75CF0B808B789C12EDF5E4FF9C
:10302000FEED5401FDE4FCED6030780812EE4E0038
:103030000100007F907E1112846A7881E630E104FD
:1030400078AD760112F9B4789CC00012EDF5EFEE80
:10305000ED54FEFDECD00012EE36789C12EDF5E456
:10306000FFEE5480FEE4FDFCEE601712FA00789C3F
:10307000C00012EDF5EFEE547FFEE4FDFCD000122F
:10308000EE36789C12EDF5EC4D4E4F70030231EDAB
:1030900012F0BF75E404789C12EDF5781812EDCFAC
:1030A0008FD3789C12EDF5781012EDCF8FD4789CE9
:1030B00012EDF5780812EDCF8FD5789C12EDF5EF73
:1030C000E48FD685E35C12F0CCE55C70030231ED51
:1030D00012F0BF855CE575E4027864A6DB08A6DC27
:1030E00008A6DD08A6DE12F0CC789CC00012EDF533
:1030F000C004C005C006C007786412EDF512ED8D5E
:10310000A804A905AA06AB07D007D006D005D004AD
:1031100012ED73D00012EE36155CE55CD3941350BB
:1031200017E55C640F6011786412EDF5780812EE13
:10313000367F907E1112846AE55C12EEC8319702E8
:1031400031BF0B31C40C31C90D319211316E1531C3
:103150009C1631691931641C315F1D000031CE129B
:10316000CBD7807B12D8448076129F19807178A9C2
:1031700074FB56F612F91512FBB678A9E630E45F37
:1031800054EFF67FC07E1012846243090212A37AC4
:10319000804D12F9F6804812F91580437FE87E10C1
:1031A000128462E50B30E237780812EE4E0000011F
:1031B000207F007E1112846AE4FF12D1C1802012A8
:1031C000C110801B12C4858016126F8D8011786427
:1031D00012EDF5780812EE367F907E1112846A782F
:1031E0009C12EDF5EC4D4E4F600302309012CE5123
:1031F0002290F889E0FFC39420400EEF94305009EC
:1032000012CF14EF6003023449E4F55D7FF87E4489
:10321000128462780812EDF590F84812EE4290F8A8
:10322000C1E0F55CE55CC3941E4030E55CD39427B7
:10323000502990F98B12EE670000800090F8371249
:10324000EE67000000B57FE47E45128462E5092048
:10325000E1030232F3755D010232F3E55CC3941BB6
:10326000401690F98B12EE670000400090F837127C
:10327000EE6700000080807BE55CC39412401DE592
:103280005CD39417501690F98B12EE670000200063
:1032900090F83712EE670000005B8057E55CD3942E
:1032A0000F503C90F889E0FFC3940A401CEFD39480
:1032B00012501690F98B12EE670004000090F83758
:1032C00012EE6700000200802A90F98B12EE670070
:1032D00000400090F83712EE6700000080801490E4
:1032E000F98B12EE670001000090F83712EE6700CC
:1032F00000010090F82712EE2AC000C001C002C0F1
:103300000390F98B12EE2A90F84812EE0112EEF4B7
:10331000D003D002D001D00012EC3B90F82712EE7F
:103320004290F83712EE2A90F84812EE0112EEF4AD
:1033300090F82712EE2A12EC3B90F83712EE427FFB
:10334000D47E44128462780812EDF5EC12EB1C78FE
:103350007012EE3690F83712EE01EC12EB1C90F87A
:103360003312EE2A12E8F890F82F12EE2A12EA0130
:10337000788012EE36E55CC3941E50030233FCE500
:103380005CD394275076E55D60497F3C7E41128492
:1033900062E50B30E414787012EDF5788012EE1DC2
:1033A00012E803787012EE368012787012EDF5781C
:1033B0008012EE1D12E807787012EE3690F848126F
:1033C000EE0190F83712EE2A12EC4890F84812EE0F
:1033D000428050787012EDF5788012EE1D12E807E9
:1033E000787012EE3690F84812EE0190F83712EE2F
:1033F0002A12EC3B90F84812EE428027787012EDCA
:10340000F5788012EE1D12E807787012EE3690F80B
:103410004812EE0190F83712EE2A12EC4890F84864
:1034200012EE4290F84812EE01780812EE367FF85C
:103430007E4412846A787012EDF512EB5A78081205
:10344000EE367FD47E4412846A2290F87CE090F8B5
:1034500042F07F1912DA4712D81690F9B8E030E13D
:103460000302366D90F842E0C3943F4006750BFCB2
:1034700002365E7F807E8D7D5B7C0090F88A12EE46
:103480002AC312EDBE500E90F842E0FF25E025E081
:10349000F50B02365E90F842E075F003A4AEF078CA
:1034A00002CEA2E713CE13D8F8FF12BD65750BFC50
:1034B0007F107E4A12846A12D8DD12B63D786412FB
:1034C000EDF5E412EB1C7BE17AC9797E784012EAD3
:1034D00001E4FBFAF9783F12E80712EB5A78AE12D2
:1034E000EE3690F842E0FF12BD6578B212EE4E7FE4
:1034F000FFFFFF90F842E0FF90F841F090F840F0B5
:1035000025E025E0F50B7F107E4A12846A12D8DD93
:1035100012B63D78AE12EDF5786412EE1DC312EDD1
:10352000BE500890F8437401F0800690F84374FF91
:10353000F078AE12EE1DC000786412EDF5D00012E6
:10354000EC4812F02778B212EE3690F843E0FF9084
:10355000F841E02FF0E0FFC3940150030235EAEF99
:10356000D3943F40030235EA90F841E0FF25E0257F
:10357000E0F50B7F107E4A12846A12D8DD12B63D48
:1035800078AE12EE1DC000786412EDF5D00012EC9A
:103590004812F027786812EE3678B212EDF57868A6
:1035A00012EE1DC312EDBE5012786812EDF578B21E
:1035B00012EE3690F841E090F840F090F843E0B415
:1035C000011578AE12EDF5786412EE1DD312EDBE42
:1035D000500302354A801378AE12EDF5786412EE8E
:1035E0001DC312EDBE400302354A7489257CF58265
:1035F000E43406F583E0547FF090F842E075F00A79
:10360000A4FFAEF0E4FCFD7B09FAF9F812ECE190BE
:10361000F842EFF090F840E0FED39F400B90F84264
:10362000E0FFEE9FF55C800D90F840E0FF90F842DF
:10363000E0C39FF55CE55CD39407401790F842E047
:1036400090F840F07489257CF582E43406F583E037
:103650004480F090F840E0FF25E025E0F50B7F1076
:103660007E4A12846A7F1A12DA4712D69122E4F552
:10367000607FE47E47128462E50A540B6403602491
:10368000AF600560EFC394235011789012EE4E00A6
:103690000003E8E4FDFF12A11680D67BFF7A707963
:1036A0008112D6417F347E47128462780812EDF58C
:1036B000EF64C9FFEE6483FEED649DFDEC6471FC74
:1036C00090F8C212EE427F307E4712846278081270
:1036D000EDF5EF64FAFFEE642DFEED6442FDEC645F
:1036E00053FC90F8C612EE4212DB7175081A7FE89F
:1036F0007E4712846A90F85812EE678000000090AE
:10370000F88012EE6700000000756102786412EE26
:103710004E0000000090F85412EE67800000007523
:103720006020E560606B7FE47E47128462E5603074
:10373000E02679097808E6FFD3E76480F8EF648033
:10374000984039786412EDF590F85412EE2A12ED93
:1037500080786412EE3680247809E6F4047908C390
:103760006480F8E76480985013786412EDF590F85F
:103770005412EE2A12ED80786412EE36156090F83D
:103780005412EE01780112EDCF90F85412EE4280FF
:1037900091E561B4020D90F8C212EE01786812EE64
:1037A00036800B90F8C612EE01786812EE3612DA07
:1037B0003990F85412EE678000000090F85412EE31
:1037C00001EC4D4E4F607090F88012EE01C004C0C5
:1037D00005C006C007786412EDF590F85412EE2A81
:1037E00012ED73EC4D4E4F601090F85812EE01AB95
:1037F00007AA06A905A8048009E4FFFEFDFCFBFA60
:10380000F9F8D007D006D005D00412ED8090F880EA
:1038100012EE4290F85812EE01780112EDCF90F8B6
:103820005812EE4290F85412EE01780212EDCF9049
:10383000F85412EE42808412D92C1561E5616003C0
:1038400002370C1272658F5CE55CC313F55C78A9D6
:1038500074C056F6E55CC39404500302369BE55CE5
:10386000D39411400302369B74C056F64480F6E5AB
:103870005C241D46F6E55C240C90F960F0789E7699
:10388000000876017BFF7A2A793012D64122900710
:1038900042E030E103023AAD90F9BA12EE01EC4D8C
:1038A0004E4F7003023AAD90F8BC12EE0112F027B1
:1038B000786C12EE36E47F107E27FDFC786C12EEF9
:1038C0001DC312EDBE4003023AAD7F087E4B128449
:1038D00062780812EDF5780812EDCF90F92F12EE0C
:1038E0004290F92F12EE01788C12EE3612C6507803
:1038F0006412EDF590F99312EE4290F92F12EE67F3
:103900000000000112C650E4F560F561786C12ED1C
:10391000F5EF2498FFEE343AFEE43DFDE43CFC78FC
:103920006C12EE36E4FFFEFDFC90F8BC12EE2AD3DA
:1039300012EDA84015786C12EDF590F99312EE2A6D
:1039400012EC3B786C12EE368013786C12EE1D9000
:10395000F99312EE0112EC48786C12EE367F207E5D
:1039600041128462E50B30E1147560017FE47E450D
:10397000128462E50930E12A75610180257F5C7E51
:1039800040128462E50B30E105755C048003755CD0
:1039900003786412EDF5A95CA80112EDE2786412D7
:1039A000EE36786412EDF5E412EB1C90F9BE12EEDF
:1039B0002A12E8F812EB5A90F84812EE42E56060DD
:1039C0001590F84812EE01E47B04FAF9F812EC566F
:1039D00090F84812EE4290F8BC12EE01EC33500F12
:1039E00090F84812EE0112ED9A90F84812EE42E576
:1039F00061600F90F84812EE0112ED9A90F84812AB
:103A0000EE42786C12EDF512BA9690F92F12EE0193
:103A1000786812EE36788C12EDF5786812EE1DD3C8
:103A200012EDBE4019788C12EDF5EF2401FFE43E53
:103A3000FEE43DFDE43CFC788C12EE36802A788C66
:103A400012EDF5786812EE1DC312EDBE505F788C52
:103A500012EDF5EF24FFFFEE34FFFEED34FFFDEC39
:103A600034FFFC788C12EE36788C12EDF578081263
:103A7000EDE2780812EE367F087E4B12846AE5602C
:103A800060097F847E4512846280077FD47E441261
:103A900084627808C00012EDF590F84812EE2A1200
:103AA000EC3BD00012EE3612A37A023A152290F8BF
:103AB000B012EE0190F8CA12EE4290F9B8E020E29E
:103AC0002490F9B5E0FB7DC37F487E4A12D6C590AD
:103AD000F9B6E0FB7DF07F4C7E4A12D6C590F9B96D
:103AE00074FEF0800A90F9B8E020E303023B9F7F68
:103AF0001D12DA479006ADE0FB7DE07F347E4A126E
:103B0000D6C57B207DC07F307E4A12D6C578B6767A
:103B10000512D92C12CD0A7F747E4A128462E50BFD
:103B20005404F55C7F307E4A128462E55C6015784F
:103B3000B6E6FF7401A807088002C333D8FCF4522C
:103B40000B12A37A78B6E6601A16E6FF7401A8078E
:103B5000088002C333D8FCFB7DFF7F307E4A12D63B
:103B6000C580B112D92C12CD0A90F83CE0B41C05E6
:103B700012B53F800312BAE190F967E0FF20E0033D
:103B8000023CAEEF30E10E90F9B8E054FDF0440491
:103B9000F012DA712290F9B8E030E403023CAE7F13
:103BA000247E4A128462E50B541C641C600C90F85D
:103BB0003C741CF012DA1C023C9C90F9B8E0FF3017
:103BC000E30654F7F0023AC17B0F7DFF7F4C7E4A3B
:103BD00012D6C590F8B012EE01786412EE367FC0AE
:103BE0007E3C7DDE7C10786412EE1DD312EDBE406B
:103BF000137F007E847DD77C17786412EE1DD3126C
:103C0000EDBE404C7F407E377DAD7C21786412EE66
:103C10001DD312EDBE40137F007E087DAF7C2F7850
:103C20006412EE1DD312EDBE40267F807E6E7D5A5B
:103C30007C43786412EE1DD312EDBE401E7F007EE1
:103C4000107D5E7C5F786412EE1DD312EDBE500BCA
:103C500090F9B9E030E719E4F0801B90F9B9E0B4CD
:103C6000FE0E90F9B5E0F55C90F9B974FFF0802193
:103C700090F9B9E004F090F9B9E0FF25E025E0F50E
:103C80005CD3943C400B740FF090F9B8E04410F012
:103C900022AB5C7DC37F487E4A12D6C57489257CE1
:103CA000F582E43406F583E020E003023AEF227B5C
:103CB000407A42790F780090F88A12EE0112ECE116
:103CC0008F5DE4F55CE55DC3941B5002055CE55D2A
:103CD000C394175002055CE55DC394115002055C66
:103CE000E55DC3940C5002055CE55DC3940450028D
:103CF000055CE55DC394025002055CE55CC454F0CC
:103D0000F55C7F0912D9DE787DA60608A607E55C7A
:103D100026F618E436F67F0C12D4867E097F0078EA
:103D20007DE6FC08E6FD7B1012D98812D4967870E7
:103D300012EE4E48800000900900E0FCA3E0FDE494
:103D400012EB21787012EE1D12EA01C004C005C00A
:103D500006C00790F88A12EE01E412EB1CD003D0E3
:103D600002D001D00012E8F878B312EE36900902C2
:103D7000E0FCA3E0FDE412EB21E4FBFAF978401249
:103D8000EA0190F93712EE42900904E0FCA3E0FD4D
:103D9000E412EB21787012EE1D12EA01C004C00596
:103DA000C006C00790F88A12EE01E412EB1CD003A3
:103DB000D002D001D00012E8F878B712EE369009A0
:103DC00006E0FCA3E0FDE412EB21E4FBFAF9784005
:103DD00012EA0190F93B12EE42900908E0FCA3E0E0
:103DE000FDE412EB21787012EE1D12EA01C004C04E
:103DF00005C006C00790F88A12EE01E412EB1CD051
:103E000003D002D001D00012E8F878AF12EE36905D
:103E1000090AE0FCA3E0FDE412EB21E4FBFAF978E7
:103E20004012EA0190F94712EE4290090CE0FCA31F
:103E3000E0FDE412EB21787012EE1D12EA01C004DD
:103E4000C005C006C00790F88A12EE01E412EB1C10
:103E5000D003D002D001D00012E8F890F93F12EE62
:103E60004290090EE0FCA3E0FDE412EB2178701211
:103E7000EE1D12EA01C004C005C006C00790F88A12
:103E800012EE01E412EB1CD003D002D001D00012DC
:103E9000E8F890F94312EE42227F007E42128462DB
:103EA000430B0112A37AE50B54FE7899F6789BE454
:103EB000F67896E67003023F3778AC74EF56F674E6
:103EC0009E257CF582E43406F583E0FF30E50B782F
:103ED0009974F756F64404F68025EF30E70E78AC77
:103EE000741046F67899740C46F68013789974FB32
:103EF00056F690FA00E030E10678AC741046F67899
:103F000096E6D394105005E6F55D8003755D107F4D
:103F1000387E4212845DE4F55CE55CC3955D503209
:103F2000789BE6062400F582E434FAF583E0F50B8D
:103F300012A37A055C80E2749E257CF582E4340647
:103F4000F583E020E60C78AC741046F67899740C92
:103F500046F612A5C990077EE0FCA3E0FDE412EB53
:103F60002190F8D412EE2A12E8F8E4FBFAF9783F2F
:103F700012E80712EB5AEFEE540FFEE4FDFC7864F2
:103F800012EE367FF47E461284627808C00012ED8D
:103F9000F5E4FFEE54F0FEEDECD00012EE367808BA
:103FA000C00012EDF5786412EE1D12ED80D0001203
:103FB000EE3612A37A7FE87E46128462E4FFFE7D2D
:103FC000707C4290F8D412EE2A12E8F8E4FBFAF979
:103FD000783F12E80712EB5AEFE48F5C855C081219
:103FE000A37A7FF07E46128462855C0812A37A7FF2
:103FF000E47E461284629006ABE0FCE412EB26E419
:10400000FBFA797A784412E8F890F8D412EE2A1282
:10401000E8F8E4FBFAF9783F12E80712EB5A78085F
:10402000A60608A60712A37A750B047896E6D39421
:10403000104003430B087F847E4212846A7899E61D
:104040004402F50B7F007E4212846A7F847E421216
:104050008462E50B30E30312AEBF7F287E471284F3
:1040600062E50854037006E50854E07003125CB979
:104070007F847E42128462E50B20E2F112D8DD805B
:10408000CA2212C5E0EF602D786412EE4E00005493
:104090006090F8C1E0FBD3941A5005755C01800371
:1040A000755C02786812EE4E000001F8EB24E825FA
:1040B0005CF55D801A786412EE4E00007E907868A0
:1040C00012EE4E0000031890F8C1E024F0F55D7F79
:1040D0000C12D48675F002E55D90FFDD12EE98E4D7
:1040E00093FE74019378A3A60608F612D49612CF15
:1040F00014EF6012786412EDF5786812EE1D12EC80
:104100003B786412EE367866E6FE08E6245AFFE451
:104110003E78A5F608A60779A3E7FE09E77803CE5F
:10412000C313CE13D8F9FFE4FCFD786812EE36789D
:104130006812EDF5780812EE367FA87E4112846A87
:1041400078A5E6FE08E6FFE4FCFD780112EDCF78E5
:104150006412EE36786412EDF5786812EE1D12ECFA
:1041600048786412EE36786412EDF5780812EE366F
:104170007FAC7E4112846A742A257CF582E4340780
:10418000F583E07003024258786812EDF578641206
:10419000EE1D12EC3BE412EB1CC004C005C006C0CF
:1041A00007786812EDF5E412EB1CD003D002D001C1
:1041B000D00012EA01787012EE36787012EE1DC04F
:1041C00000C001C002C003742A257CF582E43407D4
:1041D000F583E0FCE412EB267B007A60791F7845DA
:1041E00012EA01E4FBFA7980783F12E807D003D0A5
:1041F00002D001D00012E8F8787012EE367864121E
:10420000EDF5E412EB1C787012EE1D12E8F8C00414
:10421000C005C006C007787012EE1DE4FFFE7D8069
:104220007C3F12E803A804A905AA06AB07D007D073
:1042300006D005D00412EA0112EB5A780812EE36C5
:104240007FA87E4112846A786412EDF5780812EE38
:10425000367FAC7E4112846A227FAC7E4412846237
:10426000780812EDF590F92712EE427895E4F6E41D
:104270007B907A01F9F890F88A12EE0112ECE1E4F1
:1042800012EB1C789612EE36789A12EE4E408000B1
:104290000012ADF390F92712EE01780912EDCF78F4
:1042A0006412EE367895E6700D786412EDF512ED35
:1042B0009A786412EE36786412EDF590F92712EED2
:1042C0002A12EC3B780812EE367FAC7E4412846AE8
:1042D0007B017DFF7FA47E4012D6C512DB717FA8D3
:1042E0007E4412846A12698F789012EE4E00049315
:1042F000E0E4FDFF12A11612698FE47B407A06F913
:10430000F890F88A12EE0112ECE1E412EB1C7896B8
:1043100012EE36789A12EE4E4130000012ADF3786C
:104320007412EE4E000000007560207FA87E4412DB
:104330008462787412EE1DC000C001C002C0037810
:104340000812EDF5EC12EB1CE4FBFAF9784212EAE4
:1043500001D003D002D001D00012E807787412EE29
:104360003612D8DDD560C47895E6602BE4FFFEFDFB
:10437000FC787412EE1D12EA9E600D400B787412E8
:10438000EE4E000000008027787412EDF512EB0B62
:10439000787412EE368018E4FFFEFDFC787412EE9D
:1043A0001D12EA9E5009787412EE4E00000000784B
:1043B0007412EDF512EB5A786412EE3690F927126A
:1043C000EE01780812EE367FAC7E4412846A12DB6E
:1043D000717FA87E4412846A7FD87E4412846AE486
:1043E000FFFE7D02FC786412EE1DD312EDBE401D6F
:1043F0007895E660117433257CF582E43407F58303
:10440000E04401F080077895760102426F7433250D
:104410007CF582E43407F583E054BFF012DB4722D9
:10442000755FFF7560FB7561F490F8AAE0603B145E
:10443000602924FE601214601A24027026535FFE65
:1044400053607F4361808022535FFE4360805361ED
:104450007F8017535FFD5360BF800F535FFB536135
:10446000BF800790F819E04410F090F8ABE0603B93
:1044700014602924FE601214601A24027026535F0F
:10448000F753607F4361808022535FF7436080531E
:10449000617F8017535FEF5360BF800F535FDF531F
:1044A00061BF800790F819E04410F090F8ACE0602C
:1044B0003024FD601214601A2402701E535F7F5373
:1044C000607F436180801A535F7F43608053617FC8
:1044D000800F535FBF5360BF800790F819E044100E
:1044E000F090F819E054F060030245D8AD607F0900
:1044F000120016AD617F0B120016AD5F7F0C12002B
:10450000167F1712D7BA8F62E55FB4FF054362408A
:1045100080035362BFAD627F171200167F1812D757
:10452000BA8F62E55F5489FFBF8905436248800303
:104530005362B7E55F5452FFBF52054362A0800348
:1045400053625FAD627F181200167F0D12D7BA8FCB
:10455000637F1E12D7BA8F62900687E030E015E5C0
:104560006054C04403F560E563541F4440F5635351
:10457000628F8018E56054C0443CF560E563541FC9
:1045800044C0F563E562548F4430F562AD607F0945
:10459000120016AD637F0D120016AD627F1E120071
:1045A000167DC97F191200167D907F1A1200169091
:1045B0000687E0540624FC60092404700A755F42F3
:1045C0008008755F828003755F02AD5F7F0E120009
:1045D00016AD5F7F10120016227F1D12F146805F1C
:1045E00012B7DCEF6059E51055116047E50FC45470
:1045F000F0450F4488F5CEE50F6407600DE50F54D4
:1046000001F57C044408F5CF8006E4F57C75CF0BFA
:104610007581C0E510F45211E5104212E50F75F0F6
:1046200003A4246AF582E43408F58312EEB612EE90
:10463000EE800CE50F25E025E0242AFF12F121751C
:10464000E404850ED685E35DE55D7003024780F5E1
:10465000E575E40285DE5CAF5C12F0AAE55C30E64D
:10466000107BFF7A2F79797F0712D0CC431380809B
:10467000CEE55C30E51DE4F57CE5F95440FFC3135D
:10468000FFE5FA541F4FF55912538175F41F75F366
:104690004080ACE55C30E41F757C01E5F95480FF97
:1046A0001313543FFFE5F9541F4FF5591253817509
:1046B000F59FE4F5F68088E55C30E30E7BFF7A0435
:1046C00079C27F0112D0CC02463FE55C30E26B90AC
:1046D000089112EEB6EA494B605A90089412EE0126
:1046E000EC4D4E4F604E90089412EE01EF24FFFF08
:1046F000EE34FFFEED34FFFDEC34FFFC9008941225
:10470000EE42E4FFFEFDFC90089412EE2AC312ED87
:10471000BE600302463F90089112EEB612EEEE9094
:10472000089412EE01EC4D4E4F600302463F12001A
:104730004602463F12004602463FE55C54037003C2
:1047400002463F900882E0455CF054036403600336
:1047500002463F43B204900889F0900882F0439AE1
:1047600020439C8090089412EE67000000017BFFBC
:104770007A6E799490089112EEBF12DAC202463F27
:10478000E54A70030245E012A9C60245E022127410
:1047900043121AB3E4FFFE7D807C4490F89612EE3B
:1047A0002A12E8F812EB5A7878A60608A607E4FF62
:1047B000FEFDFC90F81A12EE2A12EA9E701B90F889
:1047C0009612EE0190F81A12EE4290F89612EE014F
:1047D00090F81E12EE42024928900726E0FCA3E062
:1047E000FDE412EB21A804A905AA06AB07E4FFFE2D
:1047F0007D807C3F12EA01787012EE36787012EEFE
:104800001DE4FFFE7D807C3F12E80390F81A12EE53
:104810002A12E8F8C004C005C006C00790F8961236
:10482000EE01787012EE1D12E8F8D003D002D0012C
:10483000D00012E80790F81A12EE4290F81E12EE1D
:104840000190F89612EE2A12EA9E6010400E90F83F
:104850009612EE0190F81E12EE42805590F81E124C
:10486000EE01C004C005C006C007900726E0FCA307
:10487000E0FDE412EB21C004C005C006C00790F8BB
:104880001A12EE2A90F81E12EE0112E803D003D09D
:1048900002D001D00012EA01A804A905AA06AB07BC
:1048A000D007D006D005D00412E80390F81E12EE0F
:1048B00042900725E0FC75F080A4787AA6F008F60F
:1048C000E412EB26E4FBFAF9784112EA017874125B
:1048D000EE36787412EE1D90F81E12EE0112E80307
:1048E00090F89612EE2A12EA9E502E742C257CF532
:1048F00082E43407F583E0FF20E00DE57C60047E70
:104900001080027E01EE429E742C257CF582E434F8
:1049100007F583EF4401F0800F742C257CF582E4C9
:104920003407F583E054FEF0124C5422789012EED6
:104930004E00004E207F887E42128462E50B30E2FA
:10494000030249F178A0E4F608F67F0212D3CC9076
:10495000F99CE07002A3E0704990F9A4E070149013
:10496000F89212EE01EF5410FFE4FEFDFCEF60033D
:1049700012C56D90F9A47401F07F0412D3CC90F8A5
:1049800026E0B4010312C6F678A3E4F608F690F91F
:104990009BE0700912BDF090F99B7401F012BFCC3E
:1049A000800A90F99C74FFF5F012EBED799EC30933
:1049B000E7941E19E794005023789E0806E61870C5
:1049C0000106799E09E7641E19476003024AB27521
:1049D0000B0A7FC87E4012846A024AB290F9A4E0B2
:1049E0007003024AB2789012EE4E001E8480024A92
:1049F000B279A0D309E7940219E79400400312C4E6
:104A000011750B4A7FC87E4012846A90F99BE0FFC3
:104A1000602979A009E71947702190F99C75F01475
:104A200012EBEDD390F99DE0942C90F99CE0940169
:104A300040337401F0A3742CF0802AEF7011799E3A
:104A400009E71947600990F99CE4F0A37405F07830
:104A5000A30806E61870010679A3D309E794641940
:104A6000E794005021789EE4F608F690F9A4F079D6
:104A7000A0C309E7942819E79400500A080806E63D
:104A800018700106802290F89212EE01EF5440FF58
:104A9000E4FEFDFCFBFAF9F8C312EDBE700A7BFFE1
:104AA0007A92794912D64122750B0C7F887E421288
:104AB000846A7BFF7A49792C785612EEADE4FF12B6
:104AC0005DFE22E57C600C900886E030E111789371
:104AD000761422900886E030E00578937614227FE1
:104AE0001112F3FDEF7003024C5390F88512EE01A2
:104AF000786412EE367EF87F857D1112C10590F83C
:104B000089E0543FF090F89212EE01E4FFFEFDECD4
:104B100054C0FCE4FBFAF978C0C312EDBE70030286
:104B20004C5390F8E412EE670000000012CB4C905A
:104B3000F87374FFF0E490F9B8F012C41190F89291
:104B400012EE01E4FFFEFDEC5440FC600B786412B1
:104B5000EDF590F88512EE42E57C60047F05800259
:104B60007F047897EFF612ACB790F9C2E0600312B9
:104B7000BF8990F87A74FFF0E490F99BF0900743B6
:104B8000F090F89212EE01E4FFEE5480FEE4FDFC9A
:104B9000EE6005755CC08003E4F55C7433257CF53C
:104BA00082E43407F583E55CF012BDF012DB71900E
:104BB000074FE0B40105750B108003750B307F5C67
:104BC0007E4012846A90F89212EE01E4FFFEFDEC42
:104BD0005440FCE4FBFAF9F8C312EDBE700D7BFF04
:104BE0007A96797A785612EEAD805C90F889E0FF7B
:104BF000C394204012EF9430500D7BFF7A8B7942A2
:104C0000785612EEAD8040EFC394004013EFD3947A
:104C100012500D7BFF7AD279AA785612EEAD80271A
:104C2000EF5430FFBF301590F889E0643F600D7B92
:104C3000FF7ADB79B7785612EEAD800B7BFF7ACE28
:104C40007929785612EEAD7897E6FF785612EEA4E1
:104C500012D0CC2290F8C1E0FFC3941E4024EFD3C1
:104C60009427501EEF24E2FFE434FFFEEF7802C3E6
:104C700033CE33CED8F924947879F6EE340718F68B
:104C8000804F90F8C1E0FFD394045013EF75F00407
:104C9000A4AEF024807879F6EE340718F6803290CE
:104CA000F8C1E0FFC394105003024DE1EFD3941D0F
:104CB0004003024DE1EF24F0FFE434FFFEEF780201
:104CC000C333CE33CED8F924BC7879F6EE34071846
:104CD000F67878E6FE08E6FF2402FDE43EFC787AEA
:104CE000F608EDF68F828E83E0FEA3E07878A606C4
:104CF00008F68D828C83E0FEA3E0787AA60608F69B
:104D00007878E6FC08E6FDE57C25E02472F582E48F
:104D10003407F583ECF0A3EDF0E412EB21E4FBFAA9
:104D2000F9784512EA01787012EE36787AE6FC08D6
:104D3000E6FDE412EB21E4FBFAF9784512EA01788A
:104D40007412EE36787012EDF590F89612EE2A1283
:104D5000EA9E6002502E742C257CF582E43407F51F
:104D600083E0FF20E30DE57C60047E8080027E0806
:104D7000EE429E742C257CF582E43407F583EF44E3
:104D800008F0800F742C257CF582E43407F583E06D
:104D900054F7F0787412EDF590F89612EE2A12EAB4
:104DA0009E6002502D742C257CF582E43407F58337
:104DB000E0FF20E20DE57C60047E4080027E04EE90
:104DC000429E742C257CF582E43407F583EF44047D
:104DD000F022742C257CF582E43407F583E054FB43
:104DE000F02290F889E0D394095005755D0E800398
:104DF000755D0FAF5D12DA4790F889E0F55C7F0CC6
:104E000012D486E55C90FF8A93F50B12D496E4F5F4
:104E10005D90F889E0FBC3940A403690F89212EE58
:104E200001E4FFFEFDEC5408FC6023755D0490F87E
:104E30009212EE01E4FFFEFDEC5410FC6008430BFF
:104E4000A0530BBF800B430B80530B9F8003430B7E
:104E5000E0EBC3940A402190F889E0940A40339033
:104E6000F89212EE01E4FFFEFDEC5408FCE4FBFABC
:104E7000F9F8C312EDBE701A530B9F90F89212EE20
:104E800001E4FFEE5406FEE4FDFC780412EDCFEFE2
:104E9000420B7F807E4112846A90F89212EE01E408
:104EA000FFFEFDEC5420FC60197B027DFF7FF87E45
:104EB0004012D6C57B107DFF7FCC7E4012D6C54305
:104EC0005D02855D0B7F847E4112846A430B401234
:104ED000A37A530BBF12A37A12DB717430257CF5D1
:104EE00082E43407F583E0541FF50B90F889E0FF66
:104EF000D394055005750A52803EEFC39406400BCB
:104F0000EFD394095005750A56802D90F89212EE51
:104F100001E4FFFEFDEC5408FC601A90F89212EEDA
:104F200001E4FFFEFDEC5410FC6005750A0A8008E0
:104F3000750A4A8003750A5AE57C25E0248DF582BE
:104F4000E43406F583E0A330E1047F0280027F00B1
:104F5000EF420A7F287E4612846A22AF7C7405A83D
:104F600007088002C333D8FCFF900883E05FF56038
:104F70005403F5617003025062900886E0FF5561AA
:104F80006003025062E5614FF07F2F12DA47E57C43
:104F9000600B7B207DFF7F247E4A12D6C57F3012B6
:104FA000DA47900886E05403FFBF031DAF7C12F17F
:104FB0000BE4F57C7B207DFF7F247E4A12D6C57FE3
:104FC0003112DA4712F1168F7C7B017DFF7F5C7E08
:104FD0004012D6C57FD47E41128462780A760108D9
:104FE000761F12A37A7B047DFF7FD07E4112D6C547
:104FF000AF7C7405A807088002C333D8FCFF900873
:1050000086E05FF56112CD5FEF702AE560540C70A9
:1050100006E561540C601E7FD87E42128462780AD5
:10502000760108761F12A37A7B047DFF7FD47E422F
:1050300012D6C5800B7B187DFF7FD87E4212D6C565
:105040007F087E00128462E57C6005430838800397
:10505000430A7012A37AE57C600543AD03800343E5
:10506000AD0CE560540CF5616055900886E0FF5585
:1050700061704CE5614FF07B807DFF7F247E4212A2
:10508000D6C5AF7C7405A807088002C333D8FCFFDF
:10509000900886E05FF56112CD5FEF7022E5615404
:1050A00003601C7FD87E42128462780A76010876FB
:1050B0001F12A37A7B047DFF7FD47E4212D6C512D5
:1050C000DB472212687F78A9E6543FF55D12C5E000
:1050D000EF60207878762A087630E55DD3942B50FF
:1050E00005755C018003755C02E55D24D7255CF5E0
:1050F0005C800D7878763F087648E55D24DFF55CC6
:105100007F0C12D48675F004E55D90FECE12EE9809
:1051100012EE0D780812EE36E55C90FFCD93F55E49
:10512000E55C90FFD593FFE4FCFDFE7B0CFAF9F8FB
:1051300012EC56786812EE3612D49690F88A12EE77
:1051400001E412EB1CC004C005C006C00790F916AC
:1051500012EE01E412EB1CD003D002D001D00012F9
:10516000EA01C004C005C006C0077878E6FC08E67E
:10517000FDE412EB21D003D002D001D00012E8F8F8
:10518000C004C005C006C007786812EDF5E412EB54
:105190001CA804A905AA06AB07D007D006D005D0E5
:1051A0000412E803C004C005C006C007AF5EE4FCFB
:1051B000FDFE786812EE1D12EC3BE412EB1CA80415
:1051C000A905AA06AB07D007D006D005D00412EA7D
:1051D0000112EB5AAD07AC06E412EB21E4FBFAF93D
:1051E000784012E8F812EB5A7878EEF608EFF6D32A
:1051F0009496EE94004006187600087696E4F50939
:10520000F5087878E6FE08E6FF7808A60608A607FF
:105210001812EDF590F9A512EE427F087E5812841F
:105220006A22E490F9D2F090F9DA12EE67000000F9
:1052300000900742E0FFF55CE55C20E00302537656
:10524000EF54FDF0E57C6007E030E403025376E5BF
:105250007C700A900742E030E503025376E57C64F7
:105260000104FF12D48690F88512EE01786412EEE4
:105270003690F90E12EE0178B712EE3690F9BA12A6
:10528000EE0178BB12EE3690F8E412EE0178681267
:10529000EE3690F871E0F55D12D49690F88512EE36
:1052A0002AC000786412EDF5D00012EC4812F02705
:1052B0009006C012EE2AC312EDBE5003025376E5EB
:1052C0005D7003025376E57C60047F0880027F8076
:1052D0008F5EE59D555E6056900742E04402F0788F
:1052E0006412EDF590F88512EE4278B712EDF59064
:1052F000F90E12EE4278BB12EDF590F9BA12EE42B9
:10530000637C017F087E4B128462637C0178081203
:10531000EDF590F9DA12EE42900742E0FFE57C608D
:10532000047EDF80027EEFEF5E900742F02290F96C
:10533000D2E0700F04F0786812EDF590F9D612EE15
:1053400042801890F9D612EE2AC000786812EDF566
:10535000D00012EC4890F8E412EE42900742E0FFD1
:10536000E57C60047E2080027E10EF4E900742F0C4
:1053700012D8DD02523190F90E12EE6700000000E3
:1053800022857C5C12F0D775CE08855C7CE559706F
:10539000030254DB75E4048559D685E35A855AE542
:1053A00075E402E5DEF45259155AE55A6405703A7F
:1053B0007F107E5C12845D12D4C4850B5C850A5D0F
:1053C00085095E85085F7F287E5C12845D12D4C4E7
:1053D000E50B555CF5D6E50A555DF5D5E509555E55
:1053E000F5D4E508555FF5D38017E55A25E0248A02
:1053F000F582E434D7F583E493FE740193FF1284BD
:1054000062900898E5E3F0E0FF6082F5E575E4025C
:1054100085DB0885DC0985DD0A85DE0BE55A640538
:1054200070377F307E5C12846A7F287E5C12845DD8
:1054300012D4C4900898E0F5E575E402E5DBF45277
:1054400008E5DCF45209E5DDF4520AE5DEF4520B1E
:105450007F287E5C12846A8017E55A25E0248AF54D
:1054600082E434D7F583E493FE740193FF12846AD7
:10547000900898E014F012B87EE54CF46007E54B14
:10548000424A0253AAE55A640460030253AA9008F0
:1054900098E0FFC3940A50030253AAEFD3940E403E
:1054A000030253AAE57C60047F1080027F018F5CB9
:1054B000E55B555C70030253AA900885E0FFE57C2C
:1054C00004FEEF4EF0E51130E6030253AA7BFF7AAB
:1054D000C379607F0612D0CC0253AA12F0E2227F79
:1054E000A47E40128462E50B5406F55C7FA87E44DE
:1054F000128462780812EDF590F99E12EE42E55C96
:1055000024FE601324FE601A24047021787012EEC9
:105510004E42800000801F787012EE4E43800000E3
:105520008014787012EE4E4480000080097870126A
:10553000EE4E458000007F5C7E40128462E50B30B9
:10554000E113787012EDF5E4FBFAF9783F12E8F810
:10555000787012EE3690F99E12EE01EC12EB1C7888
:105560007012EE1D12EA0112EB5A90F99E12EE42F1
:105570007FAC7E4412846290F99E12EE017808128C
:10558000EE1D12EC3B90F99E12EE427F487E4012D7
:10559000846290F99E12EE2AE50B541FFFC374201B
:1055A0009FFFE49400FEE4FCFD12EC5690F99E127D
:1055B000EE42E50B20E71590F99E12EE01E47B0226
:1055C000FAF9F812EC5690F99E12EE4290F99E12FA
:1055D000EE01EC12EB1CA804A905AA06AB0790F893
:1055E0005C12EE0112EA01E4FBFA7980784B12E8D2
:1055F000F8787012EE367F587E43128462E50B30E5
:10560000E113787012EDF5E4FBFAF9784012E8F84E
:10561000787012EE3690F88A12EE2AC000C001C0EF
:1056200002C003787012EDF512EB5AD003D002D00D
:1056300001D00012EC4890F8B812EE42227FC07EF2
:1056400042128462780812EDF5786412EE367FC457
:105650007E42128462786412EDF5780812EE1D1213
:10566000EC3B786412EE367FC87E42128462786426
:1056700012EDF5E412EB1CC004C005C006C007AC77
:105680000AE412EB26A804A905AA06AB07D007D0A6
:1056900006D005D00412EA01C004C005C006C00748
:1056A00090068112EE01E412EB1CD003D002D0016F
:1056B000D00012E8F8C004C005C006C007E50B54CE
:1056C0000FFCE412EB26D003D002D001D00012E888
:1056D000F8C004C005C006C007E50BC4540F7C0029
:1056E000540FFDE412EB21A804A905AA06AB07D0CC
:1056F00007D006D005D00412EA01787012EE367F8A
:10570000787E43128462E50B540FFCE412EB26C052
:1057100004C005C006C007787012EDF5D003D002B2
:10572000D001D00012EA0190F8D012EE427F747ED0
:1057300043128462E50B540FFCE412EB26C004C054
:1057400005C006C007787012EDF5D003D002D00175
:10575000D00012EA0190F85C12EE4290F85C12EE72
:105760002AE4FFFE7D807C4E12EA0190F9BE12EE23
:105770004290F88A12EE01E412EB1CA804A905AAD3
:1057800006AB0790F85C12EE0112EA0190F91E12C6
:10579000EE422202426026047F8002424000000066
:1057A000000242440F8C0FF60242440FF70FF8023A
:1057B00042440FF90FFB0242440FFC0FFE02424429
:1057C00000000002024244000300030242440003BE
:1057D00000010242440FFF0FFC0242440FF70FF298
:1057E0000242440FED0FE70242440FE00FDA02429B
:1057F000440FD50FD00242440FCC0FCA0242440FCF
:10580000CA0FCB0242440FCF0FD50242440FDE0F26
:10581000E80242440FF40002024244001100200258
:10582000424400300040024244004F005D024244C6
:1058300000690073024244007A007F024244008003
:10584000000002424800000158014234310247087A
:1058500025100000024740FF4B008F014224010148
:1058600042000101421013014208090142041001E3
:1058700042281B014214080246EC08340384024605
:10588000FC1770660D0246E83C210A150247000825
:105890000000000246F03C0334500246F8060606BB
:1058A000000246E00000000002470C0F1100000259
:1058B000471000000704024718031F410002471C5D
:1058C00000410307024720004103070247141FD489
:1058D00000100246F4012C032001420C7F01420C0F
:1058E00000014204730012698F90F89212EE01E4F5
:1058F000FFFEFDEC5420FC70030259CB90F9A2E0AE
:1059000060030259CB78A5E6702008E6B4011BE4D9
:10591000FC90F94B12EE2AD312EDA8400D78A71295
:10592000EDF512EB0B78A712EE3678A6E62401FF10
:10593000E433A2E713EF13F55CFCE412EB2678A73F
:1059400012EE1D12E8F812EB5A90F84812EE427867
:10595000A6E630E00F90F84812EE0112ED9A90F8AA
:105960004812EE42E4FFFEFD7C3E90F94F12EE2A13
:1059700012E8F8C004C005C006C007AC5CE412EB36
:1059800026D003D002D001D00012E8F8C004C00530
:10599000C006C00790F95312EE01E412EB1CA804F4
:1059A000A905AA06AB07D007D006D005D00412EA95
:1059B0009E500A7BFF7AA4796A12D6412290F84859
:1059C00012EE0190F95712EE42800578A6E670E3D8
:1059D00078B312EDF5789612EE3690F93712EE01A3
:1059E000789A12EE36128DE090F89212EE01E4FFF2
:1059F000FEFDEC5420FC602490F9A2E0701E90F9AA
:105A00005712EE01780812EE367FD47E4412846A73
:105A100078AB12EDF5789012EE36800F78AB12ED80
:105A2000F5780112EDE2789012EE3612C5A72290B9
:105A30000685E030E50690F9227421F090F871E0D7
:105A4000601090F889E0FFC39400400BEFD39412EC
:105A50005005755C188013EFC39420400AEF943012
:105A60005005755C088003755C10AB5C7DE77FD8E2
:105A70007E4212D6C57B047DFF7FD47E4212D6C5FE
:105A8000750B037FDC7E4212846A12DB717FC47E59
:105A90004212846A90F924E0F50B90F923E0A330D8
:105AA000E0047F0180027F008F0A7FC07E42128463
:105AB0006A7FC87E4212846290F922E0F50B90F969
:105AC00025E0F50A90F969E0F50990F96AE0F50832
:105AD00012A37A7FD47E4212846290F923E0FEA35F
:105AE000E0FFE4FCFD90068112EE2A12EC56A804B9
:105AF000A905AA06AB0790F922E0540FFFE4FCFDCC
:105B0000FE12EC56C006C00790F922E0FFC4540F05
:105B10007E00540FFFFB7A00E4F9F8D007D006129C
:105B2000ECE1786412EE367F007E107D5E7C5F785B
:105B30006412EE1DC312EDBE5005530AFE800343EE
:105B40000A0112A37A750B027FDC7E4212846AE49A
:105B5000FB7DFB7FD47E4212D6C57FD47E42128469
:105B600062E50830E0F4E4F50B7FDC7E4212846AE3
:105B700012563D22AF7C7405A807088002C333D8B3
:105B8000FCFF900883E05FF5605403F56170030249
:105B90005C60900886E0FF55617003025C60E5611F
:105BA000F4FEEF5EF0E4FB7DFE7F5C7E4012D6C526
:105BB0007FD87E42128462780A760008762012A38B
:105BC0007AE4FB7DFB7FD47E4212D6C57FD47E4132
:105BD000128462780AE4F608F612A37AE4FB7DFBED
:105BE0007FD07E4112D6C5900886E0FF5402FEEFBA
:105BF00054016E601CAF7C12F10BE4F57CFB7DDF81
:105C00007F247E4A12D6C57F3212DA4712F1168FF0
:105C10007C7F3312DA477F087E00128462E57C6065
