:1000000002D53002F3AA7893760C2202DB75014008
:1000100048400002F30890F860EFF0A3EDF090067E
:1000200086E0FF7D0212AB1CEF700790F819E044E8
:1000300020F02202F3E985FF0885FF0985FF0A8584
:10004000FF0B220297AFC2A9C28C2202F3D17F001C
:0200500022226A
:0300530002F3872E
:10005B0002F3B9AF80228F80227FA87E4112847376
:10006B00780812EDF5786412EE367FAC7E4112847F
:10007B0073780812EDF5786812EE36786812EDF5A4
:10008B00786412EE1D12EC3BE412EB1CC004C005AD
:10009B00C006C007786412EDF5E412EB1CD003D058
:1000AB0002D001D00012EA01C004C005C006C0078F
:1000BB0090F88A12EE01E412EB1CD003D002D001AF
:1000CB00D00012E8F8E4FBFA7980784012E8F8E403
:1000DB00FBFAF9783F12E80712EB5A90F8B412EEDC
:1000EB00427F587E43128473E50B30E11C755C0133
:1000FB0090088BE0601690F8B412EE01780112EDC7
:10010B00CF90F8B412EE428003E4F55C90088BE0DC
:10011B006003020238FB7DFD7F947E4112C0E17FBC
:10012B009C7E41128473530BEB430A04530AFCE588
:10013B005C6003430A0112A38B12DB897F007E09EB
:10014B007D3D7C0090F8B412EE2AC312EDBE400D3B
:10015B0090F8B412EE01786412EE36803D90F8B44C
:10016B0012EE01E412EB1CA804A905AA06AB077F4B
:10017B00007E247D747C4A12EA0112EF3812EB5A8E
:10018B008F5CE4FCFDFE90F8B412EE2A12EC56786C
:10019B006412EE36E55C4440F50B7FCD7E41128454
:1001AB007B786412EE1D7F807E9E7D477C3012EC47
:1001BB00E1EF04F561FFE4FCFDFE786412EE1D1225
:1001CB00EC56786812EE36786812EDF5EF2440FFA6
:1001DB00EE3403FEED3464FDEC34FEFC7BC07AFCA4
:1001EB00799B780112ECE1EF04F562FFE4FCFDFE74
:1001FB007BC07AFC799B780112EC56C004C005C019
:10020B0006C007786812EDF5D003D002D001D000FC
:10021B0012EC48E412EB1C7BA77A12791F783F1281
:10022B00E8F812EB5A788C12EE360203597F9C7E5B
:10023B00411284737F807EB17D4F7C0190F8B412A4
:10024B00EE2AC312EDBE5009430B1012A38B02030F
:10025B00D6530BEF12A38B780812EE4E202C2820CE
:10026B007FCC7E4112847B90F8B412EE01E412EB4A
:10027B001C7BAE7A477981783F12E8F812EB5A78FB
:10028B006412EE36788C12EE4E7FFFFFFF90F9234F
:10029B00E4F0A3741EF090F923E0FEA3E0FFD394E7
:1002AB0028EE94004003020350E4FCFD90068112FB
:1002BB00EE2A12EC56786412EE1D12ECE190F92541
:1002CB00EFF0900685E030E50890F925E0FFC313C9
:1002DB00F090F923E0FEA3E0FFE4FCFD9006811211
:1002EB00EE2A12EC56C00790F925E0FFFBE4FAF971
:1002FB00F8D00712ECE1786812EE3690F8B412EEF3
:10030B002AC000786812EDF5D00012EC48786C1218
:10031B00EE36788C12EDF5786C12EE1DC312EDBE35
:10032B005016786C12EDF5788C12EE3690F924E0BD
:10033B00F56290F925E0F56190F923E475F001126F
:10034B00EBED0202A1788C12EE4E000000007B2434
:10035B007DA67FD07E4112C0E1750B037FD87E4115
:10036B0012847B788C12EDF5780812EE367FC07E06
:10037B004112847B12DB8985620B7FBC7E41128428
:10038B007B7FC47E41128473750B11900685E03020
:10039B00E503750B2185610AE4F509F50812A38BBA
:1003AB00750B027FD87E4112847BE4FB7DFB7FD0F3
:1003BB007E4112C0E17FD07E41128473E50930E6A5
:1003CB00F4E4F50B7FD87E4112847B90088BE060C0
:1003DB001DE57C25E0248DF582E43406F583A3E04E
:1003EB0030E00B7B107DFF7F9C7E4112C0E112DB66
:1003FB008990F889E0FF5430FEBE300AEF643F600D
:10040B0005430B81801290F889E0FFC394204008CC
:10041B00EF94305003430B8090F89212EE01EF549F
:10042B0008FFE4FEFDFCEF6003430B08E57C25E0D1
:10043B00248DF582E43406F583E0A330E003430B0F
:10044B00047F947E4112847BE57C25E0248DF5822C
:10045B00E43406F583E0A330E005E4F50B80037587
:10046B000B1F7F287E4012847BE57C25E0248DF5D5
:10047B0082E43406F583E0F55CE4F50BE55C30E7EC
:10048B0003430B80E55C30E603430B40E55C30E552
:10049B0003430B207F987E4112847BE57C25E0246F
:1004AB008DF582E43406F583E0A3E054FAF50B7F77
:1004BB00907E4112847B22E4F5B97893F67893E62B
:1004CB00600302058B7892A6B97891A6BAE6FF5421
:1004DB003F7896F67890A607C3943750207896E627
:1004EB0025E02442F582E434AAF583E493FE7401FB
:1004FB0093AA06F97BFF785612EEAD8006789376B9
:10050B000B80727891E6FF607720E774EF30E61589
:10051B00900685E020E208757C0175CF0A800C7887
:10052B0093760B8050E4F57C75CF097891E6FF64E8
:10053B00236009EF641F6004EFB4200375CF0B78C1
:10054B005612EEA412EEEE7893E67029E5B904F597
:10055B005C7892E6F5B97891E644807890F6F5BA36
:10056B00C3E55C95B914FF12DEEC7890E6F5BA851D
:10057B005CB90204C87893E6F593439C020204C865
:10058B0075E40B439A2012DB5F2212243D90F8BCDA
:10059B0012EE01EC33500F90F8BC12EE0112ED9AF3
:1005AB0090F8BC12EE42E47F78FEFDFC9006C01280
:1005BB00EE2A12EC56E47B64FAF9F812ECE190F8AF
:1005CB00BC12EE2AD312EDBE40037F01227F002224
:1005DB0085FF5C12DBB5AFFFEFF8E47979F7E8192B
:1005EB00F7AFFF7878E6F608E64FF690F889E0FF6C
:1005FB005430FEBE3015EF643F601078A9E6C3940B
:10060B00364033E6D3943A502D802178A9E654C076
:10061B00FFBF400718E620E11D801178A9E6543F83
:10062B00C394294011E6543F9430500A78797404EE
:10063B0026F618E436F67F0C12D4D47878E6FE084A
:10064B00E6F5828E8312EE01780812EE3612D4E4B0
:10065B0012A38B2285FF5CAC5CE412EB267B107A39
:0F066B005D79C4784012E8F812EB5A12F0BB2206
:1006800025019BFCC000D80200000000001A1A1AC5
:100690001A0000004E2000004E20011030300101F1
:1006A00000033450000334500000000F3C182700B2
:1006B0000B1800000043920C00900550001207CE6A
:1006C000004C4B40A00000000410050C050F04185E
:1006D000050F0410030F041F02880300029B020091
:1006E00004F2020001B2020001000100010000005A
:1006F00001000100010000000200020001000300EF
:1007000000000001000000000000000000000000E8
:1007100000000001000000000000000000000000D8
:10072000000016E360180BB8012C00000000010067
:10073000000064000020206E050F0418061E050B43
:100740002020000000000F00E4E1C001C9C38000C8
:100750003901FFFFFFFFFFFFFFFF00000000000067
:10076000000000000000000000FF0000000000008A
:1007700000000000000000004E2000004E2002D3C8
:1007800019B0114028E0207030F828E038C830F85F
:100790003F08373814A00C8024A81C382D0024A84A
:1007A00035A82DD03B2033504170399047D83FD0E9
:1007B0004BC043E057784FA85B60539078005000DF
:1007C0007800500078005000780050007800500009
:1007D00078005000780050007800500078005000F9
:1007E00078005000780050007800500078005000E9
:1007F0007800500000000000000000000000000031
:10094000D872C9CE8AAA7618D0AEDAB3DAC0DACDB8
:10095000BA11FD0ADB1ADB267CEBC9FFB8DFBCE964
:100960009EA8C72CBA5CC2E88014CEF1B5A5C0A180
:10097000D4B5D13EDAA5D91ED845DB6AD6DCBB3B5F
:10098000DBA65798CF89DBD6DBD4DBD5C3D66CA5E5
:10099000C4F9DAF4DBD7000ED33AD61DD458D439D3
:1009A000D042D066D08ABC14D600D2D7DBD8DBD9EF
:1009B000DBDACDB2DB01CFAE900742E030E10302DB
:1009C0000E549007007401F090F88E12EE01EC4D79
:1009D0004E4F602AE4FFFEFDFC90F8E412EE2AC3BD
:1009E00012EDBE700F90F88E12EE0190F90E12EE1D
:1009F00042020E3690F88E12EE6700000000E4FF0F
:100A000012C90712699412D6C2EF6003020E6C7FFE
:100A1000407E5D7DC67C0090F88A12EE2AC312EDFE
:100A2000BE5020E47F0CFEFDFC9006C012EE2A12A0
:100A3000EC56E47B0AFAF9F812ECE190F84412EE75
:100A400042800C9006C012EE0190F84412EE4290E3
:100A5000F91E12EE01787012EE367FCD7ECC7D4C01
:100A60007C41787012EE1D12EA9E50167FFC7EBE0D
:100A70007D007C4D90F85C12EE2A12EA9E70030213
:100A80000B6BE57C60047F2080027F1012C76290B0
:100A90000700E04402F07562017FCD7ECC7D4C7C86
:100AA00041787012EE1D12EA9E500690F9257408E6
:100AB000F07FCD7ECC7DCC7C41787012EE1D12EAA9
:100AC0009E500890F9257410F0805D7FCD7ECC7D1E
:100AD0004C7C42787012EE1D12EA9E500890F92567
:100AE0007420F080437FCD7ECC7DCC7C4278701228
:100AF000EE1D12EA9E500B90F9257420F0756202EB
:100B000080267FCD7ECC7D4C7C43787012EE1D120A
:100B1000EA9E500B90F9257420F0756204800990CC
:100B2000F9257420F075620890F9C27401F090F90B
:100B300023E4F0A37428F090F9697405F090F96A41
:100B4000F090F9227411F0125A34E56264016018D1
:100B500085620B7F747E4312847B7B207DFF7F68E0
:100B60007E4312C0E112564212B3FA900700E044ED
:100B700004F090F88A12EE0190F9E712EE427F80BD
:100B80007EC37DC97C0190F9E712EE2AD312EDBE37
:100B9000400A90F9E712EE6701C9C38090F9E712A5
:100BA000EE01E412EB1C7BCD7ACC79CC783D12E8D7
:100BB000F890F91212EE4290F84412EE0112ED9AFA
:100BC00090F90E12EE4290F84412EE0190F9C31221
:100BD000EE4290F84412EE01E412EB1C90F912126E
:100BE000EE2A12EA9E60054003020DD2788C12EEC6
:100BF0004E00000000E4F56290F9C312EE0190F996
:100C00000E12EE2AD312EDA84003020D4E1291BD32
:100C1000EF6003020E6C7FC07EE17DE47C0090F803
:100C20008A12EE2AC312EDBE501A900700E030E39C
:100C300013E562700F789012EE4E00007530E4FDFF
:100C4000FF12A127786812EE4E00000000E4F56064
:100C500012DB89E5606006750A07750BF07F087E78
:100C60004312847B430B0F7F0C7E4312847B12DB89
:100C700089750B977F047E4312847B12C7CD12CDFA
:100C8000DB7F147E43128473E5606010780812EDF8
:100C9000F5786412EE1DC312EDBE500A780812ED0D
:100CA000F5786412EE367F1C7E43128473786812E6
:100CB000EDF5780812EE1D12EC3B786812EE360561
:100CC00060E560C394024088786412EE1DC000782D
:100CD0006812EDF5D00012EC48780512EDCFC00493
:100CE000C005C006C007786412EDF5D003D002D06D
:100CF00001D00012EC48786C12EE36788C12EDF5CB
:100D0000786C12EE1DD312EDBE4016786C12EDF524
:100D1000788C12EE3690F90E12EE0190F92B12EE4D
:100D200042056290F90E12EE2AC000C001C002C056
:100D30000390F91212EE0112EB5AD003D002D00147
:100D4000D00012EC3B90F90E12EE42020BF8900725
:100D500000E030E303020E2390F91212EE0112EBD1
:100D60005AAB07AA06A905A80490F92B12EE0112A6
:100D7000EC4890F90E12EE4290F84412EE0112ED9A
:100D80009A90F90E12EE2AC312EDA8500F90F84473
:100D900012EE0112ED9A90F90E12EE4290F9121233
:100DA000EE0112EB5A90F92B12EE2A12EC3B90F95D
:100DB000C312EE4290F84412EE0190F9C312EE2AEB
:100DC000D312EDA8400C90F84412EE0190F9C31232
:100DD000EE4212DB897FA87E4412847B900700E0FC
:100DE0004408F090F9E712EE01E412EB1C7BCD7A97
:100DF000CC794C783D12E8F890F91212EE427F005F
:100E00007E247D747C4990F91212EE2A12EA9E60CB
:100E1000025003020BEC90F91212EE6749742400A1
:100E2000020BEC900700E04480F090F92B12EE01E9
:100E300090F90E12EE4290F9C2E0601012BF9AE5EE
:100E40007C60047F2080027F1012F0891291BD7FA8
:100E50000112C90712DB897FD47E4412847B7FF89C
:100E60007E4412847B7FD87E4412847B2278901249
:100E7000EE4E000003E890F9A4E0706F7F807E964C
:100E80007D98FC90F88A12EE2AC312EDBE400B78D2
:100E90006412EE4E00000064801F90F88A12EE2A61
:100EA0007F807E967D987C0012ECE1E47B64FAF909
:100EB000F812EC56786412EE36E47FFFFEFDFC7803
:100EC0006412EE1DD312EDBE4005755CFF800578FF
:100ED00067E6F55C90F9A3E0C3955C400878A7E667
:100EE000600902123690F9A3E004F012DA1678AC29
:100EF000E664116003021236F55C90F889E0FFC3E6
:100F00009420401FEF9430501A12DA06EF6014124A
:100F1000C230EF6005755C0180097BFF7A9A796CBD
:100F200012D672E55C600978B3E6F46007068004C7
:100F300078B3E4F690F889E0FFC394205003020FE1
:100F4000F4EF94304003020FF412CF3EEF7003022F
:100F50000FF490F89212EE01E4FFEE5420FEE4FD4F
:100F6000FCFBFAF9F8C312EDBE6003020FF47F68D0
:100F70007E4112847378B3E6C3940A5067E50B3060
:100F8000E2627F847E45128473780812EDF5EC12DC
:100F9000EB1C787012EE367FEC7E4712847378700B
:100FA00012EE1DC000C001C002C003780812EDF5AA
:100FB000EC12EB1CE4FBFA7980784012EA01D003D2
:100FC000D002D001D00012E807787012EE367870A7
:100FD00012EDF512EB5A780812EE367F847E451238
:100FE000847B801078B3E6C3940A4008E50B30E2B6
:100FF0000312D78AE55C70030211F57F0212D41A3E
:1010000090F9E6E0607B129D1990F9DE12EE0190F6
:10101000F90912EE2AC312EDBE500312D65690F90A
:10102000DE12EE2A90F90912EE0112EC48E412EBFE
:101030001C787012EE367F007E407D1C7C467870F6
:1010400012EE1D12EA9E6039403790F9E212EE2A44
:1010500090F90512EE0112EC48E412EB1C787012C4
:10106000EE1D12EA01787412EE367F177EB77DD13D
:101070007C38787412EE1D12EA9E6005400302125D
:101080003690F968E07003021157E4FF12170890D8
:10109000F889E0FFC394204038EF9430503312C2F7
:1010A00030EF702D7F947E42128473E50A20E103B5
:1010B00002126E128E95750B017F007E5C12847B8E
:1010C000E4F50B12A38B7F1712DA5F128F3902122D
:1010D0006E90F99BE0700912BE0190F99B7401F0CB
:1010E000E490F968F01285D890F889E0FFC3942065
:1010F0004023EF9430501E12665978A9E6543FC33E
:101100009429400CE6543F94305005750B448008F8
:10111000750B668003750B697FF47E4012847B90AB
:10112000F89212EE01EF5410FFE4FEFDFCEF6003B5
:1011300012C56D90F889E0FFC394204041EF9430D0
:10114000503C780812EE4E000000047F307E5C12A6
:10115000847B12D772802790F889E0FFC3942040E7
:101160001DEF943050187F107E5C12846E12D512E1
:10117000E50B30E3097BFF7A9A796C12D67290F90D
:101180009CE07002A3E0705D90F9A404F07F04126B
:10119000D41A90F889E0FFC394204014EF943050A3
:1011A0000F7F687E41128473E50B30E20312D78A09
:1011B00012BFDD90F826E0B4010312C6F678901253
:1011C000EE4E000186A0900691E030E42290F8C136
:1011D000E0B41B1B90F9E6E0701512D65690F9E6C4
:1011E0007401F0800A90F99C74FFF5F012EBED7831
:1011F000A7E4F6807990F99BE0600878A7E6700391
:1012000012D29590F99BE0600878A7E6C394054058
:101210000312C41190F89212EE01EF5440FFE4FE65
:10122000FDFCFBFAF9F8C312EDBE704279AD78A768
:1012300006E6D397403812C41190F89212EE01EFEF
:101240005440FFE4FEFDFCFBFAF9F8C312EDBE705A
:101250001478A9E654C06004747F56F67BFF7A7157
:10126000797812D672789012EE4E000186A07FC077
:101270007EE17DE47C0090F88A12EE2AD312EDBE66
:10128000504190F88A12EE01E412EB1CA804A90563
:10129000AA06AB077FC07EE17D647C4B12EA01C0E9
:1012A00004C005C006C007789012EDF5E412EB1CEF
:1012B000D003D002D001D00012E8F812EB5A789097
:1012C00012EE367BFF7A0E796D785612EEAD7F0105
:1012D000125E0322503C272B3657504C404328289F
:1012E0005E3D282C3954524A40412828EF5F4B5824
:1012F000669C8854564C40387C4024334467483EB2
:1013000038332828503C272B3657504C4043282848
:101310005E3D282C3954524A40412828875F4B585B
:10132000669C7654564C40387C4024334467483E93
:1013300038332828453421252F45484632301C1C97
:10134000502E242D2D463E40302E1C1C5831243367
:101350003C484844383824245537202A4050322A03
:1013600028251C1C6F47455D61675248423C362E5C
:1013700089484E666B676256483C362E875F4B58ED
:10138000666D7654564C4038696F878D88856256F5
:10139000604E4038799EBC606B6D54484644343092
:1013A00083A6998A9B964248424038306C7588BD26
:1013B000B89C503C3C3C383066505A54536D5A529D
:1013C0004C403830F2B96CB1AFAC707074624C40C4
:1013D000BF9A72A2AFA4887868444038FFFFFFFE2E
:1013E000FCFAA0B878544840DFB9DAA2A09CA080EB
:1013F0006A5C4C402D31202A283190906858341C6A
:101400002F4925302A3368605850341C1A09192096
:1014100027363B3B3430241C13091C2A2939E0B001
:101420005A301C1C2C24232A2B3C5252525232205C
:10143000362F301D2A3F50505024201CE9EAD08B13
:10144000856460543E3E3628E8E8BE948F725C4E58
:1014500042503C309EB77B988F72504840403830A5
:101460009292BEEFD2BA584C483D383090A4BEBBE1
:10147000A7965050403F3830867C79918572505CF9
:10148000403C3630382F1C1F2331484632301C1C5C
:10149000412A1E2525333E40302E1C1C472D1F2679
:1014A00027363C3C302F1C1C4D2F1F2729393C3C34
:1014B00030301C1C462D20252B3C322A2C2C1C1C89
:1014C0005A2C1F232D3F322A28251C1C2C2C303E41
:1014D000353C707068504038373130372C336058A5
:1014E000585040384A36232A2D3C493B3A39322855
:1014F0005254242D2E3C47453A39322872664E5AB2
:10150000729DB08070605848AB755F81ABD6E0D0FB
:10151000787868583B3321242C3C493C3B3A3228AC
:10152000433522272C3C493C3B3A32284B37232A6F
:101530002D3C4A3B3A3932285338242D2E3C4B3B24
:101540003A3932285934262E2E3C4D3A3835302837
:101550006030272E2E3C4E3835312C283B33212449
:101560002C3C493C3B3A3228433522272C3C493C11
:101570003B3A32284B37232A2D3C4A3B3A39322812
:101580005338242D2E3C4B3B3A3932285934262EE1
:101590002E3C4D3A383530286030272E2E3C4E38C0
:1015A00035312C2843332D2E354F908074605040B8
:1015B0004037384D5F727050484030289A8E8D8C7D
:1015C0008A8C827662544840C6B8B1B1B0B3AE8856
:1015D0007A6C584897A1A5A5A2A4A678706454482F
:1015E0006B6864646472A28E80706050C9B66C6B64
:1015F0006A6A907850484440B5DB84838181A0605A
:1016000050444038AE6DA09F9D9D80687454484002
:10161000E6DBFFFFFCFBF87884746050FFFAD0CE65
:10162000CCCCE0F696846858F8FFE1E0DDDDB0B898
:101630007C5C4C4055472B2E354F504C404328285E
:1016400063482E34384D524D3B3A28283737202DE9
:101650003B515028503B2828714A2D313D56504867
:101660003F3D2828744E2C39405A48483B40282892
:10167000834C2837435E48483833282891B3856423
:10168000647248402624242491A193968272403AA1
:1016900030282222FDE1A09DD2D64640221C1914FA
:1016A000FAFAF0ECDCD630282820181301C9C380E0
:1016B00000E4E1C0007270E000393870001C9C3812
:1016C000000F4240012A011200E7009B006900461A
:1016D00012D4130413341364139413C413F4143C7A
:1016E000148414CC1514155C15A415EC1634167C52
:1016F000013A014500FF00A700670040004C003898
:10170000000F000E000A0007E4F55CF55E78A9E61C
:10171000543FF55D90F889E0FE5430FDBD3009EE90
:10172000643F60047E0180027E008E5FEF700302E2
:101730001822900691E030E2347440257CF582E472
:101740003407F583E0FCE412EB26787012EE36E500
:101750007C25E025E02492F582E43406F58312EE40
:1017600001E412EB1C789612EE3602185A7BFF7ACF
:101770001679F090F9CB12EEBF90088BE06015E57A
:101780005F701190074FE0B40205755C018020E4A2
:10179000F55C801B90074FE0B40209E55F700575AA
:1017A0005C048003755C0212CF3EEF7002055CE5BD
:1017B0005F602AE55DC394384006755E06021976BF
:1017C000E55DC394364006755E04021976E55DC397
:1017D00094335003021976755E0202197678A9E6F1
:1017E00054C0FFBF401212C5E0EF6006755E0402F0
:1017F0001976755E02021976E55DC3942D40067573
:101800005E06021976E55DC394294006755E040202
:101810001976E55DC394245003021976755E0202C1
:101820001976900691E030E34B7435257CF582E41F
:101830003407F583E0FCE412EB26787012EE36E50F
:101840007C25E025E02476F582E43407F58312EE6A
:1018500001E412EB1C789612EE36E4FBFAF97841BB
:10186000C000787012EDF5D00012EA01789A12EEFD
:1018700036021AAFE55F60397BFF7A1679FC90F982
:10188000CB12EEBF755C0FE55DC394384006755E04
:1018900006021976E55DC394364006755E040219AA
:1018A00076E55DC394335003021976755E02021922
:1018B000767BFF7A1679C490F9CB12EEBF90088B35
:1018C000E0601012CF3EEF6005755C098013755C17
:1018D0000C800E12CF3EEF6005755C068003755CD0
:1018E0000C900691E030E106055C055C80099007EC
:1018F0004FE0B40202055CE55DC3942D4005755EC2
:101900000A8073E55DB42C05755E088069E55DB4F9
:101910002B05755E06805FE55DC39429404EE55D4D
:1019200064297043FF7E2D7D317C0190F88A12EE90
:101930002AC312EDBE4030E55CB4062B750B017571
:101940000A007509017508007FEC7E4412847B7FD4
:10195000F07E4412847B90088BE06003021AB27F11
:10196000B47E4612847B22755E04800AE55DC394D2
:10197000244003755E02E55E75F006A4F55E75F021
:1019800002E55C9016D012EE98740193255E78798A
:10199000F6E493340018F6755EFFE4F55C75F00428
:1019A000E55C9016AC12EE9812EE0D90F88A12EEED
:1019B0002AC312EDBE4005855C5E8007055CE55CD0
:1019C000B406DAE55E6008E55EB4FF12755E057880
:1019D00078E6FE08E6FFAD5E129DA1021AAF7878A8
:1019E000E6FE08E6FFAD5E129DA1789612EDF57851
:1019F0007012EE36789A12EDF5787412EE36787829
:101A0000E6FE08E6FFE55E14FD129DA175F004E513
:101A10005E9016AC12EE9812EE0D786412EE3675EA
:101A2000F004E55E9016A812EE9812EE0D7864129E
:101A3000EE1D12EC48E412EB1CC004C005C006C049
:101A400007786412EE1D90F88A12EE0112EC48E459
:101A500012EB1CD003D002D001D00012EA01788032
:101A600012EE36787012EE1DC000789612EDF5D0A9
:101A70000012E803788012EE1D12E8F8787012EE7A
:101A80001D12E807789612EE36787412EE1DC0002B
:101A9000789A12EDF5D00012E803788012EE1D124C
:101AA000E8F8787412EE1D12E807789A12EE3612F2
:101AB0008FDC2290F8C1E0D3940F502D90F89A1249
:101AC000EE670061C97E90F89E12EE670F281D0038
:101AD00090F8A212EE67456C65387BFF7AFA7900C0
:101AE0009008A312EEBF021BAB90F8C1E0FFC394B5
:101AF0001E403EEFD394275038EFC394234075EF38
:101B0000D39427506F90F89A12EE670000EAB790CE
:101B1000F89E12EE6703C2993890F8A212EE67445D
:101B2000756BA07BFF7AF879009008A312EEBF8056
:101B30007A90F8C1E0FFC394184032EFD3941D505F
:101B40002C90F89A12EE670001D56E90F89E12EE76
:101B5000670785327090F8A212EE6744F06BA07BA5
:101B6000FF7AF879009008A312EEBF803E90F8C18A
:101B7000E0F4602C90F89A12EE670000EBF090F819
:101B80009E12EE670568C2A090F8A212EE6744AC00
:101B9000FAD67BFF7AF979009008A312EEBF800B8A
:101BA00090F89612EE6700000000227FB07E461289
:101BB0008473780812EDF590F8A612EE4290F89A28
:101BC00012EE0190F8A612EE2AC312EDBE500302E7
:101BD0001DBF90F89E12EE0190F8A612EE2AD312C5
:101BE000EDBE4003021DBF90F89A12EE2A90F8A6AF
:101BF00012EE0112EC48E412EB1C90F8A212EE2A4D
:101C000012EA01787012EE367F007EFF7D7F7C47FE
:101C1000787012EE1D12EA9E600C400A74FF90F874
:101C2000ADF0A3F08010787012EDF512EB5A90F839
:101C3000ADEEF0A3EFF090F8AF7440F07560209037
:101C4000F8AFE0F55C7F0C12D4D49008A312EEB686
:101C500075F002E55CA4F58285F08312EC037878D8
:101C6000A6F008F6E55C2401FFE433FEEF25E0FF73
:101C7000EE338F82F58312EC03787AA6F008F61221
:101C8000D4E47878E6FE08E6FF90F8ADE0FCA3E047
:101C9000FDC39FEC9E400AD3ED787B96EC189640EE
:101CA0002AC3ED9FEC9E500A90F8AFE0C39560F018
:101CB000800790F8AFE02560F0E560D39401500311
:101CC000021C3FE56013F560021C3F90F8AFE0FF97
:101CD000C374809FFDE49400FCE412EB21E4FBFA62
:101CE0007992783E12E8F8787012EE3690F8AFE00C
:101CF000FFC3747F9FFDE49400FCE412EB21E4FB3E
:101D0000FA7992783E12E8F8787412EE3678741206
:101D1000EE1DC000787012EDF5D00012E803C0048B
:101D2000C005C006C0077878E6FE08E6FFC390F855
:101D3000AEE09FFD90F8ADE09EFCE412EB21D003F5
:101D4000D002D001D00012E8F8C004C005C006C01F
:101D500007C3797BE7787996FD19E71896FCE412BA
:101D6000EB21A804A905AA06AB07D007D006D00529
:101D7000D00412EA01C004C005C006C00778701282
:101D8000EDF5D003D002D001D00012E80390F89610
:101D900012EE4290F8C1E0FFC394184049EFD3948B
:101DA0001D5043EFB41A3F90F89612EE017B9A7AD9
:101DB000597929784012E80390F89612EE42229061
:101DC000F89E12EE0190F8A612EE2AD312EDBE4054
:101DD0000B90F89612EE67000000002290F8961221
:101DE000EE6742120000227F287E46128473E50AC5
:101DF000540CF55CE50B541FF55DE55C640860046C
:101E0000E55C7008755EBC755FCC8006755E82759A
:101E10005F93E50A30E7057560108003E4F560E53F
:101E20005E2560FFE433FE7C00EF255DFFEC3EFEA7
:101E3000AB07FAE4F9F8AF5EFDFE12EC56786412D7
:101E4000EE36AF5EAB07E4FAF9F8AF5FFCFDFE12C9
:101E5000EC56786812EE36E55F64936003755FBCFC
:101E600090F80DE0F55C7F0C12D4D4E55C90FFADEA
:101E700093F562E55C90FFBD93F56312D4E478645A
:101E800012EE1DE56225E0FFE433FE3395E0FDFC34
:101E900012EC56786412EE36755C0490088BE060A4
:101EA0000F7F587E43128473E50B30E103755C02AB
:101EB000786812EE1DC000C001C002C003AF5CAB69
:101EC00007E4FAF9F8AF63FCFDFE12EC56D003D03C
:101ED00002D001D00012EC56786812EE367F847E74
:101EE00041128473E50B30E20F786812EDF578014A
:101EF00012EDE2786812EE36786812EDF5E412EB36
:101F00001CC004C005C006C007786412EDF5E412D9
:101F1000EB1CD003D002D001D00012EA01C004C0F3
:101F200005C006C00790F88A12EE01E412EB1CD03F
:101F300003D002D001D00012E8F8C004C005C006EA
:101F4000C007AC5CE412EB26D003D002D001D00075
:101F500012E8F8787012EE36E57C25E0248DF582E3
:101F6000E43406F583E0FEA3E0FFEE30E75730E609
:101F700005755C048003755C01787012EE1DC0006D
:101F8000C001C002C003C3E55F955CFDE49400FCA2
:101F9000E412EB21C004C005C006C007AC5FE41228
:101FA000EB26A804A905AA06AB07D007D006D005E2
:101FB000D00412EA01D003D002D001D00012E8F818
:101FC000787012EE36786812EDF590080412EE4241
:101FD000786412EDF5129E26788C12EE3678641233
:101FE000EDF5788C12EE1D12ECE1786412EE367885
:101FF0006812EDF5788C12EE1D12ECE1786812EEA5
:10200000367F9C7E41128473530B7F12A38B7864BE
:1020100012EDF5780812EE367FA87E4112847B78A7
:102020006412EE1DC000786812EDF5D00012EC4885
:10203000786C12EE36786C12EDF5780812EE367F79
:10204000AC7E4112847B742A257CF582E43407F54A
:1020500083E07003022115786812EDF5E412EB1CA1
:10206000C004C005C006C007786412EDF5E412EBA9
:102070001CD003D002D001D00012EA01C004C00578
:10208000C006C007742A257CF582E43407F583E096
:10209000FCE412EB267B007A60791F784512EA0196
:1020A000E4FBFA7980783F12E807D003D002D00130
:1020B000D00012E8F8787012EE36786C12EDF5E484
:1020C00012EB1C787012EE1D12E8F8C004C005C0B7
:1020D00006C007787012EE1DE4FFFE7D807C3F1283
:1020E000E803A804A905AA06AB07D007D006D005C7
:1020F000D00412EA0112EB5A780812EE367FA87E5D
:102100004112847B786C12EDF5780812EE367FACC4
:102110007E4112847B22E4FFFEFDFC90074B12EE11
:102120002AC312EDBE6011E4FFFEFDFC90074712CA
:10213000EE2AC312EDBE702090074712EE67000032
:10214000000090074B12EE670000000090F88A1222
:10215000EE6701312D00800C90074B12EE0190F8D4
:102160008A12EE4290F87A7401F090F8717403F0DC
:1021700090F88E12EE670000000090F90E12EE67E4
:102180000000000090F89212EE6700000000122795
:102190005A7F0812DA5F7F1112DA5F7F1212DA5F5C
:1021A000126994E4FFFEFDFC90074712EE2AC31269
:1021B000EDBE7044900766E0FEA3E0FFE4FCFD780E
:1021C0000812EE367F087E4312847B900768E0FE9B
:1021D000A3E0FFE4FCFD780812EE367F0C7E43128C
:1021E000847B90072EE05403449CF50B7F047E43D0
:1021F00012847B755C2B8003755C1BAF5C12DA5F0D
:102200007F047E43128473530B03E47E01A80B0802
:102210008005C333CE33CED8F990F87FF0EE90F836
:102220007EF0E4FFFE7D807C4290F85C12EE2A1284
:10223000E80712EB5A780712EDCF90F87412EE42CD
:1022400090074712EE0190F88A12EE42E490F87877
:10225000F0A3F090F96112EE670000000090074BC8
:1022600012EE0190F88A12EE2AD312EDBE506D12D2
:10227000699412C7CD12CDDB7F147E43128473782C
:102280000812EDF5788C12EE3690F96112EE0178B5
:102290008C12EE1DD312EDBE402B788C12EDF59012
:1022A000F96112EE427F187E43128473780812EDB2
:1022B000F590F878EEF0A3EFF090F88A12EE019026
:1022C000F84412EE4290F88A12EE0190F87412EE81
:1022D0002A12EC3B90F88A12EE42808190074B1252
:1022E000EE01EC4D4E4F700302241290F87EE0C3D5
:1022F00013FEA3E013FF90F878E0FCA3E0FDD39F6A
:10230000EC9E500302239390F87FE09DFD90F87EB1
:10231000E09CFCE412EB21C004C005C006C007909D
:10232000F87EE0FCA3E0FDE412EB21A804A905AAD5
:1023300006AB07D007D006D005D00412EA01C004CE
:10234000C005C006C007E4FBFA7980784190F85CCC
:1023500012EE0112EA01D003D002D001D00012E83F
:10236000F8C004C005C006C00790F84412EE01E4AE
:1023700012EB1CD003D002D001D00012E803E4FB22
:10238000FAF9783F12E80712EB5A90F82B12EE4256
:1023900002242390F87EE0FCA3E0FDE412EB21C0D0
:1023A00004C005C006C00790F878E0FCA3E0FDE497
:1023B00012EB21D003D002D001D00012EA01C004F8
:1023C000C005C006C007E4FBFA7980784190F85C4C
:1023D00012EE0112EA01D003D002D001D00012E8BF
:1023E000F8C004C005C006C00790F84412EE01E42E
:1023F00012EB1CD003D002D001D00012E807E4FB9E
:10240000FAF9783F12E80712EB5A90F82B12EE42D5
:10241000801190F878E0FEA3E0FFE4FCFD90F82B3B
:1024200012EE42E490F87AF090F871F0E57C6004E6
:102430007F0880027F04EF429C12DB5F22E4F55E9E
:10244000F55D7F207E41128473E50B30E1157FE45A
:102450007E45128473E50930E10912D9E6EF700375
:10246000755D017FB87E4712847385095FE5093089
:10247000E00F7FC07E40128473E50B5410F560803E
:102480000D7FE47E45128473E50A5402F560E56031
:1024900060097FD47E44128473800312DB8978083C
:1024A00012EDF5EC12EB1C90F9BE12EE2A12EA01C5
:1024B000787012EE3690F85C12EE0190F82F12EE62
:1024C00042755C01E55D600D787012EDF512EB0B65
:1024D000787012EE367F5C7E40128473E50B30E13B
:1024E0000B788012EE4E418000008009788012EE59
:1024F0004E41000000788012EE1DC000787012ED91
:10250000F5D00012EA0112EB5A90F8BC12EE42909C
:10251000F82F12EE01788012EE1D12EA0190F82FCA
:1025200012EE42E55F30E30F7FD07E40128473E508
:102530000B5410F560800D7FE47E45128473E50A2C
:102540005402F560E56060097FF87E441284738070
:102550000312DB89780812EDF5EC12EB1CE4FBFAB0
:102560007980784E12EA01787012EE3690F88A126D
:10257000EE01E412EB1CE4FBFAF9784112EA019057
:10258000F83312EE42787012EDF590F83312EE2A1D
:1025900012E8F8787012EE36787012EDF512EB5AF8
:1025A00090F99712EE4290F8BC12EE0190F9971252
:1025B000EE2A12EC3B90F8BC12EE4290F889E0FF54
:1025C000C394004009EFD3941250030226D97F84AC
:1025D0007E45128473780812EDF5EC12EB1CE4FBD7
:1025E000FA7980784312EA01787012EE3678701228
:1025F000EE1DC000C001C002C003E4FBFA79807880
:102600004B90F85C12EE0112EA01D003D002D00127
:10261000D00012E8F8787012EE36E55D600D787043
:1026200012EDF512EB0B787012EE3690F8BC12EE4C
:102630002AC000C001C002C003787012EDF512EB91
:102640005AD003D002D001D00012EC3B90F8BC125B
:10265000EE427F3C7E47128473780812EDF5E4FB6E
:102660007A01F9F812EEF490F99E12EE4290F85CBD
:1026700012EE01787012EE3690F99E12EE01EC1215
:10268000EB1CC004C005C006C007E4FBFA798078E3
:102690004BC000787012EDF5D00012EA01D003D0E3
:1026A00002D001D00012E8F812EB5A90F99E12EE17
:1026B00042E55D600F90F99E12EE0112ED9A90F9DD
:1026C0009E12EE4290F8BC12EE0190F99E12EE2A94
:1026D00012EC3B90F8BC12EE427FD87E4412847319
:1026E000E50830E3034308F0780812EDF5EC12EB4F
:1026F0001C90F85C12EE2A12E8F8E4FBFA79807874
:102700004D12EA0112EB5A90F99E12EE42E55D601D
:102710000F90F99E12EE0112ED9A90F99E12EE4280
:1027200090F8BC12EE0190F99E12EE2A12EC3B904A
:10273000F8BC12EE4290F8BC12EE0190F90E12EEC7
:102740002A12EC4890F8BC12EE4290F8BC12EE014E
:1027500012ED9A90F8BC12EE4222E490F967F090E4
:10276000F9BA12EE670000000012D4F3E4FB7DDF3B
:102770007F247E4A12C0E17B387DFF7F207E4A1293
:10278000C0E190F871E06401702E7489257CF582B7
:10279000E43406F583E020E21FE57C60047F2080BE
:1027A000027F1012C76212DBC2E57C60047F2080CA
:1027B000027F1012F089800312564290F89212EEB6
:1027C00001E4FFFEFDEC5420FC600B780812EE4E95
:1027D00000000F708009780812EE4E00000F307F65
:1027E000C07E4312847B7F1F12DA5F12B34812A0AF
:1027F000A912B97A123AB390F967E020E13390F860
:1028000071E07003022A0C12D94490F9B8E030E468
:10281000E390F8E412EE01EF2401FFE43EFEE43D14
:10282000FDE43CFC90F8E412EE42E490F9B8F0804C
:10283000C31295F612A8FA789012EE4E000000141A
:10284000E4FD7F0112A12712DA8990F871E070038C
:102850000229F312D94490F83BE0602790F83CE05D
:10286000641C601A1278B990F83BE0700790F9B8D0
:10287000F00229FC90F9B8E030E1080229FCE4906C
:10288000F83BF01273587489257CF582E43406F520
:1028900083E030E32790F87CE075F00AA424057506
:1028A000F00984FF25E025E090F926F0748B257C63
:1028B000F582E43406F583E090F87CF012344F9012
:1028C000F9B8E030E1030229FC7F107E4A128473DC
:1028D0007489257CF582E43406F583E030E33085A5
:1028E0000B5C90F89212EE01EF5420FFE4FEFDFC29
:1028F000FBFAF9F8C312EDBE700D90F926E0F50B66
:102900007F107E4A12847B90F926E55CF080069069
:10291000F926E50BF090F89212EE01EF5420FFEE4D
:102920005480FEE4FDFCFBFAF9F8C312EDBE60032F
:102930000229EC90F89212EE01E4FFEE5401FEE45D
:10294000FDFCEE600B787012EE4E3D0F5C298009A5
:10295000787012EE4E3CA3D70A90F88A12EE01E48A
:1029600012EB1C7B007A247974784912EA017870A2
:1029700012EE1D12E8F8E4FBFAF9783F12E8077846
:102980007012EE36787012EDF512EB5A90F966EF90
:10299000F090F89212EE01E4FFFEFDEC5420FC6092
:1029A000177B407A42790F78009006C012EE011230
:1029B000ECE190F966E02FF07489257CF582E4342F
:1029C00006F583E030E3097F107E4A1284738006A7
:1029D00090F926E0F50B90F966E0FF25E025E0256B
:1029E0000BF50B7F107E4A12847B8020E490F96601
:1029F000F0801990F83B7401F01278B990F9B8E0C2
:102A000030E10990F871E060030227F490F871E07A
:102A10006003122CF77F207E4A128473530BC790F9
:102A2000088BE07005755C088003755C18E55C42F6
:102A30000B12A38B2290F9A2E06017750B047FE4C0
:102A40007E4012847B750B027FEC7E4012847B02F9
:102A50002C1812D27412D8887F1512DA5F90088B66
:102A6000E0700A750B127FB47E4012847B90F88967
:102A7000E0FFC39420404DEF9430504812D9E6EF68
:102A800060077F3512DA5F800A750BDA7FC47E40FB
:102A900012847B7F2612DA5F12B181EF602612C5A5
:102AA000E0EF6020780812EE4E000000467FFC7ECA
:102AB0004012847B780812EE4E4B0000007F207E8F
:102AC0004512847B7FAC7E44128473780812EDF546
:102AD000780112EDE2786412EE36786412EDF57842
:102AE0000812EE367F7C7E4512847B7FDC7E4612A8
:102AF000847B786412EDF5780312EDCF786412EEE2
:102B000036786412EDF5780812EE367F1C7E44129A
:102B1000847B7F487E40128473530B9FE50BB49FE8
:102B20000BE4F55C755D01755E018059E50BB49EA3
:102B30000B755C01755D02755E028049E50BB49C06
:102B40000B755C02755D03755E038039E50BB49807
:102B50000B755C03755D04755E048029E50BB4900C
:102B60000B755C04755D05755E058019E50BB48019
:102B70000B755C06755D05755E058009755C0775EE
:102B80005D06755E06786412EDF5A95CA80112ED8C
:102B9000E2780812EE367F7C7E4512847B786412E0
:102BA000EDF5A95DA80112EDE2780812EE367FDCA2
:102BB0007E4612847B786412EDF5A95EA80112EDC1
:102BC000E2780812EE367F1C7E4412847B750B1F60
:102BD0007FC07E4012847B78A9E654C06007E6542B
:102BE000C06440702E1209B890F9B8E030E1097B5A
:102BF000FF7AA5796612D67290F89212EE01E4FF80
:102C0000EE5480FEE4FDFCEE60097BFF7A42795EC3
:102C100012D6727F1812DA5F900742E030E1069018
:102C2000F9A27401F07F0112170890F889E0FFC340
:102C30009420401FEF9430501A7F2712DA5F90F9EA
:102C4000A2E06005750B138003750B037F207E41A6
:102C500012847B90F9A2E06014750B447F507E4192
:102C600012847B12DB897F6C7E4112847B7F04128D
:102C7000C4BF78ABE4F690F889E0FFC394204038F5
:102C8000EF9430503312CF3EEF600612B181EF6007
:102C90000E12C5E0EF600512BB848003129C917890
:102CA000A9E654C0FFBF40107F947E45128473751F
:102CB0000A0275080212A38B90F89212EE01EF54EB
:102CC00040FFE4FEFDFCFBFAF9F8C312EDBE700311
:102CD00012852378AA76FF90F9687401F0E490F9E0
:102CE000A3F090F9A4F078B2F690F9E6F07BFF7AC1
:102CF00064791C12D6722290F91E12EE01787012BD
:102D0000EE36787012EDF5787412EE36755C01E4EB
:102D1000FFFE7D807C40787012EE1D12EA9E500D01
:102D20007B027DFF7F587E4312C0E1800BE4FB7D78
:102D3000FD7F587E4312C0E1E4FFFEFD7C417874C4
:102D400012EE1D12EA9E60244022E55CC3944050BE
:102D50001BE55C25E0F55C787412EDF5E4FBFAF90F
:102D6000784012EA01787412EE3680CCAC5CE41242
:102D7000EB26C004C005C006C007787012EDF5D080
:102D800003D002D001D00012EA01787412EE36E4CA
:102D9000FFFE7D807C40787412EE1D12EA9E601F5B
:102DA000401D7F337E337D837C40787412EE1D128C
:102DB000EA9E500BE55CC313F55C7003755C01E59E
:102DC0005CD394204005750B408009C37420955C4A
:102DD00044C0F50B7F487E4012847B90074FE0B4DF
:102DE000010B788012EE4E40B6666680097880123C
:102DF000EE4E40CB3333788012EDF5787412EE1D31
:102E000012EA9E60074005E4F50B801C7FEC7E51C2
:102E10007D887C40787412EE1D12EA9E60074005A2
:102E2000750B408003750BC07F507E4012847BE49D
:102E3000FFFE7D807C4B787012EE1D12E8F8C00416
:102E4000C005C006C007AC5CE412EB26A804A905C7
:102E5000AA06AB07D007D006D005D00412EA0112AB
:102E6000EB5A780812EE36E4FFFE7D807C407870E5
:102E700012EE1D12EA9E50157808C00012EDF5E41E
:102E80007B02FAF9F812EC56D00012EE367FAC7ED7
:102E90004412847B780812EDF5780212EDCF786445
:102EA00012EE367F487E40128473530B9FE50BB4BD
:102EB0009F05E4F55C8035E50BB49E05755C0180EB
:102EC0002BE50BB49C05755C028021E50BB49805DD
:102ED000755C038017E50BB49005755C04800DE507
:102EE0000BB48005755C058003755C06786412ED93
:102EF000F5A95CA80112EDE2780812EE367F7C7E1F
:102F00004512847B7FDC7E4612847B7F1C7E4412CC
:102F1000847B12DB897FD87E4412847B787012EE2A
:102F20001DE4FFFEFD7C4512EA01E4FBFAF9783F5F
:102F300012E80712EB5A786412EE36786412EDF557
:102F4000EFEE543FFEE4FDFC781012EDE27808123B
:102F5000EE367F747E4512847B7F487E40128473F8
:102F6000E50BB41005750B08800CE50B7005750BAF
:102F7000188003E4F50B7F4C7E4012847B2275CFD2
:102F80000B7F907E11128473780812EDF5789C12F5
:102F9000EE367F8C7E1112847B789C12EDF5E4FF77
:102FA000EE54C0FEED4C4E60757FB47E11128473FA
:102FB000E50B30E0617F7C7E10128473E50B20E02E
:102FC0005512DB89750B017FB07E1112847B789CD2
:102FD00012EDF5780812EE36789C12EDF5E4FFEE6E
:102FE0005440FEE4FDFCEE6035780812EE4E000021
:102FF00040007F907E1112847B12983EE4FF12D233
:103000000F789CC00012EDF5EFEE54BFFEEDECD052
:103010000012EE36800812D8F575CF0B808B789CA5
:1030200012EDF5E4FFFEED5401FDE4FCED603078B7
:103030000812EE4E000100007F907E1112847B7812
:1030400081E630E10478AD760112F9B4789CC000D5
:1030500012EDF5EFEEED54FEFDECD00012EE3678F9
:103060009C12EDF5E4FFEE5480FEE4FDFCEE6017EB
:1030700012FA00789CC00012EDF5EFEE547FFEE4EA
:10308000FDFCD00012EE36789C12EDF5EC4D4E4F63
:1030900070030231F212F0BF75E404789C12EDF572
:1030A000781812EDCF8FD3789C12EDF5781012EDD1
:1030B000CF8FD4789C12EDF5780812EDCF8FD578AC
:1030C0009C12EDF5EFE48FD685E35C12F0CCE55C65
:1030D00070030231F212F0BF855CE575E40278649A
:1030E000A6DB08A6DC08A6DD08A6DE12F0CC789CDC
:1030F000C00012EDF5C004C005C006C00778641218
:10310000EDF512ED8DA804A905AA06AB07D007D0EE
:1031100006D005D00412ED73D00012EE36155CE532
:103120005CD394135017E55C640F6011786412ED62
:10313000F5780812EE367F907E1112847BE55C12E2
:10314000EEC8319C0231C40B31C90C31CE0D319720
:103150001131731531A116316E1931691C31641D9D
:10316000000031D312CBD7807B12D85C8076129FBF
:103170002A807178A974FB56F612F91512FBB678FD
:10318000A9E630E45F54EFF67FC07E1012847343EB
:10319000090212A38B804D12F9F6804812F91580AE
:1031A000437FE87E10128473E50B30E23778081213
:1031B000EE4E000001207F007E1112847BE4FF129E
:1031C000D20F802012C110801B12C4858016126F8E
:1031D000928011786412EDF5780812EE367F907EB9
:1031E0001112847B789C12EDF5EC4D4E4F6003027A
:1031F000309512CE7B2290F889E0FFC39420400ED8
:10320000EF9430500912CF3EEF600302344EE4F5E4
:103210005D7FF87E44128473780812EDF590F848CB
:1032200012EE4290F8C1E0F55CE55CC3941E4030BC
:10323000E55CD39427502990F98B12EE670000804B
:103240000090F83712EE67000000B57FE47E45126B
:103250008473E50920E1030232F8755D010232F85A
:10326000E55CC3941B401690F98B12EE670000409A
:103270000090F83712EE6700000080807BE55CC3A9
:103280009412401DE55CD39417501690F98B12EE02
:10329000670000200090F83712EE670000005B80A6
:1032A00057E55CD3940F503C90F889E0FFC3940A33
:1032B000401CEFD39412501690F98B12EE67000465
:1032C000000090F83712EE6700000200802A90F9A3
:1032D0008B12EE670000400090F83712EE67000096
:1032E0000080801490F98B12EE670001000090F8C6
:1032F0003712EE670000010090F82712EE2AC00096
:10330000C001C002C00390F98B12EE2A90F8481257
:10331000EE0112EEF4D003D002D001D00012EC3B4B
:1033200090F82712EE4290F83712EE2A90F84812E1
:10333000EE0112EEF490F82712EE2A12EC3B90F810
:103340003712EE427FD47E44128473780812EDF572
:10335000EC12EB1C787012EE3690F83712EE01EC9E
:1033600012EB1C90F83312EE2A12E8F890F82F12A4
:10337000EE2A12EA01788012EE36E55CC3941E5004
:1033800003023401E55CD394275076E55D60497F04
:103390003C7E41128473E50B30E414787012EDF535
:1033A000788012EE1D12E803787012EE36801278E3
:1033B0007012EDF5788012EE1D12E807787012EEAB
:1033C0003690F84812EE0190F83712EE2A12EC48C7
:1033D00090F84812EE428050787012EDF578801225
:1033E000EE1D12E807787012EE3690F84812EE01E2
:1033F00090F83712EE2A12EC3B90F84812EE428019
:1034000027787012EDF5788012EE1D12E8077870BB
:1034100012EE3690F84812EE0190F83712EE2A12AA
:10342000EC4890F84812EE4290F84812EE01780805
:1034300012EE367FF87E4412847B787012EDF5121E
:10344000EB5A780812EE367FD47E4412847B2290A9
:10345000F87CE090F842F07F1912DA5F12D82E90D3
:10346000F9B8E030E10302367290F842E0C3943FCD
:103470004006750BFC0236637F807E8D7D5B7C0091
:1034800090F88A12EE2AC312EDBE500E90F842E078
:10349000FF25E025E0F50B02366390F842E075F079
:1034A00003A4AEF07802CEA2E713CE13D8F8FF1231
:1034B000BD76750BFC7F107E4A12847B12D8F51204
:1034C000B64E786412EDF5E412EB1C7BE17AC97913
:1034D0007E784012EA01E4FBFAF9783F12E807121D
:1034E000EB5A78AE12EE3690F842E0FF12BD7678D5
:1034F000B212EE4E7FFFFFFF90F842E0FF90F841DE
:10350000F090F840F025E025E0F50B7F107E4A12A0
:10351000847B12D8F512B64E78AE12EDF5786412AF
:10352000EE1DC312EDBE500890F8437401F0800602
:1035300090F84374FFF078AE12EE1DC0007864126C
:10354000EDF5D00012EC4812F02778B212EE36906A
:10355000F843E0FF90F841E02FF0E0FFC394015002
:10356000030235EFEFD3943F40030235EF90F8416B
:10357000E0FF25E025E0F50B7F107E4A12847B12E8
:10358000D8F512B64E78AE12EE1DC000786412ED7A
:10359000F5D00012EC4812F027786812EE3678B2B7
:1035A00012EDF5786812EE1DC312EDBE5012786868
:1035B00012EDF578B212EE3690F841E090F840F056
:1035C00090F843E0B4011578AE12EDF5786412EE90
:1035D0001DD312EDBE500302354F801378AE12EDAD
:1035E000F5786412EE1DC312EDBE400302354F7430
:1035F00089257CF582E43406F583E0547FF090F869
:1036000042E075F00AA4FFAEF0E4FCFD7B09FAF994
:10361000F812ECE190F842EFF090F840E0FED39F12
:10362000400B90F842E0FFEE9FF55C800D90F84073
:10363000E0FF90F842E0C39FF55CE55CD39407405F
:103640001790F842E090F840F07489257CF582E408
:103650003406F583E04480F090F840E0FF25E02553
:10366000E0F50B7F107E4A12847B7F1A12DA5F121C
:10367000D6C222E4F5607FE47E47128473E50A54E3
:103680000B64036024AF600560EFC394235011788E
:103690009012EE4E000003E8E4FDFF12A12780D651
:1036A0007BFF7A71797812D6727F347E47128473E9
:1036B000780812EDF5EF64C9FFEE6483FEED649DBA
:1036C000FDEC6471FC90F8C212EE427F307E47122E
:1036D0008473780812EDF5EF64FAFFEE642DFEEDC9
:1036E0006442FDEC6453FC90F8C612EE4212DB8992
:1036F00075081A7FE87E4712847B90F85812EE67AF
:103700008000000090F88012EE67000000007561F4
:1037100002786412EE4E0000000090F85412EE673A
:1037200080000000756020E560606B7FE47E4712DA
:103730008473E56030E02679097808E6FFD3E76412
:1037400080F8EF6480984039786412EDF590F85471
:1037500012EE2A12ED80786412EE3680247809E6A3
:10376000F4047908C36480F8E7648098501378649F
:1037700012EDF590F85412EE2A12ED80786412EEF4
:1037800036156090F85412EE01780112EDCF90F8E2
:103790005412EE428091E561B4020D90F8C212EE2F
:1037A00001786812EE36800B90F8C612EE01786848
:1037B00012EE3612DA5190F85412EE6780000000D3
:1037C00090F85412EE01EC4D4E4F607090F880125C
:1037D000EE01C004C005C006C007786412EDF59084
:1037E000F85412EE2A12ED73EC4D4E4F601090F823
:1037F0005812EE01AB07AA06A905A8048009E4FF48
:10380000FEFDFCFBFAF9F8D007D006D005D0041273
:10381000ED8090F88012EE4290F85812EE01780197
:1038200012EDCF90F85812EE4290F85412EE017853
:103830000212EDCF90F85412EE42808412D9441552
:1038400061E56160030237111272688F5CE55CC349
:1038500013F55C78A974C056F6E55CC39404500374
:103860000236A0E55CD3941140030236A074C05622
:10387000F64480F6E55C241D46F6E55C240C90F9E0
:1038800060F0789E76000876017BFF7A2A793512FF
:10389000D67222900742E030E103023AB290F9BAC0
:1038A00012EE01EC4D4E4F7003023AB290F8BC128A
:1038B000EE0112F027786C12EE36E47F107E27FDC1
:1038C000FC786C12EE1DC312EDBE4003023AB27FCB
:1038D000087E4B128473780812EDF5780812EDCF4C
:1038E00090F92F12EE4290F92F12EE01788C12EE21
:1038F0003612C650786412EDF590F99312EE4290AC
:10390000F92F12EE670000000112C650E4F560F5D1
:1039100061786C12EDF5EF2498FFEE343AFEE43D49
:10392000FDE43CFC786C12EE36E4FFFEFDFC90F802
:10393000BC12EE2AD312EDA84015786C12EDF5906A
:10394000F99312EE2A12EC3B786C12EE3680137863
:103950006C12EE1D90F99312EE0112EC48786C1285
:10396000EE367F207E41128473E50B30E1147560E2
:10397000017FE47E45128473E50930E12A75610117
:1039800080257F5C7E40128473E50B30E105755C19
:10399000048003755C03786412EDF5A95CA801123C
:1039A000EDE2786412EE36786412EDF5E412EB1C69
:1039B00090F9BE12EE2A12E8F812EB5A90F848126B
:1039C000EE42E560601590F84812EE01E47B04FADF
:1039D000F9F812EC5690F84812EE4290F8BC12EE4C
:1039E00001EC33500F90F84812EE0112ED9A90F866
:1039F0004812EE42E561600F90F84812EE0112EDB8
:103A00009A90F84812EE42786C12EDF512BAA7902F
:103A1000F92F12EE01786812EE36788C12EDF578F7
:103A20006812EE1DD312EDBE4019788C12EDF5EF41
:103A30002401FFE43EFEE43DFDE43CFC788C12EE04
:103A400036802A788C12EDF5786812EE1DC312EDDF
:103A5000BE505F788C12EDF5EF24FFFFEE34FFFED1
:103A6000ED34FFFDEC34FFFC788C12EE36788C12CE
:103A7000EDF5780812EDE2780812EE367F087E4BFD
:103A800012847BE56060097F847E45128473800721
:103A90007FD47E441284737808C00012EDF590F84C
:103AA0004812EE2A12EC3BD00012EE3612A38B0223
:103AB0003A1A2290F8B012EE0190F8CA12EE429033
:103AC000F9B8E020E22490F9B5E0FB7DC37F487EA1
:103AD0004A12C0E190F9B6E0FB7DF07F4C7E4A12BD
:103AE000C0E190F9B974FEF0800A90F9B8E020E3E3
:103AF00003023BA47F1D12DA5F9006ADE0FB7DE080
:103B00007F347E4A12C0E17B207DC07F307E4A1226
:103B1000C0E178B6760512D94412CD0A7F747E4A88
:103B2000128473E50B5404F55C7F307E4A12847373
:103B3000E55C601578B6E6FF7401A807088002C34B
:103B400033D8FCF4520B12A38B78B6E6601A16E653
:103B5000FF7401A807088002C333D8FCFB7DFF7FF8
:103B6000307E4A12C0E180B112D94412CD0A90F8D9
:103B70003CE0B41C0512B550800312BAF290F9670C
:103B8000E0FF20E003023CB3EF30E10E90F9B8E033
:103B900054FDF04404F012DA892290F9B8E030E4E0
:103BA00003023CB37F247E4A128473E50B541C64E9
:103BB0001C600C90F83C741CF012DA34023CA190AA
:103BC000F9B8E0FF30E30654F7F0023AC67B0F7D08
:103BD000FF7F4C7E4A12C0E190F8B012EE0178648B
:103BE00012EE367FC07E3C7DDE7C10786412EE1DC6
:103BF000D312EDBE40137F007E847DD77C1778649E
:103C000012EE1DD312EDBE404C7F407E377DAD7C61
:103C100021786412EE1DD312EDBE40137F007E08A2
:103C20007DAF7C2F786412EE1DD312EDBE40267F4F
:103C3000807E6E7D5A7C43786412EE1DD312EDBEF9
:103C4000401E7F007E107D5E7C5F786412EE1DD387
:103C500012EDBE500B90F9B9E030E719E4F0801B8B
:103C600090F9B9E0B4FE0E90F9B5E0F55C90F9B9C1
:103C700074FFF0802190F9B9E004F090F9B9E0FF09
:103C800025E025E0F55CD3943C400B740FF090F9EF
:103C9000B8E04410F022AB5C7DC37F487E4A12C07E
:103CA000E17489257CF582E43406F583E020E003A5
:103CB000023AF4227B407A42790F780090F88A1217
:103CC000EE0112ECE18F5DE4F55CE55DC3941B5001
:103CD00002055CE55DC394175002055CE55DC39485
:103CE000115002055CE55DC3940C5002055CE55D76
:103CF000C394045002055CE55DC394025002055C68
:103D0000E55CC454F0F55C7F0912D9F6787DA6060F
:103D100008A607E55C26F618E436F67F0C12D4D424
:103D20007E097F00787DE6FC08E6FD7B1012D9A0B5
:103D300012D4E4787012EE4E48800000900900E042
:103D4000FCA3E0FDE412EB21787012EE1D12EA01F3
:103D5000C004C005C006C00790F88A12EE01E41244
:103D6000EB1CD003D002D001D00012E8F878B312D7
:103D7000EE36900902E0FCA3E0FDE412EB21E4FB47
:103D8000FAF9784012EA0190F93712EE42900904EC
:103D9000E0FCA3E0FDE412EB21787012EE1D12EAC4
:103DA00001C004C005C006C00790F88A12EE01E405
:103DB00012EB1CD003D002D001D00012E8F878B783
:103DC00012EE36900906E0FCA3E0FDE412EB21E4DC
:103DD000FBFAF9784012EA0190F93B12EE429009A1
:103DE00008E0FCA3E0FDE412EB21787012EE1D1256
:103DF000EA01C004C005C006C00790F88A12EE01AF
:103E0000E412EB1CD003D002D001D00012E8F87805
:103E1000AF12EE3690090AE0FCA3E0FDE412EB21BC
:103E2000E4FBFAF9784012EA0190F94712EE429069
:103E3000090CE0FCA3E0FDE412EB21787012EE1D0A
:103E400012EA01C004C005C006C00790F88A12EE4D
:103E500001E412EB1CD003D002D001D00012E8F82C
:103E600090F93F12EE4290090EE0FCA3E0FDE4124F
:103E7000EB21787012EE1D12EA01C004C005C006E5
:103E8000C00790F88A12EE01E412EB1CD003D002B6
:103E9000D001D00012E8F890F94312EE42227F00E0
:103EA0007E42128473430B0112A38BE50B54FE7800
:103EB00099F6789BE4F67896E67003023F3C78AC7E
:103EC00074EF56F6749E257CF582E43406F583E0A3
:103ED000FF30E50B789974F756F64404F68025EF29
:103EE00030E70E78AC741046F67899740C46F6807C
:103EF00013789974FB56F690FA00E030E10678AC3E
:103F0000741046F67896E6D394105005E6F55D8079
:103F100003755D107F387E4212846EE4F55CE55CCB
:103F2000C3955D5032789BE6062400F582E434FAAE
:103F3000F583E0F50B12A38B055C80E2749E257C73
:103F4000F582E43406F583E020E60C78AC74104684
:103F5000F67899740C46F612A5DA90077EE0FCA379
:103F6000E0FDE412EB2190F8D412EE2A12E8F8E416
:103F7000FBFAF9783F12E80712EB5AEFEE540FFE06
:103F8000E4FDFC786412EE367FF47E46128473788A
:103F900008C00012EDF5E4FFEE54F0FEEDECD000A9
:103FA00012EE367808C00012EDF5786412EE1D129C
:103FB000ED80D00012EE3612A38B7FE87E4612848D
:103FC00073E4FFFE7D707C4290F8D412EE2A12E872
:103FD000F8E4FBFAF9783F12E80712EB5AEFE48FA6
:103FE0005C855C0812A38B7FF07E46128473855C2F
:103FF0000812A38B7FE47E461284739006ABE0FC2C
:10400000E412EB26E4FBFA797A784412E8F890F8A7
:10401000D412EE2A12E8F8E4FBFAF9783F12E80726
:1040200012EB5A7808A60608A60712A38B750B0494
:104030007896E6D394104003430B087F847E4212A7
:10404000847B7899E64402F50B7F007E4212847BE4
:104050007F847E42128473E50B30E30312AED07F7F
:10406000287E47128473E50854037006E50854E07F
:104070007003125CBE7F847E42128473E50B20E2E3
:10408000F112D8F580CA2212C5E0EF602D786412D3
:10409000EE4E0000546090F8C1E0FBD3941A500536
:1040A000755C018003755C02786812EE4E000001B9
:1040B000F8EB24E8255CF55D801A786412EE4E007A
:1040C000007E90786812EE4E0000031890F8C1E070
:1040D00024F0F55D7F0C12D4D475F002E55D90FFFD
:1040E000DD12EE98E493FE74019378A3A60608F619
:1040F00012D4E412CF3EEF6012786412EDF57868C6
:1041000012EE1D12EC3B786412EE367866E6FE087D
:10411000E6245AFFE43E78A5F608A60779A3E7FE51
:1041200009E77803CEC313CE13D8F9FFE4FCFD787A
:104130006812EE36786812EDF5780812EE367FA830
:104140007E4112847B78A5E6FE08E6FFE4FCFD785C
:104150000112EDCF786412EE36786412EDF57868CE
:1041600012EE1D12EC48786412EE36786412EDF50A
:10417000780812EE367FAC7E4112847B742A257C4F
:10418000F582E43407F583E0700302425D7868123B
:10419000EDF5786412EE1D12EC3BE412EB1CC0044A
:1041A000C005C006C007786812EDF5E412EB1CD01C
:1041B00003D002D001D00012EA01787012EE3678F6
:1041C0007012EE1DC000C001C002C003742A257C1D
:1041D000F582E43407F583E0FCE412EB267B007AF9
:1041E00060791F784512EA01E4FBFA7980783F1282
:1041F000E807D003D002D001D00012E8F87870129E
:10420000EE36786412EDF5E412EB1C787012EE1DB8
:1042100012E8F8C004C005C006C007787012EE1D91
:10422000E4FFFE7D807C3F12E803A804A905AA06EE
:10423000AB07D007D006D005D00412EA0112EB5A22
:10424000780812EE367FA87E4112847B786412EDE6
:10425000F5780812EE367FAC7E4112847B227FAC6B
:104260007E44128473780812EDF590F92712EE421D
:104270007895E4F6E47B907A01F9F890F88A12EEEA
:104280000112ECE1E412EB1C789612EE36789A12E9
:10429000EE4E4080000012AE0490F92712EE017835
:1042A0000912EDCF786412EE367895E6700D7864D9
:1042B00012EDF512ED9A786412EE36786412EDF58F
:1042C00090F92712EE2A12EC3B780812EE367FACFA
:1042D0007E4412847B7B017DFF7FA47E4012C0E17F
:1042E00012DB897FA87E4412847B12699478901235
:1042F000EE4E000493E0E4FDFF12A127126994E45E
:104300007B407A06F9F890F88A12EE0112ECE1E4AB
:1043100012EB1C789612EE36789A12EE4E4130006F
:104320000012AE04787412EE4E000000007560209A
:104330007FA87E44128473787412EE1DC000C00101
:10434000C002C003780812EDF5EC12EB1CE4FBFA96
:10435000F9784212EA01D003D002D001D00012E86D
:1043600007787412EE3612D8F5D560C47895E660F9
:104370002BE4FFFEFDFC787412EE1D12EA9E600D28
:10438000400B787412EE4E00000000802778741203
:10439000EDF512EB0B787412EE368018E4FFFEFD9B
:1043A000FC787412EE1D12EA9E5009787412EE4EDB
:1043B00000000000787412EDF512EB5A786412EEEA
:1043C0003690F92712EE01780812EE367FAC7E4463
:1043D00012847B12DB897FA87E4412847B7FD87E87
:1043E0004412847BE4FFFE7D02FC786412EE1DD350
:1043F00012EDBE401D7895E660117433257CF58280
:10440000E43407F583E04401F080077895760102F3
:1044100042747433257CF582E43407F583E054BF9D
:10442000F012DB5F22755FFF7560FB7561F490F839
:10443000AAE0603B14602924FE601214601A240272
:104440007026535FFE53607F4361808022535FFE7E
:1044500043608053617F8017535FFD5360BF800FBF
:10446000535FFB5361BF800790F819E04410F09050
:10447000F8ABE0603B14602924FE601214601A243B
:10448000027026535FF753607F4361808022535F41
:10449000F743608053617F8017535FEF5360BF80A5
:1044A0000F535FDF5361BF800790F819E04410F0AD
:1044B00090F8ACE0603024FD601214601A240270A1
:1044C0001E535F7F53607F436180801A535F7F4339
:1044D000608053617F800F535FBF5360BF80079040
:1044E000F819E04410F090F819E054F06003024528
:1044F000DDAD607F09120016AD617F0B120016ADB5
:104500005F7F0C1200167F1712D7D28F62E55FB45F
:10451000FF0543624080035362BFAD627F17120004
:10452000167F1812D7D28F62E55F5489FFBF8905C5
:1045300043624880035362B7E55F5452FFBF5205A0
:104540004362A0800353625FAD627F181200167F42
:104550000D12D7D28F637F1E12D7D28F629006873B
:10456000E030E015E56054C04403F560E563541F96
:104570004440F56353628F8018E56054C0443CF5B5
:1045800060E563541F44C0F563E562548F4430F521
:1045900062AD607F09120016AD637F0D120016AD8B
:1045A000627F1E1200167DC97F191200167D907F52
:1045B0001A120016900687E0540624FC60092404B1
:1045C000700A755F428008755F828003755F02AD77
:1045D0005F7F0E120016AD5F7F10120016227F1D46
:1045E00012F146805F12B7EDEF6059E5105511608A
:1045F00047E50FC454F0450F4488F5CEE50F640736
:10460000600DE50F5401F57C044408F5CF8006E405
:10461000F57C75CF0B7581C0E510F45211E51042A1
:1046200012E50F75F003A4246AF582E43408F583DB
:1046300012EEB612EEEE800CE50F25E025E0242AFE
:10464000FF12F12175E404850ED685E35DE55D700A
:1046500003024785F5E575E40285DE5CAF5C12F088
:10466000AAE55C30E6107BFF7A2F797E7F0712D1B6
:104670001A43138080CEE55C30E51DE4F57CE5F956
:104680005440FFC313FFE5FA541F4FF559125386E8
:1046900075F41F75F34080ACE55C30E41F757C0158
:1046A000E5F95480FF1313543FFFE5F9541F4FF50C
:1046B0005912538675F59FE4F5F68088E55C30E382
:1046C0000E7BFF7A0479C27F0112D11A024644E5BB
:1046D0005C30E26B90089112EEB6EA494B605A905A
:1046E000089412EE01EC4D4E4F604E90089412EE7D
:1046F00001EF24FFFFEE34FFFEED34FFFDEC34FF4D
:10470000FC90089412EE42E4FFFEFDFC9008941227
:10471000EE2AC312EDBE600302464490089112EEE9
:10472000B612EEEE90089412EE01EC4D4E4F60037F
:10473000024644120046024644120046024644E540
:104740005C54037003024644900882E0455CF054D8
:10475000036403600302464443B204900889F09066
:104760000882F0439A20439C8090089412EE6700E0
:104770000000017BFF7A6E799990089112EEBF12CA
:10478000DADA024644E54A70030245E512A9D70287
:1047900045E522127446121AB3E4FFFE7D807C4484
:1047A00090F89612EE2A12E8F812EB5A7878A606DC
:1047B00008A607E4FFFEFDFC90F81A12EE2A12EAA2
:1047C0009E701B90F89612EE0190F81A12EE42902D
:1047D000F89612EE0190F81E12EE4202492D900753
:1047E00026E0FCA3E0FDE412EB21A804A905AA063B
:1047F000AB07E4FFFE7D807C3F12EA01787012EE89
:1048000036787012EE1DE4FFFE7D807C3F12E803D7
:1048100090F81A12EE2A12E8F8C004C005C006C0CB
:104820000790F89612EE01787012EE1D12E8F8D09B
:1048300003D002D001D00012E80790F81A12EE421D
:1048400090F81E12EE0190F89612EE2A12EA9E607F
:1048500010400E90F89612EE0190F81E12EE428073
:104860005590F81E12EE01C004C005C006C00790A6
:104870000726E0FCA3E0FDE412EB21C004C005C064
:1048800006C00790F81A12EE2A90F81E12EE0112D6
:10489000E803D003D002D001D00012EA01A804A995
:1048A00005AA06AB07D007D006D005D00412E8034E
:1048B00090F81E12EE42900725E0FC75F080A47877
:1048C0007AA6F008F6E412EB26E4FBFAF978411236
:1048D000EA01787412EE36787412EE1D90F81E120A
:1048E000EE0112E80390F89612EE2A12EA9E502E7C
:1048F000742C257CF582E43407F583E0FF20E00D7D
:10490000E57C60047E1080027E01EE429E742C25C0
:104910007CF582E43407F583EF4401F0800F742CBA
:10492000257CF582E43407F583E054FEF0124C59FF
:1049300022789012EE4E00004E207F887E42128434
:1049400073E50B30E2030249F678A0E4F608F67F3F
:104950000212D41A90F99CE07002A3E0704990F919
:10496000A4E0701490F89212EE01EF5410FFE4FEF0
:10497000FDFCEF600312C56D90F9A47401F07F0493
:1049800012D41A90F826E0B4010312C6F678A3E414
:10499000F608F690F99BE0700912BE0190F99B743D
:1049A00001F012BFDD800A90F99C74FFF5F012EB64
:1049B000ED799EC309E7941E19E794005023789E71
:1049C0000806E618700106799E09E7641E1947601B
:1049D00003024AB7750B0A7FC87E4012847B024AE5
:1049E000B790F9A4E07003024AB7789012EE4E0037
:1049F0001E8480024AB779A0D309E7940219E7948C
:104A000000400312C411750B4A7FC87E4012847B9C
:104A100090F99BE0FF602979A009E7194770219080
:104A2000F99C75F01412EBEDD390F99DE0942C9065
:104A3000F99CE0940140337401F0A3742CF0802AB7
:104A4000EF7011799E09E71947600990F99CE4F02D
:104A5000A37405F078A30806E61870010679A3D3BD
:104A600009E7946419E794005021789EE4F608F66B
:104A700090F9A4F079A0C309E7942819E7940050AD
:104A80000A080806E618700106802290F89212EED5
:104A900001EF5440FFE4FEFDFCFBFAF9F8C312ED10
:104AA000BE700A7BFF7A92795A12D67222750B0C6D
:104AB0007F887E4212847B7BFF7A49793178561257
:104AC000EEADE4FF125E0322E57C600C900886E008
:104AD00030E1117893761422900886E030E0057872
:104AE000937614227F1112F3FDEF7003024C58905D
:104AF000F88512EE01786412EE367EF87F857D111E
:104B000012C10590F889E0543FF090F89212EE013E
:104B1000E4FFFEFDEC54C0FCE4FBFAF978C0C312DC
:104B2000EDBE7003024C5890F8E412EE67000000EE
:104B30000012CB4C90F87374FFF0E490F9B8F012C7
:104B4000C41190F89212EE01E4FFFEFDEC5440FC1B
:104B5000600B786412EDF590F88512EE42E57C600A
:104B6000047F0580027F047897EFF612ACC890F9B5
:104B7000C2E0600312BF9A90F87A74FFF0E490F9F3
:104B80009BF0900743F090F89212EE01E4FFEE5490
:104B900080FEE4FDFCEE6005755CC08003E4F55C1E
:104BA0007433257CF582E43407F583E55CF012BEAE
:104BB0000112DB8990074FE0B40105750B108003EB
:104BC000750B307F5C7E4012847B90F89212EE0170
:104BD000E4FFFEFDEC5440FCE4FBFAF9F8C312EDEF
:104BE000BE700D7BFF7A96798B785612EEAD805CA5
:104BF00090F889E0FFC394204012EF9430500D7B71
:104C0000FF7A8B7953785612EEAD8040EFC3940053
:104C10004013EFD39412500D7BFF7AD279F8785677
:104C200012EEAD8027EF5430FFBF301590F889E0C9
:104C3000643F600D7BFF7ADB79CF785612EEAD8052
:104C40000B7BFF7ACE7953785612EEAD7897E6FF5C
:104C5000785612EEA412D11A2290F8C1E0FFC39444
:104C60001E4024EFD39427501EEF24E2FFE434FFCC
:104C7000FEEF7802C333CE33CED8F924947879F698
:104C8000EE340718F6804F90F8C1E0FFD39404503B
:104C900013EF75F004A4AEF024807879F6EE3407B3
:104CA00018F6803290F8C1E0FFC394105003024D13
:104CB000E6EFD3941D4003024DE6EF24F0FFE43409
:104CC000FFFEEF7802C333CE33CED8F924BC787917
:104CD000F6EE340718F67878E6FE08E6FF2402FDC3
:104CE000E43EFC787AF608EDF68F828E83E0FEA330
:104CF000E07878A60608F68D828C83E0FEA3E07843
:104D00007AA60608F67878E6FC08E6FDE57C25E05C
:104D10002472F582E43407F583ECF0A3EDF0E4129D
:104D2000EB21E4FBFAF9784512EA01787012EE36CD
:104D3000787AE6FC08E6FDE412EB21E4FBFAF97868
:104D40004512EA01787412EE36787012EDF590F89B
:104D50009612EE2A12EA9E6002502E742C257CF5E3
:104D600082E43407F583E0FF20E30DE57C60047EF8
:104D70008080027E08EE429E742C257CF582E4340D
:104D800007F583EF4408F0800F742C257CF582E44E
:104D90003407F583E054F7F0787412EDF590F89647
:104DA00012EE2A12EA9E6002502D742C257CF582A8
:104DB000E43407F583E0FF20E20DE57C60047E40EB
:104DC00080027E04EE429E742C257CF582E434073A
:104DD000F583EF4404F022742C257CF582E434073B
:104DE000F583E054FBF02290F889E0D39409500554
:104DF000755D0E8003755D0FAF5D12DA5F90F88907
:104E0000E0F55C7F0C12D4D4E55C90FF8A93F50B3F
:104E100012D4E4E4F55D90F889E0FBC3940A4036CF
:104E200090F89212EE01E4FFFEFDEC5408FC6023C2
:104E3000755D0490F89212EE01E4FFFEFDEC541053
:104E4000FC6008430BA0530BBF800B430B80530B3C
:104E50009F8003430BE0EBC3940A402190F889E064
:104E6000940A403390F89212EE01E4FFFEFDEC54F8
:104E700008FCE4FBFAF9F8C312EDBE701A530B9F5D
:104E800090F89212EE01E4FFEE5406FEE4FDFC7889
:104E90000412EDCFEF420B7F807E4112847B90F8AD
:104EA0009212EE01E4FFFEFDEC5420FC60197B023F
:104EB0007DFF7FF87E4012C0E17B107DFF7FCC7EBE
:104EC0004012C0E1435D02855D0B7F847E41128408
:104ED0007B430B4012A38B530BBF12A38B12DB89B6
:104EE0007430257CF582E43407F583E0541FF50B1C
:104EF00090F889E0FFD394055005750A52803EEF83
:104F0000C39406400BEFD394095005750A56802DC3
:104F100090F89212EE01E4FFFEFDEC5408FC601ADA
:104F200090F89212EE01E4FFFEFDEC5410FC6005D7
:104F3000750A0A8008750A4A8003750A5AE57C25B5
:104F4000E0248DF582E43406F583E0A330E1047FAC
:104F50000280027F00EF420A7F287E4612847B2275
:104F6000AF7C7405A807088002C333D8FCFF900803
:104F700083E05FF5605403F56170030250679008A9
:104F800086E0FF55616003025067E5614FF07F2FB7
:104F900012DA5FE57C600B7B207DFF7F247E4A1266
:104FA000C0E17F3012DA5F900886E05403FFBF0350
:104FB0001DAF7C12F10BE4F57C7B207DFF7F247E0E
:104FC0004A12C0E17F3112DA5F12F1168F7C7B0149
:104FD0007DFF7F5C7E4012C0E17FD47E41128473EE
:104FE000780A760108761F12A38B7B047DFF7FD0A1
:104FF0007E4112C0E1AF7C7405A807088002C3336C
:10500000D8FCFF900886E05FF56112CD89EF702A29
:10501000E560540C7006E561540C601E7FD87E423A
:10502000128473780A760108761F12A38B7B047DA5
:10503000FF7FD47E4212C0E1800B7B187DFF7FD8BA
:105040007E4212C0E17F087E00128473E57C600519
:105050004308388003430A7012A38BE57C60054344
:10506000AD03800343AD0CE560540CF561605590D1
:105070000886E0FF5561704CE5614FF07B807DFF55
:105080007F247E4212C0E1AF7C7405A8070880022D
:10509000C333D8FCFF900886E05FF56112CD89EF3D
:1050A0007022E5615403601C7FD87E4212847378BD
:1050B0000A760108761F12A38B7B047DFF7FD47EC6
:1050C0004212C0E112DB5F2212688478A9E6543FE5
:1050D000F55D12C5E0EF60207878762A087630E535
:1050E0005DD3942B5005755C018003755C02E55D12
:1050F00024D7255CF55C800D7878763F087648E506
:105100005D24DFF55C7F0C12D4D475F004E55D906E
:10511000FECE12EE9812EE0D780812EE36E55C9097
:10512000FFCD93F55EE55C90FFD593FFE4FCFDFEBB
:105130007B0CFAF9F812EC56786812EE3612D4E4C9
:1051400090F88A12EE01E412EB1CC004C005C00600
:10515000C00790F91612EE01E412EB1CD003D00246
:10516000D001D00012EA01C004C005C006C0077813
:1051700078E6FC08E6FDE412EB21D003D002D00172
:10518000D00012E8F8C004C005C006C00778681255
:10519000EDF5E412EB1CA804A905AA06AB07D0079D
:1051A000D006D005D00412E803C004C005C006C074
:1051B00007AF5EE4FCFDFE786812EE1D12EC3BE4E6
:1051C00012EB1CA804A905AA06AB07D007D006D08D
:1051D00005D00412EA0112EB5AAD07AC06E412EB5B
:1051E00021E4FBFAF9784012E8F812EB5A7878EEED
:1051F000F608EFF6D39496EE940040061876000871
:105200007696E4F509F5087878E6FE08E6FF780872
:10521000A60608A6071812EDF590F9A512EE427F32
:10522000087E5812847B22E490F9D2F090F9DA12C9
:10523000EE6700000000900742E0FFF55CE55C20AF
:10524000E00302537BEF54FDF0E57C6007E030E4BF
:105250000302537BE57C700A900742E030E50302CD
:10526000537BE57C640104FF12D4D490F88512EEE0
:1052700001786412EE3690F90E12EE0178B712EE54
:105280003690F9BA12EE0178BB12EE3690F8E412BD
:10529000EE01786812EE3690F871E0F55D12D4E414
:1052A00090F88512EE2AC000786412EDF5D0001255
:1052B000EC4812F0279006C012EE2AC312EDBE5041
:1052C0000302537BE55D700302537BE57C60047F42
:1052D0000880027F808F5EE59D555E605690074294
:1052E000E04402F0786412EDF590F88512EE427811
:1052F000B712EDF590F90E12EE4278BB12EDF59073
:10530000F9BA12EE42637C017F087E4B128473630C
:105310007C01780812EDF590F9DA12EE429007421E
:10532000E0FFE57C60047EDF80027EEFEF5E9007A9
:1053300042F02290F9D2E0700F04F0786812EDF597
:1053400090F9D612EE42801890F9D612EE2AC000DB
:10535000786812EDF5D00012EC4890F8E412EE42B5
:10536000900742E0FFE57C60047E2080027E10EF23
:105370004E900742F012D8F502523690F90E12EE16
:10538000670000000022857C5C12F0D775CE08858E
:105390005C7CE55970030254E075E4048559D685B8
:1053A000E35A855AE575E402E5DEF45259155AE5EB
:1053B0005A6405703A7F107E5C12846E12D5128595
:1053C0000B5C850A5D85095E85085F7F287E5C121F
:1053D000846E12D512E50B555CF5D6E50A555DF5E0
:1053E000D5E509555EF5D4E508555FF5D38017E599
:1053F0005A25E024A2F582E434D7F583E493FE74C1
:105400000193FF128473900898E5E3F0E0FF608257
:10541000F5E575E40285DB0885DC0985DD0A85DEB6
:105420000BE55A640570377F307E5C12847B7F28E1
:105430007E5C12846E12D512900898E0F5E575E452
:1054400002E5DBF45208E5DCF45209E5DDF4520A2A
:10545000E5DEF4520B7F287E5C12847B8017E55AD0
:1054600025E024A2F582E434D7F583E493FE7401A9
:1054700093FF12847B900898E014F012B88FE54CEB
:10548000F46007E54B424A0253AFE55A64046003F7
:105490000253AF900898E0FFC3940A50030253AF41
:1054A000EFD3940E40030253AFE57C60047F10807D
:1054B000027F018F5CE55B555C70030253AF90087F
:1054C00085E0FFE57C04FEEF4EF0E51130E60302D7
:1054D00053AF7BFF7AC379607F0612D11A0253AFB4
:1054E00012F0E2227FA47E40128473E50B5406F58D
:1054F0005C7FA87E44128473780812EDF590F99EC3
:1055000012EE42E55C24FE601324FE601A2404704F
:1055100021787012EE4E42800000801F787012EEEB
:105520004E438000008014787012EE4E44800000DC
:105530008009787012EE4E458000007F5C7E40123C
:105540008473E50B30E113787012EDF5E4FBFAF9A2
:10555000783F12E8F8787012EE3690F99E12EE015C
:10556000EC12EB1C787012EE1D12EA0112EB5A904D
:10557000F99E12EE427FAC7E4412847390F99E1223
:10558000EE01780812EE1D12EC3B90F99E12EE42ED
:105590007F487E4012847390F99E12EE2AE50B54E8
:1055A0001FFFC374209FFFE49400FEE4FCFD12EC97
:1055B0005690F99E12EE42E50B20E71590F99E12E7
:1055C000EE01E47B02FAF9F812EC5690F99E12EE25
:1055D0004290F99E12EE01EC12EB1CA804A905AA58
:1055E00006AB0790F85C12EE0112EA01E4FBFA79CF
:1055F00080784B12E8F8787012EE367F587E4312AE
:105600008473E50B30E113787012EDF5E4FBFAF9E1
:10561000784012E8F8787012EE3690F88A12EE2A86
:10562000C000C001C002C003787012EDF512EB5A41
:10563000D003D002D001D00012EC4890F8B812EE9E
:1056400042227FC07E42128473780812EDF578649E
:1056500012EE367FC47E42128473786412EDF578C0
:105660000812EE1D12EC3B786412EE367FC87E42C3
:10567000128473786412EDF5E412EB1CC004C005CB
:10568000C006C007AC0AE412EB26A804A905AA06C6
:10569000AB07D007D006D005D00412EA01C004C081
:1056A00005C006C00790068112EE01E412EB1CD083
:1056B00003D002D001D00012E8F8C004C005C00633
:1056C000C007E50B540FFCE412EB26D003D002D048
:1056D00001D00012E8F8C004C005C006C007E50B01
:1056E000C4540F7C00540FFDE412EB21A804A9055B
:1056F000AA06AB07D007D006D005D00412EA01787D
:105700007012EE367F787E43128473E50B540FFCE3
:10571000E412EB26C004C005C006C007787012ED85
:10572000F5D003D002D001D00012EA0190F8D012D7
:10573000EE427F747E43128473E50B540FFCE41237
:10574000EB26C004C005C006C007787012EDF5D086
:1057500003D002D001D00012EA0190F85C12EE42B0
:1057600090F85C12EE2AE4FFFE7D807C4E12EA0186
:1057700090F9BE12EE4290F88A12EE01E412EB1C90
:10578000A804A905AA06AB0790F85C12EE0112EA7C
:105790000190F91E12EE422202426026047F80022E
:1057A0004240000000000242440F8C0FF6024244C7
:1057B0000FF70FF80242440FF90FFB0242440FFCAF
:1057C0000FFE0242440000000202424400030003B4
:1057D000024244000300010242440FFF0FFC024258
:1057E000440FF70FF20242440FED0FE70242440F5D
:1057F000E00FDA0242440FD50FD00242440FCC0F23
:10580000CA0242440FCA0FCB0242440FCF0FD50247
:1058100042440FDE0FE80242440FF4000202424409
:105820000011002002424400300040024244004F78
:10583000005D02424400690073024244007A007F26
:105840000242440080000002424800000158014228
:10585000343102470825100000024740FF4B008FFB
:1058600001422401014200010142101301420809D2
:10587000014204100142281B014214080246EC08B0
:105880003403840246FC1770660D0246E83C210A88
:1058900015024700080000000246F03C03345002A5
:1058A00046F8060606000246E00000000002470C2B
:1058B0000F11000002471000000704024718031FE1
:1058C000410002471C004103070247200041030733
:1058D0000247141FD400100246F4012C0320014299
:1058E0000C7F01420C00014204730012699490F88D
:1058F0009212EE01E4FFFEFDEC5420FC700302590D
:10590000D090F9A2E060030259D078A5E670200893
:10591000E6B4011BE4FC90F94B12EE2AD312EDA879
:10592000400D78A712EDF512EB0B78A712EE367842
:10593000A6E62401FFE433A2E713EF13F55CFCE4D1
:1059400012EB2678A712EE1D12E8F812EB5A90F827
:105950004812EE4278A6E630E00F90F84812EE01C9
:1059600012ED9A90F84812EE42E4FFFEFD7C3E9064
:10597000F94F12EE2A12E8F8C004C005C006C007AD
:10598000AC5CE412EB26D003D002D001D00012E8C8
:10599000F8C004C005C006C00790F95312EE01E438
:1059A00012EB1CA804A905AA06AB07D007D006D0A5
:1059B00005D00412EA9E500A7BFF7AA4797B12D6A6
:1059C000722290F84812EE0190F95712EE428005CB
:1059D00078A6E670E378B312EDF5789612EE36907D
:1059E000F93712EE01789A12EE36128DF190F89294
:1059F00012EE01E4FFFEFDEC5420FC602490F9A2BD
:105A0000E0701E90F95712EE01780812EE367FD43E
:105A10007E4412847B78AB12EDF5789012EE3680DE
:105A20000F78AB12EDF5780112EDE2789012EE36B8
:105A300012C5A722900685E030E50690F922742170
:105A4000F090F871E0601090F889E0FFC394004096
:105A50000BEFD394125005755C188013EFC394209C
:105A6000400AEF94305005755C088003755C10ABFC
:105A70005C7DE77FD87E4212C0E17B047DFF7FD44E
:105A80007E4212C0E1750B037FDC7E4212847B12E2
:105A9000DB897FC47E4212847B90F924E0F50B9071
:105AA000F923E0A330E0047F0180027F008F0A7FAA
:105AB000C07E4212847B7FC87E4212847390F9229A
:105AC000E0F50B90F925E0F50A90F969E0F5099009
:105AD000F96AE0F50812A38B7FD47E42128473909A
:105AE000F923E0FEA3E0FFE4FCFD90068112EE2A1C
:105AF00012EC56A804A905AA06AB0790F922E054B7
:105B00000FFFE4FCFDFE12EC56C006C00790F92220
:105B1000E0FFC4540F7E00540FFFFB7A00E4F9F855
:105B2000D007D00612ECE1786412EE367F007E10CA
:105B30007D5E7C5F786412EE1DC312EDBE5005538E
:105B40000AFE8003430A0112A38B750B027FDC7EE1
:105B50004212847BE4FB7DFB7FD47E4212C0E17F56
:105B6000D47E42128473E50830E0F4E4F50B7FDC68
:105B70007E4212847B12564222AF7C7405A807082D
:105B80008002C333D8FCFF900883E05FF5605403C4
:105B9000F5617003025C65900886E0FF5561700353
:105BA000025C65E561F4FEEF5EF0E4FB7DFE7F5C88
:105BB0007E4012C0E17FD87E42128473780A76005C
:105BC00008762012A38BE4FB7DFB7FD47E4212C0BB
:105BD000E17FD47E41128473780AE4F608F612A3BA
:105BE0008BE4FB7DFB7FD07E4112C0E1900886E014
:105BF000FF5402FEEF54016E601CAF7C12F10BE407
:105C0000F57CFB7DDF7F247E4A12C0E17F3212DA11
:105C10005F12F1168F7C7F3312DA5F7F087E0012ED
