:1000000002CE9902F3AA7893760C2202D4CF014053
:1000100048400002F30890F860EFF0A3EDF090067E
:1000200086E0FF7D0212A52DEF700790F819E044DD
:1000300020F02202F3E985FF0885FF0985FF0A8584
:10004000FF0B2202952EC2A9C28C2202F3D17F009F
:0200500022226A
:0300530002F3872E
:10005B0002F3B9AF80228F80227FA87E41128343A7
:10006B00780812EDF5786412EE367FAC7E41128380
:10007B0043780812EDF5786812EE36786812EDF5D4
:10008B00786412EE1D12EC3BE412EB1CC004C005AD
:10009B00C006C007786412EDF5E412EB1CD003D058
:1000AB0002D001D00012EA01C004C005C006C0078F
:1000BB0090F88A12EE01E412EB1CD003D002D001AF
:1000CB00D00012E8F8E4FBFA7980784012E8F8E403
:1000DB00FBFAF9783F12E80712EB5A90F8B412EEDC
:1000EB00427F587E43128343E50B30E11C755C0164
:1000FB0090088BE0601690F8B412EE01780112EDC7
:10010B00CF90F8B412EE428003E4F55C90088BE0DC
:10011B006003020238FB7DFD7F947E4112D03E7F4F
:10012B009C7E41128343530BEB430A04530AFCE5B9
:10013B005C6003430A01129E7D12D4E37F007E09AB
:10014B007D3D7C0090F8B412EE2AC312EDBE400D3B
:10015B0090F8B412EE01786412EE36803D90F8B44C
:10016B0012EE01E412EB1CA804A905AA06AB077F4B
:10017B00007E247D747C4A12EA0112EF3812EB5A8E
:10018B008F5CE4FCFDFE90F8B412EE2A12EC56786C
:10019B006412EE36E55C4440F50B7FCD7E41128355
:1001AB004B786412EE1D7F807E9E7D477C3012EC77
:1001BB00E1EF04F561FFE4FCFDFE786412EE1D1225
:1001CB00EC56786812EE36786812EDF5EF2440FFA6
:1001DB00EE3403FEED3464FDEC34FEFC7BC07AFCA4
:1001EB00799B780112ECE1EF04F562FFE4FCFDFE74
:1001FB007BC07AFC799B780112EC56C004C005C019
:10020B0006C007786812EDF5D003D002D001D000FC
:10021B0012EC48E412EB1C7BA77A12791F783F1281
:10022B00E8F812EB5A788C12EE360203597F9C7E5B
:10023B00411283437F807EB17D4F7C0190F8B412D5
:10024B00EE2AC312EDBE5009430B10129E7D020322
:10025B00D6530BEF129E7D780812EE4E202C2820E1
:10026B007FCC7E4112834B90F8B412EE01E412EB7B
:10027B001C7BAE7A477981783F12E8F812EB5A78FB
:10028B006412EE36788C12EE4E7FFFFFFF90F9234F
:10029B00E4F0A3741EF090F923E0FEA3E0FFD394E7
:1002AB0028EE94004003020350E4FCFD90068112FB
:1002BB00EE2A12EC56786412EE1D12ECE190F92541
:1002CB00EFF0900685E030E50890F925E0FFC313C9
:1002DB00F090F923E0FEA3E0FFE4FCFD9006811211
:1002EB00EE2A12EC56C00790F925E0FFFBE4FAF971
:1002FB00F8D00712ECE1786812EE3690F8B412EEF3
:10030B002AC000786812EDF5D00012EC48786C1218
:10031B00EE36788C12EDF5786C12EE1DC312EDBE35
:10032B005016786C12EDF5788C12EE3690F924E0BD
:10033B00F56290F925E0F56190F923E475F001126F
:10034B00EBED0202A1788C12EE4E000000007B2434
:10035B007DA67FD07E4112D03E750B037FD87E41A8
:10036B0012834B788C12EDF5780812EE367FC07E37
:10037B004112834B12D4E385620B7FBC7E41128307
:10038B004B7FC47E41128343750B11900685E03081
:10039B00E503750B2185610AE4F509F508129E7DCD
:1003AB00750B027FD87E4112834BE4FB7DFB7FD024
:1003BB007E4112D03E7FD07E41128343E50930E669
:1003CB00F4E4F50B7FD87E4112834B90088BE060F1
:1003DB001DE57C25E0248DF582E43406F583A3E04E
:1003EB0030E00B7B107DFF7F9C7E4112D03E12D400
:1003FB00E390F889E0FF5430FEBE300AEF643F60B3
:10040B0005430B81801290F889E0FFC394204008CC
:10041B00EF94305003430B8090F89212EE01EF549F
:10042B0008FFE4FEFDFCEF6003430B08E57C25E0D1
:10043B00248DF582E43406F583E0A330E003430B0F
:10044B00047F947E4112834BE57C25E0248DF5825D
:10045B00E43406F583E0A330E005E4F50B80037587
:10046B000B1F7F287E4012834BE57C25E0248DF506
:10047B0082E43406F583E0F55CE4F50BE55C30E7EC
:10048B0003430B80E55C30E603430B40E55C30E552
:10049B0003430B207F987E4112834BE57C25E024A0
:1004AB008DF582E43406F583E0A3E054FAF50B7F77
:1004BB00907E4112834B22E4F5B97893F67893E65C
:1004CB00600302058B7892A6B97891A6BAE6FF5421
:1004DB003F7896F67890A607C3943750207896E627
:1004EB0025E02453F582E434A4F583E493FE7401F0
:1004FB0093AA06F97BFF785612EEAD8006789376B9
:10050B000B80727891E6FF607720E774EF30E61589
:10051B00900685E020E208757C0175CF0A800C7887
:10052B0093760B8050E4F57C75CF097891E6FF64E8
:10053B00236009EF641F6004EFB4200375CF0B78C1
:10054B005612EEA412EEEE7893E67029E5B904F597
:10055B005C7892E6F5B97891E644807890F6F5BA36
:10056B00C3E55C95B914FF12DEEC7890E6F5BA851D
:10057B005CB90204C87893E6F593439C020204C865
:10058B0075E40B439A2012D4B92212241990F8BCAB
:10059B0012EE01EC33500F90F8BC12EE0112ED9AF3
:1005AB0090F8BC12EE42E47F78FEFDFC9006C01280
:1005BB00EE2A12EC56E47B64FAF9F812ECE190F8AF
:1005CB00BC12EE2AD312EDBE40037F01227F002224
:1005DB0085FF5C12D51DAFFFEFF8E47979F7E819C9
:1005EB00F7AFFF7878E6F608E64FF690F889E0FF6C
:1005FB005430FEBE3015EF643F601078A9E6C3940B
:10060B00364033E6D3943A502D802178A9E654C076
:10061B00FFBF400718E620E11D801178A9E6543F83
:10062B00C394294011E6543F9430500A78797404EE
:10063B0026F618E436F67F0C12CE3D7878E6FE08E7
:10064B00E6F5828E8312EE01780812EE3612CE4D4D
:10065B00129E7D2285FF5CAC5CE412EB267B107A4C
:0F066B005D79C4784012E8F812EB5A12F0BB2206
:1006800025019BFCC000D80200000000001A1A1AC5
:100690001A0000004E2000004E20011030300101F1
:1006A00000033450000334500000000F3C182700B2
:1006B0000B18000000632EA00044AA2000009C40FC
:1006C000004C4B40A00000000410050C050F04185E
:1006D000050F0410030F041F02880300029B020091
:1006E00004F2020001B2020001000100010000005A
:1006F00001000100010000000200020001000300EF
:1007000000000001000000000000000000000000E8
:1007100000000001000000000000000000000000D8
:10072000000016E360180BB8012C00000000010067
:10073000000064000020206E050F0418061E050B43
:100740002020000000000F00E4E1C001C9C38001C7
:100750003901FFFFFFFFFFFFFFFF00000000000067
:10076000000000000000000000FF0000000000008A
:1007700000000000000000004E2000004E2002D3C8
:1007800019B0114028E0207030F828E038C830F85F
:100790003F08373814A00C8024A81C382D0024A84A
:1007A00035A82DD03B2033504170399047D83FD0E9
:1007B0004BC043E057784FA85B60539078005000DF
:1007C0007800500078005000780050007800500009
:1007D00078005000780050007800500078005000F9
:1007E00078005000780050007800500078005000E9
:1007F0007800500000000000000000000000000031
:10094000D190C48988BE79F5CF2DD40DD41AD4277F
:10095000B58AFD0AD474D4807D3BC4BAB3BFB8ABAA
:100960009A9BC21AB5D5BE517F9CC711B085BC6297
:10097000CFBBCB4BD3FFD27BD179D4C4D024B6FD2F
:10098000D5005647C9BBA94BC3C072F1BF046B5B0E
:10099000BFEED44ED38E000ECCE1CF4ACDFFCDE0DA
:1009A000CA4FCA73CA97B7D6CC5DCC7ED23DD2525D
:1009B000BF3FC80FD45B900742E030E103020E5204
:1009C0009007007401F090F88E12EE01EC4D4E4F3E
:1009D000602AE4FFFEFDFC90F8E412EE2AC312ED5B
:1009E000BE700F90F88E12EE0190F90E12EE4202D8
:1009F0000E3490F88E12EE6700000000E4FF12C380
:100A0000F312684E12D00AEF6003020E6A7F407E36
:100A10005D7DC67C0090F88A12EE2AC312EDBE50AE
:100A200020E47F0CFEFDFC9006C012EE2A12EC566C
:100A3000E47B0AFAF9F812ECE190F84412EE4280F5
:100A40000C9006C012EE0190F84412EE4290F91E8E
:100A500012EE01787012EE367FCD7ECC7D4C7C415B
:100A6000787012EE1D12EA9E50167FFC7EBE7D004D
:100A70007C4D90F85C12EE2A12EA9E7003020B691C
:100A8000E57C60047F2080027F1012C25090070036
:100A9000E04402F07562017FCD7ECC7D4C7C4178D4
:100AA0007012EE1D12EA9E500690F9257408F07F30
:100AB000CD7ECC7DCC7C41787012EE1D12EA9E502A
:100AC0000890F9257410F0805D7FCD7ECC7D4C7C44
:100AD00042787012EE1D12EA9E500890F92574209B
:100AE000F080437FCD7ECC7DCC7C42787012EE1DB1
:100AF00012EA9E500B90F9257420F0756202802650
:100B00007FCD7ECC7D4C7C43787012EE1D12EA9E28
:100B1000500B90F9257420F0756204800990F92536
:100B20007420F075620890F9C27401F090F923E422
:100B3000F0A37428F090F9697405F090F96AF090C8
:100B4000F9227411F01258E3E562640160188562BD
:100B50000B7F747E4312834B7B207DFF7F687E4337
:100B600012D03E1254F112AF2F900700E04404F06F
:100B700090F88A12EE0190F9E712EE427F807EC370
:100B80007DC97C0190F9E712EE2AD312EDBE400A2E
:100B900090F9E712EE6701C9C38090F9E712EE0100
:100BA000E412EB1C7BCD7ACC79CC783D12E8F8903E
:100BB000F91212EE4290F84412EE0112ED9A90F9F9
:100BC0000E12EE4290F84412EE0190F9C312EE427A
:100BD00090F84412EE01E412EB1C90F91212EE2A86
:100BE00012EA9E60054003020DD0788C12EE4E0092
:100BF000000000E4F56290F9C312EE0190F90E12C4
:100C0000EE2AD312EDA84003020D4C128FD1EF60F3
:100C100003020E6A7FC07EE17DE47C0090F88A12B8
:100C2000EE2AC312EDBE501A900700E030E313E540
:100C300062700F789012EE4E00007530E4FDFF12E6
:100C40009C19786812EE4E00000000E4F56012D4A2
:100C5000E3E5606006750A07750BF07F087E4312B6
:100C6000834B430B0F7F0C7E4312834B12D4E375EF
:100C70000B977F047E4312834B12C2BB12C8387F8E
:100C8000147E43128343E5606010780812EDF57816
:100C90006412EE1DC312EDBE500A780812EDF5780D
:100CA0006412EE367F1C7E43128343786812EDF5A2
:100CB000780812EE1D12EC3B786812EE360560E5FE
:100CC00060C394024088786412EE1DC000786812F8
:100CD000EDF5D00012EC48780512EDCFC004C00548
:100CE000C006C007786412EDF5D003D002D001D061
:100CF0000012EC48786C12EE36788C12EDF5786CB8
:100D000012EE1DD312EDBE4016786C12EDF5788C04
:100D100012EE3690F90E12EE0190F92B12EE42050A
:100D20006290F90E12EE2AC000C001C002C003900A
:100D3000F91212EE0112EB5AD003D002D001D0000A
:100D400012EC3B90F90E12EE42020BF6900700E017
:100D500030E303020E2190F91212EE0112EB5AABAE
:100D600007AA06A905A80490F92B12EE0112EC4877
:100D700090F90E12EE4290F84412EE0112ED9A90A4
:100D8000F90E12EE2AC312EDA8500F90F84412EE9D
:100D90000112ED9A90F90E12EE4290F91212EE0144
:100DA00012EB5A90F92B12EE2A12EC3B90F9C31277
:100DB000EE4290F84412EE0190F9C312EE2AD312DB
:100DC000EDA8400C90F84412EE0190F9C312EE42E7
:100DD00012D4E37FA87E4412834B900700E04408BE
:100DE000F090F9E712EE01E412EB1C7BCD7ACC799E
:100DF0004C783D12E8F890F91212EE427F007E2402
:100E00007D747C4990F91212EE2A12EA9E6002501B
:100E100003020BEA90F91212EE6749742400020BE8
:100E2000EA900700E04480F090F92B12EE0190F96F
:100E30000E12EE4290F9C2E0601012BB18E57C6021
:100E4000047F2080027F1012F089128FD17F01125F
:100E5000C3F312D4E37FD47E4412834B7FF87E44E5
:100E600012834B7FD87E4412834B22789012EE4E31
:100E7000000003E890F9A4E0706F7F807E967D9873
:100E8000FC90F88A12EE2AC312EDBE400B78641271
:100E9000EE4E00000064801F90F88A12EE2A7F80D8
:100EA0007E967D987C0012ECE1E47B64FAF9F812FE
:100EB000EC56786412EE36E47FFFFEFDFC78641297
:100EC000EE1DD312EDBE4005755CFF80057867E628
:100ED000F55C90F9A3E0C3955C400878A7E660094B
:100EE00002121290F9A3E004F012D36178ACE66428
:100EF000116003021212F55C90F889E0FFC39420A0
:100F00004021EF9430501C12D351EF604E12BD5D62
:100F1000EF6005755C0180437BFF7A9679D212CF32
:100F20009F8038750B197F8C7E4212834B129EF581
:100F300090F889E0B43014E50B30E40F90F95CE0F0
:100F400004F0E0D3940F4008021212E490F95CF030
:100F5000E50B5419FFBF0903755C01E55C700302E2
:100F6000113F7F0212CDC190F9E6E0607B129888B4
:100F700090F9DE12EE0190F90912EE2AC312EDBECD
:100F8000500312CF8390F9DE12EE2A90F90912EE87
:100F90000112EC48E412EB1C787012EE367F007EF2
:100FA000407D1C7C46787012EE1D12EA9E6039402E
:100FB0003790F9E212EE2A90F90512EE0112EC4890
:100FC000E412EB1C787012EE1D12EA01787412EE36
:100FD000367F177EB77DD17C38787412EE1D12EA09
:100FE0009E6005400302121290F968E0700302103F
:100FF000BEE4FF1216E490F889E0FFC39420403865
:10100000EF9430503312BD5DEF702D7F947E42120D
:101010008343E50A20E10302124A128CA9750B01F1
:101020007F007E5C12834BE4F50B129E7D7F1712CE
:10103000D3B9128D4D02124A90F99BE0700912B992
:10104000C390F99B7401F0E490F968F01283F39077
:10105000F889E0FFC394204023EF9430501E1263C0
:10106000FF78A9E6543FC39429400CE6543F9430DE
:101070005005750B448008750B668003750B697FFE
:10108000F47E4012834B90F89212EE01EF5410FF61
:10109000E4FEFDFCEF600312C06290F889E0FFC33C
:1010A00094204041EF9430503C780812EE4E0000FE
:1010B00000047F307E5C12834B12D0EC802790F8C6
:1010C00089E0FFC39420401DEF943050187F107EBC
:1010D0005C12833E12CE7BE50B30E3097BFF7A96F0
:1010E00079D212CF9F90F99CE07002A3E0703F90FC
:1010F000F9A404F07F0412CDC112BB9E90F826E043
:10110000B4010312C1E4789012EE4E000186A09063
:101110000691E030E42290F8C1E0B41B1B90F9E6A0
:10112000E0701512CF8390F9E67401F0800A90F90F
:101130009C74FFF5F012EBED78A7E4F602124A90EA
:10114000F9A4E0707590F889E0FFC39420406BEF3C
:101150009430506612C94BEF60607F847E451283E5
:1011600043780812EDF5EC12EB1C787012EE367F26
:10117000EC7E47128343787012EE1DC000C001C0A0
:1011800002C003780812EDF5EC12EB1CE4FBFA79CF
:1011900080784012EA01D003D002D001D00012E8DA
:1011A00007787012EE36787012EDF512EB5A780867
:1011B00012EE367F847E4512834B90F99BE06008E7
:1011C00078A7E6700312CC1B90F99BE0600878A723
:1011D000E6C39405400312BF7A90F889E0FF5430CB
:1011E000FEBE300CEF643F600790072FE020E05A0E
:1011F00090F89212EE01EF5440FFE4FEFDFCFBFA82
:10120000F9F8C312EDBE704279AD78A706E6D39720
:10121000403812BF7A90F89212EE01EF5440FFE48A
:10122000FEFDFCFBFAF9F8C312EDBE701478A9E6D6
:1012300054C06004747F56F67BFF7A65791A12CF2A
:101240009F789012EE4E000186A07FC07EE17DE483
:101250007C0090F88A12EE2AD312EDBE504190F82D
:101260008A12EE01E412EB1CA804A905AA06AB073A
:101270007FC07EE17D647C4B12EA01C004C005C0E2
:1012800006C007789012EDF5E412EB1CD003D002F3
:10129000D001D00012E8F812EB5A789012EE367BAB
:1012A000FF7A0E796B785612EEAD7F01125CB22296
:1012B000503C272B3657504C404328285E3D282C65
:1012C0003954524A40412828EF5F4B58669C885455
:1012D000564C40387C4024334467483E38332828F5
:1012E000503C272B3657504C404328285E3D282C35
:1012F0003954524A40412828875F4B58669C76549F
:10130000564C40387C4024334467483E38332828C4
:10131000453421252F45484632301C1C502E242DA3
:101320002D463E40302E1C1C583124333C48484446
:10133000383824245537202A4050322A28251C1CAE
:101340006F47455D61675248423C362E89484E667C
:101350006B676256483C362E875F4B58666D7654F5
:10136000564C4038696F878D88856256604E40388C
:10137000799EBC606B6D54484644343083A6998A8C
:101380009B964248424038306C7588BDB89C503CB2
:101390003C3C383066505A54536D5A524C403830A9
:1013A000F2B96CB1AFAC707074624C40BF9A72A26B
:1013B000AFA4887868444038FFFFFFFEFCFAA0B86D
:1013C00078544840DFB9DAA2A09CA0806A5C4C4007
:1013D0002D31202A283190906858341C2F4925300F
:1013E0002A3368605850341C1A09192027363B3BB1
:1013F0003430241C13091C2A2939E0B05A301C1C33
:101400002C24232A2B3C525252523220362F301D8C
:101410002A3F50505024201CE9EAD08B8564605448
:101420003E3E3628E8E8BE948F725C4E42503C3017
:101430009EB77B988F725048404038309292BEEFF2
:10144000D2BA584C483D383090A4BEBBA7965050F5
:10145000403F3830867C79918572505C403C363014
:10146000382F1C1F2331484632301C1C412A1E25B0
:1014700025333E40302E1C1C472D1F2627363C3C72
:10148000302F1C1C4D2F1F2729393C3C30301C1C91
:10149000462D20252B3C322A2C2C1C1C5A2C1F2379
:1014A0002D3F322A28251C1C2C2C303E353C7070D8
:1014B00068504038373130372C33605858504038F6
:1014C0004A36232A2D3C493B3A3932285254242D9E
:1014D0002E3C47453A39322872664E5A729DB0808A
:1014E00070605848AB755F81ABD6E0D078786858AB
:1014F0003B3321242C3C493C3B3A322843352227BC
:101500002C3C493C3B3A32284B37232A2D3C4A3B62
:101510003A3932285338242D2E3C4B3B3A39322865
:101520005934262E2E3C4D3A383530286030272E3F
:101530002E3C4E3835312C283B3321242C3C493C61
:101540003B3A3228433522272C3C493C3B3A32284F
:101550004B37232A2D3C4A3B3A3932285338242D25
:101560002E3C4B3B3A3932285934262E2E3C4D3AEC
:10157000383530286030272E2E3C4E3835312C2817
:1015800043332D2E354F9080746050404037384D96
:101590005F727050484030289A8E8D8C8A8C82768B
:1015A00062544840C6B8B1B1B0B3AE887A6C5848FE
:1015B00097A1A5A5A2A4A678706454486B6864643A
:1015C0006472A28E80706050C9B66C6B6A6A907843
:1015D00050484440B5DB84838181A060504440384A
:1015E000AE6DA09F9D9D806874544840E6DBFFFF70
:1015F000FCFBF87884746050FFFAD0CECCCCE0F6D7
:1016000096846858F8FFE1E0DDDDB0B87C5C4C40C2
:1016100055472B2E354F504C4043282863482E34D5
:10162000384D524D3B3A28283737202D3B51502812
:10163000503B2828714A2D313D5650483F3D2828BF
:10164000744E2C39405A48483B402828834C283750
:10165000435E48483833282891B385646472484013
:101660002624242491A193968272403A3028222283
:10167000FDE1A09DD2D64640221C1914FAFAF0ECE6
:10168000DCD630282820181301C9C38000E4E1C04B
:10169000007270E000393870001C9C38000F424026
:1016A000012A011200E7009B0069004612B012E017
:1016B00013101340137013A013D01418146014A83F
:1016C00014F01538158015C816101658013A014542
:1016D00000FF00A700670040004C0038000F000E1C
:1016E000000A0007E4F55CF55E78A9E6543FF55D75
:1016F00090F889E0FE5430FDBD3009EE643F60048F
:101700007E0180027E008E5FEF70030217FE90065E
:1017100091E030E2347440257CF582E43407F583AF
:10172000E0FCE412EB26787012EE36E57C25E0252D
:10173000E02492F582E43406F58312EE01E412EB24
:101740001C789612EE360218367BFF7A1679CC900A
:10175000F9CB12EEBF90088BE06015E55F70119039
:10176000074FE0B40205755C018020E4F55C801B46
:1017700090074FE0B40209E55F7005755C048003D3
:10178000755C0212C94BEF7002055CE55F602AE5EB
:101790005DC394384006755E06021952E55DC39438
:1017A000364006755E04021952E55DC3943350035A
:1017B000021952755E0202195278A9E654C0FFBFA1
:1017C000401212B45AEF6006755E04021952755E3B
:1017D00002021952E55DC3942D4006755E0602199A
:1017E00052E55DC394294006755E04021952E55D19
:1017F000C394245003021952755E020219529006D6
:1018000091E030E34B7435257CF582E43407F583B1
:10181000E0FCE412EB26787012EE36E57C25E0253C
:10182000E02476F582E43407F58312EE01E412EB4E
:101830001C789612EE36E4FBFAF97841C000787015
:1018400012EDF5D00012EA01789A12EE36021A8BE8
:10185000E55F60397BFF7A1679D890F9CB12EEBF3D
:10186000755C0FE55DC394384006755E060219523B
:10187000E55DC394364006755E04021952E55DC30A
:1018800094335003021952755E020219527BFF7A9B
:101890001679A090F9CB12EEBF90088BE060101281
:1018A000C94BEF6005755C098013755C0C800E12E6
:1018B000C94BEF6005755C068003755C0C90069162
:1018C000E030E106055C055C800990074FE0B4025A
:1018D00002055CE55DC3942D4005755E0A8073E5E5
:1018E0005DB42C05755E088069E55DB42B05755EF9
:1018F00006805FE55DC39429404EE55D6429704331
:10190000FF7E2D7D317C0190F88A12EE2AC312ED04
:10191000BE4030E55CB4062B750B01750A007509F5
:10192000017508007FEC7E4412834B7FF07E4412E9
:10193000834B90088BE06003021A8E7FB47E4612C0
:10194000834B22755E04800AE55DC39424400375D1
:101950005E02E55E75F006A4F55E75F002E55C904A
:1019600016AC12EE98740193255E7879F6E4933400
:101970000018F6755EFFE4F55C75F004E55C901602
:101980008812EE9812EE0D90F88A12EE2AC312ED2C
:10199000BE4005855C5E8007055CE55CB406DAE563
:1019A0005E6008E55EB4FF12755E057878E6FE08B5
:1019B000E6FFAD5E129910021A8B7878E6FE08E613
:1019C000FFAD5E129910789612EDF5787012EE3632
:1019D000789A12EDF5787412EE367878E6FE08E61D
:1019E000FFE55E14FD12991075F004E55E9016880F
:1019F00012EE9812EE0D786412EE3675F004E55E84
:101A000090168412EE9812EE0D786412EE1D12EC10
:101A100048E412EB1CC004C005C006C0077864127D
:101A2000EE1D90F88A12EE0112EC48E412EB1CD085
:101A300003D002D001D00012EA01788012EE36788D
:101A40007012EE1DC000789612EDF5D00012E8037A
:101A5000788012EE1D12E8F8787012EE1D12E80779
:101A6000789612EE36787412EE1DC000789A12ED58
:101A7000F5D00012E803788012EE1D12E8F87874B1
:101A800012EE1D12E807789A12EE36128DF02290AF
:101A9000F8C1E0D3940F502D90F89A12EE670061D0
:101AA000C97E90F89E12EE670F281D0090F8A212D2
:101AB000EE67456C65387BFF7AFA79009008A312CF
:101AC000EEBF021B8790F8C1E0FFC3941E403EEFBB
:101AD000D394275038EFC394234075EFD394275005
:101AE0006F90F89A12EE670000EAB790F89E12EE37
:101AF0006703C2993890F8A212EE6744756BA07B19
:101B0000FF7AF879009008A312EEBF807A90F8C1AE
:101B1000E0FFC394184032EFD3941D502C90F89AF4
:101B200012EE670001D56E90F89E12EE67078532BF
:101B30007090F8A212EE6744F06BA07BFF7AF87900
:101B4000009008A312EEBF803E90F8C1E0F4602C34
:101B500090F89A12EE670000EBF090F89E12EE6794
:101B60000568C2A090F8A212EE6744ACFAD67BFFDB
:101B70007AF979009008A312EEBF800B90F89612C4
:101B8000EE6700000000227FB07E46128343780893
:101B900012EDF590F8A612EE4290F89A12EE01902E
:101BA000F8A612EE2AC312EDBE5003021D9B90F858
:101BB0009E12EE0190F8A612EE2AD312EDBE40035B
:101BC000021D9B90F89A12EE2A90F8A612EE0112CE
:101BD000EC48E412EB1C90F8A212EE2A12EA01780B
:101BE0007012EE367F007EFF7D7F7C47787012EEAC
:101BF0001D12EA9E600C400A74FF90F8ADF0A3F04D
:101C00008010787012EDF512EB5A90F8ADEEF0A35B
:101C1000EFF090F8AF7440F075602090F8AFE0F509
:101C20005C7F0C12CE3D9008A312EEB675F002E573
:101C30005CA4F58285F08312EC037878A6F008F6B0
:101C4000E55C2401FFE433FEEF25E0FFEE338F82F5
:101C5000F58312EC03787AA6F008F612CE4D787868
:101C6000E6FE08E6FF90F8ADE0FCA3E0FDC39FECC4
:101C70009E400AD3ED787B96EC1896402AC3ED9FE0
:101C8000EC9E500A90F8AFE0C39560F0800790F8A2
:101C9000AFE02560F0E560D394015003021C1BE522
:101CA0006013F560021C1B90F8AFE0FFC374809FC7
:101CB000FDE49400FCE412EB21E4FBFA7992783E17
:101CC00012E8F8787012EE3690F8AFE0FFC3747F38
:101CD0009FFDE49400FCE412EB21E4FBFA79927896
:101CE0003E12E8F8787412EE36787412EE1DC000D9
:101CF000787012EDF5D00012E803C004C005C006EC
:101D0000C0077878E6FE08E6FFC390F8AEE09FFDD6
:101D100090F8ADE09EFCE412EB21D003D002D0019C
:101D2000D00012E8F8C004C005C006C007C3797B24
:101D3000E7787996FD19E71896FCE412EB21A804E0
:101D4000A905AA06AB07D007D006D005D00412EA31
:101D500001C004C005C006C007787012EDF5D003BD
:101D6000D002D001D00012E80390F89612EE429013
:101D7000F8C1E0FFC394184049EFD3941D5043EFDE
:101D8000B41A3F90F89612EE017B9A7A5979297825
:101D90004012E80390F89612EE422290F89E12EE5E
:101DA0000190F8A612EE2AD312EDBE400B90F896E1
:101DB00012EE67000000002290F89612EE674212C1
:101DC0000000227F287E46128343E50A540CF55C0E
:101DD000E50B541FF55DE55C64086004E55C700884
:101DE000755EBC755FCC8006755E82755F93E50A93
:101DF00030E7057560108003E4F560E55E2560FF5F
:101E0000E433FE7C00EF255DFFEC3EFEAB07FAE419
:101E1000F9F8AF5EFDFE12EC56786412EE36AF5E56
:101E2000AB07E4FAF9F8AF5FFCFDFE12EC567868F8
:101E300012EE36E55F64936003755FBC90F80DE0C9
:101E4000F55C7F0C12CE3DE55C90FFAD93F562E54D
:101E50005C90FFBD93F56312CE4D786412EE1DE5E4
:101E60006225E0FFE433FE3395E0FDFC12EC56788A
:101E70006412EE36755C0490088BE0600F7F587E2C
:101E800043128343E50B30E103755C02786812EE80
:101E90001DC000C001C002C003AF5CAB07E4FAF98B
:101EA000F8AF63FCFDFE12EC56D003D002D001D097
:101EB0000012EC56786812EE367F847E411283431E
:101EC000E50B30E20F786812EDF5780112EDE2785B
:101ED0006812EE36786812EDF5E412EB1CC004C00F
:101EE00005C006C007786412EDF5E412EB1CD003C0
:101EF000D002D001D00012EA01C004C005C006C063
:101F00000790F88A12EE01E412EB1CD003D002D045
:101F100001D00012E8F8C004C005C006C007AC5CE0
:101F2000E412EB26D003D002D001D00012E8F878FA
:101F30007012EE36E57C25E0248DF582E43406F55A
:101F400083E0FEA3E0FFEE30E75730E605755C0462
:101F50008003755C01787012EE1DC000C001C002E4
:101F6000C003C3E55F955CFDE49400FCE412EB2143
:101F7000C004C005C006C007AC5FE412EB26A8048D
:101F8000A905AA06AB07D007D006D005D00412EAEF
:101F900001D003D002D001D00012E8F8787012EE20
:101FA00036786812EDF590080412EE42786412ED6E
:101FB000F5129A19788C12EE36786412EDF5788C59
:101FC00012EE1D12ECE1786412EE36786812EDF52F
:101FD000788C12EE1D12ECE1786812EE367F9C7E52
:101FE00041128343530B7F129E7D786412EDF57886
:101FF0000812EE367FA87E4112834B786412EE1DE4
:10200000C000786812EDF5D00012EC48786C12EE42
:1020100036786C12EDF5780812EE367FAC7E411200
:10202000834B742A257CF582E43407F583E0700342
:102030000220F1786812EDF5E412EB1CC004C00533
:10204000C006C007786412EDF5E412EB1CD003D093
:1020500002D001D00012EA01C004C005C006C007CA
:10206000742A257CF582E43407F583E0FCE412EB66
:10207000267B007A60791F784512EA01E4FBFA7941
:1020800080783F12E807D003D002D001D00012E8D8
:10209000F8787012EE36786C12EDF5E412EB1C78DD
:1020A0007012EE1D12E8F8C004C005C006C0077823
:1020B0007012EE1DE4FFFE7D807C3F12E803A80451
:1020C000A905AA06AB07D007D006D005D00412EAAE
:1020D0000112EB5A780812EE367FA87E4112834B2C
:1020E000786C12EDF5780812EE367FAC7E411283E3
:1020F0004B22E4FFFEFDFC90074B12EE2AC312EDCB
:10210000BE6011E4FFFEFDFC90074712EE2AC312E9
:10211000EDBE702090074712EE67000000009007A8
:102120004B12EE670000000090F88A12EE67013152
:102130002D00800C90074B12EE0190F88A12EE42AF
:1021400090F87A7401F090F8717403F090F88E12A0
:10215000EE670000000090F90E12EE67000000002C
:1021600090F89212EE67000000001227367F0812E6
:10217000D3B97F1112D3B97F1212D3B912684EE4CA
:10218000FFFEFDFC90074712EE2AC312EDBE70441D
:10219000900766E0FEA3E0FFE4FCFD780812EE364F
:1021A0007F087E4312834B900768E0FEA3E0FFE4C4
:1021B000FCFD780812EE367F0C7E4312834B9007AD
:1021C0002EE05403449CF50B7F047E4312834B7531
:1021D0005C2B8003755C1BAF5C12D3B97F047E431C
:1021E000128343530B03E47E01A80B088005C3331D
:1021F000CE33CED8F990F87FF0EE90F87EF0E4FF81
:10220000FE7D807C4290F85C12EE2A12E80712EB09
:102210005A780712EDCF90F87412EE4290074712E9
:10222000EE0190F88A12EE42E490F878F0A3F09074
:10223000F96112EE670000000090074B12EE01906A
:10224000F88A12EE2AD312EDBE506D12684E12C2F9
:10225000BB12C8387F147E43128343780812EDF511
:10226000788C12EE3690F96112EE01788C12EE1D28
:10227000D312EDBE402B788C12EDF590F96112EE81
:10228000427F187E43128343780812EDF590F87868
:10229000EEF0A3EFF090F88A12EE0190F84412EEFF
:1022A0004290F88A12EE0190F87412EE2A12EC3B7A
:1022B00090F88A12EE42808190074B12EE01EC4DAD
:1022C0004E4F70030223EE90F87EE0C313FEA3E0AE
:1022D00013FF90F878E0FCA3E0FDD39FEC9E500341
:1022E00002236F90F87FE09DFD90F87EE09CFCE477
:1022F00012EB21C004C005C006C00790F87EE0FCC8
:10230000A3E0FDE412EB21A804A905AA06AB07D0BF
:1023100007D006D005D00412EA01C004C005C006EB
:10232000C007E4FBFA7980784190F85C12EE011264
:10233000EA01D003D002D001D00012E8F8C004C0F6
:1023400005C006C00790F84412EE01E412EB1CD061
:1023500003D002D001D00012E803E4FBFAF9783F81
:1023600012E80712EB5A90F82B12EE420223FF906C
:10237000F87EE0FCA3E0FDE412EB21C004C005C040
:1023800006C00790F878E0FCA3E0FDE412EB21D052
:1023900003D002D001D00012EA01C004C005C0067B
:1023A000C007E4FBFA7980784190F85C12EE0112E4
:1023B000EA01D003D002D001D00012E8F8C004C076
:1023C00005C006C00790F84412EE01E412EB1CD0E1
:1023D00003D002D001D00012E807E4FBFAF9783FFD
:1023E00012E80712EB5A90F82B12EE42801190F887
:1023F00078E0FEA3E0FFE4FCFD90F82B12EE42E44F
:1024000090F87AF090F871F0E57C60047F08800223
:102410007F04EF429C12D4B922E4F55EF55D7F2083
:102420007E41128343E50B30E1157FE47E45128344
:1024300043E50930E10912D331EF7003755D017F87
:10244000B87E4712834385095FE50930E00F7FC0FE
:102450007E40128343E50B5410F560800D7FE47ECF
:1024600045128343E50A5402F560E56060097FD4B4
:102470007E44128343800312D4E3780812EDF5EC16
:1024800012EB1C90F9BE12EE2A12EA01787012EEDD
:102490003690F85C12EE0190F82F12EE42755C0156
:1024A000E55D600D787012EDF512EB0B787012EEB1
:1024B000367F5C7E40128343E50B30E10B7880125F
:1024C000EE4E418000008009788012EE4E410000FF
:1024D00000788012EE1DC000787012EDF5D0001269
:1024E000EA0112EB5A90F8BC12EE4290F82F12EE6D
:1024F00001788012EE1D12EA0190F82F12EE42E5EB
:102500005F30E30F7FD07E40128343E50B5410F51C
:1025100060800D7FE47E45128343E50A5402F56036
:10252000E56060097FF87E44128343800312D4E3A0
:10253000780812EDF5EC12EB1CE4FBFA7980784E8A
:1025400012EA01787012EE3690F88A12EE01E41267
:10255000EB1CE4FBFAF9784112EA0190F83312EE31
:1025600042787012EDF590F83312EE2A12E8F878FE
:102570007012EE36787012EDF512EB5A90F9971250
:10258000EE4290F8BC12EE0190F99712EE2A12EC8E
:102590003B90F8BC12EE4290F889E0FFC3940040F3
:1025A00009EFD3941250030226B57F847E4512832F
:1025B00043780812EDF5EC12EB1CE4FBFA79807815
:1025C0004312EA01787012EE36787012EE1DC000E8
:1025D000C001C002C003E4FBFA7980784B90F85C3C
:1025E00012EE0112EA01D003D002D001D00012E8AD
:1025F000F8787012EE36E55D600D787012EDF51228
:10260000EB0B787012EE3690F8BC12EE2AC000C0C8
:1026100001C002C003787012EDF512EB5AD003D05E
:1026200002D001D00012EC3B90F8BC12EE427F3C8D
:102630007E47128343780812EDF5E4FB7A01F9F83E
:1026400012EEF490F99E12EE4290F85C12EE0178D0
:102650007012EE3690F99E12EE01EC12EB1CC004E3
:10266000C005C006C007E4FBFA7980784BC000784B
:102670007012EDF5D00012EA01D003D002D001D0E3
:102680000012E8F812EB5A90F99E12EE42E55D60F6
:102690000F90F99E12EE0112ED9A90F99E12EE4201
:1026A00090F8BC12EE0190F99E12EE2A12EC3B90CB
:1026B000F8BC12EE427FD87E44128343E50830E333
:1026C000034308F0780812EDF5EC12EB1C90F85C6F
:1026D00012EE2A12E8F8E4FBFA7980784D12EA014A
:1026E00012EB5A90F99E12EE42E55D600F90F99E52
:1026F00012EE0112ED9A90F99E12EE4290F8BC1281
:10270000EE0190F99E12EE2A12EC3B90F8BC12EE0C
:102710004290F8BC12EE0190F90E12EE2A12EC482B
:1027200090F8BC12EE4290F8BC12EE0112ED9A90B5
:10273000F8BC12EE4222E490F967F090F9BA12EE7A
:10274000670000000012CE5CE4FB7DDF7F247E4A40
:1027500012D03E7B387DFF7F207E4A12D03E90F81B
:1027600071E06401702E7489257CF582E43406F5ED
:1027700083E020E21FE57C60047F2080027F10124E
:10278000C25012D528E57C60047F2080027F1012A1
:10279000F08980031254F190F89212EE01E4FFFEEA
:1027A000FDEC5420FC600B780812EE4E00000F7018
:1027B0008009780812EE4E00000F307FC07E431271
:1027C000834B7F1F12D3B912AE24129B9B12B4F31A
:1027D0001237F890F967E020E13390F871E0700368
:1027E0000229E812D2A190F9B8E030E4E390F8E4CD
:1027F00012EE01EF2401FFE43EFEE43DFDE43CFC6B
:1028000090F8E412EE42E490F9B8F080C312940616
:1028100012A30B789012EE4E00000014E4FD7F012D
:10282000129C1912D3E390F871E070030229CF12C1
:10283000D2A190F83BE0602790F83CE0641C601A5D
:1028400012776590F83BE0700790F9B8F00229D84C
:1028500090F9B8E030E1080229D8E490F83BF01292
:1028600071187489257CF582E43406F583E030E341
:102870002790F87CE075F00AA4240575F00984FF20
:1028800025E025E090F926F0748B257CF582E43470
:1028900006F583E090F87CF012319490F9B8E030BE
:1028A000E1030229D87F107E4A1283437489257C74
:1028B000F582E43406F583E030E330850B5C90F874
:1028C0009212EE01EF5420FFE4FEFDFCFBFAF9F852
:1028D000C312EDBE700D90F926E0F50B7F107E4A15
:1028E00012834B90F926E55CF0800690F926E50B03
:1028F000F090F89212EE01EF5420FFEE5480FEE4C7
:10290000FDFCFBFAF9F8C312EDBE60030229C89082
:10291000F89212EE01E4FFEE5401FEE4FDFCEE60DD
:102920000B787012EE4E3D0F5C298009787012EE24
:102930004E3CA3D70A90F88A12EE01E412EB1C7BFE
:10294000007A247974784912EA01787012EE1D1227
:10295000E8F8E4FBFAF9783F12E807787012EE36EF
:10296000787012EDF512EB5A90F966EFF090F8924C
:1029700012EE01E4FFFEFDEC5420FC60177B407A70
:1029800042790F78009006C012EE0112ECE190F946
:1029900066E02FF07489257CF582E43406F583E047
:1029A00030E3097F107E4A128343800690F926E0C7
:1029B000F50B90F966E0FF25E025E0250BF50B7F90
:1029C000107E4A12834B8020E490F966F0801990C3
:1029D000F83B7401F012776590F9B8E030E10990A6
:1029E000F871E060030227D090F871E06003122CC8
:1029F000B47F207E4A128343530BC790088BE0704C
:102A000005755C088003755C18E55C420B129E7DC1
:102A10002290F9A2E06003022BDE12CBFA12D1A6BB
:102A20007F1512D3B990088BE0700A750B127FB432
:102A30007E4012834B90F889E0FFC39420401FEF43
:102A40009430501A12D331EF6005755C35800375F0
:102A50005C34AF5C12D3B97F2612D3B9801D7F24BA
:102A600012D3B912D331EF6005755C378003755C02
:102A700036AF5C12D3B97F3812D3B97FAC7E441223
:102A80008343780812EDF5780112EDE2786412EED6
:102A900036786412EDF5780812EE367F7C7E4512AA
:102AA000834B7FDC7E4612834B786412EDF578030E
:102AB00012EDCF786412EE36786412EDF5780812D4
:102AC000EE367F1C7E4412834B7F487E4012834348
:102AD000530B9FE50BB49F0BE4F55C755D01755ED0
:102AE000018059E50BB49E0B755C01755D02755E46
:102AF000028049E50BB49C0B755C02755D03755E45
:102B0000038039E50BB4980B755C03755D04755E45
:102B1000048029E50BB4900B755C04755D05755E4A
:102B2000058019E50BB4800B755C06755D05755E57
:102B3000058009755C07755D06755E06786412EDA3
:102B4000F5A95CA80112EDE2780812EE367F7C7ED2
:102B50004512834B786412EDF5A95DA80112EDE2F0
:102B6000780812EE367FDC7E4612834B786412EDD5
:102B7000F5A95EA80112EDE2780812EE367F1C7E00
:102B80004412834B750B1F7FC07E4012834B78A984
:102B9000E654C06016E654C06440600F90F889E0C7
:102BA0006430703590F95DE020E12E1209B690F99D
:102BB000B8E030E1097BFF7AA079CE12CF9F90F880
:102BC0009212EE01E4FFEE5480FEE4FDFCEE60099B
:102BD0007BFF7A3F79A312CF9F7F1812D3B990075A
:102BE00042E030E10690F9A27401F07F011216E490
:102BF00090F889E0FFC39420400AEF9430500575A7
:102C00005C278003755C25AF5C12D3B990F9A2E014
:102C1000601112D4E37F507E4112834B7F6C7E4162
:102C200012834B7F0412BFB478ABE4F690F889E0CE
:102C3000FFC394204038EF9430503312C94BEF60FB
:102C40000612AC5DEF600E12B45AEF600512B74683
:102C5000800312980078A9E654C0FFBF40107F940B
:102C60007E45128343750A02750802129E7D90F814
:102C70009212EE01EF5440FFE4FEFDFCFBFAF9F87E
:102C8000C312EDBE70031274C190F95DE04401F00F
:102C900078AA76FF90F9687401F0E490F9A3F090B7
:102CA000F9A4F078B2F690F9E6F07BFF7A4C79A5BA
:102CB00012CF9F2290F91E12EE01787012EE367834
:102CC0007012EDF5787412EE36755C01E4FFFE7D4E
:102CD000807C40787012EE1D12EA9E500D7B027DC2
:102CE000FF7F587E4312D03E800BE4FB7DFD7F5872
:102CF0007E4312D03EE4FFFEFD7C41787412EE1D4F
:102D000012EA9E60244022E55CC39440501BE55CBF
:102D100025E0F55C787412EDF5E4FBFAF9784012E1
:102D2000EA01787412EE3680CCAC5CE412EB26C07B
:102D300004C005C006C007787012EDF5D003D002BC
:102D4000D001D00012EA01787412EE36E4FFFE7D65
:102D5000807C40787412EE1D12EA9E601F401D7F39
:102D6000337E337D837C40787412EE1D12EA9E50D0
:102D70000BE55CC313F55C7003755C01E55CD394F3
:102D8000204005750B408009C37420955C44C0F554
:102D90000B7F487E4012834B90074FE0B4010B78C5
:102DA0008012EE4E40B666668009788012EE4E4084
:102DB000CB3333788012EDF5787412EE1D12EA9E53
:102DC00060074005E4F50B801C7FEC7E517D887C1C
:102DD00040787412EE1D12EA9E60074005750B40A4
:102DE0008003750BC07F507E4012834BE4FFFE7D55
:102DF000807C4B787012EE1D12E8F8C004C005C04C
:102E000006C007AC5CE412EB26A804A905AA06AB31
:102E100007D007D006D005D00412EA0112EB5A7889
:102E20000812EE36E4FFFE7D807C40787012EE1DC5
:102E300012EA9E50157808C00012EDF5E47B02FA04
:102E4000F9F812EC56D00012EE367FAC7E441283B5
:102E50004B780812EDF5780212EDCF786412EE3659
:102E60007F487E40128343530B9FE50BB49F05E4DC
:102E7000F55C8035E50BB49E05755C01802BE50B98
:102E8000B49C05755C028021E50BB49805755C0364
:102E90008017E50BB49005755C04800DE50BB480DC
:102EA00005755C058003755C06786412EDF5A95C18
:102EB000A80112EDE2780812EE367F7C7E4512837F
:102EC0004B7FDC7E4612834B7F1C7E4412834B1269
:102ED000D4E37FD87E4412834B787012EE1DE4FF5A
:102EE000FEFD7C4512EA01E4FBFAF9783F12E8079F
:102EF00012EB5A786412EE36786412EDF5EFEE5468
:102F00003FFEE4FDFC781012EDE2780812EE367F09
:102F1000747E4512834B7F487E40128343E50BB499
:102F20001005750B08800CE50B7005750B188003F8
:102F3000E4F50B7F4C7E4012834B2290F889E0FF32
:102F4000C39420400EEF9430500912C94BEF600338
:102F5000023193E4F55D7FF87E44128343780812D2
:102F6000EDF590F84812EE4290F8C1E0F55CE55CB2
:102F7000C3941E4030E55CD39427502990F98B12FE
:102F8000EE670000800090F83712EE67000000B591
:102F90007FE47E45128343E50920E10302303D755D
:102FA0005D0102303DE55CC3941B401690F98B1225
:102FB000EE670000400090F83712EE6700000080D6
:102FC000807BE55CC39412401DE55CD394175016DA
:102FD00090F98B12EE670000200090F83712EE6730
:102FE0000000005B8057E55CD3940F503C90F8895B
:102FF000E0FFC3940A401CEFD39412501690F98B53
:1030000012EE670004000090F83712EE670000022D
:1030100000802A90F98B12EE670000400090F8378C
:1030200012EE6700000080801490F98B12EE6700AA
:1030300001000090F83712EE670000010090F827B9
:1030400012EE2AC000C001C002C00390F98B12EE3C
:103050002A90F84812EE0112EEF4D003D002D0010B
:10306000D00012EC3B90F82712EE4290F83712EEA7
:103070002A90F84812EE0112EEF490F82712EE2A88
:1030800012EC3B90F83712EE427FD47E4412834319
:10309000780812EDF5EC12EB1C787012EE3690F811
:1030A0003712EE01EC12EB1C90F83312EE2A12E804
:1030B000F890F82F12EE2A12EA01788012EE36E527
:1030C0005CC3941E5003023146E55CD394275076CE
:1030D000E55D60497F3C7E41128343E50B30E4149B
:1030E000787012EDF5788012EE1D12E803787012F8
:1030F000EE368012787012EDF5788012EE1D12E82F
:1031000007787012EE3690F84812EE0190F83712F8
:10311000EE2A12EC4890F84812EE42805078701275
:10312000EDF5788012EE1D12E807787012EE3690F9
:10313000F84812EE0190F83712EE2A12EC3B90F8A4
:103140004812EE428027787012EDF5788012EE1D5D
:1031500012E807787012EE3690F84812EE0190F8F7
:103160003712EE2A12EC4890F84812EE4290F848D6
:1031700012EE01780812EE367FF87E4412834B7807
:103180007012EDF512EB5A780812EE367FD47E44B9
:1031900012834B2290F87CE090F842F07F1912D312
:1031A000B912D16290F9B8E030E1030233B790F878
:1031B00042E0C3943F4006750BFC0233A87F807E3B
:1031C0008D7D5B7C0090F88A12EE2AC312EDBE5012
:1031D0000E90F842E0FF25E025E0F50B0233A890C1
:1031E000F842E075F003A4AEF07802CEA2E713CE69
:1031F00013D8F8FF12B938750BFC7F107E4A128382
:103200004B12D22812B12E786412EDF5E412EB1CA9
:103210007BE17AC9797E784012EA01E4FBFAF97819
:103220003F12E80712EB5A78AE12EE3690F842E001
:10323000FF12B93878B212EE4E7FFFFFFF90F842CE
:10324000E0FF90F841F090F840F025E025E0F50B24
:103250007F107E4A12834B12D22812B12E78AE1202
:10326000EDF5786412EE1DC312EDBE500890F843E0
:103270007401F0800690F84374FFF078AE12EE1DF2
:10328000C000786412EDF5D00012EC4812F02778F7
:10329000B212EE3690F843E0FF90F841E02FF0E0F4
:1032A000FFC394015003023334EFD3943F40030231
:1032B000333490F841E0FF25E025E0F50B7F107EE8
:1032C0004A12834B12D22812B12E78AE12EE1DC0D4
:1032D00000786412EDF5D00012EC4812F0277868FF
:1032E00012EE3678B212EDF5786812EE1DC312EDCB
:1032F000BE5012786812EDF578B212EE3690F841B1
:10330000E090F840F090F843E0B4011578AE12ED8B
:10331000F5786412EE1DD312EDBE50030232948094
:103320001378AE12EDF5786412EE1DC312EDBE40B7
:10333000030232947489257CF582E43406F583E037
:10334000547FF090F842E075F00AA4FFAEF0E4FC80
:10335000FD7B09FAF9F812ECE190F842EFF090F8F1
:1033600040E0FED39F400B90F842E0FFEE9FF55CFB
:10337000800D90F840E0FF90F842E0C39FF55CE5D7
:103380005CD39407401790F842E090F840F07489BD
:10339000257CF582E43406F583E04480F090F84023
:1033A000E0FF25E025E0F50B7F107E4A12834B7F7E
:1033B0001A12D3B912D00A22E4F5607FE47E4712D4
:1033C0008343E50A540B64036024AF600560EFC3D8
:1033D00094235011789012EE4E000003E8E4FDFFB4
:1033E000129C1980D67BFF7A65791A12CF9F7F34A1
:1033F0007E47128343780812EDF5EF64C9FFEE644F
:1034000083FEED649DFDEC6471FC90F8C212EE4207
:103410007F307E47128343780812EDF5EF64FAFFA0
:10342000EE642DFEED6442FDEC6453FC90F8C61290
:10343000EE4212D4E375081A7FE87E4712834B9060
:10344000F85812EE678000000090F88012EE6700D6
:10345000000000756102786412EE4E0000000090DA
:10346000F85412EE6780000000756020E560606B24
:103470007FE47E47128343E56030E02679097808CF
:10348000E6FFD3E76480F8EF6480984039786412EF
:10349000EDF590F85412EE2A12ED80786412EE36B3
:1034A00080247809E6F4047908C36480F8E764802E
:1034B000985013786412EDF590F85412EE2A12ED3C
:1034C00080786412EE36156090F85412EE0178019F
:1034D00012EDCF90F85412EE428091E561B4020DE6
:1034E00090F8C212EE01786812EE36800B90F8C6A2
:1034F00012EE01786812EE3612D3AB90F85412EE49
:10350000678000000090F85412EE01EC4D4E4F60C1
:103510007090F88012EE01C004C005C006C00778A4
:103520006412EDF590F85412EE2A12ED73EC4D4E44
:103530004F601090F85812EE01AB07AA06A905A833
:10354000048009E4FFFEFDFCFBFAF9F8D007D00681
:10355000D005D00412ED8090F88012EE4290F85819
:1035600012EE01780112EDCF90F85812EE4290F869
:103570005412EE01780212EDCF90F85412EE428010
:103580008412D2A11561E5616003023456127028DD
:103590008F5CE55CC313F55C78A974C056F6E55CF6
:1035A000C3940450030233E5E55CD3941140030255
:1035B00033E574C056F64480F6E55C241D46F6E516
:1035C0005C240C90F960F0789E76000876017BFF11
:1035D0007A2A791112CF9F22900742E030E103024C
:1035E00037F790F9BA12EE01EC4D4E4F70030237E7
:1035F000F790F8BC12EE0112F027786C12EE36E468
:103600007F107E27FDFC786C12EE1DC312EDBE40CC
:10361000030237F77F087E4B128343780812EDF5DB
:10362000780812EDCF90F92F12EE4290F92F12EE9A
:1036300001788C12EE3612C175786412EDF590F9AE
:103640009312EE4290F92F12EE670000000112C1B2
:1036500075E4F560F561786C12EDF5EF2498FFEEF6
:10366000343AFEE43DFDE43CFC786C12EE36E4FFB7
:10367000FEFDFC90F8BC12EE2AD312EDA84015789E
:103680006C12EDF590F99312EE2A12EC3B786C1265
:10369000EE368013786C12EE1D90F99312EE011243
:1036A000EC48786C12EE367F207E41128343E50BA6
:1036B00030E1147560017FE47E45128343E50930F3
:1036C000E12A75610180257F5C7E40128343E50B12
:1036D00030E105755C048003755C03786412EDF5D8
:1036E000A95CA80112EDE2786412EE36786412ED5E
:1036F000F5E412EB1C90F9BE12EE2A12E8F812EB78
:103700005A90F84812EE42E560601590F84812EEC3
:1037100001E47B04FAF9F812EC5690F84812EE42F4
:1037200090F8BC12EE01EC33500F90F84812EE0105
:1037300012ED9A90F84812EE42E561600F90F84859
:1037400012EE0112ED9A90F84812EE42786C12EDEA
:10375000F512B62090F92F12EE01786812EE367845
:103760008C12EDF5786812EE1DD312EDBE4019787B
:103770008C12EDF5EF2401FFE43EFEE43DFDE43C58
:10378000FC788C12EE36802A788C12EDF57868126F
:10379000EE1DC312EDBE505F788C12EDF5EF24FFE5
:1037A000FFEE34FFFEED34FFFDEC34FFFC788C12AD
:1037B000EE36788C12EDF5780812EDE2780812EE0C
:1037C000367F087E4B12834BE56060097F847E451F
:1037D00012834380077FD47E441283437808C0005D
:1037E00012EDF590F84812EE2A12EC3BD00012EEE2
:1037F00036129E7D02375F2290F8B012EE0190F8EB
:10380000CA12EE4290F9B8E020E22490F9B5E0FB4C
:103810007DC37F487E4A12D03E90F9B6E0FB7DF032
:103820007F4C7E4A12D03E90F9B974FEF0800A9027
:10383000F9B8E020E3030238E97F1D12D3B99006FE
:10384000ADE0FB7DE07F347E4A12D03E7B207DC020
:103850007F307E4A12D03E78B6760512D2A112C7CA
:10386000677F747E4A128343E50B5404F55C7F3016
:103870007E4A128343E55C601578B6E6FF7401A8C2
:1038800007088002C333D8FCF4520B129E7D78B631
:10389000E6601A16E6FF7401A807088002C333D851
:1038A000FCFB7DFF7F307E4A12D03E80B112D2A158
:1038B00012C76790F83CE0B41C0512B030800312C8
:1038C000B6B490F967E0FF20E0030239F8EF30E189
:1038D0000E90F9B8E054FDF04404F012D3E32290C6
:1038E000F9B8E030E4030239F87F247E4A128343BA
:1038F000E50B541C641C600C90F83C741CF012D353
:103900007F0239E690F9B8E0FF30E30654F7F002A1
:10391000380B7B0F7DFF7F4C7E4A12D03E90F8B073
:1039200012EE01786412EE367FC07E3C7DDE7C10A4
:10393000786412EE1DD312EDBE40137F007E847DAD
:10394000D77C17786412EE1DD312EDBE404C7F4039
:103950007E377DAD7C21786412EE1DD312EDBE4022
:10396000137F007E087DAF7C2F786412EE1DD3128A
:10397000EDBE40267F807E6E7D5A7C43786412EED9
:103980001DD312EDBE401E7F007E107D5E7C5F78F1
:103990006412EE1DD312EDBE500B90F9B9E030E782
:1039A00019E4F0801B90F9B9E0B4FE0E90F9B5E08F
:1039B000F55C90F9B974FFF0802190F9B9E004F05A
:1039C00090F9B9E0FF25E025E0F55CD3943C400B8D
:1039D000740FF090F9B8E04410F022AB5C7DC37F27
:1039E000487E4A12D03E7489257CF582E43406F57F
:1039F00083E020E003023839227B407A42790F7855
:103A00000090F88A12EE0112ECE18F5DE4F55CE5BE
:103A10005DC3941B5002055CE55DC394175002051D
:103A20005CE55DC394115002055CE55DC3940C50E8
:103A300002055CE55DC394045002055CE55DC3943A
:103A4000025002055CE55CC454F0F55C7F0912D3BA
:103A500041787DA60608A607E55C26F618E436F64A
:103A60007F0C12CE3D7E097F00787DE6FC08E6FDE6
:103A70007B1012D2EB12CE4D787012EE4E488000C1
:103A800000900900E0FCA3E0FDE412EB2178701245
:103A9000EE1D12EA01C004C005C006C00790F88AF6
:103AA00012EE01E412EB1CD003D002D001D00012C0
:103AB000E8F878B312EE36900902E0FCA3E0FDE4EA
:103AC00012EB21E4FBFAF9784012EA0190F937127F
:103AD000EE42900904E0FCA3E0FDE412EB217870D3
:103AE00012EE1D12EA01C004C005C006C00790F81E
:103AF0008A12EE01E412EB1CD003D002D001D000F8
:103B000012E8F878B712EE36900906E0FCA3E0FD63
:103B1000E412EB21E4FBFAF9784012EA0190F93B58
:103B200012EE42900908E0FCA3E0FDE412EB2178DC
:103B30007012EE1D12EA01C004C005C006C0079055
:103B4000F88A12EE01E412EB1CD003D002D001D0AF
:103B50000012E8F878AF12EE3690090AE0FCA3E014
:103B6000FDE412EB21E4FBFAF9784012EA0190F946
:103B70004712EE4290090CE0FCA3E0FDE412EB21B9
:103B8000787012EE1D12EA01C004C005C006C0071D
:103B900090F88A12EE01E412EB1CD003D002D0019F
:103BA000D00012E8F890F93F12EE4290090EE0FCC6
:103BB000A3E0FDE412EB21787012EE1D12EA01C0C1
:103BC00004C005C006C00790F88A12EE01E412EBAB
:103BD0001CD003D002D001D00012E8F890F94312B3
:103BE000EE42227F007E42128343430B01129E7DF0
:103BF000E50B54FE7899F6789BE4F67896E6700328
:103C0000023C8178AC74EF56F6749E257CF582E414
:103C10003406F583E0FF30E50B789974F756F644E7
:103C200004F68025EF30E70E78AC741046F67899EC
:103C3000740C46F68013789974FB56F690FA00E0FF
:103C400030E10678AC741046F67896E6D3941050BE
:103C500005E6F55D8003755D107F387E4212833E78
:103C6000E4F55CE55CC3955D5032789BE606240084
:103C7000F582E434FAF583E0F50B129E7D055C8055
:103C8000E2749E257CF582E43406F583E020E60CA0
:103C900078AC741046F67899740C46F612A14290EE
:103CA000077EE0FCA3E0FDE412EB2190F8D412EED5
:103CB0002A12E8F8E4FBFAF9783F12E80712EB5A07
:103CC000EFEE540FFEE4FDFC786412EE367FF47ED6
:103CD000461283437808C00012EDF5E4FFEE54F07D
:103CE000FEEDECD00012EE367808C00012EDF5784B
:103CF0006412EE1D12ED80D00012EE36129E7D7F12
:103D0000E87E46128343E4FFFE7D707C4290F8D447
:103D100012EE2A12E8F8E4FBFAF9783F12E80712EB
:103D2000EB5AEFE48F5C855C08129E7D7FF07E4647
:103D3000128343855C08129E7D7FE47E4612834396
:103D40009006ABE0FCE412EB26E4FBFA797A7844C7
:103D500012E8F890F8D412EE2A12E8F8E4FBFAF927
:103D6000783F12E80712EB5A7808A60608A6071251
:103D70009E7D750B047896E6D394104003430B08A0
:103D80007F847E4212834B7899E64402F50B7F00D4
:103D90007E4212834B7F847E42128343E50B30E3E5
:103DA0000312A9B07F287E47128343E508540370AD
:103DB00006E50854E07003125B6D7F847E42128337
:103DC00043E50B20E2F112D22880CA2212B45AEF46
:103DD000602D786412EE4E0000546090F8C1E0FB54
:103DE000D3941A5005755C018003755C02786812E3
:103DF000EE4E000001F8EB24E8255CF55D801A78B2
:103E00006412EE4E00007E90786812EE4E000003C1
:103E10001890F8C1E024F0F55D7F0C12CE3D75F0EE
:103E200002E55D90FFDD12EE98E493FE7401937855
:103E3000A3A60608F612CE4D12C94BEF60127864A5
:103E400012EDF5786812EE1D12EC3B786412EE3636
:103E50007866E6FE08E6245AFFE43E78A5F608A652
:103E60000779A3E7FE09E77803CEC313CE13D8F989
:103E7000FFE4FCFD786812EE36786812EDF57808FC
:103E800012EE367FA87E4112834B78A5E6FE08E647
:103E9000FFE4FCFD780112EDCF786412EE36786411
:103EA00012EDF5786812EE1D12EC48786412EE36C9
:103EB000786412EDF5780812EE367FAC7E411283FD
:103EC0004B742A257CF582E43407F583E070030205
:103ED0003FA2786812EDF5786412EE1D12EC3BE417
:103EE00012EB1CC004C005C006C007786812EDF5CF
:103EF000E412EB1CD003D002D001D00012EA01780A
:103F00007012EE36787012EE1DC000C001C002C003
:103F100003742A257CF582E43407F583E0FCE4127F
:103F2000EB267B007A60791F784512EA01E4FBFA00
:103F30007980783F12E807D003D002D001D0001278
:103F4000E8F8787012EE36786412EDF5E412EB1CA6
:103F5000787012EE1D12E8F8C004C005C006C00754
:103F6000787012EE1DE4FFFE7D807C3F12E803A80E
:103F700004A905AA06AB07D007D006D005D00412C5
:103F8000EA0112EB5A780812EE367FA87E411283BE
:103F90004B786412EDF5780812EE367FAC7E411254
:103FA000834B227FAC7E44128343780812EDF59058
:103FB000F92712EE427895E4F6E47B907A01F9F85D
:103FC00090F88A12EE0112ECE1E412EB1C789612E2
:103FD000EE36789A12EE4E4080000012A88090F9DA
:103FE0002712EE01780912EDCF786412EE3678953B
:103FF000E6700D786412EDF512ED9A786412EE36E3
:10400000786412EDF590F92712EE2A12EC3B78084D
:1040100012EE367FAC7E4412834B7B017DFF7FA482
:104020007E4012D03E12D4E37FA87E4412834B120E
:10403000684E789012EE4E000493E0E4FDFF129C6F
:104040001912684EE47B407A06F9F890F88A12EE6D
:104050000112ECE1E412EB1C789612EE36789A121B
:10406000EE4E4130000012A880787412EE4E00002F
:1040700000007560207FA87E44128343787412EE9E
:104080001DC000C001C002C003780812EDF5EC129B
:10409000EB1CE4FBFAF9784212EA01D003D002D01B
:1040A00001D00012E807787412EE3612D228D560DB
:1040B000C47895E6602BE4FFFEFDFC787412EE1DDB
:1040C00012EA9E600D400B787412EE4E0000000064
:1040D0008027787412EDF512EB0B787412EE3680AF
:1040E00018E4FFFEFDFC787412EE1D12EA9E5009E2
:1040F000787412EE4E00000000787412EDF512EBA9
:104100005A786412EE3690F92712EE01780812EE12
:10411000367FAC7E4412834B12D4E37FA87E4412D8
:10412000834B7FD87E4412834BE4FFFE7D02FC78F4
:104130006412EE1DD312EDBE401D7895E660117439
:1041400033257CF582E43407F583E04401F08007F1
:1041500078957601023FB97433257CF582E4340703
:10416000F583E054BFF012D4B922755FFF7560FB90
:104170007561F490F8AAE0603B14602924FE601297
:1041800014601A24027026535FFE53607F436180DF
:104190008022535FFE43608053617F8017535FFD31
:1041A0005360BF800F535FFB5361BF800790F819C6
:1041B000E04410F090F8ABE0603B14602924FE600E
:1041C0001214601A24027026535FF753607F436114
:1041D000808022535FF743608053617F8017535F75
:1041E000EF5360BF800F535FDF5361BF800790F8CC
:1041F00019E04410F090F8ACE0603024FD60121437
:10420000601A2402701E535F7F53607F4361808079
:104210001A535F7F43608053617F800F535FBF53AA
:1042200060BF800790F819E04410F090F819E0544E
:10423000F06003024322AD607F09120016AD617F7A
:104240000B120016AD5F7F0C1200167F1712D134CF
:104250008F62E55FB4FF0543624080035362BFADE8
:10426000627F171200167F1812D1348F62E55F54F7
:1042700089FFBF890543624880035362B7E55F54F5
:1042800052FFBF52054362A0800353625FAD627F5D
:10429000181200167F0D12D1348F637F1E12D13495
:1042A0008F62900687E030E015E56054C04403F566
:1042B00060E563541F4440F56353628F8018E560E6
:1042C00054C0443CF560E563541F44C0F563E562A7
:1042D000548F4430F562AD607F09120016AD637FE4
:1042E0000D120016AD627F1E1200167DC97F1912D5
:1042F00000167D907F1A120016900687E05406245F
:10430000FC60092404700A755F428008755F828032
:1043100003755F02AD5F7F0E120016AD5F7F101256
:104320000016227F1D12F146805F12B2CDEF605958
:10433000E51055116047E50FC454F0450F4488F56A
:10434000CEE50F6407600DE50F5401F57C044408C9
:10435000F5CF8006E4F57C75CF0B7581C0E510F4D0
:104360005211E5104212E50F75F003A4246AF5829C
:10437000E43408F58312EEB612EEEE800CE50F255C
:10438000E025E0242AFF12F12175E404850ED6858C
:10439000E35DE55D70030244CAF5E575E40285DE80
:1043A0005CAF5C12F0AAE55C30E6107BFF7A6E79B8
:1043B000437F0712CB2743138080CEE55C30E51D99
:1043C000E4F57CE5F95440FFC313FFE5FA541F4FB1
:1043D000F55912523575F41F75F34080ACE55C3029
:1043E000E41F757C01E5F95480FF1313543FFFE58A
:1043F000F9541F4FF55912523575F59FE4F5F680C3
:1044000088E55C30E30E7BFF7A0479C27F0112CB32
:1044100027024389E55C30E26B90089112EEB6EA20
:10442000494B605A90089412EE01EC4D4E4F604E8D
:1044300090089412EE01EF24FFFFEE34FFFEED34FE
:10444000FFFDEC34FFFC90089412EE42E4FFFEFD09
:10445000FC90089412EE2AC312EDBE600302438959
:1044600090089112EEB612EEEE90089412EE01EC66
:104470004D4E4F60030243891200460243891200E9
:1044800046024389E55C5403700302438990088225
:10449000E0455CF054036403600302438943B204C3
:1044A000900889F0900882F0439A20439C809008FD
:1044B0009412EE67000000017BFF7A6C795490083B
:1044C0009112EEBF12D434024389E54A70030243CD
:1044D0002A12A3E802432A22127206121A8FE4FF5C
:1044E000FE7D807C4490F89612EE2A12E8F812EBDA
:1044F0005A7878A60608A607E4FFFEFDFC90F81A95
:1045000012EE2A12EA9E701B90F89612EE0190F8B5
:104510001A12EE4290F89612EE0190F81E12EE4238
:10452000024672900726E0FCA3E0FDE412EB21A80E
:1045300004A905AA06AB07E4FFFE7D807C3F12EAD2
:1045400001787012EE36787012EE1DE4FFFE7D8069
:104550007C3F12E80390F81A12EE2A12E8F8C00421
:10456000C005C006C00790F89612EE01787012EEF2
:104570001D12E8F8D003D002D001D00012E8079055
:10458000F81A12EE4290F81E12EE0190F89612EE12
:104590002A12EA9E6010400E90F89612EE0190F8F2
:1045A0001E12EE42805590F81E12EE01C004C005A6
:1045B000C006C007900726E0FCA3E0FDE412EB2153
:1045C000C004C005C006C00790F81A12EE2A90F881
:1045D0001E12EE0112E803D003D002D001D0001267
:1045E000EA01A804A905AA06AB07D007D006D005A2
:1045F000D00412E80390F81E12EE42900725E0FC6A
:1046000075F080A4787AA6F008F6E412EB26E4FBB5
:10461000FAF9784112EA01787412EE36787412EEE3
:104620001D90F81E12EE0112E80390F89612EE2A81
:1046300012EA9E502E742C257CF582E43407F58313
:10464000E0FF20E00DE57C60047E1080027E01EE3C
:10465000429E742C257CF582E43407F583EF4401F7
:10466000F0800F742C257CF582E43407F583E05448
:10467000FEF012499E22789012EE4E00004E207FEE
:10468000887E42128343E50B30E20302473B78A069
:10469000E4F608F67F0212CDC190F99CE07002A307
:1046A000E0704990F9A4E0701490F89212EE01EFD6
:1046B0005410FFE4FEFDFCEF600312C06290F9A409
:1046C0007401F07F0412CDC190F826E0B40103120A
:1046D000C1E478A3E4F608F690F99BE0700912B9FA
:1046E000C390F99B7401F012BB9E800A90F99C74F0
:1046F000FFF5F012EBED799EC309E7941E19E794DC
:10470000005023789E0806E618700106799E09E796
:10471000641E194760030247FC750B0A7FC87E4080
:1047200012834B0247FC90F9A4E070030247FC7827
:104730009012EE4E001E84800247FC79A0D309E758
:10474000940219E79400400312BF7A750B4A7FC8A0
:104750007E4012834B90F99BE0FF602979A009E726
:104760001947702190F99C75F01412EBEDD390F974
:104770009DE0942C90F99CE0940140337401F0A3E7
:10478000742CF0802AEF7011799E09E719476009AF
:1047900090F99CE4F0A37405F078A30806E618707D
:1047A000010679A3D309E7946419E79400502178AE
:1047B0009EE4F608F690F9A4F079A0C309E79428DE
:1047C00019E79400500A080806E6187001068022CE
:1047D00090F89212EE01EF5440FFE4FEFDFCFBFA6C
:1047E000F9F8C312EDBE700A7BFF7A90796E12CF92
:1047F0009F22750B0C7F887E4212834B7BFF7A468B
:104800007976785612EEADE4FF125CB222E57C6058
:104810000C900886E030E111789376142290088697
:10482000E030E00578937614227F1112F3FDEF70EB
:104830000302499D90F88512EE01786412EE367EEF
:10484000F87F857D1112C10590F889E0543FF09002
:10485000F89212EE01E4FFFEFDEC54C0FCE4FBFA1A
:10486000F978C0C312EDBE700302499D90F8E412BE
:10487000EE670000000012C5D890F87374FFF0E4F2
:1048800090F9B8F012BF7A90F89212EE01E4FFFEB0
:10489000FDEC5440FC600B786412EDF590F8851245
:1048A000EE42E57C60047F0580027F047897EFF696
:1048B00012A74490F9C2E0600312BB1890F87A7412
:1048C000FFF0E490F99BF0900743F090F89212EE1D
:1048D00001E4FFEE5480FEE4FDFCEE6005755CC073
:1048E0008003E4F55C7433257CF582E43407F583BA
:1048F000E55CF012B9C312D4E390074FE0B40105B0
:10490000750B108003750B307F5C7E4012834B90DB
:10491000F89212EE01E4FFFEFDEC5440FCE4FBFAD9
:10492000F9F8C312EDBE700D7BFF7A94799B78562F
:1049300012EEAD805C90F889E0FFC394204012EF46
:104940009430500D7BFF7A897967785612EEAD80EE
:1049500040EFC394004013EFD39412500D7BFF7AC5
:10496000CC799F785612EEAD8027EF5430FFBF30E0
:104970001590F889E0643F600D7BFF7AA879E678AE
:104980005612EEAD800B7BFF7AC879B0785612EEE6
:10499000AD7897E6FF785612EEA412CB272290F856
:1049A000C1E0FFC3941E4024EFD39427501EEF2490
:1049B000E2FFE434FFFEEF7802C333CE33CED8F902
:1049C00024947879F6EE340718F6804F90F8C1E019
:1049D000FFD394045013EF75F004A4AEF024807854
:1049E00079F6EE340718F6803290F8C1E0FFC394F0
:1049F000105003024B2BEFD3941D4003024B2BEFBF
:104A000024F0FFE434FFFEEF7802C333CE33CED878
:104A1000F924BC7879F6EE340718F67878E6FE08C3
:104A2000E6FF2402FDE43EFC787AF608EDF68F827C
:104A30008E83E0FEA3E07878A60608F68D828C834C
:104A4000E0FEA3E0787AA60608F67878E6FC08E6A9
:104A5000FDE57C25E02472F582E43407F583ECF073
:104A6000A3EDF0E412EB21E4FBFAF9784512EA0138
:104A7000787012EE36787AE6FC08E6FDE412EB2157
:104A8000E4FBFAF9784512EA01787412EE36787090
:104A900012EDF590F89612EE2A12EA9E6002502E60
:104AA000742C257CF582E43407F583E0FF20E30DC8
:104AB000E57C60047E8080027E08EE429E742C2598
:104AC0007CF582E43407F583EF4408F0800F742C02
:104AD000257CF582E43407F583E054F7F07874120E
:104AE000EDF590F89612EE2A12EA9E6002502D74AF
:104AF0002C257CF582E43407F583E0FF20E20DE508
:104B00007C60047E4080027E04EE429E742C257CF4
:104B1000F582E43407F583EF4404F022742C257CFD
:104B2000F582E43407F583E054FBF02290F889E045
:104B3000D394095005755D0E8003755D0FAF5D124E
:104B4000D3B990F889E0F55C7F0C12CE3DE55C901E
:104B5000FF8A93F50B12CE4DE4F55D90F889E0FBEA
:104B6000C3940A403690F89212EE01E4FFFEFDEC89
:104B70005408FC6023755D0490F89212EE01E4FF86
:104B8000FEFDEC5410FC6008430BA0530BBF800BE0
:104B9000430B80530B9F8003430BE0EBC3940A400D
:104BA0002190F889E0940A403390F89212EE01E4E3
:104BB000FFFEFDEC5408FCE4FBFAF9F8C312EDBE6D
:104BC000701A530B9F90F89212EE01E4FFEE540618
:104BD000FEE4FDFC780412EDCFEF420B7F807E41B6
:104BE00012834B90F89212EE01E4FFFEFDEC54208C
:104BF000FC60197B027DFF7FF87E4012D03E7B1067
:104C00007DFF7FCC7E4012D03E435D02855D0B7FF1
:104C1000847E4112834B430B40129E7D530BBF1287
:104C20009E7D12D4E37430257CF582E43407F5834D
:104C3000E0541FF50B90F889E0FFD39405500575FB
:104C40000A52803EEFC39406400BEFD394095005FF
:104C5000750A56802D90F89212EE01E4FFFEFDECED
:104C60005408FC601A90F89212EE01E4FFFEFDEC8D
:104C70005410FC6005750A0A8008750A4A8003759D
:104C80000A5AE57C25E0248DF582E43406F583E0BC
:104C9000A330E1047F0280027F00EF420A7F287E7A
:104CA0004612834B2212684E78A9E654C0644070C5
:104CB000577F947E45128343E50A30E14B530AFD4A
:104CC00078A8E6045403F55C700F90F87AE0B4031A
:104CD0000890F80C7401F0802678A874FC56F6450C
:104CE0005CF6E55C701990F8E412EE01EF2401FF28
:104CF000E43EFEE43DFDE43CFC90F8E412EE427B31
:104D0000FF7A65791A12CF9F90F89212EE01EF5454
:104D100040FFE4FEFDFCFBFAF9F8C312EDBE703370
:104D20007F847E42128343E50B30E52790F889E0CB
:104D3000B4301790F812E0FFC39436400DEFD394CF
:104D40003A500790F95DE04408F07BFF7A65791AE4
:104D500012CF9F12D36179AA78ACE667700612D29F
:104D6000A1024CA578ACE624F1601314601614601F
:104D70001824116003024DF612C635024E05129337
:104D800070024E0512CD42807C7F011297E578B209
:104D9000E620E20312CD4278B2740846F67F011293
:104DA000CDC190F889E0B4301E90F95DE04402F086
:104DB00090F812E0FFC39436400DEFD3943A5007B9
:104DC00090F95DE04404F078A9E654C0FFBF401BB1
:104DD000789012EE4E000080E87BFF7A3379B87845
:104DE0005612EEADE4FF125CB2801A7BFF7AA37913
:104DF0007A12CF9F800F78AAE6B411097BFF7A65FB
:104E0000791A12CF9F78ACE678AAF6024CA522AFA9
:104E10007C7405A807088002C333D8FCFF90088380
:104E2000E05FF5605403F5617003024F1690088649
:104E3000E0FF55616003024F16E5614FF07F2F12CE
:104E4000D3B9E57C600B7B207DFF7F247E4A12D0A6
:104E50003E7F3012D3B9900886E05403FFBF031D94
:104E6000AF7C12F10BE4F57C7B207DFF7F247E4A32
:104E700012D03E7F3112D3B912F1168F7C7B017DA7
:104E8000FF7F5C7E4012D03E7FD47E411283437808
:104E90000A760108761F129E7D7B047DFF7FD07EFF
:104EA0004112D03EAF7C7405A807088002C333D8F6
:104EB000FCFF900886E05FF56112C7E6EF702AE517
:104EC00060540C7006E561540C601E7FD87E42125F
:104ED0008343780A760108761F129E7D7B047DFF4E
:104EE0007FD47E4212D03E800B7B187DFF7FD87E20
:104EF0004212D03E7F087E00128343E57C6005436A
:104F000008388003430A70129E7DE57C600543AD3E
:104F100003800343AD0CE560540CF56160559008C7
:104F200086E0FF5561704CE5614FF07B807DFF7F2F
:104F3000247E4212D03EAF7C7405A807088002C3CD
:104F400033D8FCFF900886E05FF56112C7E6EF708A
:104F500022E5615403601C7FD87E42128343780AA5
:104F6000760108761F129E7D7B047DFF7FD47E42F2
:104F700012D03E12D4B92212673E78A9E6543FF50A
:104F80005D12B45AEF60207878762A087630E55DB5
:104F9000D3942B5005755C018003755C02E55D249C
:104FA000D7255CF55C800D7878763F087648E55D1E
:104FB00024DFF55C7F0C12CE3D75F004E55D90FEBC
:104FC000CE12EE9812EE0D780812EE36E55C90FFE8
:104FD000CD93F55EE55C90FFD593FFE4FCFDFE7B91
:104FE0000CFAF9F812EC56786812EE3612CE4D90A3
:104FF000F88A12EE01E412EB1CC004C005C006C022
:105000000790F91612EE01E412EB1CD003D002D087
:1050100001D00012EA01C004C005C006C0077878BC
:10502000E6FC08E6FDE412EB21D003D002D001D06B
:105030000012E8F8C004C005C006C007786812ED89
:10504000F5E412EB1CA804A905AA06AB07D007D00B
:1050500006D005D00412E803C004C005C006C0078E
:10506000AF5EE4FCFDFE786812EE1D12EC3BE4122C
:10507000EB1CA804A905AA06AB07D007D006D005EB
:10508000D00412EA0112EB5AAD07AC06E412EB2190
:10509000E4FBFAF9784012E8F812EB5A7878EEF669
:1050A00008EFF6D39496EE94004006187600087642
:1050B00096E4F509F5087878E6FE08E6FF7808A694
:1050C0000608A6071812EDF590F9A512EE427F0822
:1050D0007E5812834B22E490F9D2F090F9DA12EE66
:1050E0006700000000900742E0FFF55CE55C20E00F
:1050F0000302522AEF54FDF0E57C6007E030E40340
:1051000002522AE57C700A900742E030E503025221
:105110002AE57C640104FF12CE3D90F88512EE0171
:10512000786412EE3690F90E12EE0178B712EE3670
:1051300090F9BA12EE0178BB12EE3690F8E412EE56
:1051400001786812EE3690F871E0F55D12CE4D9060
:10515000F88512EE2AC000786412EDF5D00012EC4A
:105160004812F0279006C012EE2AC312EDBE50037B
:1051700002522AE55D700302522AE57C60047F0832
:1051800080027F808F5EE59D555E6056900742E00D
:105190004402F0786412EDF590F88512EE4278B78B
:1051A00012EDF590F90E12EE4278BB12EDF590F982
:1051B000BA12EE42637C017F087E4B128343637C0C
:1051C00001780812EDF590F9DA12EE42900742E00C
:1051D000FFE57C60047EDF80027EEFEF5E90074299
:1051E000F02290F9D2E0700F04F0786812EDF5909B
:1051F000F9D612EE42801890F9D612EE2AC0007845
:105200006812EDF5D00012EC4890F8E412EE4290EE
:105210000742E0FFE57C60047E2080027E10EF4EB6
:10522000900742F012D2280250E590F90E12EE6774
:105230000000000022857C5C12F0D775CE08855CEA
:105240007CE559700302538F75E4048559D685E3D4
:105250005A855AE575E402E5DEF45259155AE55AC5
:105260006405703A7F107E5C12833E12CE7B850B04
:105270005C850A5D85095E85085F7F287E5C1283F8
:105280003E12CE7BE50B555CF5D6E50A555DF5D5AE
:10529000E509555EF5D4E508555FF5D38017E55A65
:1052A00025E02404F582E434D1F583E493FE74010F
:1052B00093FF128343900898E5E3F0E0FF6082F5E6
:1052C000E575E40285DB0885DC0985DD0A85DE0BF2
:1052D000E55A640570377F307E5C12834B7F287EF1
:1052E0005C12833E12CE7B900898E0F5E575E402EF
:1052F000E5DBF45208E5DCF45209E5DDF4520AE599
:10530000DEF4520B7F287E5C12834B8017E55A2512
:10531000E02404F582E434D1F583E493FE74019330
:10532000FF12834B900898E014F012B36FE54CF431
:105330006007E54B424A02525EE55A64046003028C
:10534000525E900898E0FFC3940A500302525EEF49
:10535000D3940E400302525EE57C60047F1080020D
:105360007F018F5CE55B555C700302525E9008859F
:10537000E0FFE57C04FEEF4EF0E51130E60302525B
:105380005E7BFF7ABE79C97F0612CB2702525E127E
:10539000F0E2227FA47E40128343E50B5406F55CC5
:1053A0007FA87E44128343780812EDF590F99E128F
:1053B000EE42E55C24FE601324FE601A2404702192
:1053C000787012EE4E42800000801F787012EE4E10
:1053D000438000008014787012EE4E4480000080FC
:1053E00009787012EE4E458000007F5C7E4012838B
:1053F00043E50B30E113787012EDF5E4FBFAF97830
:105400003F12E8F8787012EE3690F99E12EE01EC39
:1054100012EB1C787012EE1D12EA0112EB5A90F991
:105420009E12EE427FAC7E4412834390F99E12EEB0
:1054300001780812EE1D12EC3B90F99E12EE427FAD
:10544000487E4012834390F99E12EE2AE50B541FCA
:10545000FFC374209FFFE49400FEE4FCFD12EC56B1
:1054600090F99E12EE42E50B20E71590F99E12EEA0
:1054700001E47B02FAF9F812EC5690F99E12EE4222
:1054800090F99E12EE01EC12EB1CA804A905AA06E5
:10549000AB0790F85C12EE0112EA01E4FBFA7980A6
:1054A000784B12E8F8787012EE367F587E431283FC
:1054B00043E50B30E113787012EDF5E4FBFAF9786F
:1054C0004012E8F8787012EE3690F88A12EE2AC090
:1054D00000C001C002C003787012EDF512EB5AD083
:1054E00003D002D001D00012EC4890F8B812EE427E
:1054F000227FC07E42128343780812EDF578641251
:10550000EE367FC47E42128343786412EDF578084C
:1055100012EE1D12EC3B786412EE367FC87E42120A
:105520008343786412EDF5E412EB1CC004C005C09F
:1055300006C007AC0AE412EB26A804A905AA06AB2C
:1055400007D007D006D005D00412EA01C004C00578
:10555000C006C00790068112EE01E412EB1CD003D6
:10556000D002D001D00012E8F8C004C005C006C0C7
:1055700007E50B540FFCE412EB26D003D002D00158
:10558000D00012E8F8C004C005C006C007E50BC48F
:10559000540F7C00540FFDE412EB21A804A905AAC6
:1055A00006AB07D007D006D005D00412EA01787008
:1055B00012EE367F787E43128343E50B540FFCE4F2
:1055C00012EB26C004C005C006C007787012EDF5C6
:1055D000D003D002D001D00012EA0190F8D012EE30
:1055E000427F747E43128343E50B540FFCE412EBBD
:1055F00026C004C005C006C007787012EDF5D003C0
:10560000D002D001D00012EA0190F85C12EE429074
:10561000F85C12EE2AE4FFFE7D807C4E12EA0190D7
:10562000F9BE12EE4290F88A12EE01E412EB1CA8C9
:1056300004A905AA06AB0790F85C12EE0112EA0174
:1056400090F91E12EE422202426026047F8002423E
:1056500040000000000242440F8C0FF60242440F4B
:10566000F70FF80242440FF90FFB0242440FFC0F00
:10567000FE02424400000002024244000300030212
:105680004244000300010242440FFF0FFC02424467
:105690000FF70FF20242440FED0FE70242440FE012
:1056A0000FDA0242440FD50FD00242440FCC0FCA8A
:1056B0000242440FCA0FCB0242440FCF0FD5024221
:1056C000440FDE0FE80242440FF40002024244009D
:1056D00011002002424400300040024244004F00CA
:1056E0005D02424400690073024244007A007F0276
:1056F0004244008000000242480000015801423448
:105700003102470825100000024740FF4B008F017F
:105710004224010142000101421013014208090123
:105720004204100142281B014214080246EC0834CE
:1057300003840246FC1770660D0246E83C210A15F8
:10574000024700080000000246F03C0334500246C5
:10575000F8060606000246E00000000002470C0FB3
:1057600011000002471000000704024718031F4100
:105770000002471C004103070247200041030702C3
:1057800047141FD400100246F4012C032001420CE0
:105790007F01420C00014204730012684E90F8929F
:1057A00012EE01E4FFFEFDEC5420FC700302587F72
:1057B00090F9A2E0600302587F78A5E6702008E621
:1057C000B4011BE4FC90F94B12EE2AD312EDA84071
:1057D0000D78A712EDF512EB0B78A712EE3678A62E
:1057E000E62401FFE433A2E713EF13F55CFCE412B7
:1057F000EB2678A712EE1D12E8F812EB5A90F84843
:1058000012EE4278A6E630E00F90F84812EE011250
:10581000ED9A90F84812EE42E4FFFEFD7C3E90F9CE
:105820004F12EE2A12E8F8C004C005C006C007AC4B
:105830005CE412EB26D003D002D001D00012E8F8CD
:10584000C004C005C006C00790F95312EE01E4126F
:10585000EB1CA804A905AA06AB07D007D006D00503
:10586000D00412EA9E500A7BFF7A9F796D12CF9F77
:105870002290F84812EE0190F95712EE4280057816
:10588000A6E670E378B312EDF5789612EE3690F94D
:105890003712EE01789A12EE36128C0590F89212B9
:1058A000EE01E4FFFEFDEC5420FC602490F9A2E040
:1058B000701E90F95712EE01780812EE367FD47EF2
:1058C0004412834B78AB12EDF5789012EE36800FD0
:1058D00078AB12EDF5780112EDE2789012EE361207
:1058E000C09C22900685E030E50690F9227421F0F4
:1058F00090F871E0601090F889E0FFC39400400BCD
:10590000EFD394125005755C188013EFC3942040B8
:105910000AEF94305005755C088003755C10AB5C31
:105920007DE77FD87E4212D03E7B047DFF7FD47E10
:105930004212D03E750B037FDC7E4212834B12D4A1
:10594000E37FC47E4212834B90F924E0F50B90F97B
:1059500023E0A330E0047F0180027F008F0A7FC034
:105960007E4212834B7FC87E4212834390F922E02D
:10597000F50B90F925E0F50A90F969E0F50990F941
:105980006AE0F508129E7D7FD47E4212834390F92F
:1059900023E0FEA3E0FFE4FCFD90068112EE2A1254
:1059A000EC56A804A905AA06AB0790F922E0540F0B
:1059B000FFE4FCFDFE12EC56C006C00790F922E0A1
:1059C000FFC4540F7E00540FFFFB7A00E4F9F8D0B7
:1059D00007D00612ECE1786412EE367F007E107D6F
:1059E0005E7C5F786412EE1DC312EDBE5005530A53
:1059F000FE8003430A01129E7D750B027FDC7E420E
:105A000012834BE4FB7DFB7FD47E4212D03E7FD4D9
:105A10007E42128343E50830E0F4E4F50B7FDC7E40
:105A20004212834B1254F122AF7C7405A807088000
:105A300002C333D8FCFF900883E05FF5605403F5A0
:105A4000617003025B14900886E0FF5561700302E9
:105A50005B14E561F4FEEF5EF0E4FB7DFE7F5C7EAF
:105A60004012D03E7FD87E42128343780A760008E7
:105A70007620129E7DE4FB7DFB7FD47E4212D03ED9
:105A80007FD47E41128343780AE4F608F6129E7DA5
:105A9000E4FB7DFB7FD07E4112D03E900886E0FF84
:105AA0005402FEEF54016E601CAF7C12F10BE4F562
:105AB0007CFB7DDF7F247E4A12D03E7F3212D3B939
:105AC00012F1168F7C7F3312D3B97F087E001283C8
:105AD00043E57C60055308C78003530A8F129E7DFF
:105AE000E57C600553ADFC800353ADF3E490F871A1
:105AF000F090F87374FFF090F87AF012C5D890F82F
:105B00008A12EE6701312D0012BB1812D4AE12AF0B
:105B10002F12805DAF7C7405A807088002C333D8BC
:105B2000FCFF900883E05FF560540CF561603A90EB
:105B30000886E0FF55616031E561F4FEEF5EF0E458
:105B4000FB7D3F7F247E4212D03E12AF2F7FD87E56
:105B500042128343780A7600087620129E7DE4FB89
:105B60007DFB7FD47E4212D03E12D4B922E57C6008
:105B7000047F2080027F1012F089AF0F12C60778D1
:105B8000AC74F056F67F287E47128343E50830E078
:105B900025E50A30E40878AC740146F68018E50A79
:105BA00030E30878AC740246F6800BE50A30E20672
:105BB00078AC740346F6E509131313541F78AFF657
:105BC000601F7F3C7E4212833EE4F55C129EF574BA
:105BD000B0255CF8A60B055CE55CC3941040ED8035
:105BE0002C7D107FB012F0F1749E257CF582E43498
:105BF00006F583E030E31678ACE630E410789012D6
:105C0000EE4E00007530E4FD7F05129C197F647E26
:105C10004212834378ADA60A08A60B750B7F7F0C52
