:1000000002D88502F3AA7893760C2202DF440140DD
:1000100048400002F30890F860EFF0A3EDF090067E
:1000200086E0FF7D0212ACFCEF700790F819E04407
:1000300020F02202F3E985FF0885FF0985FF0A8584
:10004000FF0B2202998AC2A9C28C2202F3D17F003F
:0800500022222202F387222282
:10005B0002F3B9AF80228F80227FA87E4112867473
:10006B00780812EDF5786412EE367FAC7E4112867D
:10007B0074780812EDF5786812EE36786812EDF5A3
:10008B00786412EE1D12EC3BE412EB1CC004C005AD
:10009B00C006C007786412EDF5E412EB1CD003D058
:1000AB0002D001D00012EA01C004C005C006C0078F
:1000BB0090F88A12EE01E412EB1CD003D002D001AF
:1000CB00D00012E8F8E4FBFA7980784012E8F8E403
:1000DB00FBFAF9783F12E80712EB5A90F8B412EEDC
:1000EB00427F587E43128674E50B30E11C755C0130
:1000FB0090088BE0601690F8B412EE01780112EDC7
:10010B00CF90F8B412EE428003E4F55C90088BE0DC
:10011B006003020238FB7DFD7F947E4112DA807F03
:10012B009C7E41128674530BEB430A04530AFCE585
:10013B005C6003430A0112A56112DF587F007E0940
:10014B007D3D7C0090F8B412EE2AC312EDBE400D3B
:10015B0090F8B412EE01786412EE36803D90F8B44C
:10016B0012EE01E412EB1CA804A905AA06AB077F4B
:10017B00007E247D747C4A12EA0112EF3812EB5A8E
:10018B008F5CE4FCFDFE90F8B412EE2A12EC56786C
:10019B006412EE36E55C4440F50B7FCD7E41128652
:1001AB007C786412EE1D7F807E9E7D477C3012EC46
:1001BB00E1EF04F561FFE4FCFDFE786412EE1D1225
:1001CB00EC56786812EE36786812EDF5EF2440FFA6
:1001DB00EE3403FEED3464FDEC34FEFC7BC07AFCA4
:1001EB00799B780112ECE1EF04F562FFE4FCFDFE74
:1001FB007BC07AFC799B780112EC56C004C005C019
:10020B0006C007786812EDF5D003D002D001D000FC
:10021B0012EC48E412EB1C7BA77A12791F783F1281
:10022B00E8F812EB5A788C12EE360203597F9C7E5B
:10023B00411286747F807EB17D4F7C0190F8B412A1
:10024B00EE2AC312EDBE5009430B1012A561020337
:10025B00D6530BEF12A561780812EE4E202C2820F6
:10026B007FCC7E4112867C90F8B412EE01E412EB47
:10027B001C7BAE7A477981783F12E8F812EB5A78FB
:10028B006412EE36788C12EE4E7FFFFFFF90F9234F
:10029B00E4F0A3741EF090F923E0FEA3E0FFD394E7
:1002AB0028EE94004003020350E4FCFD90068112FB
:1002BB00EE2A12EC56786412EE1D12ECE190F92541
:1002CB00EFF0900685E030E50890F925E0FFC313C9
:1002DB00F090F923E0FEA3E0FFE4FCFD9006811211
:1002EB00EE2A12EC56C00790F925E0FFFBE4FAF971
:1002FB00F8D00712ECE1786812EE3690F8B412EEF3
:10030B002AC000786812EDF5D00012EC48786C1218
:10031B00EE36788C12EDF5786C12EE1DC312EDBE35
:10032B005016786C12EDF5788C12EE3690F924E0BD
:10033B00F56290F925E0F56190F923E475F001126F
:10034B00EBED0202A1788C12EE4E000000007B2434
:10035B007DA67FD07E4112DA80750B037FD87E415C
:10036B0012867C788C12EDF5780812EE367FC07E03
:10037B004112867C12DF5885620B7FBC7E41128650
:10038B007C7FC47E41128674750B11900685E0301C
:10039B00E503750B2185610AE4F509F50812A561E2
:1003AB00750B027FD87E4112867CE4FB7DFB7FD0F0
:1003BB007E4112DA807FD07E41128674E50930E6E9
:1003CB00F4E4F50B7FD87E4112867C90088BE060BD
:1003DB001DE57C25E0248DF582E43406F583A3E04E
:1003EB0030E00B7B107DFF7F9C7E4112DA8012DFA9
:1003FB005890F889E0FF5430FEBE300AEF643F603E
:10040B0005430B81801290F889E0FFC394204008CC
:10041B00EF94305003430B8090F89212EE01EF549F
:10042B0008FFE4FEFDFCEF6003430B08E57C25E0D1
:10043B00248DF582E43406F583E0A330E003430B0F
:10044B00047F947E4112867CE57C25E0248DF58229
:10045B00E43406F583E0A330E005E4F50B80037587
:10046B000B1F7F287E4012867CE57C25E0248DF5D2
:10047B0082E43406F583E0F55CE4F50BE55C30E7EC
:10048B0003430B80E55C30E603430B40E55C30E552
:10049B0003430B207F987E4112867CE57C25E0246C
:1004AB008DF582E43406F583E0A3E054FAF50B7F77
:1004BB00907E4112867C22E4F5B97893F67893E628
:1004CB00600302058B7892A6B97891A6BAE6FF5421
:1004DB003F7896F67890A607C3943550207896E629
:1004EB0025E024E2F582E434AFF583E493FE740156
:1004FB0093AA06F97BFF785612EEAD8006789376B9
:10050B000B80727891E6FF607720E774EF30E61589
:10051B00900685E020E208757C0175CF0A800C7887
:10052B0093760B8050E4F57C75CF097891E6FF64E8
:10053B00236009EF641F6004EFB4200375CF0B78C1
:10054B005612EEA412EEEE7893E67029E5B904F597
:10055B005C7892E6F5B97891E644807890F6F5BA36
:10056B00C3E55C95B914FF12DEEC7890E6F5BA851D
:10057B005CB90204C87893E6F593439C020204C865
:10058B0075E40B439A2012DF2E221223E090F8BC65
:10059B0012EE01EC33500F90F8BC12EE0112ED9AF3
:1005AB0090F8BC12EE42E47F78FEFDFC9006C01280
:1005BB00EE2A12EC56E47B64FAF9F812ECE190F8AF
:1005CB00BC12EE2AD312EDBE40037F01227F002224
:1005DB0085FF5C12DF7BAFFFEFF8E47979F7E81961
:1005EB00F7AFFF7878E6F608E64FF690F889E0FF6C
:1005FB005430FEBE3015EF643F601078A9E6C3940B
:10060B00364033E6D3943A502D802178A9E654C076
:10061B00FFBF400718E620E11D801178A9E6543F83
:10062B00C394294011E6543F9430500A78797404EE
:10063B0026F618E436F67F0C12D8297878E6FE08F1
:10064B00E6F5828E8312EE01780812EE3612D83957
:10065B0012A5612285FF5CAC5CE412EB267B107A61
:0F066B005D79C4784012E8F812EB5A12F0BB2206
:1006800025019BFCC000D80200000000001A1A1AC5
:100690001A0000004E2000004E20011030300101F1
:1006A00000033450000334500000000F3C182700B2
:1006B0000B1800000043920C00900550001207CE6A
:1006C000004C4B40A00000000410050C050F04185E
:1006D000050F0410030F041F02880300029B020091
:1006E00004F2020001B2020001000100010000005A
:1006F00001000100010000000200020001000300EF
:1007000000000001000000000000000000000000E8
:1007100000000001000000000000000000000000D8
:10072000000016E360180BB8012C00000000010067
:10073000000064000020206E050F0418061E050B43
:100740002020000000000F00E4E1C001C9C38000C8
:100750003901FFFFFFFFFFFFFFFF00000000000067
:10076000000000000000000000FF0000000000008A
:1007700000000000000000004E2000004E2002D3C8
:1007800019B0114028E0207030F828E038C830F85F
:100790003F08373814A00C8024A81C382D0024A84A
:1007A00035A82DD03B2033504170399047D83FD0E9
:1007B0004BC043E057784FA85B60539078005000DF
:1007C0007800500078005000780050007800500009
:1007D00078005000780050007800500078005000F9
:1007E00078005000780050007800500078005000E9
:1007F0007800500000000000000000000000000031
:10094000DBFDCD358BEF78ECD420DE64DE71DE7E0E
:10095000BE02FD0ADECBDED77FB4CD66BC37C11048
:10096000A07ECA60BE4DC6508215D072B8AAC45EC1
:10097000D9FDD4B0DE56C157DBD0DF39DA66BF2CE3
:10098000DF6C59E6D320B17DCC3B7638C73E6EA1F3
:10099000C89CDEA5DDE5000ED6CDD955D7EBD7CC6A
:1009A000D3B4D3D8D3FCC005D649D66ADC95DCAA2B
:1009B000C779D170DEB2900742E030E103020E2425
:1009C0009007007401F090F88E12EE01EC4D4E4F3E
:1009D000602AE4FFFEFDFC90F8E412EE2AC312ED5B
:1009E000BE700F90F88E12EE0190F90E12EE4202D8
:1009F0000E0690F88E12EE6700000000E4FF12CCA5
:100A00006E126A9712DA4CEF6003020E3C7F407E52
:100A10005D7DC67C0090F88A12EE2AC312EDBE50AE
:100A200020E47F0CFEFDFC9006C012EE2A12EC566C
:100A3000E47B0AFAF9F812ECE190F84412EE4280F5
:100A40000C9006C012EE0190F84412EE4290F91E8E
:100A500012EE01787012EE367FCD7ECC7D4C7C415B
:100A6000787012EE1D12EA9E50167FFC7EBE7D004D
:100A70007C4D90F85C12EE2A12EA9E7003020B691C
:100A8000E57C60047F2080027F1012CA96900700E8
:100A9000E04402F07562017FCD7ECC7D4C7C4178D4
:100AA0007012EE1D12EA9E500690F9257408F07F30
:100AB000CD7ECC7DCC7C41787012EE1D12EA9E502A
:100AC0000890F9257410F0805D7FCD7ECC7D4C7C44
:100AD00042787012EE1D12EA9E500890F92574209B
:100AE000F080437FCD7ECC7DCC7C42787012EE1DB1
:100AF00012EA9E500B90F9257420F0756202802650
:100B00007FCD7ECC7D4C7C43787012EE1D12EA9E28
:100B1000500B90F9257420F0756204800990F92536
:100B20007420F075620890F9C27401F090F923E422
:100B3000F0A37428F090F9697405F090F96AF090C8
:100B4000F9227411F0125C82E5626401601885621A
:100B50000B7F747E4312867C7B207DFF7F687E4303
:100B600012DA8012589012B6FF900700E04404F0A9
:100B700090F88A12EE0190F9E712EE427F807EC370
:100B80007DC97C0190F9E712EE2AD312EDBE400A2E
:100B900090F9E712EE6701C9C38090F9E712EE0100
:100BA000E412EB1C7BCD7ACC79CC783D12E8F8903E
:100BB000F91212EE4290F84412EE0112ED9A90F9F9
:100BC0000E12EE4290F84412EE0190F9C312EE427A
:100BD00090F84412EE01E412EB1C90F91212EE2A86
:100BE00012EA9E60054003020DA2788C12EE4E00C0
:100BF000000000E4F56290F9C312EE0190F90E12C4
:100C0000EE2AD312EDA84003020D1E129302EF60EC
:100C100003020E3C786812EE4E00000000E4F5601E
:100C200012DF58E5606006750A07750BF07F087ED5
:100C30004312867C430B0F7F0C7E4312867C12DFAF
:100C400058750B977F047E4312867C12CB0112D11C
:100C5000997F147E43128674E5606010780812ED67
:100C6000F5786412EE1DC312EDBE500A780812ED3D
:100C7000F5786412EE367F1C7E4312867478681213
:100C8000EDF5780812EE1D12EC3B786812EE360591
:100C900060E560C394024088786412EE1DC000785D
:100CA0006812EDF5D00012EC48780512EDCFC004C3
:100CB000C005C006C007786412EDF5D003D002D09D
:100CC00001D00012EC48786C12EE36788C12EDF5FB
:100CD000786C12EE1DD312EDBE4016786C12EDF555
:100CE000788C12EE3690F90E12EE0190F92B12EE7E
:100CF0004290F90E12EE2AC000C001C002C003905B
:100D0000F91212EE0112EB5AD003D002D001D0003A
:100D100012EC3B90F90E12EE420562020BF69007C0
:100D200000E030E303020DF390F91212EE0112EB32
:100D30005AAB07AA06A905A80490F92B12EE0112D6
:100D4000EC4890F90E12EE4290F84412EE0112EDCA
:100D50009A90F90E12EE2AC312EDA8500F90F844A3
:100D600012EE0112ED9A90F90E12EE4290F9121263
:100D7000EE0112EB5A90F92B12EE2A12EC3B90F98D
:100D8000C312EE4290F84412EE0190F9C312EE2A1B
:100D9000D312EDA8400C90F84412EE0190F9C31262
:100DA000EE4212DF587FA87E4412867C900700E056
:100DB0004408F090F9E712EE01E412EB1C7BCD7AC7
:100DC000CC794C783D12E8F890F91212EE427F008F
:100DD0007E247D747C4990F91212EE2A12EA9E60FC
:100DE000025003020BEA90F91212EE6749742400D4
:100DF000020BEA900700E04480F090F92B12EE011C
:100E000090F90E12EE4290F9C2E0601012C357E55D
:100E10007C60047F2080027F1012F0891293027F91
:100E20000112CC6E12DF587FD47E4412867C7FF88C
:100E30007E4412867C7FD87E4412867C2278901273
:100E4000EE4E000003E890F9A4E0706F7F807E967C
:100E50007D98FC90F88A12EE2AC312EDBE400B7802
:100E60006412EE4E00000064801F90F88A12EE2A91
:100E70007F807E967D987C0012ECE1E47B64FAF939
:100E8000F812EC56786412EE36E47FFFFEFDFC7833
:100E90006412EE1DD312EDBE4005755CFF8005782F
:100EA00067E6F55C90F9A3E0C3955C400878A7E697
:100EB00060090211D990F9A3E004F012DDB878AC12
:100EC000E6641160030211D9F55C90F889E0FFC374
:100ED00094204016EF9430501112DDA8EF604312B9
:100EE000C598EF603D755C018038750B197F8C7E6D
:100EF0004212867C12A5D990F889E0B43014E50B33
:100F000030E40F90F95CE004F0E0D3940F40080265
:100F100011D9E490F95CF0E50B5419FFBF09037592
:100F20005C01E55C70030211067F0212D7AD90F9F7
:100F3000E6E0607B129E6B90F9DE12EE0190F909FB
:100F400012EE2AC312EDBE500312D98E90F9DE12B2
:100F5000EE2A90F90912EE0112EC48E412EB1C782B
:100F60007012EE367F007E407D1C7C46787012EE5B
:100F70001D12EA9E6039403790F9E212EE2A90F98C
:100F80000512EE0112EC48E412EB1C787012EE1D13
:100F900012EA01787412EE367F177EB77DD17C3865
:100FA000787412EE1D12EA9E600540030211D9907A
:100FB000F968E07003021085E4FF1216AB90F8891F
:100FC000E0FFC394204038EF9430503312C598EFBF
:100FD000702D7F947E42128674E50A20E10302128E
:100FE00011128FDA750B017F007E5C12867CE4F5AE
:100FF0000B12A5617F1712DE1012907E0212119063
:10100000F99BE0700912C24690F99B7401F0E490DC
:10101000F968F012872490F889E0FFC394204023F8
:10102000EF9430501E12664878A9E6543FC39429C5
:10103000400CE6543F94305005750B448008750B06
:10104000668003750B697FF47E4012867C90F8926F
:1010500012EE01EF5410FFE4FEFDFCEF600312C935
:101060001090F889E0FFC394204041EF9430503C49
:10107000780812EE4E000000047F307E5C12867C01
:1010800012DB15802790F889E0FFC39420401DEF04
:10109000943050187F107E5C12866F12D867E50B73
:1010A00030E3097BFF7A9C794712D9C690F99CE01E
:1010B0007002A3E0703F90F9A404F07F0412D7AD52
:1010C00012C39A90F826E0B4010312CA2A7890124B
:1010D000EE4E000186A0900691E030E42290F8C127
:1010E000E0B41B1B90F9E6E0701512D98E90F9E67A
:1010F0007401F0800A90F99C74FFF5F012EBED7822
:10110000A7E4F602121190F9A4E0707590F889E056
:10111000FFC39420406BEF9430506612D2D5EF603D
:10112000607F847E45128674780812EDF5EC12EB30
:101130001C787012EE367FEC7E471286747870123F
:10114000EE1DC000C001C002C003780812EDF5EC2E
:1011500012EB1CE4FBFA7980784012EA01D003D04C
:1011600002D001D00012E807787012EE36787012C3
:10117000EDF512EB5A780812EE367F847E45128622
:101180007C90F99BE0600878A7E6700312D6079080
:10119000F99BE0600878A7E6C39405400312C7B442
:1011A00090F889E0FF5430FEBE300CEF643F6007DA
:1011B00090072FE020E05A90F89212EE01EF544091
:1011C000FFE4FEFDFCFBFAF9F8C312EDBE704279B4
:1011D000AD78A706E6D397403812C7B490F89212BC
:1011E000EE01EF5440FFE4FEFDFCFBFAF9F8C312F8
:1011F000EDBE701478A9E654C06004747F56F67B87
:10120000FF7A67796312D9C6789012EE4E00018694
:10121000A07FC07EE17DE47C0090F88A12EE2AD3A4
:1012200012EDBE504190F88A12EE01E412EB1CA8B8
:1012300004A905AA06AB077FC07EE17D647C4B1242
:10124000EA01C004C005C006C007789012EDF5E4BD
:1012500012EB1CD003D002D001D00012E8F812EB40
:101260005A789012EE367BFF7A0E793D785612EE60
:10127000AD7F0112605122503C272B3657504C4015
:101280004328285E3D282C3954524A40412828EFF3
:101290005F4B58669C8854564C40387C40243344FD
:1012A00067483E38332828503C272B3657504C404F
:1012B0004328285E3D282C3954524A40412828872B
:1012C0005F4B58669C7654564C40387C40243344DF
:1012D00067483E38332828453421252F4548463273
:1012E000301C1C502E242D2D463E40302E1C1C58E8
:1012F0003124333C484844383824245537202A4088
:1013000050322A28251C1C6F47455D6167524842B0
:101310003C362E89484E666B676256483C362E87AF
:101320005F4B58666D7654564C4038696F878D8890
:10133000856256604E4038799EBC606B6D5448465D
:1013400044343083A6998A9B964248424038306C98
:101350007588BDB89C503C3C3C383066505A54535C
:101360006D5A524C403830F2B96CB1AFAC707074F9
:10137000624C40BF9A72A2AFA4887868444038FF9C
:10138000FFFFFEFCFAA0B878544840DFB9DAA2A00B
:101390009CA0806A5C4C402D31202A2831909068B6
:1013A00058341C2F4925302A3368605850341C1A91
:1013B00009192027363B3B3430241C13091C2A29E9
:1013C00039E0B05A301C1C2C24232A2B3C52525298
:1013D000523220362F301D2A3F50505024201CE915
:1013E000EAD08B856460543E3E3628E8E8BE948F90
:1013F000725C4E42503C309EB77B988F7250484092
:101400004038309292BEEFD2BA584C483D383090B6
:10141000A4BEBBA7965050403F3830867C7991855A
:1014200072505C403C3630382F1C1F233148463206
:10143000301C1C412A1E2525333E40302E1C1C47E3
:101440002D1F2627363C3C302F1C1C4D2F1F2729D3
:10145000393C3C30301C1C462D20252B3C322A2C9C
:101460002C1C1C5A2C1F232D3F322A28251C1C2CD7
:101470002C303E353C707068504038373130372C56
:10148000336058585040384A36232A2D3C493B3A5D
:101490003932285254242D2E3C47453A393228728D
:1014A000664E5A729DB08070605848AB755F81ABD4
:1014B000D6E0D0787868583B3321242C3C493C3B1B
:1014C0003A3228433522272C3C493C3B3A32284BC0
:1014D00037232A2D3C4A3B3A3932285338242D2EC3
:1014E0003C4B3B3A3932285934262E2E3C4D3A3863
:1014F0003530286030272E2E3C4E3835312C283B95
:101500003321242C3C493C3B3A3228433522272CBA
:101510003C493C3B3A32284B37232A2D3C4A3B3A44
:101520003932285338242D2E3C4B3B3A3932285936
:1015300034262E2E3C4D3A383530286030272E2E5A
:101540003C4E3835312C2843332D2E354F90807446
:101550006050404037384D5F727050484030289A94
:101560008E8D8C8A8C827662544840C6B8B1B1B0F8
:10157000B3AE887A6C584897A1A5A5A2A4A67870A6
:101580006454486B6864646472A28E80706050C951
:10159000B66C6B6A6A907850484440B5DB848381AE
:1015A00081A06050444038AE6DA09F9D9D806874BE
:1015B000544840E6DBFFFFFCFBF87884746050FF82
:1015C000FAD0CECCCCE0F696846858F8FFE1E0DDA6
:1015D000DDB0B87C5C4C4055472B2E354F504C400D
:1015E00043282863482E34384D524D3B3A2828373B
:1015F00037202D3B515028503B2828714A2D313D32
:101600005650483F3D2828744E2C39405A48483B94
:10161000402828834C2837435E484838332828918F
:10162000B38564647248402624242491A193968251
:1016300072403A30282222FDE1A09DD2D6464022B7
:101640001C1914FAFAF0ECDCD63028282018130103
:10165000C9C38000E4E1C0007270E0003938700056
:101660001C9C38000F4240012A011200E7009B0039
:10167000690046127712A712D7130713371367139F
:101680009713DF1427146F14B714FF1547158F1520
:10169000D7161F013A014500FF00A7006700400070
:1016A0004C0038000F000E000A0007E4F55CF55E00
:1016B00078A9E6543FF55D90F889E0FE5430FDBD11
:1016C0003009EE643F60047E0180027E008E5FEF91
:1016D00070030217C5900691E030E2347440257C17
:1016E000F582E43407F583E0FCE412EB267870120F
:1016F000EE36E57C25E025E02492F582E43406F51B
:101700008312EE01E412EB1C789612EE360217FDFE
:101710007BFF7A16799390F9CB12EEBF90088BE09D
:101720006015E55F701190074FE0B40205755C012C
:101730008020E4F55C801B90074FE0B40209E55F70
:101740007005755C048003755C0212D2D5EF7002DF
:10175000055CE55F602AE55DC394384006755E066A
:10176000021919E55DC394364006755E0402191925
:10177000E55DC394335003021919755E020219190D
:1017800078A9E654C0FFBF401212BCD2EF600675C4
:101790005E04021919755E02021919E55DC3942DE4
:1017A0004006755E06021919E55DC3942940067569
:1017B0005E04021919E55DC39424500302191975DA
:1017C0005E02021919900691E030E34B7435257CD6
:1017D000F582E43407F583E0FCE412EB267870121E
:1017E000EE36E57C25E025E02476F582E43407F545
:1017F0008312EE01E412EB1C789612EE36E4FBFA4B
:10180000F97841C000787012EDF5D00012EA017845
:101810009A12EE36021A52E55F60397BFF7A16792A
:101820009F90F9CB12EEBF755C0FE55DC394384015
:1018300006755E06021919E55DC394364006755EAD
:1018400004021919E55DC394335003021919755E3A
:10185000020219197BFF7A16796790F9CB12EEBF55
:1018600090088BE0601012D2D5EF6005755C09809E
:1018700013755C0C800E12D2D5EF6005755C068086
:1018800003755C0C900691E030E106055C055C8018
:101890000990074FE0B40202055CE55DC3942D405A
:1018A00005755E0A8073E55DB42C05755E08806978
:1018B000E55DB42B05755E06805FE55DC394294048
:1018C0004EE55D64297043FF7E2D7D317C0190F8EB
:1018D0008A12EE2AC312EDBE4030E55CB4062B75C9
:1018E0000B01750A007509017508007FEC7E441232
:1018F000867C7FF07E4412867C90088BE060030239
:101900001A557FB47E4612867C22755E04800AE5F5
:101910005DC394244003755E02E55E75F006A4F590
:101920005E75F002E55C90167312EE9874019325D3
:101930005E7879F6E493340018F6755EFFE4F55CA2
:1019400075F004E55C90164F12EE9812EE0D90F8CB
:101950008A12EE2AC312EDBE4005855C5E80070543
:101960005CE55CB406DAE55E6008E55EB4FF12751E
:101970005E057878E6FE08E6FFAD5E129EF3021A79
:10198000527878E6FE08E6FFAD5E129EF378961276
:10199000EDF5787012EE36789A12EDF5787412EE55
:1019A000367878E6FE08E6FFE55E14FD129EF375D4
:1019B000F004E55E90164F12EE9812EE0D78641268
:1019C000EE3675F004E55E90164B12EE9812EE0DB1
:1019D000786412EE1D12EC48E412EB1CC004C00542
:1019E000C006C007786412EE1D90F88A12EE01124C
:1019F000EC48E412EB1CD003D002D001D00012EA74
:101A000001788012EE36787012EE1DC000789612C2
:101A1000EDF5D00012E803788012EE1D12E8F87898
:101A20007012EE1D12E807789612EE36787412EEF8
:101A30001DC000789A12EDF5D00012E803788012EC
:101A4000EE1D12E8F8787412EE1D12E807789A126B
:101A5000EE361291212290F8C1E0D3940F502D90D0
:101A6000F89A12EE670061C97E90F89E12EE670F39
:101A7000281D0090F8A212EE67456C65387BFF7A4E
:101A8000FA79009008A312EEBF021B4E90F8C1E055
:101A9000FFC3941E403EEFD394275038EFC39423E6
:101AA0004075EFD39427506F90F89A12EE670000BC
:101AB000EAB790F89E12EE6703C2993890F8A21226
:101AC000EE6744756BA07BFF7AF879009008A3124B
:101AD000EEBF807A90F8C1E0FFC394184032EFD394
:101AE000941D502C90F89A12EE670001D56E90F874
:101AF0009E12EE670785327090F8A212EE6744F0EE
:101B00006BA07BFF7AF879009008A312EEBF803EAD
:101B100090F8C1E0F4602C90F89A12EE670000EBA8
:101B2000F090F89E12EE670568C2A090F8A212EE3F
:101B30006744ACFAD67BFF7AF979009008A312EEDD
:101B4000BF800B90F89612EE6700000000227FB075
:101B50007E46128674780812EDF590F8A612EE42D1
:101B600090F89A12EE0190F8A612EE2AC312EDBE7A
:101B70005003021D6290F89E12EE0190F8A612EE3C
:101B80002AD312EDBE4003021D6290F89A12EE2A8B
:101B900090F8A612EE0112EC48E412EB1C90F8A2A9
:101BA00012EE2A12EA01787012EE367F007EFF7D77
:101BB0007F7C47787012EE1D12EA9E600C400A741A
:101BC000FF90F8ADF0A3F08010787012EDF512EBF5
:101BD0005A90F8ADEEF0A3EFF090F8AF7440F075C6
:101BE000602090F8AFE0F55C7F0C12D8299008A334
:101BF00012EEB675F002E55CA4F58285F08312EC76
:101C0000037878A6F008F6E55C2401FFE433FEEFE4
:101C100025E0FFEE338F82F58312EC03787AA6F08D
:101C200008F612D8397878E6FE08E6FF90F8ADE0BD
:101C3000FCA3E0FDC39FEC9E400AD3ED787B96ECBD
:101C40001896402AC3ED9FEC9E500A90F8AFE0C36F
:101C50009560F0800790F8AFE02560F0E560D394E0
:101C6000015003021BE2E56013F560021BE290F8ED
:101C7000AFE0FFC374809FFDE49400FCE412EB210D
:101C8000E4FBFA7992783E12E8F8787012EE36901A
:101C9000F8AFE0FFC3747F9FFDE49400FCE412EB17
:101CA00021E4FBFA7992783E12E8F8787412EE3665
:101CB000787412EE1DC000787012EDF5D00012E8B5
:101CC00003C004C005C006C0077878E6FE08E6FF3A
:101CD000C390F8AEE09FFD90F8ADE09EFCE412EBFF
:101CE00021D003D002D001D00012E8F8C004C00512
:101CF000C006C007C3797BE7787996FD19E7189687
:101D0000FCE412EB21A804A905AA06AB07D007D072
:101D100006D005D00412EA01C004C005C006C00701
:101D2000787012EDF5D003D002D001D00012E80394
:101D300090F89612EE4290F8C1E0FFC39418404923
:101D4000EFD3941D5043EFB41A3F90F89612EE0172
:101D50007B9A7A597929784012E80390F89612EE26
:101D6000422290F89E12EE0190F8A612EE2AD312AB
:101D7000EDBE400B90F89612EE6700000000229036
:101D8000F89612EE6742120000227F287E461286E5
:101D900074E50A540CF55CE50B541FF55DE55C64D5
:101DA000086004E55C7008755EBC755FCC800675E4
:101DB0005E82755F93E50A30E7057560108003E485
:101DC000F560E55E2560FFE433FE7C00EF255DFFF6
:101DD000EC3EFEAB07FAE4F9F8AF5EFDFE12EC56FE
:101DE000786412EE36AF5EAB07E4FAF9F8AF5FFC49
:101DF000FDFE12EC56786812EE36E55F64936003E0
:101E0000755FBC90F80DE0F55C7F0C12D829E55C9D
:101E100090FFAD93F562E55C90FFBD93F56312D83A
:101E200039786412EE1DE56225E0FFE433FE339558
:101E3000E0FDFC12EC56786412EE36755C049008F6
:101E40008BE0600F7F587E43128674E50B30E10310
:101E5000755C02786812EE1DC000C001C002C003AC
:101E6000AF5CAB07E4FAF9F8AF63FCFDFE12EC5689
:101E7000D003D002D001D00012EC56786812EE36B2
:101E80007F847E41128674E50B30E20F786812ED94
:101E9000F5780112EDE2786812EE36786812EDF509
:101EA000E412EB1CC004C005C006C007786412ED44
:101EB000F5E412EB1CD003D002D001D00012EA01ED
:101EC000C004C005C006C00790F88A12EE01E412F3
:101ED000EB1CD003D002D001D00012E8F8C004C03F
:101EE00005C006C007AC5CE412EB26D003D002D0DC
:101EF00001D00012E8F8787012EE36E57C25E02477
:101F00008DF582E43406F583E0FEA3E0FFEE30E7D2
:101F10005730E605755C048003755C01787012EE3D
:101F20001DC000C001C002C003C3E55F955CFDE4B5
:101F30009400FCE412EB21C004C005C006C007AC4D
:101F40005FE412EB26A804A905AA06AB07D007D0C8
:101F500006D005D00412EA01D003D002D001D0008F
:101F600012E8F8787012EE36786812EDF5900804F1
:101F700012EE42786412EDF5129FFC788C12EE3668
:101F8000786412EDF5788C12EE1D12ECE178641293
:101F9000EE36786812EDF5788C12EE1D12ECE178D1
:101FA0006812EE367F9C7E41128674530B7F12A519
:101FB00061786412EDF5780812EE367FA87E411242
:101FC000867C786412EE1DC000786812EDF5D000B2
:101FD00012EC48786C12EE36786C12EDF578081237
:101FE000EE367FAC7E4112867C742A257CF582E435
:101FF0003407F583E070030220B8786812EDF5E449
:1020000012EB1CC004C005C006C007786412EDF5D1
:10201000E412EB1CD003D002D001D00012EA01C0C0
:1020200004C005C006C007742A257CF582E4340785
:10203000F583E0FCE412EB267B007A60791F78459B
:1020400012EA01E4FBFA7980783F12E807D003D066
:1020500002D001D00012E8F8787012EE36786C12D7
:10206000EDF5E412EB1C787012EE1D12E8F8C004D6
:10207000C005C006C007787012EE1DE4FFFE7D802B
:102080007C3F12E803A804A905AA06AB07D007D035
:1020900006D005D00412EA0112EB5A780812EE3687
:1020A0007FA87E4112867C786C12EDF5780812EEDE
:1020B000367FAC7E4112867C22E4FFFEFDFC900759
:1020C0004B12EE2AC312EDBE6011E4FFFEFDFC9040
:1020D000074712EE2AC312EDBE702090074712EE9A
:1020E000670000000090074B12EE670000000090B0
:1020F000F88A12EE6701312D00800C90074B12EE2A
:102100000190F88A12EE4290F87A7401F090F8711A
:102110007403F090F88E12EE670000000090F90E44
:1021200012EE670000000090F89212EE67000000C7
:10213000001226FD7F0812DE107F1112DE107F12C2
:1021400012DE10126A97E4FFFEFDFC90074712EEC4
:102150002AC312EDBE7044900766E0FEA3E0FFE4E0
:10216000FCFD780812EE367F087E4312867C9007CD
:1021700068E0FEA3E0FFE4FCFD780812EE367F0C79
:102180007E4312867C90072EE05403449CF50B7F1F
:10219000047E4312867C755C2B8003755C1BAF5CF0
:1021A00012DE107F047E43128674530B03E47E011B
:1021B000A80B088005C333CE33CED8F990F87FF052
:1021C000EE90F87EF0E4FFFE7D807C4290F85C1299
:1021D000EE2A12E80712EB5A780712EDCF90F87446
:1021E00012EE4290074712EE0190F88A12EE42E496
:1021F00090F878F0A3F090F96112EE67000000000B
:1022000090074B12EE0190F88A12EE2AD312EDBE1F
:10221000506D126A9712CB0112D1997F147E43122E
:102220008674780812EDF5788C12EE3690F961120A
:10223000EE01788C12EE1DD312EDBE402B788C127D
:10224000EDF590F96112EE427F187E4312867478A4
:102250000812EDF590F878EEF0A3EFF090F88A12FE
:10226000EE0190F84412EE4290F88A12EE0190F8D6
:102270007412EE2A12EC3B90F88A12EE42808190A2
:10228000074B12EE01EC4D4E4F70030223B590F850
:102290007EE0C313FEA3E013FF90F878E0FCA3E018
:1022A000FDD39FEC9E500302233690F87FE09DFD06
:1022B00090F87EE09CFCE412EB21C004C005C0064F
:1022C000C00790F87EE0FCA3E0FDE412EB21A80437
:1022D000A905AA06AB07D007D006D005D00412EA9C
:1022E00001C004C005C006C007E4FBFA798078414C
:1022F00090F85C12EE0112EA01D003D002D001D0B6
:102300000012E8F8C004C005C006C00790F84412E7
:10231000EE01E412EB1CD003D002D001D00012E891
:1023200003E4FBFAF9783F12E80712EB5A90F82B16
:1023300012EE420223C690F87EE0FCA3E0FDE41218
:10234000EB21C004C005C006C00790F878E0FCA3EC
:10235000E0FDE412EB21D003D002D001D00012EA5C
:1023600001C004C005C006C007E4FBFA79807841CB
:1023700090F85C12EE0112EA01D003D002D001D035
:102380000012E8F8C004C005C006C00790F8441267
:10239000EE01E412EB1CD003D002D001D00012E811
:1023A00007E4FBFAF9783F12E80712EB5A90F82B92
:1023B00012EE42801190F878E0FEA3E0FFE4FCFD0D
:1023C00090F82B12EE42E490F87AF090F871F0E574
:1023D0007C60047F0880027F04EF429C12DF2E2283
:1023E000E4F55EF55D7F207E41128674E50B30E1F9
:1023F000157FE47E45128674E50930E10912DD8817
:10240000EF7003755D017FB87E4712867485095FA2
:10241000E50930E00F7FC07E40128674E50B541052
:10242000F560800D7FE47E45128674E50A5402F55E
:1024300060E56060097FD47E44128674800312DFF9
:1024400058780812EDF5EC12EB1C90F9BE12EE2A4A
:1024500012EA01787012EE3690F85C12EE0190F8F4
:102460002F12EE42755C01E55D600D787012EDF59E
:1024700012EB0B787012EE367F5C7E40128674E5AC
:102480000B30E10B788012EE4E418000008009781D
:102490008012EE4E41000000788012EE1DC00078E0
:1024A0007012EDF5D00012EA0112EB5A90F8BC124E
:1024B000EE4290F82F12EE01788012EE1D12EA0122
:1024C00090F82F12EE42E55F30E30F7FD07E40128E
:1024D0008674E50B5410F560800D7FE47E4512860E
:1024E00074E50A5402F560E56060097FF87E4412E5
:1024F0008674800312DF58780812EDF5EC12EB1C9D
:10250000E4FBFA7980784E12EA01787012EE369088
:10251000F88A12EE01E412EB1CE4FBFAF97841129E
:10252000EA0190F83312EE42787012EDF590F8332C
:1025300012EE2A12E8F8787012EE36787012EDF585
:1025400012EB5A90F99712EE4290F8BC12EE0190FD
:10255000F99712EE2A12EC3B90F8BC12EE4290F87A
:1025600089E0FFC394004009EFD394125003022680
:102570007C7F847E45128674780812EDF5EC12EBB0
:102580001CE4FBFA7980784312EA01787012EE3687
:10259000787012EE1DC000C001C002C003E4FBFA57
:1025A0007980784B90F85C12EE0112EA01D003D0EA
:1025B00002D001D00012E8F8787012EE36E55D60C6
:1025C0000D787012EDF512EB0B787012EE3690F874
:1025D000BC12EE2AC000C001C002C003787012ED28
:1025E000F512EB5AD003D002D001D00012EC3B9090
:1025F000F8BC12EE427F3C7E47128674780812EDDA
:10260000F5E4FB7A01F9F812EEF490F99E12EE422D
:1026100090F85C12EE01787012EE3690F99E12EE90
:1026200001EC12EB1CC004C005C006C007E4FBFAB5
:102630007980784BC000787012EDF5D00012EA0175
:10264000D003D002D001D00012E8F812EB5A90F972
:102650009E12EE42E55D600F90F99E12EE0112EDC2
:102660009A90F99E12EE4290F8BC12EE0190F99EFB
:1026700012EE2A12EC3B90F8BC12EE427FD87E4458
:10268000128674E50830E3034308F0780812EDF58C
:10269000EC12EB1C90F85C12EE2A12E8F8E4FBFA5C
:1026A0007980784D12EA0112EB5A90F99E12EE42AF
:1026B000E55D600F90F99E12EE0112ED9A90F99E81
:1026C00012EE4290F8BC12EE0190F99E12EE2A1220
:1026D000EC3B90F8BC12EE4290F8BC12EE0190F97F
:1026E0000E12EE2A12EC4890F8BC12EE4290F8BCA2
:1026F00012EE0112ED9A90F8BC12EE4222E490F92B
:1027000067F090F9BA12EE670000000012D848E4B2
:10271000FB7DDF7F247E4A12DA807B387DFF7F20BD
:102720007E4A12DA8090F871E06401702C74892579
:102730007CF582E43406F583E020E21DE57C60044C
:102740007F2080027F1012CA9612DF88E57C600429
:102750007F2080027F1012F08990F89212EE01E43F
:10276000FFFEFDEC5420FC600B780812EE4E0000DA
:102770000F708009780812EE4E00000F307FC07E87
:102780004312867C7F1F12DE1012B5F412A27F1254
:10279000BD6B123A3290F967E020E13390F871E0B6
:1027A00070030229AA12DCE690F9B8E030E4E39065
:1027B000F8E412EE01EF2401FFE43EFEE43DFDE407
:1027C0003CFC90F8E412EE42E490F9B8F080C312B9
:1027D00097D112AB46789012EE4E00000014E4FD43
:1027E0007F0112A2FD12DE3A90F871E07003022917
:1027F0009112DCE690F83BE0602790F83CE0641C26
:10280000601A127B8D90F83BE0700790F9B8F002E7
:10281000299A90F9B8E030E10802299AE490F83B4F
:10282000F012745F7489257CF582E43406F583E048
:1028300030E32790F87CE075F00AA4240575F009D0
:1028400084FF25E025E090F926F0748B257CF58245
:10285000E43406F583E090F87CF01233CE90F9B8BA
:10286000E030E10302299A7F107E4A12867474894F
:10287000257CF582E43406F583E030E330850B5C9B
:1028800090F89212EE01EF5420FFE4FEFDFCFBFAFB
:10289000F9F8C312EDBE700D90F926E0F50B7F102C
:1028A0007E4A12867C90F926E55CF0800690F92637
:1028B000E50BF090F89212EE01EF5420FFEE5480F9
:1028C000FEE4FDFCFBFAF9F8C312EDBE6003022939
:1028D0008A90F89212EE01E4FFEE5401FEE4FDFC52
:1028E000EE600B787012EE4E3D0F5C298009787017
:1028F00012EE4E3CA3D70A90F88A12EE01E412EBD6
:102900001C7B007A247974784912EA01787012EEFF
:102910001D12E8F8E4FBFAF9783F12E80778701224
:10292000EE36787012EDF512EB5A90F966EFF090F2
:10293000F89212EE01E4FFFEFDEC5420FC60177BE0
:10294000407A42790F78009006C012EE0112ECE155
:1029500090F966E02FF07489257CF582E43406F561
:1029600083E030E3097F107E4A128674800690F976
:1029700026E0F50B90F966E0FF25E025E0250BF554
:102980000B7F107E4A12867C8020E490F966F080EE
:102990001990F83B7401F0127B8D90F9B8E030E1AA
:1029A0000990F871E0600302279290F871E06003EB
:1029B000122C767F207E4A128674530BC790088BA8
:1029C000E07005755C088003755C18E55C420B12CD
:1029D000A5612290F9A2E06003022BA012D5E612B5
:1029E000DC137F1512DE1090088BE0700A750B1255
:1029F0007FB47E4012867C90F889E0FFC39420402B
:102A00001FEF9430501A12DD88EF6005755C358039
:102A100003755C34AF5C12DE107F2612DE10801D61
:102A20007F2412DE1012DD88EF6005755C378003AD
:102A3000755C36AF5C12DE107F3812DE107FAC7E24
:102A400044128674780812EDF5780112EDE278648C
:102A500012EE36786412EDF5780812EE367F7C7E41
:102A60004512867C7FDC7E4612867C786412EDF50A
:102A7000780312EDCF786412EE36786412EDF578B3
:102A80000812EE367F1C7E4412867C7F487E401200
:102A90008674530B9FE50BB49F0BE4F55C755D01E9
:102AA000755E018059E50BB49E0B755C01755D0286
:102AB000755E028049E50BB49C0B755C02755D0385
:102AC000755E038039E50BB4980B755C03755D0486
:102AD000755E048029E50BB4900B755C04755D058B
:102AE000755E058019E50BB4800B755C06755D0598
:102AF000755E058009755C07755D06755E06786410
:102B000012EDF5A95CA80112EDE2780812EE367F0D
:102B10007C7E4512867C786412EDF5A95DA80112D1
:102B2000EDE2780812EE367FDC7E4612867C786411
:102B300012EDF5A95EA80112EDE2780812EE367FDB
:102B40001C7E4412867C750B1F7FC07E4012867CE3
:102B500078A9E654C06016E654C06440600F90F84F
:102B600089E06430703590F95DE020E12E1209B6FD
:102B700090F9B8E030E1097BFF7AA779B212D9C6A3
:102B800090F89212EE01E4FFEE5480FEE4FDFCEEBC
:102B900060097BFF7A4179DD12D9C67F1812DE10F9
:102BA000900742E030E10690F9A27401F07F011233
:102BB00016AB90F889E0FFC39420400AEF943050A0
:102BC00005755C278003755C25AF5C12DE1090F9FB
:102BD000A2E0601112DF587F507E4112867C7F6C2C
:102BE0007E4112867C7F0412C86278ABE4F690F8CE
:102BF00089E0FFC394204038EF9430503312D2D58F
:102C0000EF600612B42DEF600E12BCD2EF60051219
:102C1000BF758003129DE378A9E654C0FFBF401042
:102C20007F947E45128674750A0275080212A561AA
:102C300090F89212EE01EF5440FFE4FEFDFCFBFA27
:102C4000F9F8C312EDBE700312780890F95DE04404
:102C500001F078AA76FF90F9687401F0E490F9A386
:102C6000F090F9A4F078B2F690F9E6F07BFF7A4E96
:102C700079DF12D9C62290F91E12EE01787012EE99
:102C800036787012EDF5787412EE36755C01E4FF5B
:102C9000FE7D807C40787012EE1D12EA9E500D7B06
:102CA000027DFF7F587E4312DA80800BE4FB7DFDBE
:102CB0007F587E4312DA80E4FFFEFD7C4178741277
:102CC000EE1D12EA9E60244022E55CC39440501B36
:102CD000E55C25E0F55C787412EDF5E4FBFAF97833
:102CE0004012EA01787412EE3680CCAC5CE412EB50
:102CF00026C004C005C006C007787012EDF5D003E9
:102D0000D002D001D00012EA01787412EE36E4FF4E
:102D1000FE7D807C40787412EE1D12EA9E601F409A
:102D20001D7F337E337D837C40787412EE1D12EA62
:102D30009E500BE55CC313F55C7003755C01E55CAC
:102D4000D394204005750B408009C37420955C44E2
:102D5000C0F50B7F487E4012867C90074FE0B4019F
:102D60000B788012EE4E40B666668009788012EECF
:102D70004E40CB3333788012EDF5787412EE1D128D
:102D8000EA9E60074005E4F50B801C7FEC7E517DD8
:102D9000887C40787412EE1D12EA9E60074005752B
:102DA0000B408003750BC07F507E4012867CE4FF91
:102DB000FE7D807C4B787012EE1D12E8F8C004C0D6
:102DC00005C006C007AC5CE412EB26A804A905AA5E
:102DD00006AB07D007D006D005D00412EA0112EBEB
:102DE0005A780812EE36E4FFFE7D807C407870123F
:102DF000EE1D12EA9E50157808C00012EDF5E47B36
:102E000002FAF9F812EC56D00012EE367FAC7E448E
:102E100012867C780812EDF5780212EDCF786412F4
:102E2000EE367F487E40128674530B9FE50BB49FAD
:102E300005E4F55C8035E50BB49E05755C01802BDF
:102E4000E50BB49C05755C028021E50BB498057513
:102E50005C038017E50BB49005755C04800DE50BF1
:102E6000B48005755C058003755C06786412EDF529
:102E7000A95CA80112EDE2780812EE367F7C7E454F
:102E800012867C7FDC7E4612867C7F1C7E44128606
:102E90007C12DF587FD87E4412867C787012EE1D3B
:102EA000E4FFFEFD7C4512EA01E4FBFAF9783F12EB
:102EB000E80712EB5A786412EE36786412EDF5EFFB
:102EC000EE543FFEE4FDFC781012EDE2780812EEBD
:102ED000367F747E4512867C7F487E40128674E57C
:102EE0000BB41005750B08800CE50B7005750B18FD
:102EF0008003E4F50B7F4C7E4012867C2275CF0B5D
:102F00007F907E11128674780812EDF5789C12EE8F
:102F1000367F8C7E1112867C789C12EDF5E4FFEEF4
:102F200054C0FEED4C4E60757FB47E11128674E580
:102F30000B30E0617F7C7E10128674E50B20E0553B
:102F400012DF58750B017FB07E1112867C789C12BF
:102F5000EDF5780812EE36789C12EDF5E4FFEE54AC
:102F600040FEE4FDFCEE6035780812EE4E000040B5
:102F7000007F907E1112867C129A19E4FF12D5818F
:102F8000789CC00012EDF5EFEE54BFFEEDECD000E2
:102F900012EE36800812DC8075CF0B808B789C1285
:102FA000EDF5E4FFFEED5401FDE4FCED6030780842
:102FB00012EE4E000100007F907E1112867C788117
:102FC000E630E10478AD760112F9B4789CC00012C5
:102FD000EDF5EFEEED54FEFDECD00012EE36789CF0
:102FE00012EDF5E4FFEE5480FEE4FDFCEE601712F6
:102FF000FA00789CC00012EDF5EFEE547FFEE4FD80
:10300000FCD00012EE36789C12EDF5EC4D4E4F7070
:103010000302317112F0BF75E404789C12EDF5786B
:103020001812EDCF8FD3789C12EDF5781012EDCFFA
:103030008FD4789C12EDF5780812EDCF8FD5789C5F
:1030400012EDF5EFE48FD685E35C12F0CCE55C7011
:103050000302317112F0BF855CE575E4027864A665
:10306000DB08A6DC08A6DD08A6DE12F0CC789CC042
:103070000012EDF5C004C005C006C007786412ED6B
:10308000F512ED8DA804A905AA06AB07D007D00656
:10309000D005D00412ED73D00012EE36155CE55C5D
:1030A000D394135017E55C640F6011786412EDF54A
:1030B000780812EE367F907E1112867CE55C12EE67
:1030C000C8311B0231430B31480C314D0D31161103
:1030D00030F21531201630ED1930E81C30E31D00B8
:1030E00000315212CF3E807B12DBE7807612A100C6
:1030F000807178A974FB56F612F91512FBB678A9FF
:10310000E630E45F54EFF67FC07E10128674430908
:103110000212A561804D12F9F6804812F91580431C
:103120007FE87E10128674E50B30E237780812EEE5
:103130004E000001207F007E1112867CE4FF12D534
:1031400081802012C49E801B12C8288016127189AB
:103150008011786412EDF5780812EE367F907E11BA
:1031600012867C789C12EDF5EC4D4E4F60030230D8
:103170001412D2392290F889E0FFC39420400EEF58
:103180009430500912D2D5EF60030233CDE4F55DDF
:103190007FF87E44128674780812EDF590F8481294
:1031A000EE4290F8C1E0F55CE55CC3941E4030E56A
:1031B0005CD39427502990F98B12EE6700008000B1
:1031C00090F83712EE67000000B57FE47E45128666
:1031D00074E50920E103023277755D01023277E57B
:1031E0005CC3941B401690F98B12EE670000400000
:1031F00090F83712EE6700000080807BE55CC39496
:1032000012401DE55CD39417501690F98B12EE67AF
:103210000000200090F83712EE670000005B805736
:10322000E55CD3940F503C90F889E0FFC3940A40CA
:103230001CEFD39412501690F98B12EE6700040025
:103240000090F83712EE6700000200802A90F98B98
:1032500012EE670000400090F83712EE67000000A1
:1032600080801490F98B12EE670001000090F8370F
:1032700012EE670000010090F82712EE2AC000C08D
:1032800001C002C00390F98B12EE2A90F84812EEAA
:103290000112EEF4D003D002D001D00012EC3B902A
:1032A000F82712EE4290F83712EE2A90F84812EE04
:1032B0000112EEF490F82712EE2A12EC3B90F83748
:1032C00012EE427FD47E44128674780812EDF5EC3B
:1032D00012EB1C787012EE3690F83712EE01EC12F9
:1032E000EB1C90F83312EE2A12E8F890F82F12EE49
:1032F0002A12EA01788012EE36E55CC3941E500370
:10330000023380E55CD394275076E55D60497F3CCD
:103310007E41128674E50B30E414787012EDF57876
:103320008012EE1D12E803787012EE36801278706B
:1033300012EDF5788012EE1D12E807787012EE3665
:1033400090F84812EE0190F83712EE2A12EC4890ED
:10335000F84812EE428050787012EDF5788012EE47
:103360001D12E807787012EE3690F84812EE0190C0
:10337000F83712EE2A12EC3B90F84812EE42802702
:10338000787012EDF5788012EE1D12E80778701251
:10339000EE3690F84812EE0190F83712EE2A12EC51
:1033A0004890F84812EE4290F84812EE0178081260
:1033B000EE367FF87E4412867C787012EDF512EBC3
:1033C0005A780812EE367FD47E4412867C2290F81A
:1033D0007CE090F842F07F1912DE1012DBB990F910
:1033E000B8E030E1030235F190F842E0C3943F4089
:1033F00006750BFC0235E27F807E8D7D5B7C009044
:10340000F88A12EE2AC312EDBE500E90F842E0FF89
:1034100025E025E0F50B0235E290F842E075F00377
:10342000A4AEF07802CEA2E713CE13D8F8FF12C1F3
:10343000BB750BFC7F107E4A12867C12DC8012B9B1
:1034400053786412EDF5E412EB1C7BE17AC9797EC6
:10345000784012EA01E4FBFAF9783F12E80712EB30
:103460005A78AE12EE3690F842E0FF12C1BB78B245
:1034700012EE4E7FFFFFFF90F842E0FF90F841F020
:1034800090F840F025E025E0F50B7F107E4A12868B
:103490007C12DC8012B95378AE12EDF5786412EE2E
:1034A0001DC312EDBE500890F8437401F0800690E1
:1034B000F84374FFF078AE12EE1DC000786412ED90
:1034C000F5D00012EC4812F02778B212EE3690F8E0
:1034D00043E0FF90F841E02FF0E0FFC39401500378
:1034E00002356EEFD3943F400302356E90F841E011
:1034F000FF25E025E0F50B7F107E4A12867C12DC6A
:103500008012B95378AE12EE1DC000786412EDF54A
:10351000D00012EC4812F027786812EE3678B2121A
:10352000EDF5786812EE1DC312EDBE5012786812E8
:10353000EDF578B212EE3690F841E090F840F09058
:10354000F843E0B4011578AE12EDF5786412EE1D83
:10355000D312EDBE50030234CE801378AE12EDF5D7
:10356000786412EE1DC312EDBE40030234CE74899E
:10357000257CF582E43406F583E0547FF090F84230
:10358000E075F00AA4FFAEF0E4FCFD7B09FAF9F85F
:1035900012ECE190F842EFF090F840E0FED39F404B
:1035A0000B90F842E0FFEE9FF55C800D90F840E054
:1035B000FF90F842E0C39FF55CE55CD394074017A9
:1035C00090F842E090F840F07489257CF582E4346C
:1035D00006F583E04480F090F840E0FF25E025E028
:1035E000F50B7F107E4A12867C7F1A12DE1012DAEB
:1035F0004C22E4F5607FE47E47128674E50A540BA2
:1036000064036024AF600560EFC394235011789089
:1036100012EE4E000003E8E4FDFF12A2FD80D67B0F
:10362000FF7A67796312D9C67F347E471286747831
:103630000812EDF5EF64C9FFEE6483FEED649DFDB5
:10364000EC6471FC90F8C212EE427F307E47128625
:1036500074780812EDF5EF64FAFFEE642DFEED6468
:1036600042FDEC6453FC90F8C612EE4212DF58752E
:10367000081A7FE87E4712867C90F85812EE678021
:1036800000000090F88012EE6700000000756102F3
:10369000786412EE4E0000000090F85412EE67803D
:1036A000000000756020E560606B7FE47E47128655
:1036B00074E56030E02679097808E6FFD3E7648096
:1036C000F8EF6480984039786412EDF590F8541260
:1036D000EE2A12ED80786412EE3680247809E6F442
:1036E000047908C36480F8E7648098501378641202
:1036F000EDF590F85412EE2A12ED80786412EE3651
:10370000156090F85412EE01780112EDCF90F85444
:1037100012EE428091E561B4020D90F8C212EE0102
:10372000786812EE36800B90F8C612EE01786812B7
:10373000EE3612DE0290F85412EE67800000009020
:10374000F85412EE01EC4D4E4F607090F88012EE7E
:1037500001C004C005C006C007786412EDF590F8FA
:103760005412EE2A12ED73EC4D4E4F601090F85843
:1037700012EE01AB07AA06A905A8048009E4FFFE22
:10378000FDFCFBFAF9F8D007D006D005D00412ED05
:103790008090F88012EE4290F85812EE01780112F3
:1037A000EDCF90F85812EE4290F85412EE017802E4
:1037B00012EDCF90F85412EE42808412DCE61561CF
:1037C000E561600302369012736F8F5CE55CC31392
:1037D000F55C78A974C056F6E55CC3940450030206
:1037E000361FE55CD39411400302361F74C056F6B1
:1037F0004480F6E55C241D46F6E55C240C90F960F7
:10380000F0789E76000876017BFF7A2979D312D969
:10381000C622900742E030E103023A3190F9BA1231
:10382000EE01EC4D4E4F7003023A3190F8BC12EEAF
:103830000112F027786C12EE36E47F107E27FDFC33
:10384000786C12EE1DC312EDBE4003023A317F08C0
:103850007E4B128674780812EDF5780812EDCF9041
:10386000F92F12EE4290F92F12EE01788C12EE36FB
:1038700012C9BB786412EDF590F99312EE4290F9FB
:103880002F12EE670000000112C9BBE4F560F5617C
:10389000786C12EDF5EF2498FFEE343AFEE43DFD2E
:1038A000E43CFC786C12EE36E4FFFEFDFC90F8BCC4
:1038B00012EE2AD312EDA84015786C12EDF590F9AE
:1038C0009312EE2A12EC3B786C12EE368013786C71
:1038D00012EE1D90F99312EE0112EC48786C12EE84
:1038E000367F207E41128674E50B30E1147560014D
:1038F0007FE47E45128674E50930E12A7561018016
:10390000257F5C7E40128674E50B30E105755C0412
:103910008003755C03786412EDF5A95CA80112EDD3
:10392000E2786412EE36786412EDF5E412EB1C9046
:10393000F9BE12EE2A12E8F812EB5A90F84812EE8D
:1039400042E560601590F84812EE01E47B04FAF954
:10395000F812EC5690F84812EE4290F8BC12EE01C4
:10396000EC33500F90F84812EE0112ED9A90F8489F
:1039700012EE42E561600F90F84812EE0112ED9AE6
:1039800090F84812EE42786C12EDF512BE9890F95C
:103990002F12EE01786812EE36788C12EDF5786809
:1039A00012EE1DD312EDBE4019788C12EDF5EF2406
:1039B00001FFE43EFEE43DFDE43CFC788C12EE3673
:1039C000802A788C12EDF5786812EE1DC312EDBED8
:1039D000505F788C12EDF5EF24FFFFEE34FFFEED23
:1039E00034FFFDEC34FFFC788C12EE36788C12ED4F
:1039F000F5780812EDE2780812EE367F087E4B1259
:103A0000867CE56060097F847E4512867480077F2E
:103A1000D47E441286747808C00012EDF590F84800
:103A200012EE2A12EC3BD00012EE3612A5610239DA
:103A3000992290F8B012EE0190F8CA12EE4290F975
:103A4000B8E020E22490F9B5E0FB7DC37F487E4AD0
:103A500012DA8090F9B6E0FB7DF07F4C7E4A12DAF4
:103A60008090F9B974FEF0800A90F9B8E020E30381
:103A7000023B237F1D12DE109006ADE0FB7DE07F50
:103A8000347E4A12DA807B207DC07F307E4A12DA93
:103A90008078B6760512DCE612D0C87F747E4A12B2
:103AA0008674E50B5404F55C7F307E4A128674E51B
:103AB0005C601578B6E6FF7401A807088002C3337E
:103AC000D8FCF4520B12A56178B6E6601A16E6FF30
:103AD0007401A807088002C333D8FCFB7DFF7F3048
:103AE0007E4A12DA8080B112DCE612D0C890F83C2F
:103AF000E0B41C0512B855800312BEE390F967E0EC
:103B0000FF20E003023C32EF30E10E90F9B8E054C0
:103B1000FDF04404F012DE3A2290F9B8E030E403FC
:103B2000023C327F247E4A128674E50B541C641CCE
:103B3000600C90F83C741CF012DDD6023C2090F929
:103B4000B8E0FF30E30654F7F0023A457B0F7DFF03
:103B50007F4C7E4A12DA8090F8B012EE017864123F
:103B6000EE367FC07E3C7DDE7C10786412EE1DD385
:103B700012EDBE40137F007E847DD77C17786412DF
:103B8000EE1DD312EDBE404C7F407E377DAD7C21D3
:103B9000786412EE1DD312EDBE40137F007E087DC7
:103BA000AF7C2F786412EE1DD312EDBE40267F80CD
:103BB0007E6E7D5A7C43786412EE1DD312EDBE40BA
:103BC0001E7F007E107D5E7C5F786412EE1DD31236
:103BD000EDBE500B90F9B9E030E719E4F0801B908E
:103BE000F9B9E0B4FE0E90F9B5E0F55C90F9B9745E
:103BF000FFF0802190F9B9E004F090F9B9E0FF25D9
:103C0000E025E0F55CD3943C400B740FF090F9B8DC
:103C1000E04410F022AB5C7DC37F487E4A12DA801C
:103C20007489257CF582E43406F583E020E0030204
:103C30003A73227B407A42790F780090F88A12EE2C
:103C40000112ECE18F5DE4F55CE55DC3941B50026D
:103C5000055CE55DC394175002055CE55DC39411F6
:103C60005002055CE55DC3940C5002055CE55DC344
:103C700094045002055CE55DC394025002055CE5C6
:103C80005CC454F0F55C7F0912DD98787DA60608C7
:103C9000A607E55C26F618E436F67F0C12D8297ED6
:103CA000097F00787DE6FC08E6FD7B1012DD4212FC
:103CB000D839787012EE4E48800000900900E0FC80
:103CC000A3E0FDE412EB21787012EE1D12EA01C0B0
:103CD00004C005C006C00790F88A12EE01E412EB9A
:103CE0001CD003D002D001D00012E8F878B312EE55
:103CF00036900902E0FCA3E0FDE412EB21E4FBFABC
:103D0000F9784012EA0190F93712EE42900904E086
:103D1000FCA3E0FDE412EB21787012EE1D12EA0123
:103D2000C004C005C006C00790F88A12EE01E41274
:103D3000EB1CD003D002D001D00012E8F878B71203
:103D4000EE36900906E0FCA3E0FDE412EB21E4FB73
:103D5000FAF9784012EA0190F93B12EE4290090814
:103D6000E0FCA3E0FDE412EB21787012EE1D12EAF4
:103D700001C004C005C006C00790F88A12EE01E435
:103D800012EB1CD003D002D001D00012E8F878AFBB
:103D900012EE3690090AE0FCA3E0FDE412EB21E408
:103DA000FBFAF9784012EA0190F94712EE429009C5
:103DB0000CE0FCA3E0FDE412EB21787012EE1D1282
:103DC000EA01C004C005C006C00790F88A12EE01DF
:103DD000E412EB1CD003D002D001D00012E8F8901E
:103DE000F93F12EE4290090EE0FCA3E0FDE412EB75
:103DF00021787012EE1D12EA01C004C005C006C091
:103E00000790F88A12EE01E412EB1CD003D002D026
:103E100001D00012E8F890F94312EE42227F007EB2
:103E200042128674430B0112A561E50B54FE78998A
:103E3000F6789BE4F67896E67003023EBB78AC74A5
:103E4000EF56F6749E257CF582E43406F583E0FF98
:103E500030E50B789974F756F64404F68025EF3078
:103E6000E70E78AC741046F67899740C46F6801319
:103E7000789974FB56F690FA00E030E10678AC745D
:103E80001046F67896E6D394105005E6F55D80036B
:103E9000755D107F387E4212866FE4F55CE55CC389
:103EA000955D5032789BE6062400F582E434FAF5FD
:103EB00083E0F50B12A561055C80E2749E257CF51C
:103EC00082E43406F583E020E60C78AC741046F604
:103ED0007899740C46F612A82690077EE0FCA3E0C1
:103EE000FDE412EB2190F8D412EE2A12E8F8E4FB7C
:103EF000FAF9783F12E80712EB5AEFEE540FFEE49E
:103F0000FDFC786412EE367FF47E461286747808E3
:103F1000C00012EDF5E4FFEE54F0FEEDECD000121F
:103F2000EE367808C00012EDF5786412EE1D12ED41
:103F300080D00012EE3612A5617FE87E46128674AC
:103F4000E4FFFE7D707C4290F8D412EE2A12E8F86D
:103F5000E4FBFAF9783F12E80712EB5AEFE48F5CC2
:103F6000855C0812A5617FF07E46128674855C0828
:103F700012A5617FE47E461286749006ABE0FCE4F5
:103F800012EB26E4FBFA797A784412E8F890F8D438
:103F900012EE2A12E8F8E4FBFAF9783F12E8071269
:103FA000EB5A7808A60608A60712A561750B0478D7
:103FB00096E6D394104003430B087F847E4212861A
:103FC0007C7899E64402F50B7F007E4212867C7F66
:103FD000847E42128674E50B30E30312B1E27F283F
:103FE0007E47128674E50854037006E50854E070B5
:103FF00003125F0C7F847E42128674E50B20E2F18F
:1040000012DC8080CA2212BCD2EF602D786412EEDE
:104010004E0000546090F8C1E0FBD3941A5005752F
:104020005C018003755C02786812EE4E000001F8B6
:10403000EB24E8255CF55D801A786412EE4E0000F2
:104040007E90786812EE4E0000031890F8C1E024CC
:10405000F0F55D7F0C12D82975F002E55D90FFDD6B
:1040600012EE98E493FE74019378A3A60608F61264
:10407000D83912D2D5EF6012786412EDF578681253
:10408000EE1D12EC3B786412EE367866E6FE08E62A
:10409000245AFFE43E78A5F608A60779A3E7FE09AF
:1040A000E77803CEC313CE13D8F9FFE4FCFD78689C
:1040B00012EE36786812EDF5780812EE367FA87E9B
:1040C0004112867C78A5E6FE08E6FFE4FCFD780157
:1040D00012EDCF786412EE36786412EDF57868123E
:1040E000EE1D12EC48786412EE36786412EDF57825
:1040F0000812EE367FAC7E4112867C742A257CF550
:1041000082E43407F583E070030241DC786812ED45
:10411000F5786412EE1D12EC3BE412EB1CC004C0F7
:1041200005C006C007786812EDF5E412EB1CD00359
:10413000D002D001D00012EA01787012EE36787009
:1041400012EE1DC000C001C002C003742A257CF518
:1041500082E43407F583E0FCE412EB267B007A600E
:10416000791F784512EA01E4FBFA7980783F12E87A
:1041700007D003D002D001D00012E8F8787012EE18
:1041800036786412EDF5E412EB1C787012EE1D1215
:10419000E8F8C004C005C006C007787012EE1DE440
:1041A000FFFE7D807C3F12E803A804A905AA06ABA8
:1041B00007D007D006D005D00412EA0112EB5A78D6
:1041C0000812EE367FA87E4112867C786412EDF5E7
:1041D000780812EE367FAC7E4112867C227FAC7E60
:1041E00044128674780812EDF590F92712EE4278A1
:1041F00095E4F6E47B907A01F9F890F88A12EE01E2
:1042000012ECE1E412EB1C789612EE36789A12EE7C
:104210004E4080000012B04C90F92712EE01780950
:1042200012EDCF786412EE367895E6700D78641250
:10423000EDF512ED9A786412EE36786412EDF59091
:10424000F92712EE2A12EC3B780812EE367FAC7E8C
:104250004412867C7B017DFF7FA47E4012DA8012AF
:10426000DF587FA87E4412867C126A97789012EEFF
:104270004E000493E0E4FDFF12A2FD126A97E47B76
:10428000407A06F9F890F88A12EE0112ECE1E41295
:10429000EB1C789612EE36789A12EE4E4130000002
:1042A00012B04C787412EE4E000000007560207F52
:1042B000A87E44128674787412EE1DC000C001C03E
:1042C00002C003780812EDF5EC12EB1CE4FBFAF9DE
:1042D000784212EA01D003D002D001D00012E807E0
:1042E000787412EE3612DC80D560C47895E6602BC7
:1042F000E4FFFEFDFC787412EE1D12EA9E600D4094
:104300000B787412EE4E000000008027787412EDD6
:10431000F512EB0B787412EE368018E4FFFEFDFC0C
:10432000787412EE1D12EA9E5009787412EE4E0057
:10433000000000787412EDF512EB5A786412EE3634
:1043400090F92712EE01780812EE367FAC7E441207
:10435000867C12DF587FA87E4412867C7FD87E44FC
:1043600012867CE4FFFE7D02FC786412EE1DD312FF
:10437000EDBE401D7895E660117433257CF582E42E
:104380003407F583E04401F0800778957601024117
:10439000F37433257CF582E43407F583E054BFF0F1
:1043A00012DF2E22755FFF7560FB7561F490F8AA2D
:1043B000E0603B14602924FE601214601A2402702D
:1043C00026535FFE53607F4361808022535FFE432C
:1043D000608053617F8017535FFD5360BF800F5330
:1043E0005FFB5361BF800790F819E04410F090F82C
:1043F000ABE0603B14602924FE601214601A2402B2
:104400007026535FF753607F4361808022535FF7CC
:1044100043608053617F8017535FEF5360BF800F0D
:10442000535FDF5361BF800790F819E04410F090AC
:10443000F8ACE0603024FD601214601A2402701E93
:10444000535F7F53607F436180801A535F7F436077
:104450008053617F800F535FBF5360BF800790F828
:1044600019E04410F090F819E054F0600302455C44
:10447000AD607F09120016AD617F0B120016AD5FB3
:104480007F0C1200167F1712DB5D8F62E55FB4FFB1
:104490000543624080035362BFAD627F171200166E
:1044A0007F1812DB5D8F62E55F5489FFBF8905438A
:1044B000624880035362B7E55F5452FFBF52054321
:1044C00062A0800353625FAD627F181200167F0DF9
:1044D00012DB5D8F637F1E12DB5D8F62900687E0CB
:1044E00030E015E56054C04403F560E563541F44B3
:1044F00040F56353628F8018E56054C0443CF5601A
:10450000E563541F44C0F563E562548F4430F5629F
:10451000AD607F09120016AD637F0D120016AD620B
:104520007F1E1200167DC97F191200167D907F1A1A
:10453000120016900687E0540624FC6009240470DB
:104540000A755F428008755F828003755F02AD5F08
:104550007F0E120016AD5F7F10120016227F1D1213
:10456000F146805F12BB45EF6059E5105511604779
:10457000E50FC454F0450F4488F5CEE50F6407609D
:104580000DE50F5401F57C044408F5CF8006E4F5F1
:104590007C75CF0B7581C0E510F45211E510421205
:1045A000E50F75F003A4246AF582E43408F583125C
:1045B000EEB612EEEE800CE50F25E025E0242AFF92
:1045C00012F12175E404850ED685E35DE55D700387
:1045D000024704F5E575E40285DE5CAF5C12F0AAE3
:1045E000E55C30E6107BFF7A2E79FD7F0712D48CD4
:1045F00043138080CEE55C30E51DE4F57CE5F9549D
:1046000040FFC313FFE5FA541F4FF5591255D475F7
:10461000F41F75F34080ACE55C30E41F757C01E568
:10462000F95480FF1313543FFFE5F9541F4FF55918
:104630001255D475F59FE4F5F68088E55C30E30EFD
:104640007BFF7A0479C27F0112D48C0245C3E55CFA
:1046500030E26B90089112EEB6EA494B605A90082E
:104660009412EE01EC4D4E4F604E90089412EE0104
:10467000EF24FFFFEE34FFFEED34FFFDEC34FFFCD2
:1046800090089412EE42E4FFFEFDFC90089412EEB6
:104690002AC312EDBE60030245C390089112EEB624
:1046A00012EEEE90089412EE01EC4D4E4F600302B4
:1046B00045C31200460245C31200460245C3E55CED
:1046C000540370030245C3900882E0455CF0540334
:1046D000640360030245C343B204900889F0900864
:1046E00082F0439A20439C8090089412EE67000069
:1046F00000017BFF7A6F799A90089112EEBF12DE6B
:104700008B0245C3E54A700302456412AC2302459F
:10471000642212754D121A56E4FFFE7D807C44908F
:10472000F89612EE2A12E8F812EB5A7878A60608E4
:10473000A607E4FFFEFDFC90F81A12EE2A12EA9E8C
:10474000701B90F89612EE0190F81A12EE4290F853
:104750009612EE0190F81E12EE420248AC90072627
:10476000E0FCA3E0FDE412EB21A804A905AA06AB36
:1047700007E4FFFE7D807C3F12EA01787012EE367E
:10478000787012EE1DE4FFFE7D807C3F12E80390FE
:10479000F81A12EE2A12E8F8C004C005C006C007D5
:1047A00090F89612EE01787012EE1D12E8F8D00320
:1047B000D002D001D00012E80790F81A12EE429011
:1047C000F81E12EE0190F89612EE2A12EA9E601080
:1047D000400E90F89612EE0190F81E12EE428055AF
:1047E00090F81E12EE01C004C005C006C007900775
:1047F00026E0FCA3E0FDE412EB21C004C005C006E6
:10480000C00790F81A12EE2A90F81E12EE0112E874
:1048100003D003D002D001D00012EA01A804A905F8
:10482000AA06AB07D007D006D005D00412E8039043
:10483000F81E12EE42900725E0FC75F080A4787A0D
:10484000A6F008F6E412EB26E4FBFAF9784112EA46
:1048500001787412EE36787412EE1D90F81E12EE86
:104860000112E80390F89612EE2A12EA9E502E7476
:104870002C257CF582E43407F583E0FF20E00DE58C
:104880007C60047E1080027E01EE429E742C257CAA
:10489000F582E43407F583EF4401F0800F742C2592
:1048A0007CF582E43407F583E054FEF0124BD82205
:1048B000789012EE4E00004E207F887E4212867461
:1048C000E50B30E20302497578A0E4F608F67F02B2
:1048D00012D7AD90F99CE07002A3E0704990F9A462
:1048E000E0701490F89212EE01EF5410FFE4FEFD18
:1048F000FCEF600312C91090F9A47401F07F041258
:10490000D7AD90F826E0B4010312CA2A78A3E4F6E2
:1049100008F690F99BE0700912C24690F99B740169
:10492000F012C39A800A90F99C74FFF5F012EBED37
:10493000799EC309E7941E19E794005023789E08D6
:1049400006E618700106799E09E7641E19476003A0
:10495000024A36750B0A7FC87E4012867C024A36B0
:1049600090F9A4E07003024A36789012EE4E001ED1
:104970008480024A3679A0D309E7940219E79400AB
:10498000400312C7B4750B4A7FC87E4012867C90E4
:10499000F99BE0FF602979A009E71947702190F998
:1049A0009C75F01412EBEDD390F99DE0942C90F9E6
:1049B0009CE0940140337401F0A3742CF0802AEF42
:1049C0007011799E09E71947600990F99CE4F0A3FA
:1049D0007405F078A30806E61870010679A3D309D8
:1049E000E7946419E794005021789EE4F608F69065
:1049F000F9A4F079A0C309E7942819E79400500AB4
:104A0000080806E618700106802290F89212EE015E
:104A1000EF5440FFE4FEFDFCFBFAF9F8C312EDBED3
:104A2000700A7BFF7A93799F12D9C622750B0C7F8F
:104A3000887E4212867C7BFF7A4879B0785612EEE7
:104A4000ADE4FF12605122E57C600C900886E030F6
:104A5000E1117893761422900886E030E00578938F
:104A60007614227F1112F3FDEF7003024BD790F8FA
:104A70008512EE01786412EE367EF87F857D111284
:104A8000C10590F889E0543FF090F89212EE01E4ED
:104A9000FFFEFDEC54C0FCE4FBFAF978C0C312ED54
:104AA000BE7003024BD790F8E412EE6700000000DE
:104AB00012CEB390F87374FFF0E490F9B8F012C717
:104AC000B490F89212EE01E4FFFEFDEC5440FC605D
:104AD0000B786412EDF590F88512EE42E57C6004E7
:104AE0007F0580027F047897EFF612AEA890F9C296
:104AF000E0600312C35790F87A74FFF0E490F99BDA
:104B0000F0900743F090F89212EE01E4FFEE54802B
:104B1000FEE4FDFCEE6005755CC08003E4F55C74AA
:104B200033257CF582E43407F583E55CF012C24658
:104B300012DF5890074FE0B40105750B1080037524
:104B40000B307F5C7E4012867C90F89212EE01E47E
:104B5000FFFEFDEC5440FCE4FBFAF9F8C312EDBE95
:104B6000700D7BFF7A987966785612EEAD805C9076
:104B7000F889E0FFC394204012EF9430500D7BFF82
:104B80007A8C7998785612EEAD8040EFC39400404D
:104B900013EFD39412500D7BFF7AD6798B7856128F
:104BA000EEAD8027EF5430FFBF301590F889E064F8
:104BB0003F600D7BFF7AB17918785612EEAD800B0D
:104BC0007BFF7AD27911785612EEAD7897E6FF78AE
:104BD0005612EEA412D48C2290F8C1E0FFC3941EAA
:104BE0004024EFD39427501EEF24E2FFE434FFFE6D
:104BF000EF7802C333CE33CED8F924947879F6EE29
:104C0000340718F6804F90F8C1E0FFD39404501396
:104C1000EF75F004A4AEF024807879F6EE3407182E
:104C2000F6803290F8C1E0FFC394105003024D6546
:104C3000EFD3941D4003024D65EF24F0FFE434FFF1
:104C4000FEEF7802C333CE33CED8F924BC7879F6A0
:104C5000EE340718F67878E6FE08E6FF2402FDE455
:104C60003EFC787AF608EDF68F828E83E0FEA3E0B4
:104C70007878A60608F68D828C83E0FEA3E0787A29
:104C8000A60608F67878E6FC08E6FDE57C25E02433
:104C900072F582E43407F583ECF0A3EDF0E412EB57
:104CA00021E4FBFAF9784512EA01787012EE3678C1
:104CB0007AE6FC08E6FDE412EB21E4FBFAF978451C
:104CC00012EA01787412EE36787012EDF590F896CB
:104CD00012EE2A12EA9E6002502E742C257CF58278
:104CE000E43407F583E0FF20E30DE57C60047E807B
:104CF00080027E08EE429E742C257CF582E4340707
:104D0000F583EF4408F0800F742C257CF582E434A1
:104D100007F583E054F7F0787412EDF590F89612E9
:104D2000EE2A12EA9E6002502D742C257CF582E456
:104D30003407F583E0FF20E20DE57C60047E4080CF
:104D4000027E04EE429E742C257CF582E43407F545
:104D500083EF4404F022742C257CF582E43407F5BB
:104D600083E054FBF02290F889E0D3940950057554
:104D70005D0E8003755D0FAF5D12DE1090F889E067
:104D8000F55C7F0C12D829E55C90FF8A93F50B1235
:104D9000D839E4F55D90F889E0FBC3940A40369079
:104DA000F89212EE01E4FFFEFDEC5408FC6023755E
:104DB0005D0490F89212EE01E4FFFEFDEC5410FC4D
:104DC0006008430BA0530BBF800B430B80530B9F1A
:104DD0008003430BE0EBC3940A402190F889E094F0
:104DE0000A403390F89212EE01E4FFFEFDEC540805
:104DF000FCE4FBFAF9F8C312EDBE701A530B9F9056
:104E0000F89212EE01E4FFEE5406FEE4FDFC780495
:104E100012EDCFEF420B7F807E4112867C90F8929C
:104E200012EE01E4FFFEFDEC5420FC60197B027DD4
:104E3000FF7FF87E4012DA807B107DFF7FCC7E40C2
:104E400012DA80435D02855D0B7F847E4112867C91
:104E5000430B4012A561530BBF12A56112DF5874BA
:104E600030257CF582E43407F583E0541FF50B9080
:104E7000F889E0FFD394055005750A52803EEFC3D0
:104E80009406400BEFD394095005750A56802D9077
:104E9000F89212EE01E4FFFEFDEC5408FC601A905B
:104EA000F89212EE01E4FFFEFDEC5410FC60057573
:104EB0000A0A8008750A4A8003750A5AE57C25E0CB
:104EC000248DF582E43406F583E0A330E1047F020B
:104ED00080027F00EF420A7F287E4612867C2212E3
:104EE0006A9778A9E654C0644070577F947E451253
:104EF0008674E50A30E14B530AFD78A8E6045403B2
:104F0000F55C700F90F87AE0B4030890F80C740127
:104F1000F0802678A874FC56F6455CF6E55C7019BE
:104F200090F8E412EE01EF2401FFE43EFEE43DFDC3
:104F3000E43CFC90F8E412EE427BFF7A677963125E
:104F4000D9C690F89212EE01EF5440FFE4FEFDFC4A
:104F5000FBFAF9F8C312EDBE70337F847E421286ED
:104F600074E50B30E52790F889E0B4301790F8121B
:104F7000E0FFC39436400DEFD3943A500790F95DAB
:104F8000E04408F07BFF7A67796312D9C612DDB876
:104F900079AA78ACE667700612DCE6024EDF78ACE0
:104FA000E624F160131460161460182411600302E3
:104FB000503012CF6B02503F12973B02503F12D736
:104FC0002E807C7F0112D9E278B2E620E20312D76C
:104FD0002E78B2740846F67F0112D7AD90F889E0BA
:104FE000B4301E90F95DE04402F090F812E0FFC387
:104FF0009436400DEFD3943A500790F95DE04404A5
:10500000F078A9E654C0FFBF401B789012EE4E0026
:105010000080E87BFF7A3579F2785612EEADE4FF36
:10502000126051801A7BFF7AAB79B512D9C6800F16
:1050300078AAE6B411097BFF7A67796312D9C6783A
:10504000ACE678AAF6024EDF22AF7C7405A807080A
:105050008002C333D8FCFF900883E05FF5605403FF
:10506000F5617003025150900886E0FF55616003BE
:10507000025150E5614FF07F2F12DE10E57C600B8E
:105080007B207DFF7F247E4A12DA807F3012DE1083
:10509000900886E05403FFBF031DAF7C12F10BE4C0
:1050A000F57C7B207DFF7F247E4A12DA807F3112DF
:1050B000DE1012F1168F7C7B017DFF7F5C7E40123B
:1050C000DA807FD47E41128674780A760108761FD2
:1050D00012A5617B047DFF7FD07E4112DA80AF7C18
:1050E0007405A807088002C333D8FCFF900886E047
:1050F0005FF56112D147EF702AE560540C7006E548
:1051000061540C601E7FD87E42128674780A760144
:1051100008761F12A5617B047DFF7FD47E4212DAE0
:1051200080800B7B187DFF7FD87E4212DA807F085B
:105130007E00128674E57C60054308388003430ACC
:105140007012A561E57C600543AD03800343AD0C9F
:10515000E560540CF5616055900886E0FF5561707C
:105160004CE5614FF07B807DFF7F247E4212DA8028
:10517000AF7C7405A807088002C333D8FCFF9008F1
:1051800086E05FF56112D147EF7022E5615403605C
:105190001C7FD87E42128674780A760108761F1228
:1051A000A5617B047DFF7FD47E4212DA8012DF2E60
:1051B00022E490F8C0F012BEE390F967E0FD30E021
:1051C0000790F8C0E04404F0ED30E10790F8C0E04B
:1051D0004408F0E4F55C90F889E0FFC39420405265
:1051E000EF9430504D12DDB878ACE66411600302E4
:1051F00052D190F8C0E04401F090F871E0FF6014E3
:10520000B4042090F89212EE01EF5440FFE4FEFD4A
:10521000FCEF600F12DDA8EF70030252D1755C0144
:105220000252D190F873E070030252D1755C010212
:1052300052D190F889E0FFC394004046EFD3941216
:10524000504090F871E0FF6014B4042B90F8921273
:10525000EE01EF5440FFE4FEFDFCEF601A750B0910
:105260007F907E4212867C12A5D9E50B5409640911
:10527000705F755C01805A90F873E06054755C0152
:10528000804F12DDB878ACE66411704590F8C0E04C
:105290004401F090F871E0FF6014B4042B90F89290
:1052A00012EE01EF5440FFE4FEFDFCEF601A750BB7
:1052B000097F8C7E4212867C12A5D9E50B5409FF2A
:1052C000BF090E755C01800990F873E06003755C9E
:1052D00001E55C600790F8C0E04403F090F8C0E09E
:1052E00030E1327FD47E46128674E50830E10790C3
:1052F000F8C0E04440F090F89212EE01EF5402FF43
:10530000E4FEFDFCEF600790F8C0E030E60790F89F
:10531000C0E04480F02212698778A9E6543FF55D29
:1053200012BCD2EF60207878762A087630E55DD31B
:10533000942B5005755C018003755C02E55D24D7F4
:10534000255CF55C800D7878763F087648E55D242D
:10535000DFF55C7F0C12D82975F004E55D90FECE78
:1053600012EE9812EE0D780812EE36E55C90FFCD45
:1053700093F55EE55C90FFD593FFE4FCFDFE7B0CAE
:10538000FAF9F812EC56786812EE3612D83990F81D
:105390008A12EE01E412EB1CC004C005C006C0076F
:1053A00090F91612EE01E412EB1CD003D002D001EA
:1053B000D00012EA01C004C005C006C0077878E634
:1053C000FC08E6FDE412EB21D003D002D001D000AE
:1053D00012E8F8C004C005C006C007786812EDF5F1
:1053E000E412EB1CA804A905AA06AB07D007D00657
:1053F000D005D00412E803C004C005C006C007AF42
:105400005EE4FCFDFE786812EE1D12EC3BE412EB4C
:105410001CA804A905AA06AB07D007D006D005D062
:105420000412EA0112EB5AAD07AC06E412EB21E4D8
:10543000FBFAF9784012E8F812EB5A7878EEF608A1
:10544000EFF6D39496EE9400400618760008769610
:10545000E4F509F5087878E6FE08E6FF7808A60680
:1054600008A6071812EDF590F9A512EE427F087E06
:105470005812867C22E490F9D2F090F9DA12EE67A5
:1054800000000000900742E0FFF55CE55C20E003CF
:105490000255C9EF54FDF0E57C6007E030E40302FB
:1054A00055C9E57C700A900742E030E5030255C912
:1054B000E57C640104FF12D82990F88512EE01788A
:1054C0006412EE3690F90E12EE0178B712EE3690B5
:1054D000F9BA12EE0178BB12EE3690F8E412EE0142
:1054E000786812EE3690F871E0F55D12D83990F8D0
:1054F0008512EE2AC000786412EDF5D00012EC4857
:1055000012F0279006C012EE2AC312EDBE5003021D
:1055100055C9E55D70030255C9E57C60047F0880CC
:10552000027F808F5EE59D555E6056900742E044A5
:1055300002F0786412EDF590F88512EE4278B71219
:10554000EDF590F90E12EE4278BB12EDF590F9BA36
:1055500012EE42637C017F087E4B128674637C01ED
:10556000780812EDF590F9DA12EE42900742E0FF6A
:10557000E57C60047EDF80027EEFEF5E900742F004
:105580002290F9D2E0700F04F0786812EDF590F9EE
:10559000D612EE42801890F9D612EE2AC000786832
:1055A00012EDF5D00012EC4890F8E412EE429007AC
:1055B00042E0FFE57C60047E2080027E10EF4E908A
:1055C0000742F012DC8002548490F90E12EE67005C
:1055D00000000022857C5C12F0D775CE08855C7CCB
:1055E000E559700302572E75E4048559D685E35AB0
:1055F000855AE575E402E5DEF45259155AE55A6418
:1056000005703A7F107E5C12866F12D867850B5C3E
:10561000850A5D85095E85085F7F287E5C12866F3E
:1056200012D867E50B555CF5D6E50A555DF5D5E56D
:1056300009555EF5D4E508555FF5D38017E55A2581
:10564000E0242DF582E434DBF583E493FE740193CA
:10565000FF128674900898E5E3F0E0FF6082F5E5BC
:1056600075E40285DB0885DC0985DD0A85DE0BE54E
:105670005A640570377F307E5C12867C7F287E5CA2
:1056800012866F12D867900898E0F5E575E402E598
:10569000DBF45208E5DCF45209E5DDF4520AE5DEFC
:1056A000F4520B7F287E5C12867C8017E55A25E039
:1056B000242DF582E434DBF583E493FE740193FF3B
:1056C00012867C900898E014F012BBE7E54CF46079
:1056D00007E54B424A0255FDE55A64046003025552
:1056E000FD900898E0FFC3940A50030255FDEFD3E4
:1056F000940E40030255FDE57C60047F1080027F1C
:10570000018F5CE55B555C70030255FD900885E0F8
:10571000FFE57C04FEEF4EF0E51130E6030255FD97
:105720007BFF7AC679C87F0612D48C0255FD12F031
:10573000E2227FA47E40128674E50B5406F55C7F5E
:10574000A87E44128674780812EDF590F99E12EE48
:1057500042E55C24FE601324FE601A240470217864
:105760007012EE4E42800000801F787012EE4E43A1
:105770008000008014787012EE4E44800000800992
:10578000787012EE4E458000007F5C7E4012867479
:10579000E50B30E113787012EDF5E4FBFAF9783F90
:1057A00012E8F8787012EE3690F99E12EE01EC12C3
:1057B000EB1C787012EE1D12EA0112EB5A90F99E62
:1057C00012EE427FAC7E4412867490F99E12EE0176
:1057D000780812EE1D12EC3B90F99E12EE427F48C3
:1057E0007E4012867490F99E12EE2AE50B541FFF3C
:1057F000C374209FFFE49400FEE4FCFD12EC56907D
:10580000F99E12EE42E50B20E71590F99E12EE018B
:10581000E47B02FAF9F812EC5690F99E12EE4290EF
:10582000F99E12EE01EC12EB1CA804A905AA06AB26
:105830000790F85C12EE0112EA01E4FBFA79807835
:105840004B12E8F8787012EE367F587E4312867459
:10585000E50B30E113787012EDF5E4FBFAF97840CE
:1058600012E8F8787012EE3690F88A12EE2AC0002C
:10587000C001C002C003787012EDF512EB5AD003DC
:10588000D002D001D00012EC4890F8B812EE4222BB
:105890007FC07E42128674780812EDF5786412EEAD
:1058A000367FC47E42128674786412EDF578081251
:1058B000EE1D12EC3B786412EE367FC87E421286F3
:1058C00074786412EDF5E412EB1CC004C005C00648
:1058D000C007AC0AE412EB26A804A905AA06AB0788
:1058E000D007D006D005D00412EA01C004C005C01C
:1058F00006C00790068112EE01E412EB1CD003D023
:1059000002D001D00012E8F8C004C005C006C007EC
:10591000E50B540FFCE412EB26D003D002D001D0EB
:105920000012E8F8C004C005C006C007E50BC45467
:105930000F7C00540FFDE412EB21A804A905AA0670
:10594000AB07D007D006D005D00412EA0178701258
:10595000EE367F787E43128674E50B540FFCE4121A
:10596000EB26C004C005C006C007787012EDF5D064
:1059700003D002D001D00012EA0190F8D012EE421A
:105980007F747E43128674E50B540FFCE412EB2601
:10599000C004C005C006C007787012EDF5D003D072
:1059A00002D001D00012EA0190F85C12EE4290F8A9
:1059B0005C12EE2AE4FFFE7D807C4E12EA0190F933
:1059C000BE12EE4290F88A12EE01E412EB1CA8041B
:1059D000A905AA06AB0790F85C12EE0112EA019045
:1059E000F91E12EE422202426026047F80024240EB
:1059F000000000000242440F8C0FF60242440FF7F1
:105A00000FF80242440FF90FFB0242440FFC0FFE55
:105A1000024244000000020242440003000302422A
:105A200044000300010242440FFF0FFC0242440FF6
:105A3000F70FF20242440FED0FE70242440FE00F6E
:105A4000DA0242440FD50FD00242440FCC0FCA02F3
:105A500042440FCA0FCB0242440FCF0FD50242443B
:105A60000FDE0FE80242440FF4000202424400112C
:105A7000002002424400300040024244004F005DDA
:105A800002424400690073024244007A007F0242ED
:105A900044008000000242480000015801423431B5
:105AA00002470825100000024740FF4B008F0142CB
:105AB0002401014200010142101301420809014280
:105AC00004100142281B014214080246EC0834036A
:105AD000840246FC1770660D0246E83C210A150256
:105AE0004700080000000246F03C0334500246F82C
:105AF000060606000246E00000000002470C0F11F7
:105B0000000002471000000704024718031F41006D
:105B100002471C00410307024720004103070247D8
:105B2000141FD400100246F4012C032001420C7F04
:105B300001420C000142047300126A9790F892121D
:105B4000EE01E4FFFEFDEC5420FC7003025C1E90AD
:105B5000F9A2E06003025C1E78A5E6702008E6B4B6
:105B6000011BE4FC90F94B12EE2AD312EDA8400D74
:105B700078A712EDF512EB0B78A712EE3678A6E6B1
:105B80002401FFE433A2E713EF13F55CFCE412EB0E
:105B90002678A712EE1D12E8F812EB5A90F8481278
:105BA000EE4278A6E630E00F90F84812EE0112EDD2
:105BB0009A90F84812EE42E4FFFEFD7C3E90F94FC9
:105BC00012EE2A12E8F8C004C005C006C007AC5C9B
:105BD000E412EB26D003D002D001D00012E8F8C0C6
:105BE00004C005C006C00790F95312EE01E412EBA1
:105BF0001CA804A905AA06AB07D007D006D005D07B
:105C00000412EA9E500A7BFF7AA6795112D9C62265
:105C100090F84812EE0190F95712EE42800578A6EE
